{
  "transactions": [
    {
      "hash": "0x9d78d2136b649abbc87c3ae2ac7107a3b99e380a946bb873e3a2f537d66a7ce1",
      "transactionType": "CALL",
      "contractName": null,
      "contractAddress": "0xe6e2bd32ff1e566f6f3bbecd241ac921d0c328a4",
      "function": "transfer(address,uint256)",
      "arguments": [
        "0x3a27719ef5f46c917680eb59cCD744aaa0998Bd8",
        "5000000000000000000"
      ],
      "transaction": {
        "from": "0xe82d3b9473f0a06d6715581c336e18e949030da1",
        "to": "0xe6e2bd32ff1e566f6f3bbecd241ac921d0c328a4",
        "gas": "0x1540e",
        "value": "0x0",
        "input": "0xa9059cbb0000000000000000000000003a27719ef5f46c917680eb59ccd744aaa0998bd80000000000000000000000000000000000000000000000004563918244f40000",
        "nonce": "0x72",
        "chainId": "0x66eee"
      },
      "additionalContracts": [],
      "isFixedGasLimit": false
    },
    {
      "hash": "0x85e3f6d6edcd232256dd7d83c8d7d467192b7151163511f80e18df3b37505a94",
      "transactionType": "CALL",
      "contractName": null,
      "contractAddress": "0xe6e2bd32ff1e566f6f3bbecd241ac921d0c328a4",
      "function": "transfer(address,uint256)",
      "arguments": [
        "0x09c3B4Cd85a4D9A490c0fd6a8976D2d4e83E165b",
        "6000000000000000000"
      ],
      "transaction": {
        "from": "0x3a27719ef5f46c917680eb59ccd744aaa0998bd8",
        "to": "0xe6e2bd32ff1e566f6f3bbecd241ac921d0c328a4",
        "gas": "0x1540e",
        "value": "0x0",
        "input": "0xa9059cbb00000000000000000000000009c3b4cd85a4d9a490c0fd6a8976d2d4e83e165b00000000000000000000000000000000000000000000000053444835ec580000",
        "nonce": "0xa",
        "chainId": "0x66eee"
      },
      "additionalContracts": [],
      "isFixedGasLimit": false
    },
    {
      "hash": "0xaf1f30596532d848b4f22d2a1253af1aa1c40017091a860666711a2ffa9fc1aa",
      "transactionType": "CALL",
      "contractName": null,
      "contractAddress": "0xe6e2bd32ff1e566f6f3bbecd241ac921d0c328a4",
      "function": "transfer(address,uint256)",
      "arguments": [
        "0xF4e9e57b57D5D58834164A01a1FbD36A68daC47E",
        "9000000000000000000"
      ],
      "transaction": {
        "from": "0x09c3b4cd85a4d9a490c0fd6a8976d2d4e83e165b",
        "to": "0xe6e2bd32ff1e566f6f3bbecd241ac921d0c328a4",
        "gas": "0x1864e",
        "value": "0x0",
        "input": "0xa9059cbb000000000000000000000000f4e9e57b57d5d58834164a01a1fbd36a68dac47e0000000000000000000000000000000000000000000000007ce66c50e2840000",
        "nonce": "0x8",
        "chainId": "0x66eee"
      },
      "additionalContracts": [],
      "isFixedGasLimit": false
    },
    {
      "hash": "0x4113c6fad484ab6fe49fb43023cc533daea925496c0a4cace51828caab71beab",
      "transactionType": "CALL",
      "contractName": null,
      "contractAddress": "0xe6e2bd32ff1e566f6f3bbecd241ac921d0c328a4",
      "function": "transfer(address,uint256)",
      "arguments": [
        "0xdaC88f55d8BD5C041a02a281F4ca2F3F1cb4A0f3",
        "7000000000000000000"
      ],
      "transaction": {
        "from": "0xf4e9e57b57d5d58834164a01a1fbd36a68dac47e",
        "to": "0xe6e2bd32ff1e566f6f3bbecd241ac921d0c328a4",
        "gas": "0x1864e",
        "value": "0x0",
        "input": "0xa9059cbb000000000000000000000000dac88f55d8bd5c041a02a281f4ca2f3f1cb4a0f30000000000000000000000000000000000000000000000006124fee993bc0000",
        "nonce": "0x6",
        "chainId": "0x66eee"
      },
      "additionalContracts": [],
      "isFixedGasLimit": false
    },
    {
      "hash": "0x6df3edda814ff65eaa336f5ce1e203478ac0825f4e8ba8e55a37905dbb905fcf",
      "transactionType": "CALL",
      "contractName": null,
      "contractAddress": "0xe6e2bd32ff1e566f6f3bbecd241ac921d0c328a4",
      "function": "transfer(address,uint256)",
      "arguments": [
        "0xe82d3B9473F0A06D6715581C336E18E949030da1",
        "9000000000000000000"
      ],
      "transaction": {
        "from": "0xdac88f55d8bd5c041a02a281f4ca2f3f1cb4a0f3",
        "to": "0xe6e2bd32ff1e566f6f3bbecd241ac921d0c328a4",
        "gas": "0x16e29",
        "value": "0x0",
        "input": "0xa9059cbb000000000000000000000000e82d3b9473f0a06d6715581c336e18e949030da10000000000000000000000000000000000000000000000007ce66c50e2840000",
        "nonce": "0x7",
        "chainId": "0x66eee"
      },
      "additionalContracts": [],
      "isFixedGasLimit": false
    }
  ],
  "receipts": [
    {
      "status": "0x1",
      "cumulativeGasUsed": "0x2b5a6",
      "logs": [
        {
          "address": "0xe6e2bd32ff1e566f6f3bbecd241ac921d0c328a4",
          "topics": [
            "0xddf252ad1be2c89b69c2b068fc378daa952ba7f163c4a11628f55a4df523b3ef",
            "0x000000000000000000000000e82d3b9473f0a06d6715581c336e18e949030da1",
            "0x0000000000000000000000003a27719ef5f46c917680eb59ccd744aaa0998bd8"
          ],
          "data": "0x0000000000000000000000000000000000000000000000004563918244f40000",
          "blockHash": "0xe2d85508b05b16a383966cb96b33e246f8d2bc704536f1a2d735f9681ac0043f",
          "blockNumber": "0x5891f04",
          "transactionHash": "0x9d78d2136b649abbc87c3ae2ac7107a3b99e380a946bb873e3a2f537d66a7ce1",
          "transactionIndex": "0x2",
          "logIndex": "0x1",
          "removed": false
        },
        {
          "address": "0xe6e2bd32ff1e566f6f3bbecd241ac921d0c328a4",
          "topics": [
            "0x7e1b4577399017960fc6a1284e846e5682b112a94c7c1e28afa6dc3031324a29",
            "0x000000000000000000000000e82d3b9473f0a06d6715581c336e18e949030da1",
            "0x0000000000000000000000003a27719ef5f46c917680eb59ccd744aaa0998bd8"
          ],
          "data": "0x0000000000000000000000000000000000000000000000004563918244f400000000000000000000000000000000000000000000000000000000000000000000000000000000000000000000000000000000000000000000000000006721afa1",
          "blockHash": "0xe2d85508b05b16a383966cb96b33e246f8d2bc704536f1a2d735f9681ac0043f",
          "blockNumber": "0x5891f04",
          "transactionHash": "0x9d78d2136b649abbc87c3ae2ac7107a3b99e380a946bb873e3a2f537d66a7ce1",
          "transactionIndex": "0x2",
          "logIndex": "0x2",
          "removed": false
        }
      ],
      "logsBloom": "0x00000000000000000000000000000000080000000000000000000000000000000000000000000000000008000000000000400000000040000000000000000000000000000000000000000008000000000000000000000000000000000000000000000000040000000000000000000000000000000000000000000010000000000000000000000000000000000001001000000000000000000000000000000000000000000000000008000000000000000000000000000000000000000000008000000002000000000000000000000000000000000000000000000000000000000000000000010000000000000000000000000000010000000000040000000000",
      "type": "0x2",
      "transactionHash": "0x9d78d2136b649abbc87c3ae2ac7107a3b99e380a946bb873e3a2f537d66a7ce1",
      "transactionIndex": "0x2",
      "blockHash": "0xe2d85508b05b16a383966cb96b33e246f8d2bc704536f1a2d735f9681ac0043f",
      "blockNumber": "0x5891f04",
      "gasUsed": "0xc850",
      "effectiveGasPrice": "0x5f5e100",
      "from": "0xe82d3b9473f0a06d6715581c336e18e949030da1",
      "to": "0xe6e2bd32ff1e566f6f3bbecd241ac921d0c328a4",
      "contractAddress": null,
      "gasUsedForL1": "0x6e4",
      "l1BlockNumber": "0x6a6b1a"
    },
    {
      "status": "0x1",
      "cumulativeGasUsed": "0xc850",
      "logs": [
        {
          "address": "0xe6e2bd32ff1e566f6f3bbecd241ac921d0c328a4",
          "topics": [
            "0xddf252ad1be2c89b69c2b068fc378daa952ba7f163c4a11628f55a4df523b3ef",
            "0x0000000000000000000000003a27719ef5f46c917680eb59ccd744aaa0998bd8",
            "0x00000000000000000000000009c3b4cd85a4d9a490c0fd6a8976d2d4e83e165b"
          ],
          "data": "0x00000000000000000000000000000000000000000000000053444835ec580000",
          "blockHash": "0x24cd13b721f8e61983b5740ef1b391a40626507b11e206a80a6ab85e7468d277",
          "blockNumber": "0x5891f08",
          "transactionHash": "0x85e3f6d6edcd232256dd7d83c8d7d467192b7151163511f80e18df3b37505a94",
          "transactionIndex": "0x1",
          "logIndex": "0x0",
          "removed": false
        },
        {
          "address": "0xe6e2bd32ff1e566f6f3bbecd241ac921d0c328a4",
          "topics": [
            "0x7e1b4577399017960fc6a1284e846e5682b112a94c7c1e28afa6dc3031324a29",
            "0x0000000000000000000000003a27719ef5f46c917680eb59ccd744aaa0998bd8",
            "0x00000000000000000000000009c3b4cd85a4d9a490c0fd6a8976d2d4e83e165b"
          ],
          "data": "0x00000000000000000000000000000000000000000000000053444835ec5800000000000000000000000000000000000000000000000000000000000000000000000000000000000000000000000000000000000000000000000000006721afa2",
          "blockHash": "0x24cd13b721f8e61983b5740ef1b391a40626507b11e206a80a6ab85e7468d277",
          "blockNumber": "0x5891f08",
          "transactionHash": "0x85e3f6d6edcd232256dd7d83c8d7d467192b7151163511f80e18df3b37505a94",
          "transactionIndex": "0x1",
          "logIndex": "0x1",
          "removed": false
        }
      ],
      "logsBloom": "0x00000000000000000000000000000000080000000000000000800000000000000000000000000000000008000000004000400000000040000000000000000000000000000000000000000008000000000000000000000000000000000000000000000000000000000000000000000000000000000000000000000010000000000000000000000000000000000001000000000000000000000000000000000000000000000000000000000000000000004000000000000000000000000000008000000002000000000000000000000000000000000000000000000000000000000000000000010000000000000000000000000000010000000000040000000000",
      "type": "0x2",
      "transactionHash": "0x85e3f6d6edcd232256dd7d83c8d7d467192b7151163511f80e18df3b37505a94",
      "transactionIndex": "0x1",
      "blockHash": "0x24cd13b721f8e61983b5740ef1b391a40626507b11e206a80a6ab85e7468d277",
      "blockNumber": "0x5891f08",
      "gasUsed": "0xc850",
      "effectiveGasPrice": "0x5f5e100",
      "from": "0x3a27719ef5f46c917680eb59ccd744aaa0998bd8",
      "to": "0xe6e2bd32ff1e566f6f3bbecd241ac921d0c328a4",
      "contractAddress": null,
      "gasUsedForL1": "0x6e4",
      "l1BlockNumber": "0x6a6b1a"
    },
    {
      "status": "0x1",
      "cumulativeGasUsed": "0xe788",
      "logs": [
        {
          "address": "0xe6e2bd32ff1e566f6f3bbecd241ac921d0c328a4",
          "topics": [
            "0xddf252ad1be2c89b69c2b068fc378daa952ba7f163c4a11628f55a4df523b3ef",
            "0x00000000000000000000000009c3b4cd85a4d9a490c0fd6a8976d2d4e83e165b",
            "0x000000000000000000000000f4e9e57b57d5d58834164a01a1fbd36a68dac47e"
          ],
          "data": "0x0000000000000000000000000000000000000000000000007ba6adcaf4bb0000",
          "blockHash": "0xb57e592d2621b816eb1b2914adf7d721622c314c320ff55b13e91afc22bcd56a",
          "blockNumber": "0x5891f0b",
          "transactionHash": "0xaf1f30596532d848b4f22d2a1253af1aa1c40017091a860666711a2ffa9fc1aa",
          "transactionIndex": "0x1",
          "logIndex": "0x0",
          "removed": false
        },
        {
          "address": "0xe6e2bd32ff1e566f6f3bbecd241ac921d0c328a4",
          "topics": [
            "0xddf252ad1be2c89b69c2b068fc378daa952ba7f163c4a11628f55a4df523b3ef",
            "0x00000000000000000000000009c3b4cd85a4d9a490c0fd6a8976d2d4e83e165b",
            "0x000000000000000000000000e82d3b9473f0a06d6715581c336e18e949030da1"
          ],
          "data": "0x000000000000000000000000000000000000000000000000013fbe85edc90000",
          "blockHash": "0xb57e592d2621b816eb1b2914adf7d721622c314c320ff55b13e91afc22bcd56a",
          "blockNumber": "0x5891f0b",
          "transactionHash": "0xaf1f30596532d848b4f22d2a1253af1aa1c40017091a860666711a2ffa9fc1aa",
          "transactionIndex": "0x1",
          "logIndex": "0x1",
          "removed": false
        },
        {
          "address": "0xe6e2bd32ff1e566f6f3bbecd241ac921d0c328a4",
          "topics": [
            "0x7e1b4577399017960fc6a1284e846e5682b112a94c7c1e28afa6dc3031324a29",
            "0x00000000000000000000000009c3b4cd85a4d9a490c0fd6a8976d2d4e83e165b",
            "0x000000000000000000000000f4e9e57b57d5d58834164a01a1fbd36a68dac47e"
          ],
          "data": "0x0000000000000000000000000000000000000000000000007ba6adcaf4bb0000000000000000000000000000000000000000000000000000013fbe85edc90000000000000000000000000000000000000000000000000000000000006721afa3",
          "blockHash": "0xb57e592d2621b816eb1b2914adf7d721622c314c320ff55b13e91afc22bcd56a",
          "blockNumber": "0x5891f0b",
          "transactionHash": "0xaf1f30596532d848b4f22d2a1253af1aa1c40017091a860666711a2ffa9fc1aa",
          "transactionIndex": "0x1",
          "logIndex": "0x2",
          "removed": false
        }
      ],
      "logsBloom": "0x00000040000000000000000000000000080000000000000000800000000000000000000000000000000008000000004000400000000040000000000000000000000000000000000000000008000000000000000000000000000000000000000000000000040000000000000000000000000000000000000000000010000000000000000000000000000000000000001000000000000000100000000000000000000000000000000008000001000000004000000000000000000000000000000000000002000000000000000000000000000000000000000000000000000000000000000000010000000000000000000000000000010000000000000000000000",
      "type": "0x2",
      "transactionHash": "0xaf1f30596532d848b4f22d2a1253af1aa1c40017091a860666711a2ffa9fc1aa",
      "transactionIndex": "0x1",
      "blockHash": "0xb57e592d2621b816eb1b2914adf7d721622c314c320ff55b13e91afc22bcd56a",
      "blockNumber": "0x5891f0b",
      "gasUsed": "0xe788",
      "effectiveGasPrice": "0x5f5e100",
      "from": "0x09c3b4cd85a4d9a490c0fd6a8976d2d4e83e165b",
      "to": "0xe6e2bd32ff1e566f6f3bbecd241ac921d0c328a4",
      "contractAddress": null,
      "gasUsedForL1": "0x6e4",
      "l1BlockNumber": "0x6a6b1a"
    },
    {
      "status": "0x1",
      "cumulativeGasUsed": "0xe788",
      "logs": [
        {
          "address": "0xe6e2bd32ff1e566f6f3bbecd241ac921d0c328a4",
          "topics": [
            "0xddf252ad1be2c89b69c2b068fc378daa952ba7f163c4a11628f55a4df523b3ef",
            "0x000000000000000000000000f4e9e57b57d5d58834164a01a1fbd36a68dac47e",
            "0x000000000000000000000000dac88f55d8bd5c041a02a281f4ca2f3f1cb4a0f3"
          ],
          "data": "0x000000000000000000000000000000000000000000000000602c4e4885750000",
          "blockHash": "0x939666d4e1e710d16098c7e592dfc140cefc40c6858819fa01a3f2b6a15ab5e9",
          "blockNumber": "0x5891f11",
          "transactionHash": "0x4113c6fad484ab6fe49fb43023cc533daea925496c0a4cace51828caab71beab",
          "transactionIndex": "0x1",
          "logIndex": "0x0",
          "removed": false
        },
        {
          "address": "0xe6e2bd32ff1e566f6f3bbecd241ac921d0c328a4",
          "topics": [
            "0xddf252ad1be2c89b69c2b068fc378daa952ba7f163c4a11628f55a4df523b3ef",
            "0x000000000000000000000000f4e9e57b57d5d58834164a01a1fbd36a68dac47e",
            "0x000000000000000000000000e82d3b9473f0a06d6715581c336e18e949030da1"
          ],
          "data": "0x00000000000000000000000000000000000000000000000000f8b0a10e470000",
          "blockHash": "0x939666d4e1e710d16098c7e592dfc140cefc40c6858819fa01a3f2b6a15ab5e9",
          "blockNumber": "0x5891f11",
          "transactionHash": "0x4113c6fad484ab6fe49fb43023cc533daea925496c0a4cace51828caab71beab",
          "transactionIndex": "0x1",
          "logIndex": "0x1",
          "removed": false
        },
        {
          "address": "0xe6e2bd32ff1e566f6f3bbecd241ac921d0c328a4",
          "topics": [
            "0x7e1b4577399017960fc6a1284e846e5682b112a94c7c1e28afa6dc3031324a29",
            "0x000000000000000000000000f4e9e57b57d5d58834164a01a1fbd36a68dac47e",
            "0x000000000000000000000000dac88f55d8bd5c041a02a281f4ca2f3f1cb4a0f3"
          ],
          "data": "0x000000000000000000000000000000000000000000000000602c4e488575000000000000000000000000000000000000000000000000000000f8b0a10e470000000000000000000000000000000000000000000000000000000000006721afa5",
          "blockHash": "0x939666d4e1e710d16098c7e592dfc140cefc40c6858819fa01a3f2b6a15ab5e9",
          "blockNumber": "0x5891f11",
          "transactionHash": "0x4113c6fad484ab6fe49fb43023cc533daea925496c0a4cace51828caab71beab",
          "transactionIndex": "0x1",
          "logIndex": "0x2",
          "removed": false
        }
      ],
      "logsBloom": "0x00000040000000000000000000000000080000000000000000000000000000000000000000000000001008000000000000400000000040000000000000000000000000000000000000020008000000000000000000000000000000000000000000000000040000000000000000000000000000000000000000000010000000000000000000000000000000000000001000000000000000100000000000000000000000000000000008000001000000020000000000000000000000000000000000000002000000000000000000000000000000000000000000000000000000000000000000010000000000000000000000000000010000000000000000000000",
      "type": "0x2",
      "transactionHash": "0x4113c6fad484ab6fe49fb43023cc533daea925496c0a4cace51828caab71beab",
      "transactionIndex": "0x1",
      "blockHash": "0x939666d4e1e710d16098c7e592dfc140cefc40c6858819fa01a3f2b6a15ab5e9",
      "blockNumber": "0x5891f11",
      "gasUsed": "0xe788",
      "effectiveGasPrice": "0x5f5e100",
      "from": "0xf4e9e57b57d5d58834164a01a1fbd36a68dac47e",
      "to": "0xe6e2bd32ff1e566f6f3bbecd241ac921d0c328a4",
      "contractAddress": null,
      "gasUsedForL1": "0x6e4",
      "l1BlockNumber": "0x6a6b1a"
    },
    {
      "status": "0x1",
      "cumulativeGasUsed": "0xd888",
      "logs": [
        {
          "address": "0xe6e2bd32ff1e566f6f3bbecd241ac921d0c328a4",
          "topics": [
            "0xddf252ad1be2c89b69c2b068fc378daa952ba7f163c4a11628f55a4df523b3ef",
            "0x000000000000000000000000dac88f55d8bd5c041a02a281f4ca2f3f1cb4a0f3",
            "0x000000000000000000000000e82d3b9473f0a06d6715581c336e18e949030da1"
          ],
          "data": "0x0000000000000000000000000000000000000000000000007ba6adcaf4bb0000",
          "blockHash": "0x3640ebe21968fd47426a9e57f509305f234cae07f2c862bd6e01e3b0b440936d",
          "blockNumber": "0x5891f16",
          "transactionHash": "0x6df3edda814ff65eaa336f5ce1e203478ac0825f4e8ba8e55a37905dbb905fcf",
          "transactionIndex": "0x1",
          "logIndex": "0x0",
          "removed": false
        },
        {
          "address": "0xe6e2bd32ff1e566f6f3bbecd241ac921d0c328a4",
          "topics": [
            "0xddf252ad1be2c89b69c2b068fc378daa952ba7f163c4a11628f55a4df523b3ef",
            "0x000000000000000000000000dac88f55d8bd5c041a02a281f4ca2f3f1cb4a0f3",
            "0x000000000000000000000000e82d3b9473f0a06d6715581c336e18e949030da1"
          ],
          "data": "0x000000000000000000000000000000000000000000000000013fbe85edc90000",
          "blockHash": "0x3640ebe21968fd47426a9e57f509305f234cae07f2c862bd6e01e3b0b440936d",
          "blockNumber": "0x5891f16",
          "transactionHash": "0x6df3edda814ff65eaa336f5ce1e203478ac0825f4e8ba8e55a37905dbb905fcf",
          "transactionIndex": "0x1",
          "logIndex": "0x1",
          "removed": false
        },
        {
          "address": "0xe6e2bd32ff1e566f6f3bbecd241ac921d0c328a4",
          "topics": [
            "0x7e1b4577399017960fc6a1284e846e5682b112a94c7c1e28afa6dc3031324a29",
            "0x000000000000000000000000dac88f55d8bd5c041a02a281f4ca2f3f1cb4a0f3",
            "0x000000000000000000000000e82d3b9473f0a06d6715581c336e18e949030da1"
          ],
          "data": "0x0000000000000000000000000000000000000000000000007ba6adcaf4bb0000000000000000000000000000000000000000000000000000013fbe85edc90000000000000000000000000000000000000000000000000000000000006721afa6",
          "blockHash": "0x3640ebe21968fd47426a9e57f509305f234cae07f2c862bd6e01e3b0b440936d",
          "blockNumber": "0x5891f16",
          "transactionHash": "0x6df3edda814ff65eaa336f5ce1e203478ac0825f4e8ba8e55a37905dbb905fcf",
          "transactionIndex": "0x1",
          "logIndex": "0x2",
          "removed": false
        }
      ],
      "logsBloom": "0x00000000000000000000000000000000080000000000000000000000000000000000000000000000001008000000000000400000000040000000000000000000000000000000000000020008000000000000000000000000000000000000000000000000040000000000000000000000000000000000000000000010000000000000000000000000000000000000001000000000000000000000000000000000000000000000000008000000000000020000000000000000000000000000000000000002000000000000000000000000000000000000000000000000000000000000000000010000000000000000000000000000010000000000000000000000",
      "type": "0x2",
      "transactionHash": "0x6df3edda814ff65eaa336f5ce1e203478ac0825f4e8ba8e55a37905dbb905fcf",
      "transactionIndex": "0x1",
      "blockHash": "0x3640ebe21968fd47426a9e57f509305f234cae07f2c862bd6e01e3b0b440936d",
      "blockNumber": "0x5891f16",
      "gasUsed": "0xd888",
      "effectiveGasPrice": "0x5f5e100",
      "from": "0xdac88f55d8bd5c041a02a281f4ca2f3f1cb4a0f3",
      "to": "0xe6e2bd32ff1e566f6f3bbecd241ac921d0c328a4",
      "contractAddress": null,
      "gasUsedForL1": "0x6e4",
      "l1BlockNumber": "0x6a6b1a"
    }
  ],
  "libraries": [],
  "pending": [],
  "returns": {},
  "timestamp": 1730260902,
  "chain": 421614,
  "commit": "056e1e4"
}