{
  "transactions": [
    {
      "hash": "0xbd0f79d8fec9f78384a9be5bc4fbc870dca269dc3759d54b6df6b7f4faee9176",
      "transactionType": "CALL",
      "contractName": null,
      "contractAddress": "0xe6e2bd32ff1e566f6f3bbecd241ac921d0c328a4",
      "function": "transfer(address,uint256)",
      "arguments": [
        "0x3a27719ef5f46c917680eb59cCD744aaa0998Bd8",
        "8000000000000000000"
      ],
      "transaction": {
        "from": "0xe82d3b9473f0a06d6715581c336e18e949030da1",
        "to": "0xe6e2bd32ff1e566f6f3bbecd241ac921d0c328a4",
        "gas": "0x16aa4",
        "value": "0x0",
        "input": "0xa9059cbb0000000000000000000000003a27719ef5f46c917680eb59ccd744aaa0998bd80000000000000000000000000000000000000000000000006f05b59d3b200000",
        "nonce": "0x73",
        "chainId": "0x66eee"
      },
      "additionalContracts": [],
      "isFixedGasLimit": false
    },
    {
      "hash": "0x0d4678959a0900ce3dec196e525f4cbbd6b63ba59fe59262630dd4a02e46994b",
      "transactionType": "CALL",
      "contractName": null,
      "contractAddress": "0xe6e2bd32ff1e566f6f3bbecd241ac921d0c328a4",
      "function": "transfer(address,uint256)",
      "arguments": [
        "0x09c3B4Cd85a4D9A490c0fd6a8976D2d4e83E165b",
        "2000000000000000000"
      ],
      "transaction": {
        "from": "0x3a27719ef5f46c917680eb59ccd744aaa0998bd8",
        "to": "0xe6e2bd32ff1e566f6f3bbecd241ac921d0c328a4",
        "gas": "0x16aa4",
        "value": "0x0",
        "input": "0xa9059cbb00000000000000000000000009c3b4cd85a4d9a490c0fd6a8976d2d4e83e165b0000000000000000000000000000000000000000000000001bc16d674ec80000",
        "nonce": "0xb",
        "chainId": "0x66eee"
      },
      "additionalContracts": [],
      "isFixedGasLimit": false
    },
    {
      "hash": "0x51e87e2c27b2b509de3d0ab8348f539d317ea5ee07e05ee58c4b03adab6bd2e0",
      "transactionType": "CALL",
      "contractName": null,
      "contractAddress": "0xe6e2bd32ff1e566f6f3bbecd241ac921d0c328a4",
      "function": "transfer(address,uint256)",
      "arguments": [
        "0xF4e9e57b57D5D58834164A01a1FbD36A68daC47E",
        "3000000000000000000"
      ],
      "transaction": {
        "from": "0x09c3b4cd85a4d9a490c0fd6a8976d2d4e83e165b",
        "to": "0xe6e2bd32ff1e566f6f3bbecd241ac921d0c328a4",
        "gas": "0x1a105",
        "value": "0x0",
        "input": "0xa9059cbb000000000000000000000000f4e9e57b57d5d58834164a01a1fbd36a68dac47e00000000000000000000000000000000000000000000000029a2241af62c0000",
        "nonce": "0x9",
        "chainId": "0x66eee"
      },
      "additionalContracts": [],
      "isFixedGasLimit": false
    },
    {
      "hash": "0x7e6d3ab806f72b6e0759c77a71bea8fcf9bd55e6f2529553dfbd91e40161d268",
      "transactionType": "CALL",
      "contractName": null,
      "contractAddress": "0xe6e2bd32ff1e566f6f3bbecd241ac921d0c328a4",
      "function": "transfer(address,uint256)",
      "arguments": [
        "0xdaC88f55d8BD5C041a02a281F4ca2F3F1cb4A0f3",
        "2000000000000000000"
      ],
      "transaction": {
        "from": "0xf4e9e57b57d5d58834164a01a1fbd36a68dac47e",
        "to": "0xe6e2bd32ff1e566f6f3bbecd241ac921d0c328a4",
        "gas": "0x1a105",
        "value": "0x0",
        "input": "0xa9059cbb000000000000000000000000dac88f55d8bd5c041a02a281f4ca2f3f1cb4a0f30000000000000000000000000000000000000000000000001bc16d674ec80000",
        "nonce": "0x7",
        "chainId": "0x66eee"
      },
      "additionalContracts": [],
      "isFixedGasLimit": false
    },
    {
      "hash": "0x4a8e42e8142b0a67a52b1bc66c352c5909bfc25d77efc85dbdc58b8ebadd3ee8",
      "transactionType": "CALL",
      "contractName": null,
      "contractAddress": "0xe6e2bd32ff1e566f6f3bbecd241ac921d0c328a4",
      "function": "transfer(address,uint256)",
      "arguments": [
        "0xe82d3B9473F0A06D6715581C336E18E949030da1",
        "8000000000000000000"
      ],
      "transaction": {
        "from": "0xdac88f55d8bd5c041a02a281f4ca2f3f1cb4a0f3",
        "to": "0xe6e2bd32ff1e566f6f3bbecd241ac921d0c328a4",
        "gas": "0x1892f",
        "value": "0x0",
        "input": "0xa9059cbb000000000000000000000000e82d3b9473f0a06d6715581c336e18e949030da10000000000000000000000000000000000000000000000006f05b59d3b200000",
        "nonce": "0x8",
        "chainId": "0x66eee"
      },
      "additionalContracts": [],
      "isFixedGasLimit": false
    }
  ],
  "receipts": [
    {
      "status": "0x1",
      "cumulativeGasUsed": "0xd7d1",
      "logs": [
        {
          "address": "0xe6e2bd32ff1e566f6f3bbecd241ac921d0c328a4",
          "topics": [
            "0xddf252ad1be2c89b69c2b068fc378daa952ba7f163c4a11628f55a4df523b3ef",
            "0x000000000000000000000000e82d3b9473f0a06d6715581c336e18e949030da1",
            "0x0000000000000000000000003a27719ef5f46c917680eb59ccd744aaa0998bd8"
          ],
          "data": "0x0000000000000000000000000000000000000000000000006f05b59d3b200000",
          "blockHash": "0xaed05f2a702c228323f54d8f5f2f11476b0e348de964496b34d7bf40339a678f",
          "blockNumber": "0x58a03c4",
          "transactionHash": "0xbd0f79d8fec9f78384a9be5bc4fbc870dca269dc3759d54b6df6b7f4faee9176",
          "transactionIndex": "0x1",
          "logIndex": "0x0",
          "removed": false
        },
        {
          "address": "0xe6e2bd32ff1e566f6f3bbecd241ac921d0c328a4",
          "topics": [
            "0x7e1b4577399017960fc6a1284e846e5682b112a94c7c1e28afa6dc3031324a29",
            "0x000000000000000000000000e82d3b9473f0a06d6715581c336e18e949030da1",
            "0x0000000000000000000000003a27719ef5f46c917680eb59ccd744aaa0998bd8"
          ],
          "data": "0x0000000000000000000000000000000000000000000000006f05b59d3b2000000000000000000000000000000000000000000000000000000000000000000000000000000000000000000000000000000000000000000000000000006721f71d",
          "blockHash": "0xaed05f2a702c228323f54d8f5f2f11476b0e348de964496b34d7bf40339a678f",
          "blockNumber": "0x58a03c4",
          "transactionHash": "0xbd0f79d8fec9f78384a9be5bc4fbc870dca269dc3759d54b6df6b7f4faee9176",
          "transactionIndex": "0x1",
          "logIndex": "0x1",
          "removed": false
        }
      ],
      "logsBloom": "0x00000000000000000000000000000000080000000000000000000000000000000000000000000000000008000000000000400000000040000000000000000000000000000000000000000008000000000000000000000000000000000000000000000000040000000000000000000000000000000000000000000010000000000000000000000000000000000001001000000000000000000000000000000000000000000000000008000000000000000000000000000000000000000000008000000002000000000000000000000000000000000000000000000000000000000000000000010000000000000000000000000000010000000000040000000000",
      "type": "0x2",
      "transactionHash": "0xbd0f79d8fec9f78384a9be5bc4fbc870dca269dc3759d54b6df6b7f4faee9176",
      "transactionIndex": "0x1",
      "blockHash": "0xaed05f2a702c228323f54d8f5f2f11476b0e348de964496b34d7bf40339a678f",
      "blockNumber": "0x58a03c4",
      "gasUsed": "0xd7d1",
      "effectiveGasPrice": "0x5f5e100",
      "from": "0xe82d3b9473f0a06d6715581c336e18e949030da1",
      "to": "0xe6e2bd32ff1e566f6f3bbecd241ac921d0c328a4",
      "contractAddress": null,
      "gasUsedForL1": "0x1665",
      "l1BlockNumber": "0x6a70a6"
    },
    {
      "status": "0x1",
      "cumulativeGasUsed": "0xd7d1",
      "logs": [
        {
          "address": "0xe6e2bd32ff1e566f6f3bbecd241ac921d0c328a4",
          "topics": [
            "0xddf252ad1be2c89b69c2b068fc378daa952ba7f163c4a11628f55a4df523b3ef",
            "0x0000000000000000000000003a27719ef5f46c917680eb59ccd744aaa0998bd8",
            "0x00000000000000000000000009c3b4cd85a4d9a490c0fd6a8976d2d4e83e165b"
          ],
          "data": "0x0000000000000000000000000000000000000000000000001bc16d674ec80000",
          "blockHash": "0x99597854e1cdeebcaea1ef0cbaeb5dbb0924d483041d820a796db5f077324b6c",
          "blockNumber": "0x58a03c7",
          "transactionHash": "0x0d4678959a0900ce3dec196e525f4cbbd6b63ba59fe59262630dd4a02e46994b",
          "transactionIndex": "0x1",
          "logIndex": "0x0",
          "removed": false
        },
        {
          "address": "0xe6e2bd32ff1e566f6f3bbecd241ac921d0c328a4",
          "topics": [
            "0x7e1b4577399017960fc6a1284e846e5682b112a94c7c1e28afa6dc3031324a29",
            "0x0000000000000000000000003a27719ef5f46c917680eb59ccd744aaa0998bd8",
            "0x00000000000000000000000009c3b4cd85a4d9a490c0fd6a8976d2d4e83e165b"
          ],
          "data": "0x0000000000000000000000000000000000000000000000001bc16d674ec800000000000000000000000000000000000000000000000000000000000000000000000000000000000000000000000000000000000000000000000000006721f71e",
          "blockHash": "0x99597854e1cdeebcaea1ef0cbaeb5dbb0924d483041d820a796db5f077324b6c",
          "blockNumber": "0x58a03c7",
          "transactionHash": "0x0d4678959a0900ce3dec196e525f4cbbd6b63ba59fe59262630dd4a02e46994b",
          "transactionIndex": "0x1",
          "logIndex": "0x1",
          "removed": false
        }
      ],
      "logsBloom": "0x00000000000000000000000000000000080000000000000000800000000000000000000000000000000008000000004000400000000040000000000000000000000000000000000000000008000000000000000000000000000000000000000000000000000000000000000000000000000000000000000000000010000000000000000000000000000000000001000000000000000000000000000000000000000000000000000000000000000000004000000000000000000000000000008000000002000000000000000000000000000000000000000000000000000000000000000000010000000000000000000000000000010000000000040000000000",
      "type": "0x2",
      "transactionHash": "0x0d4678959a0900ce3dec196e525f4cbbd6b63ba59fe59262630dd4a02e46994b",
      "transactionIndex": "0x1",
      "blockHash": "0x99597854e1cdeebcaea1ef0cbaeb5dbb0924d483041d820a796db5f077324b6c",
      "blockNumber": "0x58a03c7",
      "gasUsed": "0xd7d1",
      "effectiveGasPrice": "0x5f5e100",
      "from": "0x3a27719ef5f46c917680eb59ccd744aaa0998bd8",
      "to": "0xe6e2bd32ff1e566f6f3bbecd241ac921d0c328a4",
      "contractAddress": null,
      "gasUsedForL1": "0x1665",
      "l1BlockNumber": "0x6a70a6"
    },
    {
      "status": "0x1",
      "cumulativeGasUsed": "0xf709",
      "logs": [
        {
          "address": "0xe6e2bd32ff1e566f6f3bbecd241ac921d0c328a4",
          "topics": [
            "0xddf252ad1be2c89b69c2b068fc378daa952ba7f163c4a11628f55a4df523b3ef",
            "0x00000000000000000000000009c3b4cd85a4d9a490c0fd6a8976d2d4e83e165b",
            "0x000000000000000000000000f4e9e57b57d5d58834164a01a1fbd36a68dac47e"
          ],
          "data": "0x00000000000000000000000000000000000000000000000029378f43a6e90000",
          "blockHash": "0x2df8e97158268f53737c80580a4cca55ac34991e573b2cb7fe0c6905e2708da1",
          "blockNumber": "0x58a03cd",
          "transactionHash": "0x51e87e2c27b2b509de3d0ab8348f539d317ea5ee07e05ee58c4b03adab6bd2e0",
          "transactionIndex": "0x1",
          "logIndex": "0x0",
          "removed": false
        },
        {
          "address": "0xe6e2bd32ff1e566f6f3bbecd241ac921d0c328a4",
          "topics": [
            "0xddf252ad1be2c89b69c2b068fc378daa952ba7f163c4a11628f55a4df523b3ef",
            "0x00000000000000000000000009c3b4cd85a4d9a490c0fd6a8976d2d4e83e165b",
            "0x000000000000000000000000e82d3b9473f0a06d6715581c336e18e949030da1"
          ],
          "data": "0x000000000000000000000000000000000000000000000000006a94d74f430000",
          "blockHash": "0x2df8e97158268f53737c80580a4cca55ac34991e573b2cb7fe0c6905e2708da1",
          "blockNumber": "0x58a03cd",
          "transactionHash": "0x51e87e2c27b2b509de3d0ab8348f539d317ea5ee07e05ee58c4b03adab6bd2e0",
          "transactionIndex": "0x1",
          "logIndex": "0x1",
          "removed": false
        },
        {
          "address": "0xe6e2bd32ff1e566f6f3bbecd241ac921d0c328a4",
          "topics": [
            "0x7e1b4577399017960fc6a1284e846e5682b112a94c7c1e28afa6dc3031324a29",
            "0x00000000000000000000000009c3b4cd85a4d9a490c0fd6a8976d2d4e83e165b",
            "0x000000000000000000000000f4e9e57b57d5d58834164a01a1fbd36a68dac47e"
          ],
          "data": "0x00000000000000000000000000000000000000000000000029378f43a6e90000000000000000000000000000000000000000000000000000006a94d74f430000000000000000000000000000000000000000000000000000000000006721f71f",
          "blockHash": "0x2df8e97158268f53737c80580a4cca55ac34991e573b2cb7fe0c6905e2708da1",
          "blockNumber": "0x58a03cd",
          "transactionHash": "0x51e87e2c27b2b509de3d0ab8348f539d317ea5ee07e05ee58c4b03adab6bd2e0",
          "transactionIndex": "0x1",
          "logIndex": "0x2",
          "removed": false
        }
      ],
      "logsBloom": "0x00000040000000000000000000000000080000000000000000800000000000000000000000000000000008000000004000400000000040000000000000000000000000000000000000000008000000000000000000000000000000000000000000000000040000000000000000000000000000000000000000000010000000000000000000000000000000000000001000000000000000100000000000000000000000000000000008000001000000004000000000000000000000000000000000000002000000000000000000000000000000000000000000000000000000000000000000010000000000000000000000000000010000000000000000000000",
      "type": "0x2",
      "transactionHash": "0x51e87e2c27b2b509de3d0ab8348f539d317ea5ee07e05ee58c4b03adab6bd2e0",
      "transactionIndex": "0x1",
      "blockHash": "0x2df8e97158268f53737c80580a4cca55ac34991e573b2cb7fe0c6905e2708da1",
      "blockNumber": "0x58a03cd",
      "gasUsed": "0xf709",
      "effectiveGasPrice": "0x5f5e100",
      "from": "0x09c3b4cd85a4d9a490c0fd6a8976d2d4e83e165b",
      "to": "0xe6e2bd32ff1e566f6f3bbecd241ac921d0c328a4",
      "contractAddress": null,
      "gasUsedForL1": "0x1665",
      "l1BlockNumber": "0x6a70a6"
    },
    {
      "status": "0x1",
      "cumulativeGasUsed": "0xf709",
      "logs": [
        {
          "address": "0xe6e2bd32ff1e566f6f3bbecd241ac921d0c328a4",
          "topics": [
            "0xddf252ad1be2c89b69c2b068fc378daa952ba7f163c4a11628f55a4df523b3ef",
            "0x000000000000000000000000f4e9e57b57d5d58834164a01a1fbd36a68dac47e",
            "0x000000000000000000000000dac88f55d8bd5c041a02a281f4ca2f3f1cb4a0f3"
          ],
          "data": "0x0000000000000000000000000000000000000000000000001b7a5f826f460000",
          "blockHash": "0xe8b4cbf23c8f72ab51e4bb9004aa4054524235563c6d84edecbe0522283f406d",
          "blockNumber": "0x58a03d0",
          "transactionHash": "0x7e6d3ab806f72b6e0759c77a71bea8fcf9bd55e6f2529553dfbd91e40161d268",
          "transactionIndex": "0x1",
          "logIndex": "0x0",
          "removed": false
        },
        {
          "address": "0xe6e2bd32ff1e566f6f3bbecd241ac921d0c328a4",
          "topics": [
            "0xddf252ad1be2c89b69c2b068fc378daa952ba7f163c4a11628f55a4df523b3ef",
            "0x000000000000000000000000f4e9e57b57d5d58834164a01a1fbd36a68dac47e",
            "0x000000000000000000000000e82d3b9473f0a06d6715581c336e18e949030da1"
          ],
          "data": "0x00000000000000000000000000000000000000000000000000470de4df820000",
          "blockHash": "0xe8b4cbf23c8f72ab51e4bb9004aa4054524235563c6d84edecbe0522283f406d",
          "blockNumber": "0x58a03d0",
          "transactionHash": "0x7e6d3ab806f72b6e0759c77a71bea8fcf9bd55e6f2529553dfbd91e40161d268",
          "transactionIndex": "0x1",
          "logIndex": "0x1",
          "removed": false
        },
        {
          "address": "0xe6e2bd32ff1e566f6f3bbecd241ac921d0c328a4",
          "topics": [
            "0x7e1b4577399017960fc6a1284e846e5682b112a94c7c1e28afa6dc3031324a29",
            "0x000000000000000000000000f4e9e57b57d5d58834164a01a1fbd36a68dac47e",
            "0x000000000000000000000000dac88f55d8bd5c041a02a281f4ca2f3f1cb4a0f3"
          ],
          "data": "0x0000000000000000000000000000000000000000000000001b7a5f826f46000000000000000000000000000000000000000000000000000000470de4df820000000000000000000000000000000000000000000000000000000000006721f721",
          "blockHash": "0xe8b4cbf23c8f72ab51e4bb9004aa4054524235563c6d84edecbe0522283f406d",
          "blockNumber": "0x58a03d0",
          "transactionHash": "0x7e6d3ab806f72b6e0759c77a71bea8fcf9bd55e6f2529553dfbd91e40161d268",
          "transactionIndex": "0x1",
          "logIndex": "0x2",
          "removed": false
        }
      ],
      "logsBloom": "0x00000040000000000000000000000000080000000000000000000000000000000000000000000000001008000000000000400000000040000000000000000000000000000000000000020008000000000000000000000000000000000000000000000000040000000000000000000000000000000000000000000010000000000000000000000000000000000000001000000000000000100000000000000000000000000000000008000001000000020000000000000000000000000000000000000002000000000000000000000000000000000000000000000000000000000000000000010000000000000000000000000000010000000000000000000000",
      "type": "0x2",
      "transactionHash": "0x7e6d3ab806f72b6e0759c77a71bea8fcf9bd55e6f2529553dfbd91e40161d268",
      "transactionIndex": "0x1",
      "blockHash": "0xe8b4cbf23c8f72ab51e4bb9004aa4054524235563c6d84edecbe0522283f406d",
      "blockNumber": "0x58a03d0",
      "gasUsed": "0xf709",
      "effectiveGasPrice": "0x5f5e100",
      "from": "0xf4e9e57b57d5d58834164a01a1fbd36a68dac47e",
      "to": "0xe6e2bd32ff1e566f6f3bbecd241ac921d0c328a4",
      "contractAddress": null,
      "gasUsedForL1": "0x1665",
      "l1BlockNumber": "0x6a70a6"
    },
    {
      "status": "0x1",
      "cumulativeGasUsed": "0x2c125",
      "logs": [
        {
          "address": "0xe6e2bd32ff1e566f6f3bbecd241ac921d0c328a4",
          "topics": [
            "0xddf252ad1be2c89b69c2b068fc378daa952ba7f163c4a11628f55a4df523b3ef",
            "0x000000000000000000000000dac88f55d8bd5c041a02a281f4ca2f3f1cb4a0f3",
            "0x000000000000000000000000e82d3b9473f0a06d6715581c336e18e949030da1"
          ],
          "data": "0x0000000000000000000000000000000000000000000000006de97e09bd180000",
          "blockHash": "0xfe147260b7f1107dd3b1bc6ffd884fadce95c9a0f5f2c2e4e7d0d8cd27ed388d",
          "blockNumber": "0x58a03d5",
          "transactionHash": "0x4a8e42e8142b0a67a52b1bc66c352c5909bfc25d77efc85dbdc58b8ebadd3ee8",
          "transactionIndex": "0x2",
          "logIndex": "0x2",
          "removed": false
        },
        {
          "address": "0xe6e2bd32ff1e566f6f3bbecd241ac921d0c328a4",
          "topics": [
            "0xddf252ad1be2c89b69c2b068fc378daa952ba7f163c4a11628f55a4df523b3ef",
            "0x000000000000000000000000dac88f55d8bd5c041a02a281f4ca2f3f1cb4a0f3",
            "0x000000000000000000000000e82d3b9473f0a06d6715581c336e18e949030da1"
          ],
          "data": "0x000000000000000000000000000000000000000000000000011c37937e080000",
          "blockHash": "0xfe147260b7f1107dd3b1bc6ffd884fadce95c9a0f5f2c2e4e7d0d8cd27ed388d",
          "blockNumber": "0x58a03d5",
          "transactionHash": "0x4a8e42e8142b0a67a52b1bc66c352c5909bfc25d77efc85dbdc58b8ebadd3ee8",
          "transactionIndex": "0x2",
          "logIndex": "0x3",
          "removed": false
        },
        {
          "address": "0xe6e2bd32ff1e566f6f3bbecd241ac921d0c328a4",
          "topics": [
            "0x7e1b4577399017960fc6a1284e846e5682b112a94c7c1e28afa6dc3031324a29",
            "0x000000000000000000000000dac88f55d8bd5c041a02a281f4ca2f3f1cb4a0f3",
            "0x000000000000000000000000e82d3b9473f0a06d6715581c336e18e949030da1"
          ],
          "data": "0x0000000000000000000000000000000000000000000000006de97e09bd180000000000000000000000000000000000000000000000000000011c37937e080000000000000000000000000000000000000000000000000000000000006721f722",
          "blockHash": "0xfe147260b7f1107dd3b1bc6ffd884fadce95c9a0f5f2c2e4e7d0d8cd27ed388d",
          "blockNumber": "0x58a03d5",
          "transactionHash": "0x4a8e42e8142b0a67a52b1bc66c352c5909bfc25d77efc85dbdc58b8ebadd3ee8",
          "transactionIndex": "0x2",
          "logIndex": "0x4",
          "removed": false
        }
      ],
      "logsBloom": "0x00000000000000000000000000000000080000000000000000000000000000000000000000000000001008000000000000400000000040000000000000000000000000000000000000020008000000000000000000000000000000000000000000000000040000000000000000000000000000000000000000000010000000000000000000000000000000000000001000000000000000000000000000000000000000000000000008000000000000020000000000000000000000000000000000000002000000000000000000000000000000000000000000000000000000000000000000010000000000000000000000000000010000000000000000000000",
      "type": "0x2",
      "transactionHash": "0x4a8e42e8142b0a67a52b1bc66c352c5909bfc25d77efc85dbdc58b8ebadd3ee8",
      "transactionIndex": "0x2",
      "blockHash": "0xfe147260b7f1107dd3b1bc6ffd884fadce95c9a0f5f2c2e4e7d0d8cd27ed388d",
      "blockNumber": "0x58a03d5",
      "gasUsed": "0xe809",
      "effectiveGasPrice": "0x5f5e100",
      "from": "0xdac88f55d8bd5c041a02a281f4ca2f3f1cb4a0f3",
      "to": "0xe6e2bd32ff1e566f6f3bbecd241ac921d0c328a4",
      "contractAddress": null,
      "gasUsedForL1": "0x1665",
      "l1BlockNumber": "0x6a70a6"
    }
  ],
  "libraries": [],
  "pending": [],
  "returns": {},
  "timestamp": 1730279203,
  "chain": 421614,
  "commit": "df49bee"
}