{
  "transactions": [
    {
      "hash": "0x1a27bb28b9b116aa06f2d408de012a1e98439e2c750ab21982879d84fa63adaf",
      "transactionType": "CALL",
      "contractName": null,
      "contractAddress": "0x93a5007b03bf034f6833a35e05b6d0c1bc553ec1",
      "function": "transfer(address,uint256)",
      "arguments": [
        "0x3a27719ef5f46c917680eb59cCD744aaa0998Bd8",
        "2000000000000000000"
      ],
      "transaction": {
        "from": "0xe82d3b9473f0a06d6715581c336e18e949030da1",
        "to": "0x93a5007b03bf034f6833a35e05b6d0c1bc553ec1",
        "gas": "0x15139",
        "value": "0x0",
        "input": "0xa9059cbb0000000000000000000000003a27719ef5f46c917680eb59ccd744aaa0998bd80000000000000000000000000000000000000000000000001bc16d674ec80000",
        "nonce": "0x6e",
        "chainId": "0x66eee"
      },
      "additionalContracts": [],
      "isFixedGasLimit": false
    },
    {
      "hash": "0x9d253b2089b8242834817309b5f931065d8ab0fdeedb04c6d0e5d8c078969e6c",
      "transactionType": "CALL",
      "contractName": null,
      "contractAddress": "0x93a5007b03bf034f6833a35e05b6d0c1bc553ec1",
      "function": "transfer(address,uint256)",
      "arguments": [
        "0x09c3B4Cd85a4D9A490c0fd6a8976D2d4e83E165b",
        "4000000000000000000"
      ],
      "transaction": {
        "from": "0x3a27719ef5f46c917680eb59ccd744aaa0998bd8",
        "to": "0x93a5007b03bf034f6833a35e05b6d0c1bc553ec1",
        "gas": "0x15139",
        "value": "0x0",
        "input": "0xa9059cbb00000000000000000000000009c3b4cd85a4d9a490c0fd6a8976d2d4e83e165b0000000000000000000000000000000000000000000000003782dace9d900000",
        "nonce": "0x6",
        "chainId": "0x66eee"
      },
      "additionalContracts": [],
      "isFixedGasLimit": false
    },
    {
      "hash": "0xe033a8388848ef78ad77920e49e88a752e536aa224a4f89f6ade1b90bfb2ac14",
      "transactionType": "CALL",
      "contractName": null,
      "contractAddress": "0x93a5007b03bf034f6833a35e05b6d0c1bc553ec1",
      "function": "transfer(address,uint256)",
      "arguments": [
        "0xF4e9e57b57D5D58834164A01a1FbD36A68daC47E",
        "1000000000000000000"
      ],
      "transaction": {
        "from": "0x09c3b4cd85a4d9a490c0fd6a8976d2d4e83e165b",
        "to": "0x93a5007b03bf034f6833a35e05b6d0c1bc553ec1",
        "gas": "0x18377",
        "value": "0x0",
        "input": "0xa9059cbb000000000000000000000000f4e9e57b57d5d58834164a01a1fbd36a68dac47e0000000000000000000000000000000000000000000000000de0b6b3a7640000",
        "nonce": "0x4",
        "chainId": "0x66eee"
      },
      "additionalContracts": [],
      "isFixedGasLimit": false
    },
    {
      "hash": "0xea15efa6fc96662a149b0c6919a651855c76a498011a3d2216bf2ec9217e8336",
      "transactionType": "CALL",
      "contractName": null,
      "contractAddress": "0x93a5007b03bf034f6833a35e05b6d0c1bc553ec1",
      "function": "transfer(address,uint256)",
      "arguments": [
        "0xdaC88f55d8BD5C041a02a281F4ca2F3F1cb4A0f3",
        "7000000000000000000"
      ],
      "transaction": {
        "from": "0xf4e9e57b57d5d58834164a01a1fbd36a68dac47e",
        "to": "0x93a5007b03bf034f6833a35e05b6d0c1bc553ec1",
        "gas": "0x18377",
        "value": "0x0",
        "input": "0xa9059cbb000000000000000000000000dac88f55d8bd5c041a02a281f4ca2f3f1cb4a0f30000000000000000000000000000000000000000000000006124fee993bc0000",
        "nonce": "0x2",
        "chainId": "0x66eee"
      },
      "additionalContracts": [],
      "isFixedGasLimit": false
    },
    {
      "hash": "0xfd34afab054ca3b7fb01337d0b9ec1181b7f4eed10aa9f26423cd84f09c2a795",
      "transactionType": "CALL",
      "contractName": null,
      "contractAddress": "0x93a5007b03bf034f6833a35e05b6d0c1bc553ec1",
      "function": "transfer(address,uint256)",
      "arguments": [
        "0xe82d3B9473F0A06D6715581C336E18E949030da1",
        "5000000000000000000"
      ],
      "transaction": {
        "from": "0xdac88f55d8bd5c041a02a281f4ca2f3f1cb4a0f3",
        "to": "0x93a5007b03bf034f6833a35e05b6d0c1bc553ec1",
        "gas": "0x16b53",
        "value": "0x0",
        "input": "0xa9059cbb000000000000000000000000e82d3b9473f0a06d6715581c336e18e949030da10000000000000000000000000000000000000000000000004563918244f40000",
        "nonce": "0x3",
        "chainId": "0x66eee"
      },
      "additionalContracts": [],
      "isFixedGasLimit": false
    }
  ],
  "receipts": [
    {
      "status": "0x1",
      "cumulativeGasUsed": "0xc6f2",
      "logs": [
        {
          "address": "0x93a5007b03bf034f6833a35e05b6d0c1bc553ec1",
          "topics": [
            "0xddf252ad1be2c89b69c2b068fc378daa952ba7f163c4a11628f55a4df523b3ef",
            "0x000000000000000000000000e82d3b9473f0a06d6715581c336e18e949030da1",
            "0x0000000000000000000000003a27719ef5f46c917680eb59ccd744aaa0998bd8"
          ],
          "data": "0x0000000000000000000000000000000000000000000000001bc16d674ec80000",
          "blockHash": "0xf530c3e9d505f19bdf9c031676286caa8c2259b1d24577a210d3aa2bf22da7fa",
          "blockNumber": "0x589194d",
          "transactionHash": "0x1a27bb28b9b116aa06f2d408de012a1e98439e2c750ab21982879d84fa63adaf",
          "transactionIndex": "0x1",
          "logIndex": "0x0",
          "removed": false
        },
        {
          "address": "0x93a5007b03bf034f6833a35e05b6d0c1bc553ec1",
          "topics": [
            "0x7e1b4577399017960fc6a1284e846e5682b112a94c7c1e28afa6dc3031324a29",
            "0x000000000000000000000000e82d3b9473f0a06d6715581c336e18e949030da1",
            "0x0000000000000000000000003a27719ef5f46c917680eb59ccd744aaa0998bd8"
          ],
          "data": "0x0000000000000000000000000000000000000000000000001bc16d674ec800000000000000000000000000000000000000000000000000000000000000000000000000000000000000000000000000000000000000000000000000006721adee",
          "blockHash": "0xf530c3e9d505f19bdf9c031676286caa8c2259b1d24577a210d3aa2bf22da7fa",
          "blockNumber": "0x589194d",
          "transactionHash": "0x1a27bb28b9b116aa06f2d408de012a1e98439e2c750ab21982879d84fa63adaf",
          "transactionIndex": "0x1",
          "logIndex": "0x1",
          "removed": false
        }
      ],
      "logsBloom": "0x00000000000000000000000000000000080000000000800000000000000000000000000000000000000008000000000000400000000000000000000000000000000000000000000000000008000000000000000000000000000000000000000000004000040000000000000000000000000000000000000000000010000000000000000000000000000000000001001000000000000000000000000000000000000000000000000008000000000000000000000000000000000000000000008000000002000000000000000000000000000000000000000000000000080000000000000000000000000000000000000000000000000000000000040000000000",
      "type": "0x2",
      "transactionHash": "0x1a27bb28b9b116aa06f2d408de012a1e98439e2c750ab21982879d84fa63adaf",
      "transactionIndex": "0x1",
      "blockHash": "0xf530c3e9d505f19bdf9c031676286caa8c2259b1d24577a210d3aa2bf22da7fa",
      "blockNumber": "0x589194d",
      "gasUsed": "0xc6f2",
      "effectiveGasPrice": "0x5f5e100",
      "from": "0xe82d3b9473f0a06d6715581c336e18e949030da1",
      "to": "0x93a5007b03bf034f6833a35e05b6d0c1bc553ec1",
      "contractAddress": null,
      "gasUsedForL1": "0x586",
      "l1BlockNumber": "0x6a6afc"
    },
    {
      "status": "0x1",
      "cumulativeGasUsed": "0xc6f2",
      "logs": [
        {
          "address": "0x93a5007b03bf034f6833a35e05b6d0c1bc553ec1",
          "topics": [
            "0xddf252ad1be2c89b69c2b068fc378daa952ba7f163c4a11628f55a4df523b3ef",
            "0x0000000000000000000000003a27719ef5f46c917680eb59ccd744aaa0998bd8",
            "0x00000000000000000000000009c3b4cd85a4d9a490c0fd6a8976d2d4e83e165b"
          ],
          "data": "0x0000000000000000000000000000000000000000000000003782dace9d900000",
          "blockHash": "0x3fe638737f780f7ecd8cf9a2b3fa80b8ec28931691bd92f123f6bf9dbeeed8c9",
          "blockNumber": "0x5891950",
          "transactionHash": "0x9d253b2089b8242834817309b5f931065d8ab0fdeedb04c6d0e5d8c078969e6c",
          "transactionIndex": "0x1",
          "logIndex": "0x0",
          "removed": false
        },
        {
          "address": "0x93a5007b03bf034f6833a35e05b6d0c1bc553ec1",
          "topics": [
            "0x7e1b4577399017960fc6a1284e846e5682b112a94c7c1e28afa6dc3031324a29",
            "0x0000000000000000000000003a27719ef5f46c917680eb59ccd744aaa0998bd8",
            "0x00000000000000000000000009c3b4cd85a4d9a490c0fd6a8976d2d4e83e165b"
          ],
          "data": "0x0000000000000000000000000000000000000000000000003782dace9d9000000000000000000000000000000000000000000000000000000000000000000000000000000000000000000000000000000000000000000000000000006721adef",
          "blockHash": "0x3fe638737f780f7ecd8cf9a2b3fa80b8ec28931691bd92f123f6bf9dbeeed8c9",
          "blockNumber": "0x5891950",
          "transactionHash": "0x9d253b2089b8242834817309b5f931065d8ab0fdeedb04c6d0e5d8c078969e6c",
          "transactionIndex": "0x1",
          "logIndex": "0x1",
          "removed": false
        }
      ],
      "logsBloom": "0x00000000000000000000000000000000080000000000800000800000000000000000000000000000000008000000004000400000000000000000000000000000000000000000000000000008000000000000000000000000000000000000000000004000000000000000000000000000000000000000000000000010000000000000000000000000000000000001000000000000000000000000000000000000000000000000000000000000000000004000000000000000000000000000008000000002000000000000000000000000000000000000000000000000080000000000000000000000000000000000000000000000000000000000040000000000",
      "type": "0x2",
      "transactionHash": "0x9d253b2089b8242834817309b5f931065d8ab0fdeedb04c6d0e5d8c078969e6c",
      "transactionIndex": "0x1",
      "blockHash": "0x3fe638737f780f7ecd8cf9a2b3fa80b8ec28931691bd92f123f6bf9dbeeed8c9",
      "blockNumber": "0x5891950",
      "gasUsed": "0xc6f2",
      "effectiveGasPrice": "0x5f5e100",
      "from": "0x3a27719ef5f46c917680eb59ccd744aaa0998bd8",
      "to": "0x93a5007b03bf034f6833a35e05b6d0c1bc553ec1",
      "contractAddress": null,
      "gasUsedForL1": "0x586",
      "l1BlockNumber": "0x6a6afc"
    },
    {
      "status": "0x1",
      "cumulativeGasUsed": "0xe62a",
      "logs": [
        {
          "address": "0x93a5007b03bf034f6833a35e05b6d0c1bc553ec1",
          "topics": [
            "0xddf252ad1be2c89b69c2b068fc378daa952ba7f163c4a11628f55a4df523b3ef",
            "0x00000000000000000000000009c3b4cd85a4d9a490c0fd6a8976d2d4e83e165b",
            "0x000000000000000000000000f4e9e57b57d5d58834164a01a1fbd36a68dac47e"
          ],
          "data": "0x0000000000000000000000000000000000000000000000000dbd2fc137a30000",
          "blockHash": "0x9c9d7b66b65e74198bcefa6a2c6172b28bcbce3dcaa87d7131f585c35449dbb0",
          "blockNumber": "0x5891955",
          "transactionHash": "0xe033a8388848ef78ad77920e49e88a752e536aa224a4f89f6ade1b90bfb2ac14",
          "transactionIndex": "0x1",
          "logIndex": "0x0",
          "removed": false
        },
        {
          "address": "0x93a5007b03bf034f6833a35e05b6d0c1bc553ec1",
          "topics": [
            "0xddf252ad1be2c89b69c2b068fc378daa952ba7f163c4a11628f55a4df523b3ef",
            "0x00000000000000000000000009c3b4cd85a4d9a490c0fd6a8976d2d4e83e165b",
            "0x000000000000000000000000e82d3b9473f0a06d6715581c336e18e949030da1"
          ],
          "data": "0x000000000000000000000000000000000000000000000000002386f26fc10000",
          "blockHash": "0x9c9d7b66b65e74198bcefa6a2c6172b28bcbce3dcaa87d7131f585c35449dbb0",
          "blockNumber": "0x5891955",
          "transactionHash": "0xe033a8388848ef78ad77920e49e88a752e536aa224a4f89f6ade1b90bfb2ac14",
          "transactionIndex": "0x1",
          "logIndex": "0x1",
          "removed": false
        },
        {
          "address": "0x93a5007b03bf034f6833a35e05b6d0c1bc553ec1",
          "topics": [
            "0x7e1b4577399017960fc6a1284e846e5682b112a94c7c1e28afa6dc3031324a29",
            "0x00000000000000000000000009c3b4cd85a4d9a490c0fd6a8976d2d4e83e165b",
            "0x000000000000000000000000f4e9e57b57d5d58834164a01a1fbd36a68dac47e"
          ],
          "data": "0x0000000000000000000000000000000000000000000000000dbd2fc137a30000000000000000000000000000000000000000000000000000002386f26fc10000000000000000000000000000000000000000000000000000000000006721adf0",
          "blockHash": "0x9c9d7b66b65e74198bcefa6a2c6172b28bcbce3dcaa87d7131f585c35449dbb0",
          "blockNumber": "0x5891955",
          "transactionHash": "0xe033a8388848ef78ad77920e49e88a752e536aa224a4f89f6ade1b90bfb2ac14",
          "transactionIndex": "0x1",
          "logIndex": "0x2",
          "removed": false
        }
      ],
      "logsBloom": "0x00000040000000000000000000000000080000000000800000800000000000000000000000000000000008000000004000400000000000000000000000000000000000000000000000000008000000000000000000000000000000000000000000004000040000000000000000000000000000000000000000000010000000000000000000000000000000000000001000000000000000100000000000000000000000000000000008000001000000004000000000000000000000000000000000000002000000000000000000000000000000000000000000000000080000000000000000000000000000000000000000000000000000000000000000000000",
      "type": "0x2",
      "transactionHash": "0xe033a8388848ef78ad77920e49e88a752e536aa224a4f89f6ade1b90bfb2ac14",
      "transactionIndex": "0x1",
      "blockHash": "0x9c9d7b66b65e74198bcefa6a2c6172b28bcbce3dcaa87d7131f585c35449dbb0",
      "blockNumber": "0x5891955",
      "gasUsed": "0xe62a",
      "effectiveGasPrice": "0x5f5e100",
      "from": "0x09c3b4cd85a4d9a490c0fd6a8976d2d4e83e165b",
      "to": "0x93a5007b03bf034f6833a35e05b6d0c1bc553ec1",
      "contractAddress": null,
      "gasUsedForL1": "0x586",
      "l1BlockNumber": "0x6a6afc"
    },
    {
      "status": "0x1",
      "cumulativeGasUsed": "0xe62a",
      "logs": [
        {
          "address": "0x93a5007b03bf034f6833a35e05b6d0c1bc553ec1",
          "topics": [
            "0xddf252ad1be2c89b69c2b068fc378daa952ba7f163c4a11628f55a4df523b3ef",
            "0x000000000000000000000000f4e9e57b57d5d58834164a01a1fbd36a68dac47e",
            "0x000000000000000000000000dac88f55d8bd5c041a02a281f4ca2f3f1cb4a0f3"
          ],
          "data": "0x000000000000000000000000000000000000000000000000602c4e4885750000",
          "blockHash": "0xcd9b71db9095461a28e7f0bdcd9dd95b33cfb2275f6cd3063069969b4b99bfb5",
          "blockNumber": "0x5891959",
          "transactionHash": "0xea15efa6fc96662a149b0c6919a651855c76a498011a3d2216bf2ec9217e8336",
          "transactionIndex": "0x1",
          "logIndex": "0x0",
          "removed": false
        },
        {
          "address": "0x93a5007b03bf034f6833a35e05b6d0c1bc553ec1",
          "topics": [
            "0xddf252ad1be2c89b69c2b068fc378daa952ba7f163c4a11628f55a4df523b3ef",
            "0x000000000000000000000000f4e9e57b57d5d58834164a01a1fbd36a68dac47e",
            "0x000000000000000000000000e82d3b9473f0a06d6715581c336e18e949030da1"
          ],
          "data": "0x00000000000000000000000000000000000000000000000000f8b0a10e470000",
          "blockHash": "0xcd9b71db9095461a28e7f0bdcd9dd95b33cfb2275f6cd3063069969b4b99bfb5",
          "blockNumber": "0x5891959",
          "transactionHash": "0xea15efa6fc96662a149b0c6919a651855c76a498011a3d2216bf2ec9217e8336",
          "transactionIndex": "0x1",
          "logIndex": "0x1",
          "removed": false
        },
        {
          "address": "0x93a5007b03bf034f6833a35e05b6d0c1bc553ec1",
          "topics": [
            "0x7e1b4577399017960fc6a1284e846e5682b112a94c7c1e28afa6dc3031324a29",
            "0x000000000000000000000000f4e9e57b57d5d58834164a01a1fbd36a68dac47e",
            "0x000000000000000000000000dac88f55d8bd5c041a02a281f4ca2f3f1cb4a0f3"
          ],
          "data": "0x000000000000000000000000000000000000000000000000602c4e488575000000000000000000000000000000000000000000000000000000f8b0a10e470000000000000000000000000000000000000000000000000000000000006721adf1",
          "blockHash": "0xcd9b71db9095461a28e7f0bdcd9dd95b33cfb2275f6cd3063069969b4b99bfb5",
          "blockNumber": "0x5891959",
          "transactionHash": "0xea15efa6fc96662a149b0c6919a651855c76a498011a3d2216bf2ec9217e8336",
          "transactionIndex": "0x1",
          "logIndex": "0x2",
          "removed": false
        }
      ],
      "logsBloom": "0x00000040000000000000000000000000080000000000800000000000000000000000000000000000001008000000000000400000000000000000000000000000000000000000000000020008000000000000000000000000000000000000000000004000040000000000000000000000000000000000000000000010000000000000000000000000000000000000001000000000000000100000000000000000000000000000000008000001000000020000000000000000000000000000000000000002000000000000000000000000000000000000000000000000080000000000000000000000000000000000000000000000000000000000000000000000",
      "type": "0x2",
      "transactionHash": "0xea15efa6fc96662a149b0c6919a651855c76a498011a3d2216bf2ec9217e8336",
      "transactionIndex": "0x1",
      "blockHash": "0xcd9b71db9095461a28e7f0bdcd9dd95b33cfb2275f6cd3063069969b4b99bfb5",
      "blockNumber": "0x5891959",
      "gasUsed": "0xe62a",
      "effectiveGasPrice": "0x5f5e100",
      "from": "0xf4e9e57b57d5d58834164a01a1fbd36a68dac47e",
      "to": "0x93a5007b03bf034f6833a35e05b6d0c1bc553ec1",
      "contractAddress": null,
      "gasUsedForL1": "0x586",
      "l1BlockNumber": "0x6a6afc"
    },
    {
      "status": "0x1",
      "cumulativeGasUsed": "0xd72a",
      "logs": [
        {
          "address": "0x93a5007b03bf034f6833a35e05b6d0c1bc553ec1",
          "topics": [
            "0xddf252ad1be2c89b69c2b068fc378daa952ba7f163c4a11628f55a4df523b3ef",
            "0x000000000000000000000000dac88f55d8bd5c041a02a281f4ca2f3f1cb4a0f3",
            "0x000000000000000000000000e82d3b9473f0a06d6715581c336e18e949030da1"
          ],
          "data": "0x00000000000000000000000000000000000000000000000044b1eec6162f0000",
          "blockHash": "0xc93f71267c440756c8576c4a165eae1e31c5e2ac0c69c4767d6c1614ba7ebdc9",
          "blockNumber": "0x589195d",
          "transactionHash": "0xfd34afab054ca3b7fb01337d0b9ec1181b7f4eed10aa9f26423cd84f09c2a795",
          "transactionIndex": "0x1",
          "logIndex": "0x0",
          "removed": false
        },
        {
          "address": "0x93a5007b03bf034f6833a35e05b6d0c1bc553ec1",
          "topics": [
            "0xddf252ad1be2c89b69c2b068fc378daa952ba7f163c4a11628f55a4df523b3ef",
            "0x000000000000000000000000dac88f55d8bd5c041a02a281f4ca2f3f1cb4a0f3",
            "0x000000000000000000000000e82d3b9473f0a06d6715581c336e18e949030da1"
          ],
          "data": "0x00000000000000000000000000000000000000000000000000b1a2bc2ec50000",
          "blockHash": "0xc93f71267c440756c8576c4a165eae1e31c5e2ac0c69c4767d6c1614ba7ebdc9",
          "blockNumber": "0x589195d",
          "transactionHash": "0xfd34afab054ca3b7fb01337d0b9ec1181b7f4eed10aa9f26423cd84f09c2a795",
          "transactionIndex": "0x1",
          "logIndex": "0x1",
          "removed": false
        },
        {
          "address": "0x93a5007b03bf034f6833a35e05b6d0c1bc553ec1",
          "topics": [
            "0x7e1b4577399017960fc6a1284e846e5682b112a94c7c1e28afa6dc3031324a29",
            "0x000000000000000000000000dac88f55d8bd5c041a02a281f4ca2f3f1cb4a0f3",
            "0x000000000000000000000000e82d3b9473f0a06d6715581c336e18e949030da1"
          ],
          "data": "0x00000000000000000000000000000000000000000000000044b1eec6162f000000000000000000000000000000000000000000000000000000b1a2bc2ec50000000000000000000000000000000000000000000000000000000000006721adf2",
          "blockHash": "0xc93f71267c440756c8576c4a165eae1e31c5e2ac0c69c4767d6c1614ba7ebdc9",
          "blockNumber": "0x589195d",
          "transactionHash": "0xfd34afab054ca3b7fb01337d0b9ec1181b7f4eed10aa9f26423cd84f09c2a795",
          "transactionIndex": "0x1",
          "logIndex": "0x2",
          "removed": false
        }
      ],
      "logsBloom": "0x00000000000000000000000000000000080000000000800000000000000000000000000000000000001008000000000000400000000000000000000000000000000000000000000000020008000000000000000000000000000000000000000000004000040000000000000000000000000000000000000000000010000000000000000000000000000000000000001000000000000000000000000000000000000000000000000008000000000000020000000000000000000000000000000000000002000000000000000000000000000000000000000000000000080000000000000000000000000000000000000000000000000000000000000000000000",
      "type": "0x2",
      "transactionHash": "0xfd34afab054ca3b7fb01337d0b9ec1181b7f4eed10aa9f26423cd84f09c2a795",
      "transactionIndex": "0x1",
      "blockHash": "0xc93f71267c440756c8576c4a165eae1e31c5e2ac0c69c4767d6c1614ba7ebdc9",
      "blockNumber": "0x589195d",
      "gasUsed": "0xd72a",
      "effectiveGasPrice": "0x5f5e100",
      "from": "0xdac88f55d8bd5c041a02a281f4ca2f3f1cb4a0f3",
      "to": "0x93a5007b03bf034f6833a35e05b6d0c1bc553ec1",
      "contractAddress": null,
      "gasUsedForL1": "0x586",
      "l1BlockNumber": "0x6a6afc"
    }
  ],
  "libraries": [],
  "pending": [],
  "returns": {},
  "timestamp": 1730260466,
  "chain": 421614,
  "commit": "056e1e4"
}