{
  "transactions": [
    {
      "hash": "0xcbe63c7b2073421d50f785cb9fc939cf4fa0074204034d6039fb97362cd9fdea",
      "transactionType": "CALL",
      "contractName": null,
      "contractAddress": "0xe6e2bd32ff1e566f6f3bbecd241ac921d0c328a4",
      "function": "transfer(address,uint256)",
      "arguments": [
        "0x3a27719ef5f46c917680eb59cCD744aaa0998Bd8",
        "7000000000000000000"
      ],
      "transaction": {
        "from": "0xe82d3b9473f0a06d6715581c336e18e949030da1",
        "to": "0xe6e2bd32ff1e566f6f3bbecd241ac921d0c328a4",
        "gas": "0x14c03",
        "value": "0x0",
        "input": "0xa9059cbb0000000000000000000000003a27719ef5f46c917680eb59ccd744aaa0998bd80000000000000000000000000000000000000000000000006124fee993bc0000",
        "nonce": "0x76",
        "chainId": "0x66eee"
      },
      "additionalContracts": [],
      "isFixedGasLimit": false
    },
    {
      "hash": "0x3075cfeb374dce704c5bca3aa5fd79552c8a7691a16701234db4280c0e5d6ebe",
      "transactionType": "CALL",
      "contractName": null,
      "contractAddress": "0xe6e2bd32ff1e566f6f3bbecd241ac921d0c328a4",
      "function": "transfer(address,uint256)",
      "arguments": [
        "0x09c3B4Cd85a4D9A490c0fd6a8976D2d4e83E165b",
        "3000000000000000000"
      ],
      "transaction": {
        "from": "0x3a27719ef5f46c917680eb59ccd744aaa0998bd8",
        "to": "0xe6e2bd32ff1e566f6f3bbecd241ac921d0c328a4",
        "gas": "0x14c00",
        "value": "0x0",
        "input": "0xa9059cbb00000000000000000000000009c3b4cd85a4d9a490c0fd6a8976d2d4e83e165b00000000000000000000000000000000000000000000000029a2241af62c0000",
        "nonce": "0xe",
        "chainId": "0x66eee"
      },
      "additionalContracts": [],
      "isFixedGasLimit": false
    },
    {
      "hash": "0x2307de856bccaa1d1de08262c482e51c7d3496bcd547f035c31a6141f53a824c",
      "transactionType": "CALL",
      "contractName": null,
      "contractAddress": "0xe6e2bd32ff1e566f6f3bbecd241ac921d0c328a4",
      "function": "transfer(address,uint256)",
      "arguments": [
        "0xF4e9e57b57D5D58834164A01a1FbD36A68daC47E",
        "8000000000000000000"
      ],
      "transaction": {
        "from": "0x09c3b4cd85a4d9a490c0fd6a8976d2d4e83e165b",
        "to": "0xe6e2bd32ff1e566f6f3bbecd241ac921d0c328a4",
        "gas": "0x17e3d",
        "value": "0x0",
        "input": "0xa9059cbb000000000000000000000000f4e9e57b57d5d58834164a01a1fbd36a68dac47e0000000000000000000000000000000000000000000000006f05b59d3b200000",
        "nonce": "0xc",
        "chainId": "0x66eee"
      },
      "additionalContracts": [],
      "isFixedGasLimit": false
    },
    {
      "hash": "0xac7918fe6cbed74a0512314abb74ac11986eb77eadfd08d4059beb2f548e1871",
      "transactionType": "CALL",
      "contractName": null,
      "contractAddress": "0xe6e2bd32ff1e566f6f3bbecd241ac921d0c328a4",
      "function": "transfer(address,uint256)",
      "arguments": [
        "0xdaC88f55d8BD5C041a02a281F4ca2F3F1cb4A0f3",
        "10000000000000000000"
      ],
      "transaction": {
        "from": "0xf4e9e57b57d5d58834164a01a1fbd36a68dac47e",
        "to": "0xe6e2bd32ff1e566f6f3bbecd241ac921d0c328a4",
        "gas": "0x17e49",
        "value": "0x0",
        "input": "0xa9059cbb000000000000000000000000dac88f55d8bd5c041a02a281f4ca2f3f1cb4a0f30000000000000000000000000000000000000000000000008ac7230489e80000",
        "nonce": "0xa",
        "chainId": "0x66eee"
      },
      "additionalContracts": [],
      "isFixedGasLimit": false
    },
    {
      "hash": "0xc75c7c954d3959e3079a98f8a22142e75cfc9635e66d38f2966c43c8151707bf",
      "transactionType": "CALL",
      "contractName": null,
      "contractAddress": "0xe6e2bd32ff1e566f6f3bbecd241ac921d0c328a4",
      "function": "transfer(address,uint256)",
      "arguments": [
        "0xe82d3B9473F0A06D6715581C336E18E949030da1",
        "10000000000000000000"
      ],
      "transaction": {
        "from": "0xdac88f55d8bd5c041a02a281f4ca2f3f1cb4a0f3",
        "to": "0xe6e2bd32ff1e566f6f3bbecd241ac921d0c328a4",
        "gas": "0x12190",
        "value": "0x0",
        "input": "0xa9059cbb000000000000000000000000e82d3b9473f0a06d6715581c336e18e949030da10000000000000000000000000000000000000000000000008ac7230489e80000",
        "nonce": "0xc",
        "chainId": "0x66eee"
      },
      "additionalContracts": [],
      "isFixedGasLimit": false
    }
  ],
  "receipts": [
    {
      "status": "0x1",
      "cumulativeGasUsed": "0x4b002",
      "logs": [
        {
          "address": "0xe6e2bd32ff1e566f6f3bbecd241ac921d0c328a4",
          "topics": [
            "0xddf252ad1be2c89b69c2b068fc378daa952ba7f163c4a11628f55a4df523b3ef",
            "0x000000000000000000000000e82d3b9473f0a06d6715581c336e18e949030da1",
            "0x0000000000000000000000003a27719ef5f46c917680eb59ccd744aaa0998bd8"
          ],
          "data": "0x0000000000000000000000000000000000000000000000006124fee993bc0000",
          "blockHash": "0x2a2583ead27e9f6ba78df789ab15d1067f224a6b3e03ad0b575ac1cfa97a49e5",
          "blockNumber": "0x58a7f91",
          "transactionHash": "0xcbe63c7b2073421d50f785cb9fc939cf4fa0074204034d6039fb97362cd9fdea",
          "transactionIndex": "0x2",
          "logIndex": "0x1",
          "removed": false
        },
        {
          "address": "0xe6e2bd32ff1e566f6f3bbecd241ac921d0c328a4",
          "topics": [
            "0x7e1b4577399017960fc6a1284e846e5682b112a94c7c1e28afa6dc3031324a29",
            "0x000000000000000000000000e82d3b9473f0a06d6715581c336e18e949030da1",
            "0x0000000000000000000000003a27719ef5f46c917680eb59ccd744aaa0998bd8"
          ],
          "data": "0x0000000000000000000000000000000000000000000000006124fee993bc000000000000000000000000000000000000000000000000000000000000000000000000000000000000000000000000000000000000000000000000000067221aff",
          "blockHash": "0x2a2583ead27e9f6ba78df789ab15d1067f224a6b3e03ad0b575ac1cfa97a49e5",
          "blockNumber": "0x58a7f91",
          "transactionHash": "0xcbe63c7b2073421d50f785cb9fc939cf4fa0074204034d6039fb97362cd9fdea",
          "transactionIndex": "0x2",
          "logIndex": "0x2",
          "removed": false
        }
      ],
      "logsBloom": "0x00000000000000000000000000000000080000000000000000000000000000000000000000000000000008000000000000400000000040000000000000000000000000000000000000000008000000000000000000000000000000000000000000000000040000000000000000000000000000000000000000000010000000000000000000000000000000000001001000000000000000000000000000000000000000000000000008000000000000000000000000000000000000000000008000000002000000000000000000000000000000000000000000000000000000000000000000010000000000000000000000000000010000000000040000000000",
      "type": "0x2",
      "transactionHash": "0xcbe63c7b2073421d50f785cb9fc939cf4fa0074204034d6039fb97362cd9fdea",
      "transactionIndex": "0x2",
      "blockHash": "0x2a2583ead27e9f6ba78df789ab15d1067f224a6b3e03ad0b575ac1cfa97a49e5",
      "blockNumber": "0x58a7f91",
      "gasUsed": "0xc420",
      "effectiveGasPrice": "0x708feb0",
      "from": "0xe82d3b9473f0a06d6715581c336e18e949030da1",
      "to": "0xe6e2bd32ff1e566f6f3bbecd241ac921d0c328a4",
      "contractAddress": null,
      "gasUsedForL1": "0x2b4",
      "l1BlockNumber": "0x6a7373"
    },
    {
      "status": "0x1",
      "cumulativeGasUsed": "0xd3fac",
      "logs": [
        {
          "address": "0xe6e2bd32ff1e566f6f3bbecd241ac921d0c328a4",
          "topics": [
            "0xddf252ad1be2c89b69c2b068fc378daa952ba7f163c4a11628f55a4df523b3ef",
            "0x0000000000000000000000003a27719ef5f46c917680eb59ccd744aaa0998bd8",
            "0x00000000000000000000000009c3b4cd85a4d9a490c0fd6a8976d2d4e83e165b"
          ],
          "data": "0x00000000000000000000000000000000000000000000000029a2241af62c0000",
          "blockHash": "0x85d2d3759cd02ef5e709a0526b0b7dcd1770040014c362e24c17fef234e8f14f",
          "blockNumber": "0x58a7f97",
          "transactionHash": "0x3075cfeb374dce704c5bca3aa5fd79552c8a7691a16701234db4280c0e5d6ebe",
          "transactionIndex": "0x2",
          "logIndex": "0x1",
          "removed": false
        },
        {
          "address": "0xe6e2bd32ff1e566f6f3bbecd241ac921d0c328a4",
          "topics": [
            "0x7e1b4577399017960fc6a1284e846e5682b112a94c7c1e28afa6dc3031324a29",
            "0x0000000000000000000000003a27719ef5f46c917680eb59ccd744aaa0998bd8",
            "0x00000000000000000000000009c3b4cd85a4d9a490c0fd6a8976d2d4e83e165b"
          ],
          "data": "0x00000000000000000000000000000000000000000000000029a2241af62c000000000000000000000000000000000000000000000000000000000000000000000000000000000000000000000000000000000000000000000000000067221b01",
          "blockHash": "0x85d2d3759cd02ef5e709a0526b0b7dcd1770040014c362e24c17fef234e8f14f",
          "blockNumber": "0x58a7f97",
          "transactionHash": "0x3075cfeb374dce704c5bca3aa5fd79552c8a7691a16701234db4280c0e5d6ebe",
          "transactionIndex": "0x2",
          "logIndex": "0x2",
          "removed": false
        }
      ],
      "logsBloom": "0x00000000000000000000000000000000080000000000000000800000000000000000000000000000000008000000004000400000000040000000000000000000000000000000000000000008000000000000000000000000000000000000000000000000000000000000000000000000000000000000000000000010000000000000000000000000000000000001000000000000000000000000000000000000000000000000000000000000000000004000000000000000000000000000008000000002000000000000000000000000000000000000000000000000000000000000000000010000000000000000000000000000010000000000040000000000",
      "type": "0x2",
      "transactionHash": "0x3075cfeb374dce704c5bca3aa5fd79552c8a7691a16701234db4280c0e5d6ebe",
      "transactionIndex": "0x2",
      "blockHash": "0x85d2d3759cd02ef5e709a0526b0b7dcd1770040014c362e24c17fef234e8f14f",
      "blockNumber": "0x58a7f97",
      "gasUsed": "0xc423",
      "effectiveGasPrice": "0x6fffe00",
      "from": "0x3a27719ef5f46c917680eb59ccd744aaa0998bd8",
      "to": "0xe6e2bd32ff1e566f6f3bbecd241ac921d0c328a4",
      "contractAddress": null,
      "gasUsedForL1": "0x2b7",
      "l1BlockNumber": "0x6a7373"
    },
    {
      "status": "0x1",
      "cumulativeGasUsed": "0xe358",
      "logs": [
        {
          "address": "0xe6e2bd32ff1e566f6f3bbecd241ac921d0c328a4",
          "topics": [
            "0xddf252ad1be2c89b69c2b068fc378daa952ba7f163c4a11628f55a4df523b3ef",
            "0x00000000000000000000000009c3b4cd85a4d9a490c0fd6a8976d2d4e83e165b",
            "0x000000000000000000000000f4e9e57b57d5d58834164a01a1fbd36a68dac47e"
          ],
          "data": "0x0000000000000000000000000000000000000000000000006de97e09bd180000",
          "blockHash": "0xc23f9b8434f1e267f59b22501f4dc85fdab7275003de65e33d4f2496b2448733",
          "blockNumber": "0x58a7f9d",
          "transactionHash": "0x2307de856bccaa1d1de08262c482e51c7d3496bcd547f035c31a6141f53a824c",
          "transactionIndex": "0x1",
          "logIndex": "0x0",
          "removed": false
        },
        {
          "address": "0xe6e2bd32ff1e566f6f3bbecd241ac921d0c328a4",
          "topics": [
            "0xddf252ad1be2c89b69c2b068fc378daa952ba7f163c4a11628f55a4df523b3ef",
            "0x00000000000000000000000009c3b4cd85a4d9a490c0fd6a8976d2d4e83e165b",
            "0x000000000000000000000000e82d3b9473f0a06d6715581c336e18e949030da1"
          ],
          "data": "0x000000000000000000000000000000000000000000000000011c37937e080000",
          "blockHash": "0xc23f9b8434f1e267f59b22501f4dc85fdab7275003de65e33d4f2496b2448733",
          "blockNumber": "0x58a7f9d",
          "transactionHash": "0x2307de856bccaa1d1de08262c482e51c7d3496bcd547f035c31a6141f53a824c",
          "transactionIndex": "0x1",
          "logIndex": "0x1",
          "removed": false
        },
        {
          "address": "0xe6e2bd32ff1e566f6f3bbecd241ac921d0c328a4",
          "topics": [
            "0x7e1b4577399017960fc6a1284e846e5682b112a94c7c1e28afa6dc3031324a29",
            "0x00000000000000000000000009c3b4cd85a4d9a490c0fd6a8976d2d4e83e165b",
            "0x000000000000000000000000f4e9e57b57d5d58834164a01a1fbd36a68dac47e"
          ],
          "data": "0x0000000000000000000000000000000000000000000000006de97e09bd180000000000000000000000000000000000000000000000000000011c37937e0800000000000000000000000000000000000000000000000000000000000067221b02",
          "blockHash": "0xc23f9b8434f1e267f59b22501f4dc85fdab7275003de65e33d4f2496b2448733",
          "blockNumber": "0x58a7f9d",
          "transactionHash": "0x2307de856bccaa1d1de08262c482e51c7d3496bcd547f035c31a6141f53a824c",
          "transactionIndex": "0x1",
          "logIndex": "0x2",
          "removed": false
        }
      ],
      "logsBloom": "0x00000040000000000000000000000000080000000000000000800000000000000000000000000000000008000000004000400000000040000000000000000000000000000000000000000008000000000000000000000000000000000000000000000000040000000000000000000000000000000000000000000010000000000000000000000000000000000000001000000000000000100000000000000000000000000000000008000001000000004000000000000000000000000000000000000002000000000000000000000000000000000000000000000000000000000000000000010000000000000000000000000000010000000000000000000000",
      "type": "0x2",
      "transactionHash": "0x2307de856bccaa1d1de08262c482e51c7d3496bcd547f035c31a6141f53a824c",
      "transactionIndex": "0x1",
      "blockHash": "0xc23f9b8434f1e267f59b22501f4dc85fdab7275003de65e33d4f2496b2448733",
      "blockNumber": "0x58a7f9d",
      "gasUsed": "0xe358",
      "effectiveGasPrice": "0x6fcf0c0",
      "from": "0x09c3b4cd85a4d9a490c0fd6a8976d2d4e83e165b",
      "to": "0xe6e2bd32ff1e566f6f3bbecd241ac921d0c328a4",
      "contractAddress": null,
      "gasUsedForL1": "0x2b4",
      "l1BlockNumber": "0x6a7373"
    },
    {
      "status": "0x1",
      "cumulativeGasUsed": "0xe363",
      "logs": [
        {
          "address": "0xe6e2bd32ff1e566f6f3bbecd241ac921d0c328a4",
          "topics": [
            "0xddf252ad1be2c89b69c2b068fc378daa952ba7f163c4a11628f55a4df523b3ef",
            "0x000000000000000000000000f4e9e57b57d5d58834164a01a1fbd36a68dac47e",
            "0x000000000000000000000000dac88f55d8bd5c041a02a281f4ca2f3f1cb4a0f3"
          ],
          "data": "0x0000000000000000000000000000000000000000000000008963dd8c2c5e0000",
          "blockHash": "0x97a9338c8d35fc283e830d4f3692c57c3d3e46ace22a3405e904eab1da53ffb6",
          "blockNumber": "0x58a7fa3",
          "transactionHash": "0xac7918fe6cbed74a0512314abb74ac11986eb77eadfd08d4059beb2f548e1871",
          "transactionIndex": "0x1",
          "logIndex": "0x0",
          "removed": false
        },
        {
          "address": "0xe6e2bd32ff1e566f6f3bbecd241ac921d0c328a4",
          "topics": [
            "0xddf252ad1be2c89b69c2b068fc378daa952ba7f163c4a11628f55a4df523b3ef",
            "0x000000000000000000000000f4e9e57b57d5d58834164a01a1fbd36a68dac47e",
            "0x000000000000000000000000e82d3b9473f0a06d6715581c336e18e949030da1"
          ],
          "data": "0x000000000000000000000000000000000000000000000000016345785d8a0000",
          "blockHash": "0x97a9338c8d35fc283e830d4f3692c57c3d3e46ace22a3405e904eab1da53ffb6",
          "blockNumber": "0x58a7fa3",
          "transactionHash": "0xac7918fe6cbed74a0512314abb74ac11986eb77eadfd08d4059beb2f548e1871",
          "transactionIndex": "0x1",
          "logIndex": "0x1",
          "removed": false
        },
        {
          "address": "0xe6e2bd32ff1e566f6f3bbecd241ac921d0c328a4",
          "topics": [
            "0x7e1b4577399017960fc6a1284e846e5682b112a94c7c1e28afa6dc3031324a29",
            "0x000000000000000000000000f4e9e57b57d5d58834164a01a1fbd36a68dac47e",
            "0x000000000000000000000000dac88f55d8bd5c041a02a281f4ca2f3f1cb4a0f3"
          ],
          "data": "0x0000000000000000000000000000000000000000000000008963dd8c2c5e0000000000000000000000000000000000000000000000000000016345785d8a00000000000000000000000000000000000000000000000000000000000067221b04",
          "blockHash": "0x97a9338c8d35fc283e830d4f3692c57c3d3e46ace22a3405e904eab1da53ffb6",
          "blockNumber": "0x58a7fa3",
          "transactionHash": "0xac7918fe6cbed74a0512314abb74ac11986eb77eadfd08d4059beb2f548e1871",
          "transactionIndex": "0x1",
          "logIndex": "0x2",
          "removed": false
        }
      ],
      "logsBloom": "0x00000040000000000000000000000000080000000000000000000000000000000000000000000000001008000000000000400000000040000000000000000000000000000000000000020008000000000000000000000000000000000000000000000000040000000000000000000000000000000000000000000010000000000000000000000000000000000000001000000000000000100000000000000000000000000000000008000001000000020000000000000000000000000000000000000002000000000000000000000000000000000000000000000000000000000000000000010000000000000000000000000000010000000000000000000000",
      "type": "0x2",
      "transactionHash": "0xac7918fe6cbed74a0512314abb74ac11986eb77eadfd08d4059beb2f548e1871",
      "transactionIndex": "0x1",
      "blockHash": "0x97a9338c8d35fc283e830d4f3692c57c3d3e46ace22a3405e904eab1da53ffb6",
      "blockNumber": "0x58a7fa3",
      "gasUsed": "0xe363",
      "effectiveGasPrice": "0x6eaef60",
      "from": "0xf4e9e57b57d5d58834164a01a1fbd36a68dac47e",
      "to": "0xe6e2bd32ff1e566f6f3bbecd241ac921d0c328a4",
      "contractAddress": null,
      "gasUsedForL1": "0x2bf",
      "l1BlockNumber": "0x6a7373"
    },
    {
      "status": "0x1",
      "cumulativeGasUsed": "0xd467",
      "logs": [
        {
          "address": "0xe6e2bd32ff1e566f6f3bbecd241ac921d0c328a4",
          "topics": [
            "0xddf252ad1be2c89b69c2b068fc378daa952ba7f163c4a11628f55a4df523b3ef",
            "0x000000000000000000000000dac88f55d8bd5c041a02a281f4ca2f3f1cb4a0f3",
            "0x000000000000000000000000e82d3b9473f0a06d6715581c336e18e949030da1"
          ],
          "data": "0x0000000000000000000000000000000000000000000000008963dd8c2c5e0000",
          "blockHash": "0x530961310424fb49a0d6ee1febce5d511ea1579d5176e4129e32d2d0b9ef3e3e",
          "blockNumber": "0x58a7fad",
          "transactionHash": "0xc75c7c954d3959e3079a98f8a22142e75cfc9635e66d38f2966c43c8151707bf",
          "transactionIndex": "0x1",
          "logIndex": "0x0",
          "removed": false
        },
        {
          "address": "0xe6e2bd32ff1e566f6f3bbecd241ac921d0c328a4",
          "topics": [
            "0xddf252ad1be2c89b69c2b068fc378daa952ba7f163c4a11628f55a4df523b3ef",
            "0x000000000000000000000000dac88f55d8bd5c041a02a281f4ca2f3f1cb4a0f3",
            "0x000000000000000000000000e82d3b9473f0a06d6715581c336e18e949030da1"
          ],
          "data": "0x000000000000000000000000000000000000000000000000016345785d8a0000",
          "blockHash": "0x530961310424fb49a0d6ee1febce5d511ea1579d5176e4129e32d2d0b9ef3e3e",
          "blockNumber": "0x58a7fad",
          "transactionHash": "0xc75c7c954d3959e3079a98f8a22142e75cfc9635e66d38f2966c43c8151707bf",
          "transactionIndex": "0x1",
          "logIndex": "0x1",
          "removed": false
        },
        {
          "address": "0xe6e2bd32ff1e566f6f3bbecd241ac921d0c328a4",
          "topics": [
            "0x7e1b4577399017960fc6a1284e846e5682b112a94c7c1e28afa6dc3031324a29",
            "0x000000000000000000000000dac88f55d8bd5c041a02a281f4ca2f3f1cb4a0f3",
            "0x000000000000000000000000e82d3b9473f0a06d6715581c336e18e949030da1"
          ],
          "data": "0x0000000000000000000000000000000000000000000000008963dd8c2c5e0000000000000000000000000000000000000000000000000000016345785d8a00000000000000000000000000000000000000000000000000000000000067221b06",
          "blockHash": "0x530961310424fb49a0d6ee1febce5d511ea1579d5176e4129e32d2d0b9ef3e3e",
          "blockNumber": "0x58a7fad",
          "transactionHash": "0xc75c7c954d3959e3079a98f8a22142e75cfc9635e66d38f2966c43c8151707bf",
          "transactionIndex": "0x1",
          "logIndex": "0x2",
          "removed": false
        }
      ],
      "logsBloom": "0x00000000000000000000000000000000080000000000000000000000000000000000000000000000001008000000000000400000000040000000000000000000000000000000000000020008000000000000000000000000000000000000000000000000040000000000000000000000000000000000000000000010000000000000000000000000000000000000001000000000000000000000000000000000000000000000000008000000000000020000000000000000000000000000000000000002000000000000000000000000000000000000000000000000000000000000000000010000000000000000000000000000010000000000000000000000",
      "type": "0x2",
      "transactionHash": "0xc75c7c954d3959e3079a98f8a22142e75cfc9635e66d38f2966c43c8151707bf",
      "transactionIndex": "0x1",
      "blockHash": "0x530961310424fb49a0d6ee1febce5d511ea1579d5176e4129e32d2d0b9ef3e3e",
      "blockNumber": "0x58a7fad",
      "gasUsed": "0xd467",
      "effectiveGasPrice": "0x6e15270",
      "from": "0xdac88f55d8bd5c041a02a281f4ca2f3f1cb4a0f3",
      "to": "0xe6e2bd32ff1e566f6f3bbecd241ac921d0c328a4",
      "contractAddress": null,
      "gasUsedForL1": "0x2c3",
      "l1BlockNumber": "0x6a7373"
    }
  ],
  "libraries": [],
  "pending": [],
  "returns": {},
  "timestamp": 1730288392,
  "chain": 421614,
  "commit": "df49bee"
}