{
  "transactions": [
    {
      "hash": "0xbb84f2c6d80ca6743c54c1ea28dd89b249391b31c7367fcac9cdb69ad59a192f",
      "transactionType": "CALL",
      "contractName": null,
      "contractAddress": "0x4c9c4d998d27c9f1c69f27b4343045543cba3cbe",
      "function": "transfer(address,uint256)",
      "arguments": [
        "0x3a27719ef5f46c917680eb59cCD744aaa0998Bd8",
        "4"
      ],
      "transaction": {
        "from": "0xe82d3b9473f0a06d6715581c336e18e949030da1",
        "to": "0x4c9c4d998d27c9f1c69f27b4343045543cba3cbe",
        "gas": "0x147ae",
        "value": "0x0",
        "input": "0xa9059cbb0000000000000000000000003a27719ef5f46c917680eb59ccd744aaa0998bd80000000000000000000000000000000000000000000000000000000000000004",
        "nonce": "0x3c",
        "chainId": "0x66eee"
      },
      "additionalContracts": [],
      "isFixedGasLimit": false
    },
    {
      "hash": "0xde049c60a14742dd8831834e4cab250da0e6cc2f46119a18d38ab1deeafdec5d",
      "transactionType": "CALL",
      "contractName": null,
      "contractAddress": "0x4c9c4d998d27c9f1c69f27b4343045543cba3cbe",
      "function": "transfer(address,uint256)",
      "arguments": [
        "0x09c3B4Cd85a4D9A490c0fd6a8976D2d4e83E165b",
        "2"
      ],
      "transaction": {
        "from": "0xe82d3b9473f0a06d6715581c336e18e949030da1",
        "to": "0x4c9c4d998d27c9f1c69f27b4343045543cba3cbe",
        "gas": "0x147ae",
        "value": "0x0",
        "input": "0xa9059cbb00000000000000000000000009c3b4cd85a4d9a490c0fd6a8976d2d4e83e165b0000000000000000000000000000000000000000000000000000000000000002",
        "nonce": "0x3d",
        "chainId": "0x66eee"
      },
      "additionalContracts": [],
      "isFixedGasLimit": false
    },
    {
      "hash": "0x1eced0c6baef6bbcfbaf987462bb130cd0c095f587c77186a95a4b1be7da7d93",
      "transactionType": "CALL",
      "contractName": null,
      "contractAddress": "0x4c9c4d998d27c9f1c69f27b4343045543cba3cbe",
      "function": "transfer(address,uint256)",
      "arguments": [
        "0xF4e9e57b57D5D58834164A01a1FbD36A68daC47E",
        "10"
      ],
      "transaction": {
        "from": "0xe82d3b9473f0a06d6715581c336e18e949030da1",
        "to": "0x4c9c4d998d27c9f1c69f27b4343045543cba3cbe",
        "gas": "0x147ae",
        "value": "0x0",
        "input": "0xa9059cbb000000000000000000000000f4e9e57b57d5d58834164a01a1fbd36a68dac47e000000000000000000000000000000000000000000000000000000000000000a",
        "nonce": "0x3e",
        "chainId": "0x66eee"
      },
      "additionalContracts": [],
      "isFixedGasLimit": false
    },
    {
      "hash": "0xcf6132e58dee1ea2e8c8f2befc95209f8eb4dea1cb73659a6dc777944e2f30ae",
      "transactionType": "CALL",
      "contractName": null,
      "contractAddress": "0x4c9c4d998d27c9f1c69f27b4343045543cba3cbe",
      "function": "transfer(address,uint256)",
      "arguments": [
        "0xdaC88f55d8BD5C041a02a281F4ca2F3F1cb4A0f3",
        "8"
      ],
      "transaction": {
        "from": "0xe82d3b9473f0a06d6715581c336e18e949030da1",
        "to": "0x4c9c4d998d27c9f1c69f27b4343045543cba3cbe",
        "gas": "0x147ae",
        "value": "0x0",
        "input": "0xa9059cbb000000000000000000000000dac88f55d8bd5c041a02a281f4ca2f3f1cb4a0f30000000000000000000000000000000000000000000000000000000000000008",
        "nonce": "0x3f",
        "chainId": "0x66eee"
      },
      "additionalContracts": [],
      "isFixedGasLimit": false
    }
  ],
  "receipts": [
    {
      "status": "0x1",
      "cumulativeGasUsed": "0xc1e0",
      "logs": [
        {
          "address": "0x4c9c4d998d27c9f1c69f27b4343045543cba3cbe",
          "topics": [
            "0xddf252ad1be2c89b69c2b068fc378daa952ba7f163c4a11628f55a4df523b3ef",
            "0x000000000000000000000000e82d3b9473f0a06d6715581c336e18e949030da1",
            "0x0000000000000000000000003a27719ef5f46c917680eb59ccd744aaa0998bd8"
          ],
          "data": "0x0000000000000000000000000000000000000000000000000000000000000004",
          "blockHash": "0xcdd724ae1d57d563f0aeaa04c0102dc096ae480081a8b4a3360f60924921ef64",
          "blockNumber": "0x5857386",
          "transactionHash": "0xbb84f2c6d80ca6743c54c1ea28dd89b249391b31c7367fcac9cdb69ad59a192f",
          "transactionIndex": "0x1",
          "logIndex": "0x0",
          "removed": false
        },
        {
          "address": "0x4c9c4d998d27c9f1c69f27b4343045543cba3cbe",
          "topics": [
            "0x98bc3fe7d138931a49691b623c256b8812f2a3d7f9b25ba7098c82538977a5d0",
            "0x000000000000000000000000e82d3b9473f0a06d6715581c336e18e949030da1",
            "0x0000000000000000000000003a27719ef5f46c917680eb59ccd744aaa0998bd8"
          ],
          "data": "0x00000000000000000000000000000000000000000000000000000000000000040000000000000000000000000000000000000000000000000000000000000000",
          "blockHash": "0xcdd724ae1d57d563f0aeaa04c0102dc096ae480081a8b4a3360f60924921ef64",
          "blockNumber": "0x5857386",
          "transactionHash": "0xbb84f2c6d80ca6743c54c1ea28dd89b249391b31c7367fcac9cdb69ad59a192f",
          "transactionIndex": "0x1",
          "logIndex": "0x1",
          "removed": false
        }
      ],
      "logsBloom": "0x00000000000000000000000000000000000000000000000000000000000000000000000000000000000000000000001000004000000000000000000000000000000000000000000000000008000000000000000000004000000000000020000000000000040000000000000000000000000000000000000000000010000000000000000000000000000000000001001000000000000010000000000000000000000000000000000008000000000000000000000000000000000000000000008000000002000000000000000000000000000000000000000020000000000000000000000000000000000000000000000000000000000000000000040000000000",
      "type": "0x2",
      "transactionHash": "0xbb84f2c6d80ca6743c54c1ea28dd89b249391b31c7367fcac9cdb69ad59a192f",
      "transactionIndex": "0x1",
      "blockHash": "0xcdd724ae1d57d563f0aeaa04c0102dc096ae480081a8b4a3360f60924921ef64",
      "blockNumber": "0x5857386",
      "gasUsed": "0xc1e0",
      "effectiveGasPrice": "0xb181e50",
      "from": "0xe82d3b9473f0a06d6715581c336e18e949030da1",
      "to": "0x4c9c4d998d27c9f1c69f27b4343045543cba3cbe",
      "contractAddress": null,
      "gasUsedForL1": "0x180",
      "l1BlockNumber": "0x6a55cc"
    },
    {
      "status": "0x1",
      "cumulativeGasUsed": "0xc1e3",
      "logs": [
        {
          "address": "0x4c9c4d998d27c9f1c69f27b4343045543cba3cbe",
          "topics": [
            "0xddf252ad1be2c89b69c2b068fc378daa952ba7f163c4a11628f55a4df523b3ef",
            "0x000000000000000000000000e82d3b9473f0a06d6715581c336e18e949030da1",
            "0x00000000000000000000000009c3b4cd85a4d9a490c0fd6a8976d2d4e83e165b"
          ],
          "data": "0x0000000000000000000000000000000000000000000000000000000000000002",
          "blockHash": "0x35a56411d184c7d609a1d1697bfdd08dbe0cb0178b0dfc2257a8676ec200cdb7",
          "blockNumber": "0x585738b",
          "transactionHash": "0xde049c60a14742dd8831834e4cab250da0e6cc2f46119a18d38ab1deeafdec5d",
          "transactionIndex": "0x1",
          "logIndex": "0x0",
          "removed": false
        },
        {
          "address": "0x4c9c4d998d27c9f1c69f27b4343045543cba3cbe",
          "topics": [
            "0x98bc3fe7d138931a49691b623c256b8812f2a3d7f9b25ba7098c82538977a5d0",
            "0x000000000000000000000000e82d3b9473f0a06d6715581c336e18e949030da1",
            "0x00000000000000000000000009c3b4cd85a4d9a490c0fd6a8976d2d4e83e165b"
          ],
          "data": "0x00000000000000000000000000000000000000000000000000000000000000020000000000000000000000000000000000000000000000000000000000000000",
          "blockHash": "0x35a56411d184c7d609a1d1697bfdd08dbe0cb0178b0dfc2257a8676ec200cdb7",
          "blockNumber": "0x585738b",
          "transactionHash": "0xde049c60a14742dd8831834e4cab250da0e6cc2f46119a18d38ab1deeafdec5d",
          "transactionIndex": "0x1",
          "logIndex": "0x1",
          "removed": false
        }
      ],
      "logsBloom": "0x00000000000000000000000000000000000000000000000000800000000000000000000000000000000000000000005000004000000000000000000000000000000000000000000000000008000000000000000000004000000000000020000000000000040000000000000000000000000000000000000000000010000000000000000000000000000000000000001000000000000010000000000000000000000000000000000008000000000000004000000000000000000000000000000000000002000000000000000000000000000000000000000020000000000000000000000000000000000000000000000000000000000000000000000000000000",
      "type": "0x2",
      "transactionHash": "0xde049c60a14742dd8831834e4cab250da0e6cc2f46119a18d38ab1deeafdec5d",
      "transactionIndex": "0x1",
      "blockHash": "0x35a56411d184c7d609a1d1697bfdd08dbe0cb0178b0dfc2257a8676ec200cdb7",
      "blockNumber": "0x585738b",
      "gasUsed": "0xc1e3",
      "effectiveGasPrice": "0xb02e8a0",
      "from": "0xe82d3b9473f0a06d6715581c336e18e949030da1",
      "to": "0x4c9c4d998d27c9f1c69f27b4343045543cba3cbe",
      "contractAddress": null,
      "gasUsedForL1": "0x183",
      "l1BlockNumber": "0x6a55cc"
    },
    {
      "status": "0x1",
      "cumulativeGasUsed": "0xc1dc",
      "logs": [
        {
          "address": "0x4c9c4d998d27c9f1c69f27b4343045543cba3cbe",
          "topics": [
            "0xddf252ad1be2c89b69c2b068fc378daa952ba7f163c4a11628f55a4df523b3ef",
            "0x000000000000000000000000e82d3b9473f0a06d6715581c336e18e949030da1",
            "0x000000000000000000000000f4e9e57b57d5d58834164a01a1fbd36a68dac47e"
          ],
          "data": "0x000000000000000000000000000000000000000000000000000000000000000a",
          "blockHash": "0x3a52047a8962823aa0d57c6a071b05a763ae5bceaea53687b77a5dc5af3ee1ba",
          "blockNumber": "0x585738f",
          "transactionHash": "0x1eced0c6baef6bbcfbaf987462bb130cd0c095f587c77186a95a4b1be7da7d93",
          "transactionIndex": "0x1",
          "logIndex": "0x0",
          "removed": false
        },
        {
          "address": "0x4c9c4d998d27c9f1c69f27b4343045543cba3cbe",
          "topics": [
            "0x98bc3fe7d138931a49691b623c256b8812f2a3d7f9b25ba7098c82538977a5d0",
            "0x000000000000000000000000e82d3b9473f0a06d6715581c336e18e949030da1",
            "0x000000000000000000000000f4e9e57b57d5d58834164a01a1fbd36a68dac47e"
          ],
          "data": "0x000000000000000000000000000000000000000000000000000000000000000a0000000000000000000000000000000000000000000000000000000000000000",
          "blockHash": "0x3a52047a8962823aa0d57c6a071b05a763ae5bceaea53687b77a5dc5af3ee1ba",
          "blockNumber": "0x585738f",
          "transactionHash": "0x1eced0c6baef6bbcfbaf987462bb130cd0c095f587c77186a95a4b1be7da7d93",
          "transactionIndex": "0x1",
          "logIndex": "0x1",
          "removed": false
        }
      ],
      "logsBloom": "0x00000040000000000000000000000000000000000000000000000000000000000000000000000000000000000000001000004000000000000000000000000000000000000000000000000008000000000000000000004000000000000020000000000000040000000000000000000000000000000000000000000010000000000000000000000000000000000000001000000000000010100000000000000000000000000000000008000001000000000000000000000000000000000000000000000002000000000000000000000000000000000000000020000000000000000000000000000000000000000000000000000000000000000000000000000000",
      "type": "0x2",
      "transactionHash": "0x1eced0c6baef6bbcfbaf987462bb130cd0c095f587c77186a95a4b1be7da7d93",
      "transactionIndex": "0x1",
      "blockHash": "0x3a52047a8962823aa0d57c6a071b05a763ae5bceaea53687b77a5dc5af3ee1ba",
      "blockNumber": "0x585738f",
      "gasUsed": "0xc1dc",
      "effectiveGasPrice": "0xb3458e0",
      "from": "0xe82d3b9473f0a06d6715581c336e18e949030da1",
      "to": "0x4c9c4d998d27c9f1c69f27b4343045543cba3cbe",
      "contractAddress": null,
      "gasUsedForL1": "0x17c",
      "l1BlockNumber": "0x6a55cc"
    },
    {
      "status": "0x1",
      "cumulativeGasUsed": "0xc1da",
      "logs": [
        {
          "address": "0x4c9c4d998d27c9f1c69f27b4343045543cba3cbe",
          "topics": [
            "0xddf252ad1be2c89b69c2b068fc378daa952ba7f163c4a11628f55a4df523b3ef",
            "0x000000000000000000000000e82d3b9473f0a06d6715581c336e18e949030da1",
            "0x000000000000000000000000dac88f55d8bd5c041a02a281f4ca2f3f1cb4a0f3"
          ],
          "data": "0x0000000000000000000000000000000000000000000000000000000000000008",
          "blockHash": "0x195cb885111e3c120dac3fe2179e3e9d7d3be671e7fa2e003ef6e59ada3a0e87",
          "blockNumber": "0x5857394",
          "transactionHash": "0xcf6132e58dee1ea2e8c8f2befc95209f8eb4dea1cb73659a6dc777944e2f30ae",
          "transactionIndex": "0x1",
          "logIndex": "0x0",
          "removed": false
        },
        {
          "address": "0x4c9c4d998d27c9f1c69f27b4343045543cba3cbe",
          "topics": [
            "0x98bc3fe7d138931a49691b623c256b8812f2a3d7f9b25ba7098c82538977a5d0",
            "0x000000000000000000000000e82d3b9473f0a06d6715581c336e18e949030da1",
            "0x000000000000000000000000dac88f55d8bd5c041a02a281f4ca2f3f1cb4a0f3"
          ],
          "data": "0x00000000000000000000000000000000000000000000000000000000000000080000000000000000000000000000000000000000000000000000000000000000",
          "blockHash": "0x195cb885111e3c120dac3fe2179e3e9d7d3be671e7fa2e003ef6e59ada3a0e87",
          "blockNumber": "0x5857394",
          "transactionHash": "0xcf6132e58dee1ea2e8c8f2befc95209f8eb4dea1cb73659a6dc777944e2f30ae",
          "transactionIndex": "0x1",
          "logIndex": "0x1",
          "removed": false
        }
      ],
      "logsBloom": "0x00000000000000000000000000000000000000000000000000000000000000000000000000000000001000000000001000004000000000000000000000000000000000000000000000020008000000000000000000004000000000000020000000000000040000000000000000000000000000000000000000000010000000000000000000000000000000000000001000000000000010000000000000000000000000000000000008000000000000020000000000000000000000000000000000000002000000000000000000000000000000000000000020000000000000000000000000000000000000000000000000000000000000000000000000000000",
      "type": "0x2",
      "transactionHash": "0xcf6132e58dee1ea2e8c8f2befc95209f8eb4dea1cb73659a6dc777944e2f30ae",
      "transactionIndex": "0x1",
      "blockHash": "0x195cb885111e3c120dac3fe2179e3e9d7d3be671e7fa2e003ef6e59ada3a0e87",
      "blockNumber": "0x5857394",
      "gasUsed": "0xc1da",
      "effectiveGasPrice": "0xb44ac90",
      "from": "0xe82d3b9473f0a06d6715581c336e18e949030da1",
      "to": "0x4c9c4d998d27c9f1c69f27b4343045543cba3cbe",
      "contractAddress": null,
      "gasUsedForL1": "0x17a",
      "l1BlockNumber": "0x6a55cc"
    }
  ],
  "libraries": [],
  "pending": [],
  "returns": {},
  "timestamp": 1730191475,
  "chain": 421614,
  "commit": "056e1e4"
}