{
  "transactions": [
    {
      "hash": "0xd596f57eaf7f58812e5006ecd2ab0bcb92cf28cc6ca778d741e6cf8778792117",
      "transactionType": "CALL",
      "contractName": null,
      "contractAddress": "0x4c9c4d998d27c9f1c69f27b4343045543cba3cbe",
      "function": "transfer(address,uint256)",
      "arguments": [
        "0x3a27719ef5f46c917680eb59cCD744aaa0998Bd8",
        "9000000000000000000"
      ],
      "transaction": {
        "from": "0xe82d3b9473f0a06d6715581c336e18e949030da1",
        "to": "0x4c9c4d998d27c9f1c69f27b4343045543cba3cbe",
        "gas": "0x1473c",
        "value": "0x0",
        "input": "0xa9059cbb0000000000000000000000003a27719ef5f46c917680eb59ccd744aaa0998bd80000000000000000000000000000000000000000000000007ce66c50e2840000",
        "nonce": "0x40",
        "chainId": "0x66eee"
      },
      "additionalContracts": [],
      "isFixedGasLimit": false
    },
    {
      "hash": "0x72e036a773a22719f5950b8b2c968894bd8c0e8f907a3a6de6fb721d60efd03f",
      "transactionType": "CALL",
      "contractName": null,
      "contractAddress": "0x4c9c4d998d27c9f1c69f27b4343045543cba3cbe",
      "function": "transfer(address,uint256)",
      "arguments": [
        "0x09c3B4Cd85a4D9A490c0fd6a8976D2d4e83E165b",
        "7000000000000000000"
      ],
      "transaction": {
        "from": "0xe82d3b9473f0a06d6715581c336e18e949030da1",
        "to": "0x4c9c4d998d27c9f1c69f27b4343045543cba3cbe",
        "gas": "0x14741",
        "value": "0x0",
        "input": "0xa9059cbb00000000000000000000000009c3b4cd85a4d9a490c0fd6a8976d2d4e83e165b0000000000000000000000000000000000000000000000006124fee993bc0000",
        "nonce": "0x41",
        "chainId": "0x66eee"
      },
      "additionalContracts": [],
      "isFixedGasLimit": false
    },
    {
      "hash": "0x28732989410a483d0abaed77960f8b5fcf5fa1756e37026372381ae233b862bf",
      "transactionType": "CALL",
      "contractName": null,
      "contractAddress": "0x4c9c4d998d27c9f1c69f27b4343045543cba3cbe",
      "function": "transfer(address,uint256)",
      "arguments": [
        "0xF4e9e57b57D5D58834164A01a1FbD36A68daC47E",
        "8000000000000000000"
      ],
      "transaction": {
        "from": "0xe82d3b9473f0a06d6715581c336e18e949030da1",
        "to": "0x4c9c4d998d27c9f1c69f27b4343045543cba3cbe",
        "gas": "0x14741",
        "value": "0x0",
        "input": "0xa9059cbb000000000000000000000000f4e9e57b57d5d58834164a01a1fbd36a68dac47e0000000000000000000000000000000000000000000000006f05b59d3b200000",
        "nonce": "0x42",
        "chainId": "0x66eee"
      },
      "additionalContracts": [],
      "isFixedGasLimit": false
    },
    {
      "hash": "0x2598445a0d61e69540c69e9bd43e0cef8d3bb3baaf6e4c389f4a9c31aa45a515",
      "transactionType": "CALL",
      "contractName": null,
      "contractAddress": "0x4c9c4d998d27c9f1c69f27b4343045543cba3cbe",
      "function": "transfer(address,uint256)",
      "arguments": [
        "0xdaC88f55d8BD5C041a02a281F4ca2F3F1cb4A0f3",
        "9000000000000000000"
      ],
      "transaction": {
        "from": "0xe82d3b9473f0a06d6715581c336e18e949030da1",
        "to": "0x4c9c4d998d27c9f1c69f27b4343045543cba3cbe",
        "gas": "0x14741",
        "value": "0x0",
        "input": "0xa9059cbb000000000000000000000000dac88f55d8bd5c041a02a281f4ca2f3f1cb4a0f30000000000000000000000000000000000000000000000007ce66c50e2840000",
        "nonce": "0x43",
        "chainId": "0x66eee"
      },
      "additionalContracts": [],
      "isFixedGasLimit": false
    }
  ],
  "receipts": [
    {
      "status": "0x1",
      "cumulativeGasUsed": "0xc1ce",
      "logs": [
        {
          "address": "0x4c9c4d998d27c9f1c69f27b4343045543cba3cbe",
          "topics": [
            "0xddf252ad1be2c89b69c2b068fc378daa952ba7f163c4a11628f55a4df523b3ef",
            "0x000000000000000000000000e82d3b9473f0a06d6715581c336e18e949030da1",
            "0x0000000000000000000000003a27719ef5f46c917680eb59ccd744aaa0998bd8"
          ],
          "data": "0x0000000000000000000000000000000000000000000000007ce66c50e2840000",
          "blockHash": "0x1343ae9a9a777a70042c8e6d8d2edc98b91ab0a45c28687fb306d42afe80789d",
          "blockNumber": "0x5857b38",
          "transactionHash": "0xd596f57eaf7f58812e5006ecd2ab0bcb92cf28cc6ca778d741e6cf8778792117",
          "transactionIndex": "0x1",
          "logIndex": "0x0",
          "removed": false
        },
        {
          "address": "0x4c9c4d998d27c9f1c69f27b4343045543cba3cbe",
          "topics": [
            "0x98bc3fe7d138931a49691b623c256b8812f2a3d7f9b25ba7098c82538977a5d0",
            "0x000000000000000000000000e82d3b9473f0a06d6715581c336e18e949030da1",
            "0x0000000000000000000000003a27719ef5f46c917680eb59ccd744aaa0998bd8"
          ],
          "data": "0x0000000000000000000000000000000000000000000000007ce66c50e28400000000000000000000000000000000000000000000000000000000000000000000",
          "blockHash": "0x1343ae9a9a777a70042c8e6d8d2edc98b91ab0a45c28687fb306d42afe80789d",
          "blockNumber": "0x5857b38",
          "transactionHash": "0xd596f57eaf7f58812e5006ecd2ab0bcb92cf28cc6ca778d741e6cf8778792117",
          "transactionIndex": "0x1",
          "logIndex": "0x1",
          "removed": false
        }
      ],
      "logsBloom": "0x00000000000000000000000000000000000000000000000000000000000000000000000000000000000000000000001000004000000000000000000000000000000000000000000000000008000000000000000000004000000000000020000000000000040000000000000000000000000000000000000000000010000000000000000000000000000000000001001000000000000010000000000000000000000000000000000008000000000000000000000000000000000000000000008000000002000000000000000000000000000000000000000020000000000000000000000000000000000000000000000000000000000000000000040000000000",
      "type": "0x2",
      "transactionHash": "0xd596f57eaf7f58812e5006ecd2ab0bcb92cf28cc6ca778d741e6cf8778792117",
      "transactionIndex": "0x1",
      "blockHash": "0x1343ae9a9a777a70042c8e6d8d2edc98b91ab0a45c28687fb306d42afe80789d",
      "blockNumber": "0x5857b38",
      "gasUsed": "0xc1ce",
      "effectiveGasPrice": "0xb17d030",
      "from": "0xe82d3b9473f0a06d6715581c336e18e949030da1",
      "to": "0x4c9c4d998d27c9f1c69f27b4343045543cba3cbe",
      "contractAddress": null,
      "gasUsedForL1": "0x13e",
      "l1BlockNumber": "0x6a55fc"
    },
    {
      "status": "0x1",
      "cumulativeGasUsed": "0xc1ce",
      "logs": [
        {
          "address": "0x4c9c4d998d27c9f1c69f27b4343045543cba3cbe",
          "topics": [
            "0xddf252ad1be2c89b69c2b068fc378daa952ba7f163c4a11628f55a4df523b3ef",
            "0x000000000000000000000000e82d3b9473f0a06d6715581c336e18e949030da1",
            "0x00000000000000000000000009c3b4cd85a4d9a490c0fd6a8976d2d4e83e165b"
          ],
          "data": "0x0000000000000000000000000000000000000000000000006124fee993bc0000",
          "blockHash": "0x3a87b47b20c8eb5ad1cc068712a3c7969052780552784de51e4f767f4fe98cfd",
          "blockNumber": "0x5857b3b",
          "transactionHash": "0x72e036a773a22719f5950b8b2c968894bd8c0e8f907a3a6de6fb721d60efd03f",
          "transactionIndex": "0x1",
          "logIndex": "0x0",
          "removed": false
        },
        {
          "address": "0x4c9c4d998d27c9f1c69f27b4343045543cba3cbe",
          "topics": [
            "0x98bc3fe7d138931a49691b623c256b8812f2a3d7f9b25ba7098c82538977a5d0",
            "0x000000000000000000000000e82d3b9473f0a06d6715581c336e18e949030da1",
            "0x00000000000000000000000009c3b4cd85a4d9a490c0fd6a8976d2d4e83e165b"
          ],
          "data": "0x0000000000000000000000000000000000000000000000006124fee993bc00000000000000000000000000000000000000000000000000000000000000000000",
          "blockHash": "0x3a87b47b20c8eb5ad1cc068712a3c7969052780552784de51e4f767f4fe98cfd",
          "blockNumber": "0x5857b3b",
          "transactionHash": "0x72e036a773a22719f5950b8b2c968894bd8c0e8f907a3a6de6fb721d60efd03f",
          "transactionIndex": "0x1",
          "logIndex": "0x1",
          "removed": false
        }
      ],
      "logsBloom": "0x00000000000000000000000000000000000000000000000000800000000000000000000000000000000000000000005000004000000000000000000000000000000000000000000000000008000000000000000000004000000000000020000000000000040000000000000000000000000000000000000000000010000000000000000000000000000000000000001000000000000010000000000000000000000000000000000008000000000000004000000000000000000000000000000000000002000000000000000000000000000000000000000020000000000000000000000000000000000000000000000000000000000000000000000000000000",
      "type": "0x2",
      "transactionHash": "0x72e036a773a22719f5950b8b2c968894bd8c0e8f907a3a6de6fb721d60efd03f",
      "transactionIndex": "0x1",
      "blockHash": "0x3a87b47b20c8eb5ad1cc068712a3c7969052780552784de51e4f767f4fe98cfd",
      "blockNumber": "0x5857b3b",
      "gasUsed": "0xc1ce",
      "effectiveGasPrice": "0xb1a6840",
      "from": "0xe82d3b9473f0a06d6715581c336e18e949030da1",
      "to": "0x4c9c4d998d27c9f1c69f27b4343045543cba3cbe",
      "contractAddress": null,
      "gasUsedForL1": "0x13e",
      "l1BlockNumber": "0x6a55fc"
    },
    {
      "status": "0x1",
      "cumulativeGasUsed": "0x15c94a",
      "logs": [
        {
          "address": "0x4c9c4d998d27c9f1c69f27b4343045543cba3cbe",
          "topics": [
            "0xddf252ad1be2c89b69c2b068fc378daa952ba7f163c4a11628f55a4df523b3ef",
            "0x000000000000000000000000e82d3b9473f0a06d6715581c336e18e949030da1",
            "0x000000000000000000000000f4e9e57b57d5d58834164a01a1fbd36a68dac47e"
          ],
          "data": "0x0000000000000000000000000000000000000000000000006f05b59d3b200000",
          "blockHash": "0x901a17e0667e474b840a8bc119c1d58590f927924dacd327628ea13bf9206b6e",
          "blockNumber": "0x5857b43",
          "transactionHash": "0x28732989410a483d0abaed77960f8b5fcf5fa1756e37026372381ae233b862bf",
          "transactionIndex": "0x6",
          "logIndex": "0x10",
          "removed": false
        },
        {
          "address": "0x4c9c4d998d27c9f1c69f27b4343045543cba3cbe",
          "topics": [
            "0x98bc3fe7d138931a49691b623c256b8812f2a3d7f9b25ba7098c82538977a5d0",
            "0x000000000000000000000000e82d3b9473f0a06d6715581c336e18e949030da1",
            "0x000000000000000000000000f4e9e57b57d5d58834164a01a1fbd36a68dac47e"
          ],
          "data": "0x0000000000000000000000000000000000000000000000006f05b59d3b2000000000000000000000000000000000000000000000000000000000000000000000",
          "blockHash": "0x901a17e0667e474b840a8bc119c1d58590f927924dacd327628ea13bf9206b6e",
          "blockNumber": "0x5857b43",
          "transactionHash": "0x28732989410a483d0abaed77960f8b5fcf5fa1756e37026372381ae233b862bf",
          "transactionIndex": "0x6",
          "logIndex": "0x11",
          "removed": false
        }
      ],
      "logsBloom": "0x00000040000000000000000000000000000000000000000000000000000000000000000000000000000000000000001000004000000000000000000000000000000000000000000000000008000000000000000000004000000000000020000000000000040000000000000000000000000000000000000000000010000000000000000000000000000000000000001000000000000010100000000000000000000000000000000008000001000000000000000000000000000000000000000000000002000000000000000000000000000000000000000020000000000000000000000000000000000000000000000000000000000000000000000000000000",
      "type": "0x2",
      "transactionHash": "0x28732989410a483d0abaed77960f8b5fcf5fa1756e37026372381ae233b862bf",
      "transactionIndex": "0x6",
      "blockHash": "0x901a17e0667e474b840a8bc119c1d58590f927924dacd327628ea13bf9206b6e",
      "blockNumber": "0x5857b43",
      "gasUsed": "0xc1c9",
      "effectiveGasPrice": "0xb4e2270",
      "from": "0xe82d3b9473f0a06d6715581c336e18e949030da1",
      "to": "0x4c9c4d998d27c9f1c69f27b4343045543cba3cbe",
      "contractAddress": null,
      "gasUsedForL1": "0x139",
      "l1BlockNumber": "0x6a55fc"
    },
    {
      "status": "0x1",
      "cumulativeGasUsed": "0xc1c2",
      "logs": [
        {
          "address": "0x4c9c4d998d27c9f1c69f27b4343045543cba3cbe",
          "topics": [
            "0xddf252ad1be2c89b69c2b068fc378daa952ba7f163c4a11628f55a4df523b3ef",
            "0x000000000000000000000000e82d3b9473f0a06d6715581c336e18e949030da1",
            "0x000000000000000000000000dac88f55d8bd5c041a02a281f4ca2f3f1cb4a0f3"
          ],
          "data": "0x0000000000000000000000000000000000000000000000007ce66c50e2840000",
          "blockHash": "0x59b745ea1be4d225c823954f5812c894a14a506b21787b42e769344f198c0f95",
          "blockNumber": "0x5857b49",
          "transactionHash": "0x2598445a0d61e69540c69e9bd43e0cef8d3bb3baaf6e4c389f4a9c31aa45a515",
          "transactionIndex": "0x1",
          "logIndex": "0x0",
          "removed": false
        },
        {
          "address": "0x4c9c4d998d27c9f1c69f27b4343045543cba3cbe",
          "topics": [
            "0x98bc3fe7d138931a49691b623c256b8812f2a3d7f9b25ba7098c82538977a5d0",
            "0x000000000000000000000000e82d3b9473f0a06d6715581c336e18e949030da1",
            "0x000000000000000000000000dac88f55d8bd5c041a02a281f4ca2f3f1cb4a0f3"
          ],
          "data": "0x0000000000000000000000000000000000000000000000007ce66c50e28400000000000000000000000000000000000000000000000000000000000000000000",
          "blockHash": "0x59b745ea1be4d225c823954f5812c894a14a506b21787b42e769344f198c0f95",
          "blockNumber": "0x5857b49",
          "transactionHash": "0x2598445a0d61e69540c69e9bd43e0cef8d3bb3baaf6e4c389f4a9c31aa45a515",
          "transactionIndex": "0x1",
          "logIndex": "0x1",
          "removed": false
        }
      ],
      "logsBloom": "0x00000000000000000000000000000000000000000000000000000000000000000000000000000000001000000000001000004000000000000000000000000000000000000000000000020008000000000000000000004000000000000020000000000000040000000000000000000000000000000000000000000010000000000000000000000000000000000000001000000000000010000000000000000000000000000000000008000000000000020000000000000000000000000000000000000002000000000000000000000000000000000000000020000000000000000000000000000000000000000000000000000000000000000000000000000000",
      "type": "0x2",
      "transactionHash": "0x2598445a0d61e69540c69e9bd43e0cef8d3bb3baaf6e4c389f4a9c31aa45a515",
      "transactionIndex": "0x1",
      "blockHash": "0x59b745ea1be4d225c823954f5812c894a14a506b21787b42e769344f198c0f95",
      "blockNumber": "0x5857b49",
      "gasUsed": "0xc1c2",
      "effectiveGasPrice": "0xb8e86d0",
      "from": "0xe82d3b9473f0a06d6715581c336e18e949030da1",
      "to": "0x4c9c4d998d27c9f1c69f27b4343045543cba3cbe",
      "contractAddress": null,
      "gasUsedForL1": "0x132",
      "l1BlockNumber": "0x6a55fc"
    }
  ],
  "libraries": [],
  "pending": [],
  "returns": {},
  "timestamp": 1730192054,
  "chain": 421614,
  "commit": "056e1e4"
}