{
  "transactions": [
    {
      "hash": "0x9c97ccb684ed7163d3069a7c9724d957f00027246c1b92ae33fa2df182f27b3f",
      "transactionType": "CALL",
      "contractName": null,
      "contractAddress": "0x93a5007b03bf034f6833a35e05b6d0c1bc553ec1",
      "function": "transfer(address,uint256)",
      "arguments": [
        "0x3a27719ef5f46c917680eb59cCD744aaa0998Bd8",
        "3000000000000000000"
      ],
      "transaction": {
        "from": "0xe82d3b9473f0a06d6715581c336e18e949030da1",
        "to": "0x93a5007b03bf034f6833a35e05b6d0c1bc553ec1",
        "gas": "0x15139",
        "value": "0x0",
        "input": "0xa9059cbb0000000000000000000000003a27719ef5f46c917680eb59ccd744aaa0998bd800000000000000000000000000000000000000000000000029a2241af62c0000",
        "nonce": "0x6f",
        "chainId": "0x66eee"
      },
      "additionalContracts": [],
      "isFixedGasLimit": false
    },
    {
      "hash": "0xe61492ba43210bdd07b92e186e912bdea1f53967ac368f63cf576be2ebe6ee48",
      "transactionType": "CALL",
      "contractName": null,
      "contractAddress": "0x93a5007b03bf034f6833a35e05b6d0c1bc553ec1",
      "function": "transfer(address,uint256)",
      "arguments": [
        "0x09c3B4Cd85a4D9A490c0fd6a8976D2d4e83E165b",
        "4000000000000000000"
      ],
      "transaction": {
        "from": "0x3a27719ef5f46c917680eb59ccd744aaa0998bd8",
        "to": "0x93a5007b03bf034f6833a35e05b6d0c1bc553ec1",
        "gas": "0x15139",
        "value": "0x0",
        "input": "0xa9059cbb00000000000000000000000009c3b4cd85a4d9a490c0fd6a8976d2d4e83e165b0000000000000000000000000000000000000000000000003782dace9d900000",
        "nonce": "0x7",
        "chainId": "0x66eee"
      },
      "additionalContracts": [],
      "isFixedGasLimit": false
    },
    {
      "hash": "0x4f69f0d5647cfed5ff7ea9184418b45552185619c2897923cd3498c78cbee012",
      "transactionType": "CALL",
      "contractName": null,
      "contractAddress": "0x93a5007b03bf034f6833a35e05b6d0c1bc553ec1",
      "function": "transfer(address,uint256)",
      "arguments": [
        "0xF4e9e57b57D5D58834164A01a1FbD36A68daC47E",
        "1000000000000000000"
      ],
      "transaction": {
        "from": "0x09c3b4cd85a4d9a490c0fd6a8976d2d4e83e165b",
        "to": "0x93a5007b03bf034f6833a35e05b6d0c1bc553ec1",
        "gas": "0x18377",
        "value": "0x0",
        "input": "0xa9059cbb000000000000000000000000f4e9e57b57d5d58834164a01a1fbd36a68dac47e0000000000000000000000000000000000000000000000000de0b6b3a7640000",
        "nonce": "0x5",
        "chainId": "0x66eee"
      },
      "additionalContracts": [],
      "isFixedGasLimit": false
    },
    {
      "hash": "0xda762cd373b061023a88db894e2add0367de82500df0199f8db1e178bb1bc8ec",
      "transactionType": "CALL",
      "contractName": null,
      "contractAddress": "0x93a5007b03bf034f6833a35e05b6d0c1bc553ec1",
      "function": "transfer(address,uint256)",
      "arguments": [
        "0xdaC88f55d8BD5C041a02a281F4ca2F3F1cb4A0f3",
        "4000000000000000000"
      ],
      "transaction": {
        "from": "0xf4e9e57b57d5d58834164a01a1fbd36a68dac47e",
        "to": "0x93a5007b03bf034f6833a35e05b6d0c1bc553ec1",
        "gas": "0x18377",
        "value": "0x0",
        "input": "0xa9059cbb000000000000000000000000dac88f55d8bd5c041a02a281f4ca2f3f1cb4a0f30000000000000000000000000000000000000000000000003782dace9d900000",
        "nonce": "0x3",
        "chainId": "0x66eee"
      },
      "additionalContracts": [],
      "isFixedGasLimit": false
    },
    {
      "hash": "0x79202c7994c7e4805bffefdefde97206b91c17ccd5e8ba5b584960ebb0f7135c",
      "transactionType": "CALL",
      "contractName": null,
      "contractAddress": "0x93a5007b03bf034f6833a35e05b6d0c1bc553ec1",
      "function": "transfer(address,uint256)",
      "arguments": [
        "0xe82d3B9473F0A06D6715581C336E18E949030da1",
        "6000000000000000000"
      ],
      "transaction": {
        "from": "0xdac88f55d8bd5c041a02a281f4ca2f3f1cb4a0f3",
        "to": "0x93a5007b03bf034f6833a35e05b6d0c1bc553ec1",
        "gas": "0x16b53",
        "value": "0x0",
        "input": "0xa9059cbb000000000000000000000000e82d3b9473f0a06d6715581c336e18e949030da100000000000000000000000000000000000000000000000053444835ec580000",
        "nonce": "0x4",
        "chainId": "0x66eee"
      },
      "additionalContracts": [],
      "isFixedGasLimit": false
    }
  ],
  "receipts": [
    {
      "status": "0x1",
      "cumulativeGasUsed": "0xc6f2",
      "logs": [
        {
          "address": "0x93a5007b03bf034f6833a35e05b6d0c1bc553ec1",
          "topics": [
            "0xddf252ad1be2c89b69c2b068fc378daa952ba7f163c4a11628f55a4df523b3ef",
            "0x000000000000000000000000e82d3b9473f0a06d6715581c336e18e949030da1",
            "0x0000000000000000000000003a27719ef5f46c917680eb59ccd744aaa0998bd8"
          ],
          "data": "0x00000000000000000000000000000000000000000000000029a2241af62c0000",
          "blockHash": "0x49155711a7cc3b10372d678e16e88359c9a81c9e6413e29d7a68c8400492e1a4",
          "blockNumber": "0x58919a0",
          "transactionHash": "0x9c97ccb684ed7163d3069a7c9724d957f00027246c1b92ae33fa2df182f27b3f",
          "transactionIndex": "0x1",
          "logIndex": "0x0",
          "removed": false
        },
        {
          "address": "0x93a5007b03bf034f6833a35e05b6d0c1bc553ec1",
          "topics": [
            "0x7e1b4577399017960fc6a1284e846e5682b112a94c7c1e28afa6dc3031324a29",
            "0x000000000000000000000000e82d3b9473f0a06d6715581c336e18e949030da1",
            "0x0000000000000000000000003a27719ef5f46c917680eb59ccd744aaa0998bd8"
          ],
          "data": "0x00000000000000000000000000000000000000000000000029a2241af62c00000000000000000000000000000000000000000000000000000000000000000000000000000000000000000000000000000000000000000000000000006721ae0a",
          "blockHash": "0x49155711a7cc3b10372d678e16e88359c9a81c9e6413e29d7a68c8400492e1a4",
          "blockNumber": "0x58919a0",
          "transactionHash": "0x9c97ccb684ed7163d3069a7c9724d957f00027246c1b92ae33fa2df182f27b3f",
          "transactionIndex": "0x1",
          "logIndex": "0x1",
          "removed": false
        }
      ],
      "logsBloom": "0x00000000000000000000000000000000080000000000800000000000000000000000000000000000000008000000000000400000000000000000000000000000000000000000000000000008000000000000000000000000000000000000000000004000040000000000000000000000000000000000000000000010000000000000000000000000000000000001001000000000000000000000000000000000000000000000000008000000000000000000000000000000000000000000008000000002000000000000000000000000000000000000000000000000080000000000000000000000000000000000000000000000000000000000040000000000",
      "type": "0x2",
      "transactionHash": "0x9c97ccb684ed7163d3069a7c9724d957f00027246c1b92ae33fa2df182f27b3f",
      "transactionIndex": "0x1",
      "blockHash": "0x49155711a7cc3b10372d678e16e88359c9a81c9e6413e29d7a68c8400492e1a4",
      "blockNumber": "0x58919a0",
      "gasUsed": "0xc6f2",
      "effectiveGasPrice": "0x5f5e100",
      "from": "0xe82d3b9473f0a06d6715581c336e18e949030da1",
      "to": "0x93a5007b03bf034f6833a35e05b6d0c1bc553ec1",
      "contractAddress": null,
      "gasUsedForL1": "0x586",
      "l1BlockNumber": "0x6a6afe"
    },
    {
      "status": "0x1",
      "cumulativeGasUsed": "0xc6f2",
      "logs": [
        {
          "address": "0x93a5007b03bf034f6833a35e05b6d0c1bc553ec1",
          "topics": [
            "0xddf252ad1be2c89b69c2b068fc378daa952ba7f163c4a11628f55a4df523b3ef",
            "0x0000000000000000000000003a27719ef5f46c917680eb59ccd744aaa0998bd8",
            "0x00000000000000000000000009c3b4cd85a4d9a490c0fd6a8976d2d4e83e165b"
          ],
          "data": "0x0000000000000000000000000000000000000000000000003782dace9d900000",
          "blockHash": "0xe405a79fb8955677951e743578d96eeed44a63d3a0ac40137acfc886948200fb",
          "blockNumber": "0x58919a3",
          "transactionHash": "0xe61492ba43210bdd07b92e186e912bdea1f53967ac368f63cf576be2ebe6ee48",
          "transactionIndex": "0x1",
          "logIndex": "0x0",
          "removed": false
        },
        {
          "address": "0x93a5007b03bf034f6833a35e05b6d0c1bc553ec1",
          "topics": [
            "0x7e1b4577399017960fc6a1284e846e5682b112a94c7c1e28afa6dc3031324a29",
            "0x0000000000000000000000003a27719ef5f46c917680eb59ccd744aaa0998bd8",
            "0x00000000000000000000000009c3b4cd85a4d9a490c0fd6a8976d2d4e83e165b"
          ],
          "data": "0x0000000000000000000000000000000000000000000000003782dace9d9000000000000000000000000000000000000000000000000000000000000000000000000000000000000000000000000000000000000000000000000000006721ae0b",
          "blockHash": "0xe405a79fb8955677951e743578d96eeed44a63d3a0ac40137acfc886948200fb",
          "blockNumber": "0x58919a3",
          "transactionHash": "0xe61492ba43210bdd07b92e186e912bdea1f53967ac368f63cf576be2ebe6ee48",
          "transactionIndex": "0x1",
          "logIndex": "0x1",
          "removed": false
        }
      ],
      "logsBloom": "0x00000000000000000000000000000000080000000000800000800000000000000000000000000000000008000000004000400000000000000000000000000000000000000000000000000008000000000000000000000000000000000000000000004000000000000000000000000000000000000000000000000010000000000000000000000000000000000001000000000000000000000000000000000000000000000000000000000000000000004000000000000000000000000000008000000002000000000000000000000000000000000000000000000000080000000000000000000000000000000000000000000000000000000000040000000000",
      "type": "0x2",
      "transactionHash": "0xe61492ba43210bdd07b92e186e912bdea1f53967ac368f63cf576be2ebe6ee48",
      "transactionIndex": "0x1",
      "blockHash": "0xe405a79fb8955677951e743578d96eeed44a63d3a0ac40137acfc886948200fb",
      "blockNumber": "0x58919a3",
      "gasUsed": "0xc6f2",
      "effectiveGasPrice": "0x5f5e100",
      "from": "0x3a27719ef5f46c917680eb59ccd744aaa0998bd8",
      "to": "0x93a5007b03bf034f6833a35e05b6d0c1bc553ec1",
      "contractAddress": null,
      "gasUsedForL1": "0x586",
      "l1BlockNumber": "0x6a6afe"
    },
    {
      "status": "0x1",
      "cumulativeGasUsed": "0xe62a",
      "logs": [
        {
          "address": "0x93a5007b03bf034f6833a35e05b6d0c1bc553ec1",
          "topics": [
            "0xddf252ad1be2c89b69c2b068fc378daa952ba7f163c4a11628f55a4df523b3ef",
            "0x00000000000000000000000009c3b4cd85a4d9a490c0fd6a8976d2d4e83e165b",
            "0x000000000000000000000000f4e9e57b57d5d58834164a01a1fbd36a68dac47e"
          ],
          "data": "0x0000000000000000000000000000000000000000000000000dbd2fc137a30000",
          "blockHash": "0x72d03d5751812f59a0d30e0e11e15b16ca697932487784aed26cd479a8281d6d",
          "blockNumber": "0x58919a9",
          "transactionHash": "0x4f69f0d5647cfed5ff7ea9184418b45552185619c2897923cd3498c78cbee012",
          "transactionIndex": "0x1",
          "logIndex": "0x0",
          "removed": false
        },
        {
          "address": "0x93a5007b03bf034f6833a35e05b6d0c1bc553ec1",
          "topics": [
            "0xddf252ad1be2c89b69c2b068fc378daa952ba7f163c4a11628f55a4df523b3ef",
            "0x00000000000000000000000009c3b4cd85a4d9a490c0fd6a8976d2d4e83e165b",
            "0x000000000000000000000000e82d3b9473f0a06d6715581c336e18e949030da1"
          ],
          "data": "0x000000000000000000000000000000000000000000000000002386f26fc10000",
          "blockHash": "0x72d03d5751812f59a0d30e0e11e15b16ca697932487784aed26cd479a8281d6d",
          "blockNumber": "0x58919a9",
          "transactionHash": "0x4f69f0d5647cfed5ff7ea9184418b45552185619c2897923cd3498c78cbee012",
          "transactionIndex": "0x1",
          "logIndex": "0x1",
          "removed": false
        },
        {
          "address": "0x93a5007b03bf034f6833a35e05b6d0c1bc553ec1",
          "topics": [
            "0x7e1b4577399017960fc6a1284e846e5682b112a94c7c1e28afa6dc3031324a29",
            "0x00000000000000000000000009c3b4cd85a4d9a490c0fd6a8976d2d4e83e165b",
            "0x000000000000000000000000f4e9e57b57d5d58834164a01a1fbd36a68dac47e"
          ],
          "data": "0x0000000000000000000000000000000000000000000000000dbd2fc137a30000000000000000000000000000000000000000000000000000002386f26fc10000000000000000000000000000000000000000000000000000000000006721ae0c",
          "blockHash": "0x72d03d5751812f59a0d30e0e11e15b16ca697932487784aed26cd479a8281d6d",
          "blockNumber": "0x58919a9",
          "transactionHash": "0x4f69f0d5647cfed5ff7ea9184418b45552185619c2897923cd3498c78cbee012",
          "transactionIndex": "0x1",
          "logIndex": "0x2",
          "removed": false
        }
      ],
      "logsBloom": "0x00000040000000000000000000000000080000000000800000800000000000000000000000000000000008000000004000400000000000000000000000000000000000000000000000000008000000000000000000000000000000000000000000004000040000000000000000000000000000000000000000000010000000000000000000000000000000000000001000000000000000100000000000000000000000000000000008000001000000004000000000000000000000000000000000000002000000000000000000000000000000000000000000000000080000000000000000000000000000000000000000000000000000000000000000000000",
      "type": "0x2",
      "transactionHash": "0x4f69f0d5647cfed5ff7ea9184418b45552185619c2897923cd3498c78cbee012",
      "transactionIndex": "0x1",
      "blockHash": "0x72d03d5751812f59a0d30e0e11e15b16ca697932487784aed26cd479a8281d6d",
      "blockNumber": "0x58919a9",
      "gasUsed": "0xe62a",
      "effectiveGasPrice": "0x5f5e100",
      "from": "0x09c3b4cd85a4d9a490c0fd6a8976d2d4e83e165b",
      "to": "0x93a5007b03bf034f6833a35e05b6d0c1bc553ec1",
      "contractAddress": null,
      "gasUsedForL1": "0x586",
      "l1BlockNumber": "0x6a6afe"
    },
    {
      "status": "0x1",
      "cumulativeGasUsed": "0x613cc",
      "logs": [
        {
          "address": "0x93a5007b03bf034f6833a35e05b6d0c1bc553ec1",
          "topics": [
            "0xddf252ad1be2c89b69c2b068fc378daa952ba7f163c4a11628f55a4df523b3ef",
            "0x000000000000000000000000f4e9e57b57d5d58834164a01a1fbd36a68dac47e",
            "0x000000000000000000000000dac88f55d8bd5c041a02a281f4ca2f3f1cb4a0f3"
          ],
          "data": "0x00000000000000000000000000000000000000000000000036f4bf04de8c0000",
          "blockHash": "0xbd971426b644615c83dcb9ec71f47a384bc6a9097822e334506d4e301e46d8aa",
          "blockNumber": "0x58919ae",
          "transactionHash": "0xda762cd373b061023a88db894e2add0367de82500df0199f8db1e178bb1bc8ec",
          "transactionIndex": "0x2",
          "logIndex": "0x7",
          "removed": false
        },
        {
          "address": "0x93a5007b03bf034f6833a35e05b6d0c1bc553ec1",
          "topics": [
            "0xddf252ad1be2c89b69c2b068fc378daa952ba7f163c4a11628f55a4df523b3ef",
            "0x000000000000000000000000f4e9e57b57d5d58834164a01a1fbd36a68dac47e",
            "0x000000000000000000000000e82d3b9473f0a06d6715581c336e18e949030da1"
          ],
          "data": "0x000000000000000000000000000000000000000000000000008e1bc9bf040000",
          "blockHash": "0xbd971426b644615c83dcb9ec71f47a384bc6a9097822e334506d4e301e46d8aa",
          "blockNumber": "0x58919ae",
          "transactionHash": "0xda762cd373b061023a88db894e2add0367de82500df0199f8db1e178bb1bc8ec",
          "transactionIndex": "0x2",
          "logIndex": "0x8",
          "removed": false
        },
        {
          "address": "0x93a5007b03bf034f6833a35e05b6d0c1bc553ec1",
          "topics": [
            "0x7e1b4577399017960fc6a1284e846e5682b112a94c7c1e28afa6dc3031324a29",
            "0x000000000000000000000000f4e9e57b57d5d58834164a01a1fbd36a68dac47e",
            "0x000000000000000000000000dac88f55d8bd5c041a02a281f4ca2f3f1cb4a0f3"
          ],
          "data": "0x00000000000000000000000000000000000000000000000036f4bf04de8c0000000000000000000000000000000000000000000000000000008e1bc9bf040000000000000000000000000000000000000000000000000000000000006721ae0d",
          "blockHash": "0xbd971426b644615c83dcb9ec71f47a384bc6a9097822e334506d4e301e46d8aa",
          "blockNumber": "0x58919ae",
          "transactionHash": "0xda762cd373b061023a88db894e2add0367de82500df0199f8db1e178bb1bc8ec",
          "transactionIndex": "0x2",
          "logIndex": "0x9",
          "removed": false
        }
      ],
      "logsBloom": "0x00000040000000000000000000000000080000000000800000000000000000000000000000000000001008000000000000400000000000000000000000000000000000000000000000020008000000000000000000000000000000000000000000004000040000000000000000000000000000000000000000000010000000000000000000000000000000000000001000000000000000100000000000000000000000000000000008000001000000020000000000000000000000000000000000000002000000000000000000000000000000000000000000000000080000000000000000000000000000000000000000000000000000000000000000000000",
      "type": "0x2",
      "transactionHash": "0xda762cd373b061023a88db894e2add0367de82500df0199f8db1e178bb1bc8ec",
      "transactionIndex": "0x2",
      "blockHash": "0xbd971426b644615c83dcb9ec71f47a384bc6a9097822e334506d4e301e46d8aa",
      "blockNumber": "0x58919ae",
      "gasUsed": "0xe62a",
      "effectiveGasPrice": "0x5f5e100",
      "from": "0xf4e9e57b57d5d58834164a01a1fbd36a68dac47e",
      "to": "0x93a5007b03bf034f6833a35e05b6d0c1bc553ec1",
      "contractAddress": null,
      "gasUsedForL1": "0x586",
      "l1BlockNumber": "0x6a6afe"
    },
    {
      "status": "0x1",
      "cumulativeGasUsed": "0xd72a",
      "logs": [
        {
          "address": "0x93a5007b03bf034f6833a35e05b6d0c1bc553ec1",
          "topics": [
            "0xddf252ad1be2c89b69c2b068fc378daa952ba7f163c4a11628f55a4df523b3ef",
            "0x000000000000000000000000dac88f55d8bd5c041a02a281f4ca2f3f1cb4a0f3",
            "0x000000000000000000000000e82d3b9473f0a06d6715581c336e18e949030da1"
          ],
          "data": "0x000000000000000000000000000000000000000000000000526f1e874dd20000",
          "blockHash": "0x0d4d6d02d112f1bf5c179b5ba2cb8e2fc0c2f852d8c0aacbea894ef9303d6322",
          "blockNumber": "0x58919b2",
          "transactionHash": "0x79202c7994c7e4805bffefdefde97206b91c17ccd5e8ba5b584960ebb0f7135c",
          "transactionIndex": "0x1",
          "logIndex": "0x0",
          "removed": false
        },
        {
          "address": "0x93a5007b03bf034f6833a35e05b6d0c1bc553ec1",
          "topics": [
            "0xddf252ad1be2c89b69c2b068fc378daa952ba7f163c4a11628f55a4df523b3ef",
            "0x000000000000000000000000dac88f55d8bd5c041a02a281f4ca2f3f1cb4a0f3",
            "0x000000000000000000000000e82d3b9473f0a06d6715581c336e18e949030da1"
          ],
          "data": "0x00000000000000000000000000000000000000000000000000d529ae9e860000",
          "blockHash": "0x0d4d6d02d112f1bf5c179b5ba2cb8e2fc0c2f852d8c0aacbea894ef9303d6322",
          "blockNumber": "0x58919b2",
          "transactionHash": "0x79202c7994c7e4805bffefdefde97206b91c17ccd5e8ba5b584960ebb0f7135c",
          "transactionIndex": "0x1",
          "logIndex": "0x1",
          "removed": false
        },
        {
          "address": "0x93a5007b03bf034f6833a35e05b6d0c1bc553ec1",
          "topics": [
            "0x7e1b4577399017960fc6a1284e846e5682b112a94c7c1e28afa6dc3031324a29",
            "0x000000000000000000000000dac88f55d8bd5c041a02a281f4ca2f3f1cb4a0f3",
            "0x000000000000000000000000e82d3b9473f0a06d6715581c336e18e949030da1"
          ],
          "data": "0x000000000000000000000000000000000000000000000000526f1e874dd2000000000000000000000000000000000000000000000000000000d529ae9e860000000000000000000000000000000000000000000000000000000000006721ae0e",
          "blockHash": "0x0d4d6d02d112f1bf5c179b5ba2cb8e2fc0c2f852d8c0aacbea894ef9303d6322",
          "blockNumber": "0x58919b2",
          "transactionHash": "0x79202c7994c7e4805bffefdefde97206b91c17ccd5e8ba5b584960ebb0f7135c",
          "transactionIndex": "0x1",
          "logIndex": "0x2",
          "removed": false
        }
      ],
      "logsBloom": "0x00000000000000000000000000000000080000000000800000000000000000000000000000000000001008000000000000400000000000000000000000000000000000000000000000020008000000000000000000000000000000000000000000004000040000000000000000000000000000000000000000000010000000000000000000000000000000000000001000000000000000000000000000000000000000000000000008000000000000020000000000000000000000000000000000000002000000000000000000000000000000000000000000000000080000000000000000000000000000000000000000000000000000000000000000000000",
      "type": "0x2",
      "transactionHash": "0x79202c7994c7e4805bffefdefde97206b91c17ccd5e8ba5b584960ebb0f7135c",
      "transactionIndex": "0x1",
      "blockHash": "0x0d4d6d02d112f1bf5c179b5ba2cb8e2fc0c2f852d8c0aacbea894ef9303d6322",
      "blockNumber": "0x58919b2",
      "gasUsed": "0xd72a",
      "effectiveGasPrice": "0x5f5e100",
      "from": "0xdac88f55d8bd5c041a02a281f4ca2f3f1cb4a0f3",
      "to": "0x93a5007b03bf034f6833a35e05b6d0c1bc553ec1",
      "contractAddress": null,
      "gasUsedForL1": "0x586",
      "l1BlockNumber": "0x6a6afe"
    }
  ],
  "libraries": [],
  "pending": [],
  "returns": {},
  "timestamp": 1730260495,
  "chain": 421614,
  "commit": "056e1e4"
}