{
  "transactions": [
    {
      "hash": "0x1875eda754d21cfdf5d751e126925119d6e1616f8290ad7bae56fe7577118a0c",
      "transactionType": "CALL",
      "contractName": null,
      "contractAddress": "0x0c325e409d1d21e5feec46319992b2129f6a0744",
      "function": "transfer(address,uint256)",
      "arguments": [
        "0x3a27719ef5f46c917680eb59cCD744aaa0998Bd8",
        "4000000000000000000"
      ],
      "transaction": {
        "from": "0xe82d3b9473f0a06d6715581c336e18e949030da1",
        "to": "0x0c325e409d1d21e5feec46319992b2129f6a0744",
        "gas": "0x16980",
        "value": "0x0",
        "input": "0xa9059cbb0000000000000000000000003a27719ef5f46c917680eb59ccd744aaa0998bd80000000000000000000000000000000000000000000000003782dace9d900000",
        "nonce": "0x7d",
        "chainId": "0x66eee"
      },
      "additionalContracts": [],
      "isFixedGasLimit": false
    },
    {
      "hash": "0xc97b1ee6162f9e7b2c107fd8649a289a55217a6a9b0f31e5171db424aaa13f6d",
      "transactionType": "CALL",
      "contractName": null,
      "contractAddress": "0x0c325e409d1d21e5feec46319992b2129f6a0744",
      "function": "transfer(address,uint256)",
      "arguments": [
        "0x09c3B4Cd85a4D9A490c0fd6a8976D2d4e83E165b",
        "4000000000000000000"
      ],
      "transaction": {
        "from": "0x3a27719ef5f46c917680eb59ccd744aaa0998bd8",
        "to": "0x0c325e409d1d21e5feec46319992b2129f6a0744",
        "gas": "0x20315",
        "value": "0x0",
        "input": "0xa9059cbb00000000000000000000000009c3b4cd85a4d9a490c0fd6a8976d2d4e83e165b0000000000000000000000000000000000000000000000003782dace9d900000",
        "nonce": "0x11",
        "chainId": "0x66eee"
      },
      "additionalContracts": [],
      "isFixedGasLimit": false
    },
    {
      "hash": "0xae0909e04f562e36cef9609a13ab09e17256ef706e53d52e531ba3353df7e94d",
      "transactionType": "CALL",
      "contractName": null,
      "contractAddress": "0x0c325e409d1d21e5feec46319992b2129f6a0744",
      "function": "transfer(address,uint256)",
      "arguments": [
        "0xF4e9e57b57D5D58834164A01a1FbD36A68daC47E",
        "2000000000000000000"
      ],
      "transaction": {
        "from": "0x09c3b4cd85a4d9a490c0fd6a8976d2d4e83e165b",
        "to": "0x0c325e409d1d21e5feec46319992b2129f6a0744",
        "gas": "0x20315",
        "value": "0x0",
        "input": "0xa9059cbb000000000000000000000000f4e9e57b57d5d58834164a01a1fbd36a68dac47e0000000000000000000000000000000000000000000000001bc16d674ec80000",
        "nonce": "0xd",
        "chainId": "0x66eee"
      },
      "additionalContracts": [],
      "isFixedGasLimit": false
    },
    {
      "hash": "0xdf6e945636575dd3331db21fe9c4a85fe56fb61ab701e8cf8270ec3e0ca4b0b7",
      "transactionType": "CALL",
      "contractName": null,
      "contractAddress": "0x0c325e409d1d21e5feec46319992b2129f6a0744",
      "function": "transfer(address,uint256)",
      "arguments": [
        "0xdaC88f55d8BD5C041a02a281F4ca2F3F1cb4A0f3",
        "9000000000000000000"
      ],
      "transaction": {
        "from": "0xf4e9e57b57d5d58834164a01a1fbd36a68dac47e",
        "to": "0x0c325e409d1d21e5feec46319992b2129f6a0744",
        "gas": "0x20315",
        "value": "0x0",
        "input": "0xa9059cbb000000000000000000000000dac88f55d8bd5c041a02a281f4ca2f3f1cb4a0f30000000000000000000000000000000000000000000000007ce66c50e2840000",
        "nonce": "0xb",
        "chainId": "0x66eee"
      },
      "additionalContracts": [],
      "isFixedGasLimit": false
    },
    {
      "hash": "0x18b10618ea2c5baf1c61876c060b799c0669721987f072559750fb3b0ecb1ff9",
      "transactionType": "CALL",
      "contractName": null,
      "contractAddress": "0x0c325e409d1d21e5feec46319992b2129f6a0744",
      "function": "transfer(address,uint256)",
      "arguments": [
        "0xe82d3B9473F0A06D6715581C336E18E949030da1",
        "10000000000000000000"
      ],
      "transaction": {
        "from": "0xdac88f55d8bd5c041a02a281f4ca2f3f1cb4a0f3",
        "to": "0x0c325e409d1d21e5feec46319992b2129f6a0744",
        "gas": "0x1e9f0",
        "value": "0x0",
        "input": "0xa9059cbb000000000000000000000000e82d3b9473f0a06d6715581c336e18e949030da10000000000000000000000000000000000000000000000008ac7230489e80000",
        "nonce": "0xd",
        "chainId": "0x66eee"
      },
      "additionalContracts": [],
      "isFixedGasLimit": false
    }
  ],
  "receipts": [
    {
      "status": "0x1",
      "cumulativeGasUsed": "0x10260",
      "logs": [
        {
          "address": "0x0c325e409d1d21e5feec46319992b2129f6a0744",
          "topics": [
            "0xddf252ad1be2c89b69c2b068fc378daa952ba7f163c4a11628f55a4df523b3ef",
            "0x000000000000000000000000e82d3b9473f0a06d6715581c336e18e949030da1",
            "0x0000000000000000000000003a27719ef5f46c917680eb59ccd744aaa0998bd8"
          ],
          "data": "0x0000000000000000000000000000000000000000000000003782dace9d900000",
          "blockHash": "0xfdc7f7e49bcca3148f9e6eb46df436bda82f2d444b4bc96cef2bbe26d5bfaa8e",
          "blockNumber": "0x58d417e",
          "transactionHash": "0x1875eda754d21cfdf5d751e126925119d6e1616f8290ad7bae56fe7577118a0c",
          "transactionIndex": "0x1",
          "logIndex": "0x0",
          "removed": false
        },
        {
          "address": "0x0c325e409d1d21e5feec46319992b2129f6a0744",
          "topics": [
            "0x98bc3fe7d138931a49691b623c256b8812f2a3d7f9b25ba7098c82538977a5d0",
            "0x000000000000000000000000e82d3b9473f0a06d6715581c336e18e949030da1",
            "0x0000000000000000000000003a27719ef5f46c917680eb59ccd744aaa0998bd8"
          ],
          "data": "0x0000000000000000000000000000000000000000000000003782dace9d9000000000000000000000000000000000000000000000000000000000000000000000",
          "blockHash": "0xfdc7f7e49bcca3148f9e6eb46df436bda82f2d444b4bc96cef2bbe26d5bfaa8e",
          "blockNumber": "0x58d417e",
          "transactionHash": "0x1875eda754d21cfdf5d751e126925119d6e1616f8290ad7bae56fe7577118a0c",
          "transactionIndex": "0x1",
          "logIndex": "0x1",
          "removed": false
        }
      ],
      "logsBloom": "0x00000000000000000000000000000000000000000000000000000000000000000000000000000000000020000000000000000000000000000000000000000000000000000000000000000008000000000000000000000000000000000020000000000000040000000000000000000000000000000000000000000010000000000000000000000000000000000001001000000000000010000000000000000004000000000000000008000000000000008000000000000000000000000000008000000002000000000000000000000000000000000000000020000000000000000000000000000000000000000000000000000000000000000000040000000000",
      "type": "0x2",
      "transactionHash": "0x1875eda754d21cfdf5d751e126925119d6e1616f8290ad7bae56fe7577118a0c",
      "transactionIndex": "0x1",
      "blockHash": "0xfdc7f7e49bcca3148f9e6eb46df436bda82f2d444b4bc96cef2bbe26d5bfaa8e",
      "blockNumber": "0x58d417e",
      "gasUsed": "0x10260",
      "effectiveGasPrice": "0x5f5e100",
      "from": "0xe82d3b9473f0a06d6715581c336e18e949030da1",
      "to": "0x0c325e409d1d21e5feec46319992b2129f6a0744",
      "contractAddress": null,
      "gasUsedForL1": "0x63",
      "l1BlockNumber": "0x6a84ee"
    },
    {
      "status": "0x1",
      "cumulativeGasUsed": "0x13423",
      "logs": [
        {
          "address": "0x0c325e409d1d21e5feec46319992b2129f6a0744",
          "topics": [
            "0xddf252ad1be2c89b69c2b068fc378daa952ba7f163c4a11628f55a4df523b3ef",
            "0x0000000000000000000000003a27719ef5f46c917680eb59ccd744aaa0998bd8",
            "0x00000000000000000000000009c3b4cd85a4d9a490c0fd6a8976d2d4e83e165b"
          ],
          "data": "0x00000000000000000000000000000000000000000000000036f4bf04de8c0000",
          "blockHash": "0x2d2b43811957bb2d8e059ac37efd911b477066997c88623bddc500e7dde29b79",
          "blockNumber": "0x58d4182",
          "transactionHash": "0xc97b1ee6162f9e7b2c107fd8649a289a55217a6a9b0f31e5171db424aaa13f6d",
          "transactionIndex": "0x1",
          "logIndex": "0x0",
          "removed": false
        },
        {
          "address": "0x0c325e409d1d21e5feec46319992b2129f6a0744",
          "topics": [
            "0xddf252ad1be2c89b69c2b068fc378daa952ba7f163c4a11628f55a4df523b3ef",
            "0x0000000000000000000000003a27719ef5f46c917680eb59ccd744aaa0998bd8",
            "0x000000000000000000000000e82d3b9473f0a06d6715581c336e18e949030da1"
          ],
          "data": "0x000000000000000000000000000000000000000000000000008e1bc9bf040000",
          "blockHash": "0x2d2b43811957bb2d8e059ac37efd911b477066997c88623bddc500e7dde29b79",
          "blockNumber": "0x58d4182",
          "transactionHash": "0xc97b1ee6162f9e7b2c107fd8649a289a55217a6a9b0f31e5171db424aaa13f6d",
          "transactionIndex": "0x1",
          "logIndex": "0x1",
          "removed": false
        },
        {
          "address": "0x0c325e409d1d21e5feec46319992b2129f6a0744",
          "topics": [
            "0x98bc3fe7d138931a49691b623c256b8812f2a3d7f9b25ba7098c82538977a5d0",
            "0x0000000000000000000000003a27719ef5f46c917680eb59ccd744aaa0998bd8",
            "0x00000000000000000000000009c3b4cd85a4d9a490c0fd6a8976d2d4e83e165b"
          ],
          "data": "0x00000000000000000000000000000000000000000000000036f4bf04de8c0000000000000000000000000000000000000000000000000000008e1bc9bf040000",
          "blockHash": "0x2d2b43811957bb2d8e059ac37efd911b477066997c88623bddc500e7dde29b79",
          "blockNumber": "0x58d4182",
          "transactionHash": "0xc97b1ee6162f9e7b2c107fd8649a289a55217a6a9b0f31e5171db424aaa13f6d",
          "transactionIndex": "0x1",
          "logIndex": "0x2",
          "removed": false
        }
      ],
      "logsBloom": "0x0000000000000000000000000000000000000000000000000080000000000000000000000000000000002000000000400000000000000000000000000000000000000000000000000000000800000000000000000000000000000000002000000000000004000000000000000000000000000000000000000000001000000000000000000000000000000000000100100000000000001000000000000000000400000000000000000800000000000000c000000000000000000000000000008000000002000000000000000000000000000000000000000020000000000000000000000000000000000000000000000000000000000000000000040000000000",
      "type": "0x2",
      "transactionHash": "0xc97b1ee6162f9e7b2c107fd8649a289a55217a6a9b0f31e5171db424aaa13f6d",
      "transactionIndex": "0x1",
      "blockHash": "0x2d2b43811957bb2d8e059ac37efd911b477066997c88623bddc500e7dde29b79",
      "blockNumber": "0x58d4182",
      "gasUsed": "0x13423",
      "effectiveGasPrice": "0x5f5e100",
      "from": "0x3a27719ef5f46c917680eb59ccd744aaa0998bd8",
      "to": "0x0c325e409d1d21e5feec46319992b2129f6a0744",
      "contractAddress": null,
      "gasUsedForL1": "0x63",
      "l1BlockNumber": "0x6a84ee"
    },
    {
      "status": "0x1",
      "cumulativeGasUsed": "0xf157",
      "logs": [
        {
          "address": "0x0c325e409d1d21e5feec46319992b2129f6a0744",
          "topics": [
            "0xddf252ad1be2c89b69c2b068fc378daa952ba7f163c4a11628f55a4df523b3ef",
            "0x00000000000000000000000009c3b4cd85a4d9a490c0fd6a8976d2d4e83e165b",
            "0x000000000000000000000000f4e9e57b57d5d58834164a01a1fbd36a68dac47e"
          ],
          "data": "0x0000000000000000000000000000000000000000000000001b7a5f826f460000",
          "blockHash": "0x0b2345243d75f11f1a4f4a400217d0b6df07a7348c9e3609c75afe25a0bfda5b",
          "blockNumber": "0x58d4185",
          "transactionHash": "0xae0909e04f562e36cef9609a13ab09e17256ef706e53d52e531ba3353df7e94d",
          "transactionIndex": "0x1",
          "logIndex": "0x0",
          "removed": false
        },
        {
          "address": "0x0c325e409d1d21e5feec46319992b2129f6a0744",
          "topics": [
            "0xddf252ad1be2c89b69c2b068fc378daa952ba7f163c4a11628f55a4df523b3ef",
            "0x00000000000000000000000009c3b4cd85a4d9a490c0fd6a8976d2d4e83e165b",
            "0x000000000000000000000000e82d3b9473f0a06d6715581c336e18e949030da1"
          ],
          "data": "0x00000000000000000000000000000000000000000000000000470de4df820000",
          "blockHash": "0x0b2345243d75f11f1a4f4a400217d0b6df07a7348c9e3609c75afe25a0bfda5b",
          "blockNumber": "0x58d4185",
          "transactionHash": "0xae0909e04f562e36cef9609a13ab09e17256ef706e53d52e531ba3353df7e94d",
          "transactionIndex": "0x1",
          "logIndex": "0x1",
          "removed": false
        },
        {
          "address": "0x0c325e409d1d21e5feec46319992b2129f6a0744",
          "topics": [
            "0x98bc3fe7d138931a49691b623c256b8812f2a3d7f9b25ba7098c82538977a5d0",
            "0x00000000000000000000000009c3b4cd85a4d9a490c0fd6a8976d2d4e83e165b",
            "0x000000000000000000000000f4e9e57b57d5d58834164a01a1fbd36a68dac47e"
          ],
          "data": "0x0000000000000000000000000000000000000000000000001b7a5f826f46000000000000000000000000000000000000000000000000000000470de4df820000",
          "blockHash": "0x0b2345243d75f11f1a4f4a400217d0b6df07a7348c9e3609c75afe25a0bfda5b",
          "blockNumber": "0x58d4185",
          "transactionHash": "0xae0909e04f562e36cef9609a13ab09e17256ef706e53d52e531ba3353df7e94d",
          "transactionIndex": "0x1",
          "logIndex": "0x2",
          "removed": false
        }
      ],
      "logsBloom": "0x0000004000000000000000000000000000000000000000000080000000000000000000000000000000002000000000400000000000000000000000000000000000000000000000000000000800000000000000000000000000000000002000000000000004000000000000000000000000000000000000000000001000000000000000000000000000000000000000100000000000001010000000000000000400000000000000000800000100000000c000000000000000000000000000000000000002000000000000000000000000000000000000000020000000000000000000000000000000000000000000000000000000000000000000000000000000",
      "type": "0x2",
      "transactionHash": "0xae0909e04f562e36cef9609a13ab09e17256ef706e53d52e531ba3353df7e94d",
      "transactionIndex": "0x1",
      "blockHash": "0x0b2345243d75f11f1a4f4a400217d0b6df07a7348c9e3609c75afe25a0bfda5b",
      "blockNumber": "0x58d4185",
      "gasUsed": "0xf157",
      "effectiveGasPrice": "0x5f5e100",
      "from": "0x09c3b4cd85a4d9a490c0fd6a8976d2d4e83e165b",
      "to": "0x0c325e409d1d21e5feec46319992b2129f6a0744",
      "contractAddress": null,
      "gasUsedForL1": "0x63",
      "l1BlockNumber": "0x6a84ee"
    },
    {
      "status": "0x1",
      "cumulativeGasUsed": "0xf157",
      "logs": [
        {
          "address": "0x0c325e409d1d21e5feec46319992b2129f6a0744",
          "topics": [
            "0xddf252ad1be2c89b69c2b068fc378daa952ba7f163c4a11628f55a4df523b3ef",
            "0x000000000000000000000000f4e9e57b57d5d58834164a01a1fbd36a68dac47e",
            "0x000000000000000000000000dac88f55d8bd5c041a02a281f4ca2f3f1cb4a0f3"
          ],
          "data": "0x0000000000000000000000000000000000000000000000007ba6adcaf4bb0000",
          "blockHash": "0xf2a468da8afa61e4bd0e373a969556c13830aa385e29b5e57144dd8b02cf2d7f",
          "blockNumber": "0x58d4188",
          "transactionHash": "0xdf6e945636575dd3331db21fe9c4a85fe56fb61ab701e8cf8270ec3e0ca4b0b7",
          "transactionIndex": "0x1",
          "logIndex": "0x0",
          "removed": false
        },
        {
          "address": "0x0c325e409d1d21e5feec46319992b2129f6a0744",
          "topics": [
            "0xddf252ad1be2c89b69c2b068fc378daa952ba7f163c4a11628f55a4df523b3ef",
            "0x000000000000000000000000f4e9e57b57d5d58834164a01a1fbd36a68dac47e",
            "0x000000000000000000000000e82d3b9473f0a06d6715581c336e18e949030da1"
          ],
          "data": "0x000000000000000000000000000000000000000000000000013fbe85edc90000",
          "blockHash": "0xf2a468da8afa61e4bd0e373a969556c13830aa385e29b5e57144dd8b02cf2d7f",
          "blockNumber": "0x58d4188",
          "transactionHash": "0xdf6e945636575dd3331db21fe9c4a85fe56fb61ab701e8cf8270ec3e0ca4b0b7",
          "transactionIndex": "0x1",
          "logIndex": "0x1",
          "removed": false
        },
        {
          "address": "0x0c325e409d1d21e5feec46319992b2129f6a0744",
          "topics": [
            "0x98bc3fe7d138931a49691b623c256b8812f2a3d7f9b25ba7098c82538977a5d0",
            "0x000000000000000000000000f4e9e57b57d5d58834164a01a1fbd36a68dac47e",
            "0x000000000000000000000000dac88f55d8bd5c041a02a281f4ca2f3f1cb4a0f3"
          ],
          "data": "0x0000000000000000000000000000000000000000000000007ba6adcaf4bb0000000000000000000000000000000000000000000000000000013fbe85edc90000",
          "blockHash": "0xf2a468da8afa61e4bd0e373a969556c13830aa385e29b5e57144dd8b02cf2d7f",
          "blockNumber": "0x58d4188",
          "transactionHash": "0xdf6e945636575dd3331db21fe9c4a85fe56fb61ab701e8cf8270ec3e0ca4b0b7",
          "transactionIndex": "0x1",
          "logIndex": "0x2",
          "removed": false
        }
      ],
      "logsBloom": "0x00000040000000000000000000000000000000000000000000000000000000000000000000000000001020000000000000000000000000000000000000000000000000000000000000020008000000000000000000000000000000000020000000000000040000000000000000000000000000000000000000000010000000000000000000000000000000000000001000000000000010100000000000000004000000000000000008000001000000028000000000000000000000000000000000000002000000000000000000000000000000000000000020000000000000000000000000000000000000000000000000000000000000000000000000000000",
      "type": "0x2",
      "transactionHash": "0xdf6e945636575dd3331db21fe9c4a85fe56fb61ab701e8cf8270ec3e0ca4b0b7",
      "transactionIndex": "0x1",
      "blockHash": "0xf2a468da8afa61e4bd0e373a969556c13830aa385e29b5e57144dd8b02cf2d7f",
      "blockNumber": "0x58d4188",
      "gasUsed": "0xf157",
      "effectiveGasPrice": "0x5f5e100",
      "from": "0xf4e9e57b57d5d58834164a01a1fbd36a68dac47e",
      "to": "0x0c325e409d1d21e5feec46319992b2129f6a0744",
      "contractAddress": null,
      "gasUsedForL1": "0x63",
      "l1BlockNumber": "0x6a84ee"
    },
    {
      "status": "0x1",
      "cumulativeGasUsed": "0xde97",
      "logs": [
        {
          "address": "0x0c325e409d1d21e5feec46319992b2129f6a0744",
          "topics": [
            "0xddf252ad1be2c89b69c2b068fc378daa952ba7f163c4a11628f55a4df523b3ef",
            "0x000000000000000000000000dac88f55d8bd5c041a02a281f4ca2f3f1cb4a0f3",
            "0x000000000000000000000000e82d3b9473f0a06d6715581c336e18e949030da1"
          ],
          "data": "0x0000000000000000000000000000000000000000000000008963dd8c2c5e0000",
          "blockHash": "0x64cd0c11944161637fe6d2b3015d60c387c22c0b601fb9e989a2394f10d7ef97",
          "blockNumber": "0x58d418d",
          "transactionHash": "0x18b10618ea2c5baf1c61876c060b799c0669721987f072559750fb3b0ecb1ff9",
          "transactionIndex": "0x1",
          "logIndex": "0x0",
          "removed": false
        },
        {
          "address": "0x0c325e409d1d21e5feec46319992b2129f6a0744",
          "topics": [
            "0xddf252ad1be2c89b69c2b068fc378daa952ba7f163c4a11628f55a4df523b3ef",
            "0x000000000000000000000000dac88f55d8bd5c041a02a281f4ca2f3f1cb4a0f3",
            "0x000000000000000000000000e82d3b9473f0a06d6715581c336e18e949030da1"
          ],
          "data": "0x000000000000000000000000000000000000000000000000016345785d8a0000",
          "blockHash": "0x64cd0c11944161637fe6d2b3015d60c387c22c0b601fb9e989a2394f10d7ef97",
          "blockNumber": "0x58d418d",
          "transactionHash": "0x18b10618ea2c5baf1c61876c060b799c0669721987f072559750fb3b0ecb1ff9",
          "transactionIndex": "0x1",
          "logIndex": "0x1",
          "removed": false
        },
        {
          "address": "0x0c325e409d1d21e5feec46319992b2129f6a0744",
          "topics": [
            "0x98bc3fe7d138931a49691b623c256b8812f2a3d7f9b25ba7098c82538977a5d0",
            "0x000000000000000000000000dac88f55d8bd5c041a02a281f4ca2f3f1cb4a0f3",
            "0x000000000000000000000000e82d3b9473f0a06d6715581c336e18e949030da1"
          ],
          "data": "0x0000000000000000000000000000000000000000000000008963dd8c2c5e0000000000000000000000000000000000000000000000000000016345785d8a0000",
          "blockHash": "0x64cd0c11944161637fe6d2b3015d60c387c22c0b601fb9e989a2394f10d7ef97",
          "blockNumber": "0x58d418d",
          "transactionHash": "0x18b10618ea2c5baf1c61876c060b799c0669721987f072559750fb3b0ecb1ff9",
          "transactionIndex": "0x1",
          "logIndex": "0x2",
          "removed": false
        }
      ],
      "logsBloom": "0x00000000000000000000000000000000000000000000000000000000000000000000000000000000001020000000000000000000000000000000000000000000000000000000000000020008000000000000000000000000000000000020000000000000040000000000000000000000000000000000000000000010000000000000000000000000000000000000001000000000000010000000000000000004000000000000000008000000000000028000000000000000000000000000000000000002000000000000000000000000000000000000000020000000000000000000000000000000000000000000000000000000000000000000000000000000",
      "type": "0x2",
      "transactionHash": "0x18b10618ea2c5baf1c61876c060b799c0669721987f072559750fb3b0ecb1ff9",
      "transactionIndex": "0x1",
      "blockHash": "0x64cd0c11944161637fe6d2b3015d60c387c22c0b601fb9e989a2394f10d7ef97",
      "blockNumber": "0x58d418d",
      "gasUsed": "0xde97",
      "effectiveGasPrice": "0x5f5e100",
      "from": "0xdac88f55d8bd5c041a02a281f4ca2f3f1cb4a0f3",
      "to": "0x0c325e409d1d21e5feec46319992b2129f6a0744",
      "contractAddress": null,
      "gasUsedForL1": "0x63",
      "l1BlockNumber": "0x6a84ee"
    }
  ],
  "libraries": [],
  "pending": [],
  "returns": {},
  "timestamp": 1730345669,
  "chain": 421614,
  "commit": "9848e00"
}