{
  "transactions": [
    {
      "hash": "0x65b10506ccc2d09d7868ab8630934eb0733bc398682e7ddaef4c4a499f70d9d4",
      "transactionType": "CALL",
      "contractName": null,
      "contractAddress": "0xe6e2bd32ff1e566f6f3bbecd241ac921d0c328a4",
      "function": "transfer(address,uint256)",
      "arguments": [
        "0x3a27719ef5f46c917680eb59cCD744aaa0998Bd8",
        "3000000000000000000"
      ],
      "transaction": {
        "from": "0xe82d3b9473f0a06d6715581c336e18e949030da1",
        "to": "0xe6e2bd32ff1e566f6f3bbecd241ac921d0c328a4",
        "gas": "0x152af",
        "value": "0x0",
        "input": "0xa9059cbb0000000000000000000000003a27719ef5f46c917680eb59ccd744aaa0998bd800000000000000000000000000000000000000000000000029a2241af62c0000",
        "nonce": "0x71",
        "chainId": "0x66eee"
      },
      "additionalContracts": [],
      "isFixedGasLimit": false
    },
    {
      "hash": "0x80e15aec26ec067a44a8a3c72de8c634bbd0d5facad7e6cc9cc595db28bc6e14",
      "transactionType": "CALL",
      "contractName": null,
      "contractAddress": "0xe6e2bd32ff1e566f6f3bbecd241ac921d0c328a4",
      "function": "transfer(address,uint256)",
      "arguments": [
        "0x09c3B4Cd85a4D9A490c0fd6a8976D2d4e83E165b",
        "7000000000000000000"
      ],
      "transaction": {
        "from": "0x3a27719ef5f46c917680eb59ccd744aaa0998bd8",
        "to": "0xe6e2bd32ff1e566f6f3bbecd241ac921d0c328a4",
        "gas": "0x152ab",
        "value": "0x0",
        "input": "0xa9059cbb00000000000000000000000009c3b4cd85a4d9a490c0fd6a8976d2d4e83e165b0000000000000000000000000000000000000000000000006124fee993bc0000",
        "nonce": "0x9",
        "chainId": "0x66eee"
      },
      "additionalContracts": [],
      "isFixedGasLimit": false
    },
    {
      "hash": "0x248e3a04ff676ca2083bfdf6c393a8782fe01dead41fad6a6939603ffb6065a8",
      "transactionType": "CALL",
      "contractName": null,
      "contractAddress": "0xe6e2bd32ff1e566f6f3bbecd241ac921d0c328a4",
      "function": "transfer(address,uint256)",
      "arguments": [
        "0xF4e9e57b57D5D58834164A01a1FbD36A68daC47E",
        "9000000000000000000"
      ],
      "transaction": {
        "from": "0x09c3b4cd85a4d9a490c0fd6a8976d2d4e83e165b",
        "to": "0xe6e2bd32ff1e566f6f3bbecd241ac921d0c328a4",
        "gas": "0x18509",
        "value": "0x0",
        "input": "0xa9059cbb000000000000000000000000f4e9e57b57d5d58834164a01a1fbd36a68dac47e0000000000000000000000000000000000000000000000007ce66c50e2840000",
        "nonce": "0x7",
        "chainId": "0x66eee"
      },
      "additionalContracts": [],
      "isFixedGasLimit": false
    },
    {
      "hash": "0xc3a384eda4437e9d5f18504a4607acd99e5869f5a05e27dc4909c7c9a0ba66e7",
      "transactionType": "CALL",
      "contractName": null,
      "contractAddress": "0xe6e2bd32ff1e566f6f3bbecd241ac921d0c328a4",
      "function": "transfer(address,uint256)",
      "arguments": [
        "0xdaC88f55d8BD5C041a02a281F4ca2F3F1cb4A0f3",
        "8000000000000000000"
      ],
      "transaction": {
        "from": "0xf4e9e57b57d5d58834164a01a1fbd36a68dac47e",
        "to": "0xe6e2bd32ff1e566f6f3bbecd241ac921d0c328a4",
        "gas": "0x18503",
        "value": "0x0",
        "input": "0xa9059cbb000000000000000000000000dac88f55d8bd5c041a02a281f4ca2f3f1cb4a0f30000000000000000000000000000000000000000000000006f05b59d3b200000",
        "nonce": "0x5",
        "chainId": "0x66eee"
      },
      "additionalContracts": [],
      "isFixedGasLimit": false
    },
    {
      "hash": "0xf06c1822bb8feb0a2a48e1a3c7482d6c5e75ccc22b4288d1d496df8538b2c972",
      "transactionType": "CALL",
      "contractName": null,
      "contractAddress": "0xe6e2bd32ff1e566f6f3bbecd241ac921d0c328a4",
      "function": "transfer(address,uint256)",
      "arguments": [
        "0xe82d3B9473F0A06D6715581C336E18E949030da1",
        "7000000000000000000"
      ],
      "transaction": {
        "from": "0xdac88f55d8bd5c041a02a281f4ca2f3f1cb4a0f3",
        "to": "0xe6e2bd32ff1e566f6f3bbecd241ac921d0c328a4",
        "gas": "0x16cd9",
        "value": "0x0",
        "input": "0xa9059cbb000000000000000000000000e82d3b9473f0a06d6715581c336e18e949030da10000000000000000000000000000000000000000000000006124fee993bc0000",
        "nonce": "0x6",
        "chainId": "0x66eee"
      },
      "additionalContracts": [],
      "isFixedGasLimit": false
    }
  ],
  "receipts": [
    {
      "status": "0x1",
      "cumulativeGasUsed": "0x8fd58",
      "logs": [
        {
          "address": "0xe6e2bd32ff1e566f6f3bbecd241ac921d0c328a4",
          "topics": [
            "0xddf252ad1be2c89b69c2b068fc378daa952ba7f163c4a11628f55a4df523b3ef",
            "0x000000000000000000000000e82d3b9473f0a06d6715581c336e18e949030da1",
            "0x0000000000000000000000003a27719ef5f46c917680eb59ccd744aaa0998bd8"
          ],
          "data": "0x00000000000000000000000000000000000000000000000029a2241af62c0000",
          "blockHash": "0x77b21b35f99381b401b39ea82123d10c2984f6a8cdf79ff99248670918b28093",
          "blockNumber": "0x5891e3d",
          "transactionHash": "0x65b10506ccc2d09d7868ab8630934eb0733bc398682e7ddaef4c4a499f70d9d4",
          "transactionIndex": "0x4",
          "logIndex": "0x2",
          "removed": false
        },
        {
          "address": "0xe6e2bd32ff1e566f6f3bbecd241ac921d0c328a4",
          "topics": [
            "0x7e1b4577399017960fc6a1284e846e5682b112a94c7c1e28afa6dc3031324a29",
            "0x000000000000000000000000e82d3b9473f0a06d6715581c336e18e949030da1",
            "0x0000000000000000000000003a27719ef5f46c917680eb59ccd744aaa0998bd8"
          ],
          "data": "0x00000000000000000000000000000000000000000000000029a2241af62c00000000000000000000000000000000000000000000000000000000000000000000000000000000000000000000000000000000000000000000000000006721af6b",
          "blockHash": "0x77b21b35f99381b401b39ea82123d10c2984f6a8cdf79ff99248670918b28093",
          "blockNumber": "0x5891e3d",
          "transactionHash": "0x65b10506ccc2d09d7868ab8630934eb0733bc398682e7ddaef4c4a499f70d9d4",
          "transactionIndex": "0x4",
          "logIndex": "0x3",
          "removed": false
        }
      ],
      "logsBloom": "0x00000000000000000000000000000000080000000000000000000000000000000000000000000000000008000000000000400000000040000000000000000000000000000000000000000008000000000000000000000000000000000000000000000000040000000000000000000000000000000000000000000010000000000000000000000000000000000001001000000000000000000000000000000000000000000000000008000000000000000000000000000000000000000000008000000002000000000000000000000000000000000000000000000000000000000000000000010000000000000000000000000000010000000000040000000000",
      "type": "0x2",
      "transactionHash": "0x65b10506ccc2d09d7868ab8630934eb0733bc398682e7ddaef4c4a499f70d9d4",
      "transactionIndex": "0x4",
      "blockHash": "0x77b21b35f99381b401b39ea82123d10c2984f6a8cdf79ff99248670918b28093",
      "blockNumber": "0x5891e3d",
      "gasUsed": "0xc6f7",
      "effectiveGasPrice": "0x76883d0",
      "from": "0xe82d3b9473f0a06d6715581c336e18e949030da1",
      "to": "0xe6e2bd32ff1e566f6f3bbecd241ac921d0c328a4",
      "contractAddress": null,
      "gasUsedForL1": "0x58b",
      "l1BlockNumber": "0x6a6b16"
    },
    {
      "status": "0x1",
      "cumulativeGasUsed": "0x4b74f",
      "logs": [
        {
          "address": "0xe6e2bd32ff1e566f6f3bbecd241ac921d0c328a4",
          "topics": [
            "0xddf252ad1be2c89b69c2b068fc378daa952ba7f163c4a11628f55a4df523b3ef",
            "0x0000000000000000000000003a27719ef5f46c917680eb59ccd744aaa0998bd8",
            "0x00000000000000000000000009c3b4cd85a4d9a490c0fd6a8976d2d4e83e165b"
          ],
          "data": "0x0000000000000000000000000000000000000000000000006124fee993bc0000",
          "blockHash": "0x7481c735f9bbca1e7a8acaaaccca253b5a71c4cbe7dbefd8f65093feab563294",
          "blockNumber": "0x5891e42",
          "transactionHash": "0x80e15aec26ec067a44a8a3c72de8c634bbd0d5facad7e6cc9cc595db28bc6e14",
          "transactionIndex": "0x2",
          "logIndex": "0x1",
          "removed": false
        },
        {
          "address": "0xe6e2bd32ff1e566f6f3bbecd241ac921d0c328a4",
          "topics": [
            "0x7e1b4577399017960fc6a1284e846e5682b112a94c7c1e28afa6dc3031324a29",
            "0x0000000000000000000000003a27719ef5f46c917680eb59ccd744aaa0998bd8",
            "0x00000000000000000000000009c3b4cd85a4d9a490c0fd6a8976d2d4e83e165b"
          ],
          "data": "0x0000000000000000000000000000000000000000000000006124fee993bc00000000000000000000000000000000000000000000000000000000000000000000000000000000000000000000000000000000000000000000000000006721af6d",
          "blockHash": "0x7481c735f9bbca1e7a8acaaaccca253b5a71c4cbe7dbefd8f65093feab563294",
          "blockNumber": "0x5891e42",
          "transactionHash": "0x80e15aec26ec067a44a8a3c72de8c634bbd0d5facad7e6cc9cc595db28bc6e14",
          "transactionIndex": "0x2",
          "logIndex": "0x2",
          "removed": false
        }
      ],
      "logsBloom": "0x00000000000000000000000000000000080000000000000000800000000000000000000000000000000008000000004000400000000040000000000000000000000000000000000000000008000000000000000000000000000000000000000000000000000000000000000000000000000000000000000000000010000000000000000000000000000000000001000000000000000000000000000000000000000000000000000000000000000000004000000000000000000000000000008000000002000000000000000000000000000000000000000000000000000000000000000000010000000000000000000000000000010000000000040000000000",
      "type": "0x2",
      "transactionHash": "0x80e15aec26ec067a44a8a3c72de8c634bbd0d5facad7e6cc9cc595db28bc6e14",
      "transactionIndex": "0x2",
      "blockHash": "0x7481c735f9bbca1e7a8acaaaccca253b5a71c4cbe7dbefd8f65093feab563294",
      "blockNumber": "0x5891e42",
      "gasUsed": "0xc6f7",
      "effectiveGasPrice": "0x75e71b0",
      "from": "0x3a27719ef5f46c917680eb59ccd744aaa0998bd8",
      "to": "0xe6e2bd32ff1e566f6f3bbecd241ac921d0c328a4",
      "contractAddress": null,
      "gasUsedForL1": "0x58b",
      "l1BlockNumber": "0x6a6b16"
    },
    {
      "status": "0x1",
      "cumulativeGasUsed": "0x52cae",
      "logs": [
        {
          "address": "0xe6e2bd32ff1e566f6f3bbecd241ac921d0c328a4",
          "topics": [
            "0xddf252ad1be2c89b69c2b068fc378daa952ba7f163c4a11628f55a4df523b3ef",
            "0x00000000000000000000000009c3b4cd85a4d9a490c0fd6a8976d2d4e83e165b",
            "0x000000000000000000000000f4e9e57b57d5d58834164a01a1fbd36a68dac47e"
          ],
          "data": "0x0000000000000000000000000000000000000000000000007ba6adcaf4bb0000",
          "blockHash": "0x0ea0a2e78a493860775dee86c933d07fc3b536638fb24d720eb4be575da29821",
          "blockNumber": "0x5891e47",
          "transactionHash": "0x248e3a04ff676ca2083bfdf6c393a8782fe01dead41fad6a6939603ffb6065a8",
          "transactionIndex": "0x3",
          "logIndex": "0x1",
          "removed": false
        },
        {
          "address": "0xe6e2bd32ff1e566f6f3bbecd241ac921d0c328a4",
          "topics": [
            "0xddf252ad1be2c89b69c2b068fc378daa952ba7f163c4a11628f55a4df523b3ef",
            "0x00000000000000000000000009c3b4cd85a4d9a490c0fd6a8976d2d4e83e165b",
            "0x000000000000000000000000e82d3b9473f0a06d6715581c336e18e949030da1"
          ],
          "data": "0x000000000000000000000000000000000000000000000000013fbe85edc90000",
          "blockHash": "0x0ea0a2e78a493860775dee86c933d07fc3b536638fb24d720eb4be575da29821",
          "blockNumber": "0x5891e47",
          "transactionHash": "0x248e3a04ff676ca2083bfdf6c393a8782fe01dead41fad6a6939603ffb6065a8",
          "transactionIndex": "0x3",
          "logIndex": "0x2",
          "removed": false
        },
        {
          "address": "0xe6e2bd32ff1e566f6f3bbecd241ac921d0c328a4",
          "topics": [
            "0x7e1b4577399017960fc6a1284e846e5682b112a94c7c1e28afa6dc3031324a29",
            "0x00000000000000000000000009c3b4cd85a4d9a490c0fd6a8976d2d4e83e165b",
            "0x000000000000000000000000f4e9e57b57d5d58834164a01a1fbd36a68dac47e"
          ],
          "data": "0x0000000000000000000000000000000000000000000000007ba6adcaf4bb0000000000000000000000000000000000000000000000000000013fbe85edc90000000000000000000000000000000000000000000000000000000000006721af6e",
          "blockHash": "0x0ea0a2e78a493860775dee86c933d07fc3b536638fb24d720eb4be575da29821",
          "blockNumber": "0x5891e47",
          "transactionHash": "0x248e3a04ff676ca2083bfdf6c393a8782fe01dead41fad6a6939603ffb6065a8",
          "transactionIndex": "0x3",
          "logIndex": "0x3",
          "removed": false
        }
      ],
      "logsBloom": "0x00000040000000000000000000000000080000000000000000800000000000000000000000000000000008000000004000400000000040000000000000000000000000000000000000000008000000000000000000000000000000000000000000000000040000000000000000000000000000000000000000000010000000000000000000000000000000000000001000000000000000100000000000000000000000000000000008000001000000004000000000000000000000000000000000000002000000000000000000000000000000000000000000000000000000000000000000010000000000000000000000000000010000000000000000000000",
      "type": "0x2",
      "transactionHash": "0x248e3a04ff676ca2083bfdf6c393a8782fe01dead41fad6a6939603ffb6065a8",
      "transactionIndex": "0x3",
      "blockHash": "0x0ea0a2e78a493860775dee86c933d07fc3b536638fb24d720eb4be575da29821",
      "blockNumber": "0x5891e47",
      "gasUsed": "0xe64e",
      "effectiveGasPrice": "0x7403b50",
      "from": "0x09c3b4cd85a4d9a490c0fd6a8976d2d4e83e165b",
      "to": "0xe6e2bd32ff1e566f6f3bbecd241ac921d0c328a4",
      "contractAddress": null,
      "gasUsedForL1": "0x5aa",
      "l1BlockNumber": "0x6a6b16"
    },
    {
      "status": "0x1",
      "cumulativeGasUsed": "0xe659",
      "logs": [
        {
          "address": "0xe6e2bd32ff1e566f6f3bbecd241ac921d0c328a4",
          "topics": [
            "0xddf252ad1be2c89b69c2b068fc378daa952ba7f163c4a11628f55a4df523b3ef",
            "0x000000000000000000000000f4e9e57b57d5d58834164a01a1fbd36a68dac47e",
            "0x000000000000000000000000dac88f55d8bd5c041a02a281f4ca2f3f1cb4a0f3"
          ],
          "data": "0x0000000000000000000000000000000000000000000000006de97e09bd180000",
          "blockHash": "0x86794eea59a0538a311adc78e18dce3ed27d42cddcff913daa5fb352cb40cf1c",
          "blockNumber": "0x5891e4c",
          "transactionHash": "0xc3a384eda4437e9d5f18504a4607acd99e5869f5a05e27dc4909c7c9a0ba66e7",
          "transactionIndex": "0x1",
          "logIndex": "0x0",
          "removed": false
        },
        {
          "address": "0xe6e2bd32ff1e566f6f3bbecd241ac921d0c328a4",
          "topics": [
            "0xddf252ad1be2c89b69c2b068fc378daa952ba7f163c4a11628f55a4df523b3ef",
            "0x000000000000000000000000f4e9e57b57d5d58834164a01a1fbd36a68dac47e",
            "0x000000000000000000000000e82d3b9473f0a06d6715581c336e18e949030da1"
          ],
          "data": "0x000000000000000000000000000000000000000000000000011c37937e080000",
          "blockHash": "0x86794eea59a0538a311adc78e18dce3ed27d42cddcff913daa5fb352cb40cf1c",
          "blockNumber": "0x5891e4c",
          "transactionHash": "0xc3a384eda4437e9d5f18504a4607acd99e5869f5a05e27dc4909c7c9a0ba66e7",
          "transactionIndex": "0x1",
          "logIndex": "0x1",
          "removed": false
        },
        {
          "address": "0xe6e2bd32ff1e566f6f3bbecd241ac921d0c328a4",
          "topics": [
            "0x7e1b4577399017960fc6a1284e846e5682b112a94c7c1e28afa6dc3031324a29",
            "0x000000000000000000000000f4e9e57b57d5d58834164a01a1fbd36a68dac47e",
            "0x000000000000000000000000dac88f55d8bd5c041a02a281f4ca2f3f1cb4a0f3"
          ],
          "data": "0x0000000000000000000000000000000000000000000000006de97e09bd180000000000000000000000000000000000000000000000000000011c37937e080000000000000000000000000000000000000000000000000000000000006721af6f",
          "blockHash": "0x86794eea59a0538a311adc78e18dce3ed27d42cddcff913daa5fb352cb40cf1c",
          "blockNumber": "0x5891e4c",
          "transactionHash": "0xc3a384eda4437e9d5f18504a4607acd99e5869f5a05e27dc4909c7c9a0ba66e7",
          "transactionIndex": "0x1",
          "logIndex": "0x2",
          "removed": false
        }
      ],
      "logsBloom": "0x00000040000000000000000000000000080000000000000000000000000000000000000000000000001008000000000000400000000040000000000000000000000000000000000000020008000000000000000000000000000000000000000000000000040000000000000000000000000000000000000000000010000000000000000000000000000000000000001000000000000000100000000000000000000000000000000008000001000000020000000000000000000000000000000000000002000000000000000000000000000000000000000000000000000000000000000000010000000000000000000000000000010000000000000000000000",
      "type": "0x2",
      "transactionHash": "0xc3a384eda4437e9d5f18504a4607acd99e5869f5a05e27dc4909c7c9a0ba66e7",
      "transactionIndex": "0x1",
      "blockHash": "0x86794eea59a0538a311adc78e18dce3ed27d42cddcff913daa5fb352cb40cf1c",
      "blockNumber": "0x5891e4c",
      "gasUsed": "0xe659",
      "effectiveGasPrice": "0x732cdd0",
      "from": "0xf4e9e57b57d5d58834164a01a1fbd36a68dac47e",
      "to": "0xe6e2bd32ff1e566f6f3bbecd241ac921d0c328a4",
      "contractAddress": null,
      "gasUsedForL1": "0x5b5",
      "l1BlockNumber": "0x6a6b16"
    },
    {
      "status": "0x1",
      "cumulativeGasUsed": "0xd763",
      "logs": [
        {
          "address": "0xe6e2bd32ff1e566f6f3bbecd241ac921d0c328a4",
          "topics": [
            "0xddf252ad1be2c89b69c2b068fc378daa952ba7f163c4a11628f55a4df523b3ef",
            "0x000000000000000000000000dac88f55d8bd5c041a02a281f4ca2f3f1cb4a0f3",
            "0x000000000000000000000000e82d3b9473f0a06d6715581c336e18e949030da1"
          ],
          "data": "0x000000000000000000000000000000000000000000000000602c4e4885750000",
          "blockHash": "0x42e625348dd5c2adc9ed189d72f7996b505fb1c28c5af04da8dd82def0d8f885",
          "blockNumber": "0x5891e51",
          "transactionHash": "0xf06c1822bb8feb0a2a48e1a3c7482d6c5e75ccc22b4288d1d496df8538b2c972",
          "transactionIndex": "0x1",
          "logIndex": "0x0",
          "removed": false
        },
        {
          "address": "0xe6e2bd32ff1e566f6f3bbecd241ac921d0c328a4",
          "topics": [
            "0xddf252ad1be2c89b69c2b068fc378daa952ba7f163c4a11628f55a4df523b3ef",
            "0x000000000000000000000000dac88f55d8bd5c041a02a281f4ca2f3f1cb4a0f3",
            "0x000000000000000000000000e82d3b9473f0a06d6715581c336e18e949030da1"
          ],
          "data": "0x00000000000000000000000000000000000000000000000000f8b0a10e470000",
          "blockHash": "0x42e625348dd5c2adc9ed189d72f7996b505fb1c28c5af04da8dd82def0d8f885",
          "blockNumber": "0x5891e51",
          "transactionHash": "0xf06c1822bb8feb0a2a48e1a3c7482d6c5e75ccc22b4288d1d496df8538b2c972",
          "transactionIndex": "0x1",
          "logIndex": "0x1",
          "removed": false
        },
        {
          "address": "0xe6e2bd32ff1e566f6f3bbecd241ac921d0c328a4",
          "topics": [
            "0x7e1b4577399017960fc6a1284e846e5682b112a94c7c1e28afa6dc3031324a29",
            "0x000000000000000000000000dac88f55d8bd5c041a02a281f4ca2f3f1cb4a0f3",
            "0x000000000000000000000000e82d3b9473f0a06d6715581c336e18e949030da1"
          ],
          "data": "0x000000000000000000000000000000000000000000000000602c4e488575000000000000000000000000000000000000000000000000000000f8b0a10e470000000000000000000000000000000000000000000000000000000000006721af70",
          "blockHash": "0x42e625348dd5c2adc9ed189d72f7996b505fb1c28c5af04da8dd82def0d8f885",
          "blockNumber": "0x5891e51",
          "transactionHash": "0xf06c1822bb8feb0a2a48e1a3c7482d6c5e75ccc22b4288d1d496df8538b2c972",
          "transactionIndex": "0x1",
          "logIndex": "0x2",
          "removed": false
        }
      ],
      "logsBloom": "0x00000000000000000000000000000000080000000000000000000000000000000000000000000000001008000000000000400000000040000000000000000000000000000000000000020008000000000000000000000000000000000000000000000000040000000000000000000000000000000000000000000010000000000000000000000000000000000000001000000000000000000000000000000000000000000000000008000000000000020000000000000000000000000000000000000002000000000000000000000000000000000000000000000000000000000000000000010000000000000000000000000000010000000000000000000000",
      "type": "0x2",
      "transactionHash": "0xf06c1822bb8feb0a2a48e1a3c7482d6c5e75ccc22b4288d1d496df8538b2c972",
      "transactionIndex": "0x1",
      "blockHash": "0x42e625348dd5c2adc9ed189d72f7996b505fb1c28c5af04da8dd82def0d8f885",
      "blockNumber": "0x5891e51",
      "gasUsed": "0xd763",
      "effectiveGasPrice": "0x72698d0",
      "from": "0xdac88f55d8bd5c041a02a281f4ca2f3f1cb4a0f3",
      "to": "0xe6e2bd32ff1e566f6f3bbecd241ac921d0c328a4",
      "contractAddress": null,
      "gasUsedForL1": "0x5bf",
      "l1BlockNumber": "0x6a6b17"
    }
  ],
  "libraries": [],
  "pending": [],
  "returns": {},
  "timestamp": 1730260849,
  "chain": 421614,
  "commit": "056e1e4"
}