{
  "transactions": [
    {
      "hash": "0xc6b0e948c9e6b52408c5f8c459650a4ee421f2caee72f2dc547d0fbd671ff5cb",
      "transactionType": "CALL",
      "contractName": null,
      "contractAddress": "0x4c9c4d998d27c9f1c69f27b4343045543cba3cbe",
      "function": "transfer(address,uint256)",
      "arguments": [
        "0x3a27719ef5f46c917680eb59cCD744aaa0998Bd8",
        "9000000000000000000"
      ],
      "transaction": {
        "from": "0xe82d3b9473f0a06d6715581c336e18e949030da1",
        "to": "0x4c9c4d998d27c9f1c69f27b4343045543cba3cbe",
        "gas": "0x14756",
        "value": "0x0",
        "input": "0xa9059cbb0000000000000000000000003a27719ef5f46c917680eb59ccd744aaa0998bd80000000000000000000000000000000000000000000000007ce66c50e2840000",
        "nonce": "0x44",
        "chainId": "0x66eee"
      },
      "additionalContracts": [],
      "isFixedGasLimit": false
    },
    {
      "hash": "0x9622127596fcab009edb6678549b7b46549e4872c385642ac27271ce3ffb4021",
      "transactionType": "CALL",
      "contractName": null,
      "contractAddress": "0x4c9c4d998d27c9f1c69f27b4343045543cba3cbe",
      "function": "transfer(address,uint256)",
      "arguments": [
        "0x09c3B4Cd85a4D9A490c0fd6a8976D2d4e83E165b",
        "1000000000000000000"
      ],
      "transaction": {
        "from": "0xe82d3b9473f0a06d6715581c336e18e949030da1",
        "to": "0x4c9c4d998d27c9f1c69f27b4343045543cba3cbe",
        "gas": "0x14756",
        "value": "0x0",
        "input": "0xa9059cbb00000000000000000000000009c3b4cd85a4d9a490c0fd6a8976d2d4e83e165b0000000000000000000000000000000000000000000000000de0b6b3a7640000",
        "nonce": "0x45",
        "chainId": "0x66eee"
      },
      "additionalContracts": [],
      "isFixedGasLimit": false
    },
    {
      "hash": "0xd843696f8050983252e50e541b69b236d0eb2cb29a347a5b628c4e7594464e31",
      "transactionType": "CALL",
      "contractName": null,
      "contractAddress": "0x4c9c4d998d27c9f1c69f27b4343045543cba3cbe",
      "function": "transfer(address,uint256)",
      "arguments": [
        "0xF4e9e57b57D5D58834164A01a1FbD36A68daC47E",
        "3000000000000000000"
      ],
      "transaction": {
        "from": "0xe82d3b9473f0a06d6715581c336e18e949030da1",
        "to": "0x4c9c4d998d27c9f1c69f27b4343045543cba3cbe",
        "gas": "0x14756",
        "value": "0x0",
        "input": "0xa9059cbb000000000000000000000000f4e9e57b57d5d58834164a01a1fbd36a68dac47e00000000000000000000000000000000000000000000000029a2241af62c0000",
        "nonce": "0x46",
        "chainId": "0x66eee"
      },
      "additionalContracts": [],
      "isFixedGasLimit": false
    },
    {
      "hash": "0x7bcc38ee191f795f67b33d71b465be54ee1757a0cf1a7034c5d9af5869b59dde",
      "transactionType": "CALL",
      "contractName": null,
      "contractAddress": "0x4c9c4d998d27c9f1c69f27b4343045543cba3cbe",
      "function": "transfer(address,uint256)",
      "arguments": [
        "0xdaC88f55d8BD5C041a02a281F4ca2F3F1cb4A0f3",
        "5000000000000000000"
      ],
      "transaction": {
        "from": "0xe82d3b9473f0a06d6715581c336e18e949030da1",
        "to": "0x4c9c4d998d27c9f1c69f27b4343045543cba3cbe",
        "gas": "0x14756",
        "value": "0x0",
        "input": "0xa9059cbb000000000000000000000000dac88f55d8bd5c041a02a281f4ca2f3f1cb4a0f30000000000000000000000000000000000000000000000004563918244f40000",
        "nonce": "0x47",
        "chainId": "0x66eee"
      },
      "additionalContracts": [],
      "isFixedGasLimit": false
    }
  ],
  "receipts": [
    {
      "status": "0x1",
      "cumulativeGasUsed": "0x932e33",
      "logs": [
        {
          "address": "0x4c9c4d998d27c9f1c69f27b4343045543cba3cbe",
          "topics": [
            "0xddf252ad1be2c89b69c2b068fc378daa952ba7f163c4a11628f55a4df523b3ef",
            "0x000000000000000000000000e82d3b9473f0a06d6715581c336e18e949030da1",
            "0x0000000000000000000000003a27719ef5f46c917680eb59ccd744aaa0998bd8"
          ],
          "data": "0x0000000000000000000000000000000000000000000000007ce66c50e2840000",
          "blockHash": "0x4fd289dac97b6aa280d651d507528c2a486fb96db2ebbfec274fa5a2d6aeac3a",
          "blockNumber": "0x5857f7d",
          "transactionHash": "0xc6b0e948c9e6b52408c5f8c459650a4ee421f2caee72f2dc547d0fbd671ff5cb",
          "transactionIndex": "0x2",
          "logIndex": "0x5",
          "removed": false
        },
        {
          "address": "0x4c9c4d998d27c9f1c69f27b4343045543cba3cbe",
          "topics": [
            "0x98bc3fe7d138931a49691b623c256b8812f2a3d7f9b25ba7098c82538977a5d0",
            "0x000000000000000000000000e82d3b9473f0a06d6715581c336e18e949030da1",
            "0x0000000000000000000000003a27719ef5f46c917680eb59ccd744aaa0998bd8"
          ],
          "data": "0x0000000000000000000000000000000000000000000000007ce66c50e28400000000000000000000000000000000000000000000000000000000000000000000",
          "blockHash": "0x4fd289dac97b6aa280d651d507528c2a486fb96db2ebbfec274fa5a2d6aeac3a",
          "blockNumber": "0x5857f7d",
          "transactionHash": "0xc6b0e948c9e6b52408c5f8c459650a4ee421f2caee72f2dc547d0fbd671ff5cb",
          "transactionIndex": "0x2",
          "logIndex": "0x6",
          "removed": false
        }
      ],
      "logsBloom": "0x00000000000000000000000000000000000000000000000000000000000000000000000000000000000000000000001000004000000000000000000000000000000000000000000000000008000000000000000000004000000000000020000000000000040000000000000000000000000000000000000000000010000000000000000000000000000000000001001000000000000010000000000000000000000000000000000008000000000000000000000000000000000000000000008000000002000000000000000000000000000000000000000020000000000000000000000000000000000000000000000000000000000000000000040000000000",
      "type": "0x2",
      "transactionHash": "0xc6b0e948c9e6b52408c5f8c459650a4ee421f2caee72f2dc547d0fbd671ff5cb",
      "transactionIndex": "0x2",
      "blockHash": "0x4fd289dac97b6aa280d651d507528c2a486fb96db2ebbfec274fa5a2d6aeac3a",
      "blockNumber": "0x5857f7d",
      "gasUsed": "0xc1ca",
      "effectiveGasPrice": "0xb13ffa0",
      "from": "0xe82d3b9473f0a06d6715581c336e18e949030da1",
      "to": "0x4c9c4d998d27c9f1c69f27b4343045543cba3cbe",
      "contractAddress": null,
      "gasUsedForL1": "0x13a",
      "l1BlockNumber": "0x6a5616"
    },
    {
      "status": "0x1",
      "cumulativeGasUsed": "0xc1c5",
      "logs": [
        {
          "address": "0x4c9c4d998d27c9f1c69f27b4343045543cba3cbe",
          "topics": [
            "0xddf252ad1be2c89b69c2b068fc378daa952ba7f163c4a11628f55a4df523b3ef",
            "0x000000000000000000000000e82d3b9473f0a06d6715581c336e18e949030da1",
            "0x00000000000000000000000009c3b4cd85a4d9a490c0fd6a8976d2d4e83e165b"
          ],
          "data": "0x0000000000000000000000000000000000000000000000000de0b6b3a7640000",
          "blockHash": "0xe7d9c8ba487e8575a9cf2a12b97305361b60843b026911793dea7759a78f6e2f",
          "blockNumber": "0x5857f80",
          "transactionHash": "0x9622127596fcab009edb6678549b7b46549e4872c385642ac27271ce3ffb4021",
          "transactionIndex": "0x1",
          "logIndex": "0x0",
          "removed": false
        },
        {
          "address": "0x4c9c4d998d27c9f1c69f27b4343045543cba3cbe",
          "topics": [
            "0x98bc3fe7d138931a49691b623c256b8812f2a3d7f9b25ba7098c82538977a5d0",
            "0x000000000000000000000000e82d3b9473f0a06d6715581c336e18e949030da1",
            "0x00000000000000000000000009c3b4cd85a4d9a490c0fd6a8976d2d4e83e165b"
          ],
          "data": "0x0000000000000000000000000000000000000000000000000de0b6b3a76400000000000000000000000000000000000000000000000000000000000000000000",
          "blockHash": "0xe7d9c8ba487e8575a9cf2a12b97305361b60843b026911793dea7759a78f6e2f",
          "blockNumber": "0x5857f80",
          "transactionHash": "0x9622127596fcab009edb6678549b7b46549e4872c385642ac27271ce3ffb4021",
          "transactionIndex": "0x1",
          "logIndex": "0x1",
          "removed": false
        }
      ],
      "logsBloom": "0x00000000000000000000000000000000000000000000000000800000000000000000000000000000000000000000005000004000000000000000000000000000000000000000000000000008000000000000000000004000000000000020000000000000040000000000000000000000000000000000000000000010000000000000000000000000000000000000001000000000000010000000000000000000000000000000000008000000000000004000000000000000000000000000000000000002000000000000000000000000000000000000000020000000000000000000000000000000000000000000000000000000000000000000000000000000",
      "type": "0x2",
      "transactionHash": "0x9622127596fcab009edb6678549b7b46549e4872c385642ac27271ce3ffb4021",
      "transactionIndex": "0x1",
      "blockHash": "0xe7d9c8ba487e8575a9cf2a12b97305361b60843b026911793dea7759a78f6e2f",
      "blockNumber": "0x5857f80",
      "gasUsed": "0xc1c5",
      "effectiveGasPrice": "0xb465a40",
      "from": "0xe82d3b9473f0a06d6715581c336e18e949030da1",
      "to": "0x4c9c4d998d27c9f1c69f27b4343045543cba3cbe",
      "contractAddress": null,
      "gasUsedForL1": "0x135",
      "l1BlockNumber": "0x6a5616"
    },
    {
      "status": "0x1",
      "cumulativeGasUsed": "0x21ef3",
      "logs": [
        {
          "address": "0x4c9c4d998d27c9f1c69f27b4343045543cba3cbe",
          "topics": [
            "0xddf252ad1be2c89b69c2b068fc378daa952ba7f163c4a11628f55a4df523b3ef",
            "0x000000000000000000000000e82d3b9473f0a06d6715581c336e18e949030da1",
            "0x000000000000000000000000f4e9e57b57d5d58834164a01a1fbd36a68dac47e"
          ],
          "data": "0x00000000000000000000000000000000000000000000000029a2241af62c0000",
          "blockHash": "0x25bf61e3f3b1ac1d7003eed2e0a1fedd876e01d6c57296d610657b6d6a72a286",
          "blockNumber": "0x5857f85",
          "transactionHash": "0xd843696f8050983252e50e541b69b236d0eb2cb29a347a5b628c4e7594464e31",
          "transactionIndex": "0x2",
          "logIndex": "0x3",
          "removed": false
        },
        {
          "address": "0x4c9c4d998d27c9f1c69f27b4343045543cba3cbe",
          "topics": [
            "0x98bc3fe7d138931a49691b623c256b8812f2a3d7f9b25ba7098c82538977a5d0",
            "0x000000000000000000000000e82d3b9473f0a06d6715581c336e18e949030da1",
            "0x000000000000000000000000f4e9e57b57d5d58834164a01a1fbd36a68dac47e"
          ],
          "data": "0x00000000000000000000000000000000000000000000000029a2241af62c00000000000000000000000000000000000000000000000000000000000000000000",
          "blockHash": "0x25bf61e3f3b1ac1d7003eed2e0a1fedd876e01d6c57296d610657b6d6a72a286",
          "blockNumber": "0x5857f85",
          "transactionHash": "0xd843696f8050983252e50e541b69b236d0eb2cb29a347a5b628c4e7594464e31",
          "transactionIndex": "0x2",
          "logIndex": "0x4",
          "removed": false
        }
      ],
      "logsBloom": "0x00000040000000000000000000000000000000000000000000000000000000000000000000000000000000000000001000004000000000000000000000000000000000000000000000000008000000000000000000004000000000000020000000000000040000000000000000000000000000000000000000000010000000000000000000000000000000000000001000000000000010100000000000000000000000000000000008000001000000000000000000000000000000000000000000000002000000000000000000000000000000000000000020000000000000000000000000000000000000000000000000000000000000000000000000000000",
      "type": "0x2",
      "transactionHash": "0xd843696f8050983252e50e541b69b236d0eb2cb29a347a5b628c4e7594464e31",
      "transactionIndex": "0x2",
      "blockHash": "0x25bf61e3f3b1ac1d7003eed2e0a1fedd876e01d6c57296d610657b6d6a72a286",
      "blockNumber": "0x5857f85",
      "gasUsed": "0xc1ca",
      "effectiveGasPrice": "0xb14c2f0",
      "from": "0xe82d3b9473f0a06d6715581c336e18e949030da1",
      "to": "0x4c9c4d998d27c9f1c69f27b4343045543cba3cbe",
      "contractAddress": null,
      "gasUsedForL1": "0x13a",
      "l1BlockNumber": "0x6a5616"
    },
    {
      "status": "0x1",
      "cumulativeGasUsed": "0xc1cd",
      "logs": [
        {
          "address": "0x4c9c4d998d27c9f1c69f27b4343045543cba3cbe",
          "topics": [
            "0xddf252ad1be2c89b69c2b068fc378daa952ba7f163c4a11628f55a4df523b3ef",
            "0x000000000000000000000000e82d3b9473f0a06d6715581c336e18e949030da1",
            "0x000000000000000000000000dac88f55d8bd5c041a02a281f4ca2f3f1cb4a0f3"
          ],
          "data": "0x0000000000000000000000000000000000000000000000004563918244f40000",
          "blockHash": "0xb688f68fc12f00e11128b2b422dc3b91defc6efdd9997f54252f9f4c7453ea54",
          "blockNumber": "0x5857f87",
          "transactionHash": "0x7bcc38ee191f795f67b33d71b465be54ee1757a0cf1a7034c5d9af5869b59dde",
          "transactionIndex": "0x1",
          "logIndex": "0x0",
          "removed": false
        },
        {
          "address": "0x4c9c4d998d27c9f1c69f27b4343045543cba3cbe",
          "topics": [
            "0x98bc3fe7d138931a49691b623c256b8812f2a3d7f9b25ba7098c82538977a5d0",
            "0x000000000000000000000000e82d3b9473f0a06d6715581c336e18e949030da1",
            "0x000000000000000000000000dac88f55d8bd5c041a02a281f4ca2f3f1cb4a0f3"
          ],
          "data": "0x0000000000000000000000000000000000000000000000004563918244f400000000000000000000000000000000000000000000000000000000000000000000",
          "blockHash": "0xb688f68fc12f00e11128b2b422dc3b91defc6efdd9997f54252f9f4c7453ea54",
          "blockNumber": "0x5857f87",
          "transactionHash": "0x7bcc38ee191f795f67b33d71b465be54ee1757a0cf1a7034c5d9af5869b59dde",
          "transactionIndex": "0x1",
          "logIndex": "0x1",
          "removed": false
        }
      ],
      "logsBloom": "0x00000000000000000000000000000000000000000000000000000000000000000000000000000000001000000000001000004000000000000000000000000000000000000000000000020008000000000000000000004000000000000020000000000000040000000000000000000000000000000000000000000010000000000000000000000000000000000000001000000000000010000000000000000000000000000000000008000000000000020000000000000000000000000000000000000002000000000000000000000000000000000000000020000000000000000000000000000000000000000000000000000000000000000000000000000000",
      "type": "0x2",
      "transactionHash": "0x7bcc38ee191f795f67b33d71b465be54ee1757a0cf1a7034c5d9af5869b59dde",
      "transactionIndex": "0x1",
      "blockHash": "0xb688f68fc12f00e11128b2b422dc3b91defc6efdd9997f54252f9f4c7453ea54",
      "blockNumber": "0x5857f87",
      "gasUsed": "0xc1cd",
      "effectiveGasPrice": "0xaf9c0e0",
      "from": "0xe82d3b9473f0a06d6715581c336e18e949030da1",
      "to": "0x4c9c4d998d27c9f1c69f27b4343045543cba3cbe",
      "contractAddress": null,
      "gasUsedForL1": "0x13d",
      "l1BlockNumber": "0x6a5616"
    }
  ],
  "libraries": [],
  "pending": [],
  "returns": {},
  "timestamp": 1730192372,
  "chain": 421614,
  "commit": "056e1e4"
}