{
  "transactions": [
    {
      "hash": "0x13a78f7a4accf297423c4a8c0fe56ae9c4c894f23f8ecd05cdbea2086a7ba1f9",
      "transactionType": "CALL",
      "contractName": null,
      "contractAddress": "0xe6e2bd32ff1e566f6f3bbecd241ac921d0c328a4",
      "function": "transfer(address,uint256)",
      "arguments": [
        "0x3a27719ef5f46c917680eb59cCD744aaa0998Bd8",
        "6000000000000000000"
      ],
      "transaction": {
        "from": "0xe82d3b9473f0a06d6715581c336e18e949030da1",
        "to": "0xe6e2bd32ff1e566f6f3bbecd241ac921d0c328a4",
        "gas": "0x14b8f",
        "value": "0x0",
        "input": "0xa9059cbb0000000000000000000000003a27719ef5f46c917680eb59ccd744aaa0998bd800000000000000000000000000000000000000000000000053444835ec580000",
        "nonce": "0x75",
        "chainId": "0x66eee"
      },
      "additionalContracts": [],
      "isFixedGasLimit": false
    },
    {
      "hash": "0x550593987492fdf1313579444549952c5f27a880de1692b3d221460295ec9a8a",
      "transactionType": "CALL",
      "contractName": null,
      "contractAddress": "0xe6e2bd32ff1e566f6f3bbecd241ac921d0c328a4",
      "function": "transfer(address,uint256)",
      "arguments": [
        "0x09c3B4Cd85a4D9A490c0fd6a8976D2d4e83E165b",
        "1000000000000000000"
      ],
      "transaction": {
        "from": "0x3a27719ef5f46c917680eb59ccd744aaa0998bd8",
        "to": "0xe6e2bd32ff1e566f6f3bbecd241ac921d0c328a4",
        "gas": "0x14b8f",
        "value": "0x0",
        "input": "0xa9059cbb00000000000000000000000009c3b4cd85a4d9a490c0fd6a8976d2d4e83e165b0000000000000000000000000000000000000000000000000de0b6b3a7640000",
        "nonce": "0xd",
        "chainId": "0x66eee"
      },
      "additionalContracts": [],
      "isFixedGasLimit": false
    },
    {
      "hash": "0x12f634df222754ffdbbe26d776cadb6589caeaf234477c9fdcb02d485e9e8ee3",
      "transactionType": "CALL",
      "contractName": null,
      "contractAddress": "0xe6e2bd32ff1e566f6f3bbecd241ac921d0c328a4",
      "function": "transfer(address,uint256)",
      "arguments": [
        "0xF4e9e57b57D5D58834164A01a1FbD36A68daC47E",
        "7000000000000000000"
      ],
      "transaction": {
        "from": "0x09c3b4cd85a4d9a490c0fd6a8976d2d4e83e165b",
        "to": "0xe6e2bd32ff1e566f6f3bbecd241ac921d0c328a4",
        "gas": "0x17dcf",
        "value": "0x0",
        "input": "0xa9059cbb000000000000000000000000f4e9e57b57d5d58834164a01a1fbd36a68dac47e0000000000000000000000000000000000000000000000006124fee993bc0000",
        "nonce": "0xb",
        "chainId": "0x66eee"
      },
      "additionalContracts": [],
      "isFixedGasLimit": false
    },
    {
      "hash": "0xa1032efead44cfd84f59eb8623d5bafa5e5cb1bcf0a051870fb10d4d872a49e5",
      "transactionType": "CALL",
      "contractName": null,
      "contractAddress": "0xe6e2bd32ff1e566f6f3bbecd241ac921d0c328a4",
      "function": "transfer(address,uint256)",
      "arguments": [
        "0xdaC88f55d8BD5C041a02a281F4ca2F3F1cb4A0f3",
        "2000000000000000000"
      ],
      "transaction": {
        "from": "0xf4e9e57b57d5d58834164a01a1fbd36a68dac47e",
        "to": "0xe6e2bd32ff1e566f6f3bbecd241ac921d0c328a4",
        "gas": "0x17dcf",
        "value": "0x0",
        "input": "0xa9059cbb000000000000000000000000dac88f55d8bd5c041a02a281f4ca2f3f1cb4a0f30000000000000000000000000000000000000000000000001bc16d674ec80000",
        "nonce": "0x9",
        "chainId": "0x66eee"
      },
      "additionalContracts": [],
      "isFixedGasLimit": false
    },
    {
      "hash": "0x509b0857d08f9bbe7a5eda584ed00c731484c7cd84c3348a0ebba74a7b9f56b8",
      "transactionType": "CALL",
      "contractName": null,
      "contractAddress": "0xe6e2bd32ff1e566f6f3bbecd241ac921d0c328a4",
      "function": "transfer(address,uint256)",
      "arguments": [
        "0xe82d3B9473F0A06D6715581C336E18E949030da1",
        "6000000000000000000"
      ],
      "transaction": {
        "from": "0xdac88f55d8bd5c041a02a281f4ca2f3f1cb4a0f3",
        "to": "0xe6e2bd32ff1e566f6f3bbecd241ac921d0c328a4",
        "gas": "0x165ac",
        "value": "0x0",
        "input": "0xa9059cbb000000000000000000000000e82d3b9473f0a06d6715581c336e18e949030da100000000000000000000000000000000000000000000000053444835ec580000",
        "nonce": "0xa",
        "chainId": "0x66eee"
      },
      "additionalContracts": [],
      "isFixedGasLimit": false
    }
  ],
  "receipts": [
    {
      "status": "0x1",
      "cumulativeGasUsed": "0xc437",
      "logs": [
        {
          "address": "0xe6e2bd32ff1e566f6f3bbecd241ac921d0c328a4",
          "topics": [
            "0xddf252ad1be2c89b69c2b068fc378daa952ba7f163c4a11628f55a4df523b3ef",
            "0x000000000000000000000000e82d3b9473f0a06d6715581c336e18e949030da1",
            "0x0000000000000000000000003a27719ef5f46c917680eb59ccd744aaa0998bd8"
          ],
          "data": "0x00000000000000000000000000000000000000000000000053444835ec580000",
          "blockHash": "0xa6569d0d2b26c331b5398ce68987817927e0ec08cc50e9f8b65d7a1d0ba33651",
          "blockNumber": "0x58a49f9",
          "transactionHash": "0x13a78f7a4accf297423c4a8c0fe56ae9c4c894f23f8ecd05cdbea2086a7ba1f9",
          "transactionIndex": "0x1",
          "logIndex": "0x0",
          "removed": false
        },
        {
          "address": "0xe6e2bd32ff1e566f6f3bbecd241ac921d0c328a4",
          "topics": [
            "0x7e1b4577399017960fc6a1284e846e5682b112a94c7c1e28afa6dc3031324a29",
            "0x000000000000000000000000e82d3b9473f0a06d6715581c336e18e949030da1",
            "0x0000000000000000000000003a27719ef5f46c917680eb59ccd744aaa0998bd8"
          ],
          "data": "0x00000000000000000000000000000000000000000000000053444835ec58000000000000000000000000000000000000000000000000000000000000000000000000000000000000000000000000000000000000000000000000000067220a91",
          "blockHash": "0xa6569d0d2b26c331b5398ce68987817927e0ec08cc50e9f8b65d7a1d0ba33651",
          "blockNumber": "0x58a49f9",
          "transactionHash": "0x13a78f7a4accf297423c4a8c0fe56ae9c4c894f23f8ecd05cdbea2086a7ba1f9",
          "transactionIndex": "0x1",
          "logIndex": "0x1",
          "removed": false
        }
      ],
      "logsBloom": "0x00000000000000000000000000000000080000000000000000000000000000000000000000000000000008000000000000400000000040000000000000000000000000000000000000000008000000000000000000000000000000000000000000000000040000000000000000000000000000000000000000000010000000000000000000000000000000000001001000000000000000000000000000000000000000000000000008000000000000000000000000000000000000000000008000000002000000000000000000000000000000000000000000000000000000000000000000010000000000000000000000000000010000000000040000000000",
      "type": "0x2",
      "transactionHash": "0x13a78f7a4accf297423c4a8c0fe56ae9c4c894f23f8ecd05cdbea2086a7ba1f9",
      "transactionIndex": "0x1",
      "blockHash": "0xa6569d0d2b26c331b5398ce68987817927e0ec08cc50e9f8b65d7a1d0ba33651",
      "blockNumber": "0x58a49f9",
      "gasUsed": "0xc437",
      "effectiveGasPrice": "0x5f5e100",
      "from": "0xe82d3b9473f0a06d6715581c336e18e949030da1",
      "to": "0xe6e2bd32ff1e566f6f3bbecd241ac921d0c328a4",
      "contractAddress": null,
      "gasUsedForL1": "0x2cb",
      "l1BlockNumber": "0x6a722d"
    },
    {
      "status": "0x1",
      "cumulativeGasUsed": "0xc437",
      "logs": [
        {
          "address": "0xe6e2bd32ff1e566f6f3bbecd241ac921d0c328a4",
          "topics": [
            "0xddf252ad1be2c89b69c2b068fc378daa952ba7f163c4a11628f55a4df523b3ef",
            "0x0000000000000000000000003a27719ef5f46c917680eb59ccd744aaa0998bd8",
            "0x00000000000000000000000009c3b4cd85a4d9a490c0fd6a8976d2d4e83e165b"
          ],
          "data": "0x0000000000000000000000000000000000000000000000000de0b6b3a7640000",
          "blockHash": "0x2cf025c51d0b50cca5fabc9b14cc2d0d73860c052f147ac3e91175ff4706546b",
          "blockNumber": "0x58a49fc",
          "transactionHash": "0x550593987492fdf1313579444549952c5f27a880de1692b3d221460295ec9a8a",
          "transactionIndex": "0x1",
          "logIndex": "0x0",
          "removed": false
        },
        {
          "address": "0xe6e2bd32ff1e566f6f3bbecd241ac921d0c328a4",
          "topics": [
            "0x7e1b4577399017960fc6a1284e846e5682b112a94c7c1e28afa6dc3031324a29",
            "0x0000000000000000000000003a27719ef5f46c917680eb59ccd744aaa0998bd8",
            "0x00000000000000000000000009c3b4cd85a4d9a490c0fd6a8976d2d4e83e165b"
          ],
          "data": "0x0000000000000000000000000000000000000000000000000de0b6b3a764000000000000000000000000000000000000000000000000000000000000000000000000000000000000000000000000000000000000000000000000000067220a92",
          "blockHash": "0x2cf025c51d0b50cca5fabc9b14cc2d0d73860c052f147ac3e91175ff4706546b",
          "blockNumber": "0x58a49fc",
          "transactionHash": "0x550593987492fdf1313579444549952c5f27a880de1692b3d221460295ec9a8a",
          "transactionIndex": "0x1",
          "logIndex": "0x1",
          "removed": false
        }
      ],
      "logsBloom": "0x00000000000000000000000000000000080000000000000000800000000000000000000000000000000008000000004000400000000040000000000000000000000000000000000000000008000000000000000000000000000000000000000000000000000000000000000000000000000000000000000000000010000000000000000000000000000000000001000000000000000000000000000000000000000000000000000000000000000000004000000000000000000000000000008000000002000000000000000000000000000000000000000000000000000000000000000000010000000000000000000000000000010000000000040000000000",
      "type": "0x2",
      "transactionHash": "0x550593987492fdf1313579444549952c5f27a880de1692b3d221460295ec9a8a",
      "transactionIndex": "0x1",
      "blockHash": "0x2cf025c51d0b50cca5fabc9b14cc2d0d73860c052f147ac3e91175ff4706546b",
      "blockNumber": "0x58a49fc",
      "gasUsed": "0xc437",
      "effectiveGasPrice": "0x5f5e100",
      "from": "0x3a27719ef5f46c917680eb59ccd744aaa0998bd8",
      "to": "0xe6e2bd32ff1e566f6f3bbecd241ac921d0c328a4",
      "contractAddress": null,
      "gasUsedForL1": "0x2cb",
      "l1BlockNumber": "0x6a722d"
    },
    {
      "status": "0x1",
      "cumulativeGasUsed": "0xe36f",
      "logs": [
        {
          "address": "0xe6e2bd32ff1e566f6f3bbecd241ac921d0c328a4",
          "topics": [
            "0xddf252ad1be2c89b69c2b068fc378daa952ba7f163c4a11628f55a4df523b3ef",
            "0x00000000000000000000000009c3b4cd85a4d9a490c0fd6a8976d2d4e83e165b",
            "0x000000000000000000000000f4e9e57b57d5d58834164a01a1fbd36a68dac47e"
          ],
          "data": "0x000000000000000000000000000000000000000000000000602c4e4885750000",
          "blockHash": "0xf87b11ecfb71ca6b0b69981cb84bf23f74559476c42840ba2603106723a80e32",
          "blockNumber": "0x58a4a00",
          "transactionHash": "0x12f634df222754ffdbbe26d776cadb6589caeaf234477c9fdcb02d485e9e8ee3",
          "transactionIndex": "0x1",
          "logIndex": "0x0",
          "removed": false
        },
        {
          "address": "0xe6e2bd32ff1e566f6f3bbecd241ac921d0c328a4",
          "topics": [
            "0xddf252ad1be2c89b69c2b068fc378daa952ba7f163c4a11628f55a4df523b3ef",
            "0x00000000000000000000000009c3b4cd85a4d9a490c0fd6a8976d2d4e83e165b",
            "0x000000000000000000000000e82d3b9473f0a06d6715581c336e18e949030da1"
          ],
          "data": "0x00000000000000000000000000000000000000000000000000f8b0a10e470000",
          "blockHash": "0xf87b11ecfb71ca6b0b69981cb84bf23f74559476c42840ba2603106723a80e32",
          "blockNumber": "0x58a4a00",
          "transactionHash": "0x12f634df222754ffdbbe26d776cadb6589caeaf234477c9fdcb02d485e9e8ee3",
          "transactionIndex": "0x1",
          "logIndex": "0x1",
          "removed": false
        },
        {
          "address": "0xe6e2bd32ff1e566f6f3bbecd241ac921d0c328a4",
          "topics": [
            "0x7e1b4577399017960fc6a1284e846e5682b112a94c7c1e28afa6dc3031324a29",
            "0x00000000000000000000000009c3b4cd85a4d9a490c0fd6a8976d2d4e83e165b",
            "0x000000000000000000000000f4e9e57b57d5d58834164a01a1fbd36a68dac47e"
          ],
          "data": "0x000000000000000000000000000000000000000000000000602c4e488575000000000000000000000000000000000000000000000000000000f8b0a10e4700000000000000000000000000000000000000000000000000000000000067220a93",
          "blockHash": "0xf87b11ecfb71ca6b0b69981cb84bf23f74559476c42840ba2603106723a80e32",
          "blockNumber": "0x58a4a00",
          "transactionHash": "0x12f634df222754ffdbbe26d776cadb6589caeaf234477c9fdcb02d485e9e8ee3",
          "transactionIndex": "0x1",
          "logIndex": "0x2",
          "removed": false
        }
      ],
      "logsBloom": "0x00000040000000000000000000000000080000000000000000800000000000000000000000000000000008000000004000400000000040000000000000000000000000000000000000000008000000000000000000000000000000000000000000000000040000000000000000000000000000000000000000000010000000000000000000000000000000000000001000000000000000100000000000000000000000000000000008000001000000004000000000000000000000000000000000000002000000000000000000000000000000000000000000000000000000000000000000010000000000000000000000000000010000000000000000000000",
      "type": "0x2",
      "transactionHash": "0x12f634df222754ffdbbe26d776cadb6589caeaf234477c9fdcb02d485e9e8ee3",
      "transactionIndex": "0x1",
      "blockHash": "0xf87b11ecfb71ca6b0b69981cb84bf23f74559476c42840ba2603106723a80e32",
      "blockNumber": "0x58a4a00",
      "gasUsed": "0xe36f",
      "effectiveGasPrice": "0x5f5e100",
      "from": "0x09c3b4cd85a4d9a490c0fd6a8976d2d4e83e165b",
      "to": "0xe6e2bd32ff1e566f6f3bbecd241ac921d0c328a4",
      "contractAddress": null,
      "gasUsedForL1": "0x2cb",
      "l1BlockNumber": "0x6a722d"
    },
    {
      "status": "0x1",
      "cumulativeGasUsed": "0xe36f",
      "logs": [
        {
          "address": "0xe6e2bd32ff1e566f6f3bbecd241ac921d0c328a4",
          "topics": [
            "0xddf252ad1be2c89b69c2b068fc378daa952ba7f163c4a11628f55a4df523b3ef",
            "0x000000000000000000000000f4e9e57b57d5d58834164a01a1fbd36a68dac47e",
            "0x000000000000000000000000dac88f55d8bd5c041a02a281f4ca2f3f1cb4a0f3"
          ],
          "data": "0x0000000000000000000000000000000000000000000000001b7a5f826f460000",
          "blockHash": "0x7dad888b5ce30cf42c4e204efdde3f865b032fd9c33b7a9fa0b9db542b5c555b",
          "blockNumber": "0x58a4a05",
          "transactionHash": "0xa1032efead44cfd84f59eb8623d5bafa5e5cb1bcf0a051870fb10d4d872a49e5",
          "transactionIndex": "0x1",
          "logIndex": "0x0",
          "removed": false
        },
        {
          "address": "0xe6e2bd32ff1e566f6f3bbecd241ac921d0c328a4",
          "topics": [
            "0xddf252ad1be2c89b69c2b068fc378daa952ba7f163c4a11628f55a4df523b3ef",
            "0x000000000000000000000000f4e9e57b57d5d58834164a01a1fbd36a68dac47e",
            "0x000000000000000000000000e82d3b9473f0a06d6715581c336e18e949030da1"
          ],
          "data": "0x00000000000000000000000000000000000000000000000000470de4df820000",
          "blockHash": "0x7dad888b5ce30cf42c4e204efdde3f865b032fd9c33b7a9fa0b9db542b5c555b",
          "blockNumber": "0x58a4a05",
          "transactionHash": "0xa1032efead44cfd84f59eb8623d5bafa5e5cb1bcf0a051870fb10d4d872a49e5",
          "transactionIndex": "0x1",
          "logIndex": "0x1",
          "removed": false
        },
        {
          "address": "0xe6e2bd32ff1e566f6f3bbecd241ac921d0c328a4",
          "topics": [
            "0x7e1b4577399017960fc6a1284e846e5682b112a94c7c1e28afa6dc3031324a29",
            "0x000000000000000000000000f4e9e57b57d5d58834164a01a1fbd36a68dac47e",
            "0x000000000000000000000000dac88f55d8bd5c041a02a281f4ca2f3f1cb4a0f3"
          ],
          "data": "0x0000000000000000000000000000000000000000000000001b7a5f826f46000000000000000000000000000000000000000000000000000000470de4df8200000000000000000000000000000000000000000000000000000000000067220a94",
          "blockHash": "0x7dad888b5ce30cf42c4e204efdde3f865b032fd9c33b7a9fa0b9db542b5c555b",
          "blockNumber": "0x58a4a05",
          "transactionHash": "0xa1032efead44cfd84f59eb8623d5bafa5e5cb1bcf0a051870fb10d4d872a49e5",
          "transactionIndex": "0x1",
          "logIndex": "0x2",
          "removed": false
        }
      ],
      "logsBloom": "0x00000040000000000000000000000000080000000000000000000000000000000000000000000000001008000000000000400000000040000000000000000000000000000000000000020008000000000000000000000000000000000000000000000000040000000000000000000000000000000000000000000010000000000000000000000000000000000000001000000000000000100000000000000000000000000000000008000001000000020000000000000000000000000000000000000002000000000000000000000000000000000000000000000000000000000000000000010000000000000000000000000000010000000000000000000000",
      "type": "0x2",
      "transactionHash": "0xa1032efead44cfd84f59eb8623d5bafa5e5cb1bcf0a051870fb10d4d872a49e5",
      "transactionIndex": "0x1",
      "blockHash": "0x7dad888b5ce30cf42c4e204efdde3f865b032fd9c33b7a9fa0b9db542b5c555b",
      "blockNumber": "0x58a4a05",
      "gasUsed": "0xe36f",
      "effectiveGasPrice": "0x5f5e100",
      "from": "0xf4e9e57b57d5d58834164a01a1fbd36a68dac47e",
      "to": "0xe6e2bd32ff1e566f6f3bbecd241ac921d0c328a4",
      "contractAddress": null,
      "gasUsedForL1": "0x2cb",
      "l1BlockNumber": "0x6a722d"
    },
    {
      "status": "0x1",
      "cumulativeGasUsed": "0xd46f",
      "logs": [
        {
          "address": "0xe6e2bd32ff1e566f6f3bbecd241ac921d0c328a4",
          "topics": [
            "0xddf252ad1be2c89b69c2b068fc378daa952ba7f163c4a11628f55a4df523b3ef",
            "0x000000000000000000000000dac88f55d8bd5c041a02a281f4ca2f3f1cb4a0f3",
            "0x000000000000000000000000e82d3b9473f0a06d6715581c336e18e949030da1"
          ],
          "data": "0x000000000000000000000000000000000000000000000000526f1e874dd20000",
          "blockHash": "0x92d711adebe6492695e35518b48aeb17d41439d51a6f0b5c88d02aa22a4831de",
          "blockNumber": "0x58a4a09",
          "transactionHash": "0x509b0857d08f9bbe7a5eda584ed00c731484c7cd84c3348a0ebba74a7b9f56b8",
          "transactionIndex": "0x1",
          "logIndex": "0x0",
          "removed": false
        },
        {
          "address": "0xe6e2bd32ff1e566f6f3bbecd241ac921d0c328a4",
          "topics": [
            "0xddf252ad1be2c89b69c2b068fc378daa952ba7f163c4a11628f55a4df523b3ef",
            "0x000000000000000000000000dac88f55d8bd5c041a02a281f4ca2f3f1cb4a0f3",
            "0x000000000000000000000000e82d3b9473f0a06d6715581c336e18e949030da1"
          ],
          "data": "0x00000000000000000000000000000000000000000000000000d529ae9e860000",
          "blockHash": "0x92d711adebe6492695e35518b48aeb17d41439d51a6f0b5c88d02aa22a4831de",
          "blockNumber": "0x58a4a09",
          "transactionHash": "0x509b0857d08f9bbe7a5eda584ed00c731484c7cd84c3348a0ebba74a7b9f56b8",
          "transactionIndex": "0x1",
          "logIndex": "0x1",
          "removed": false
        },
        {
          "address": "0xe6e2bd32ff1e566f6f3bbecd241ac921d0c328a4",
          "topics": [
            "0x7e1b4577399017960fc6a1284e846e5682b112a94c7c1e28afa6dc3031324a29",
            "0x000000000000000000000000dac88f55d8bd5c041a02a281f4ca2f3f1cb4a0f3",
            "0x000000000000000000000000e82d3b9473f0a06d6715581c336e18e949030da1"
          ],
          "data": "0x000000000000000000000000000000000000000000000000526f1e874dd2000000000000000000000000000000000000000000000000000000d529ae9e8600000000000000000000000000000000000000000000000000000000000067220a96",
          "blockHash": "0x92d711adebe6492695e35518b48aeb17d41439d51a6f0b5c88d02aa22a4831de",
          "blockNumber": "0x58a4a09",
          "transactionHash": "0x509b0857d08f9bbe7a5eda584ed00c731484c7cd84c3348a0ebba74a7b9f56b8",
          "transactionIndex": "0x1",
          "logIndex": "0x2",
          "removed": false
        }
      ],
      "logsBloom": "0x00000000000000000000000000000000080000000000000000000000000000000000000000000000001008000000000000400000000040000000000000000000000000000000000000020008000000000000000000000000000000000000000000000000040000000000000000000000000000000000000000000010000000000000000000000000000000000000001000000000000000000000000000000000000000000000000008000000000000020000000000000000000000000000000000000002000000000000000000000000000000000000000000000000000000000000000000010000000000000000000000000000010000000000000000000000",
      "type": "0x2",
      "transactionHash": "0x509b0857d08f9bbe7a5eda584ed00c731484c7cd84c3348a0ebba74a7b9f56b8",
      "transactionIndex": "0x1",
      "blockHash": "0x92d711adebe6492695e35518b48aeb17d41439d51a6f0b5c88d02aa22a4831de",
      "blockNumber": "0x58a4a09",
      "gasUsed": "0xd46f",
      "effectiveGasPrice": "0x5f5e100",
      "from": "0xdac88f55d8bd5c041a02a281f4ca2f3f1cb4a0f3",
      "to": "0xe6e2bd32ff1e566f6f3bbecd241ac921d0c328a4",
      "contractAddress": null,
      "gasUsedForL1": "0x2cb",
      "l1BlockNumber": "0x6a722d"
    }
  ],
  "libraries": [],
  "pending": [],
  "returns": {},
  "timestamp": 1730284182,
  "chain": 421614,
  "commit": "df49bee"
}