{
  "transactions": [
    {
      "hash": "0x67317c7ab8d7f98a9e00297b2ab127bc8a60240a9bf9716ee8645bfe80b05c42",
      "transactionType": "CALL",
      "contractName": null,
      "contractAddress": "0xe6e2bd32ff1e566f6f3bbecd241ac921d0c328a4",
      "function": "transfer(address,uint256)",
      "arguments": [
        "0x3a27719ef5f46c917680eb59cCD744aaa0998Bd8",
        "8000000000000000000"
      ],
      "transaction": {
        "from": "0xe82d3b9473f0a06d6715581c336e18e949030da1",
        "to": "0xe6e2bd32ff1e566f6f3bbecd241ac921d0c328a4",
        "gas": "0x14a83",
        "value": "0x0",
        "input": "0xa9059cbb0000000000000000000000003a27719ef5f46c917680eb59ccd744aaa0998bd80000000000000000000000000000000000000000000000006f05b59d3b200000",
        "nonce": "0x74",
        "chainId": "0x66eee"
      },
      "additionalContracts": [],
      "isFixedGasLimit": false
    },
    {
      "hash": "0x18dadc39f4f2210e44de5ef0c2db42b0172cef2c3da384387306605386d560e2",
      "transactionType": "CALL",
      "contractName": null,
      "contractAddress": "0xe6e2bd32ff1e566f6f3bbecd241ac921d0c328a4",
      "function": "transfer(address,uint256)",
      "arguments": [
        "0x09c3B4Cd85a4D9A490c0fd6a8976D2d4e83E165b",
        "10000000000000000000"
      ],
      "transaction": {
        "from": "0x3a27719ef5f46c917680eb59ccd744aaa0998bd8",
        "to": "0xe6e2bd32ff1e566f6f3bbecd241ac921d0c328a4",
        "gas": "0x14a83",
        "value": "0x0",
        "input": "0xa9059cbb00000000000000000000000009c3b4cd85a4d9a490c0fd6a8976d2d4e83e165b0000000000000000000000000000000000000000000000008ac7230489e80000",
        "nonce": "0xc",
        "chainId": "0x66eee"
      },
      "additionalContracts": [],
      "isFixedGasLimit": false
    },
    {
      "hash": "0xc69afd2bf93b798b279c392812f85322741dc036ab7f2752818ca1fed3e45e95",
      "transactionType": "CALL",
      "contractName": null,
      "contractAddress": "0xe6e2bd32ff1e566f6f3bbecd241ac921d0c328a4",
      "function": "transfer(address,uint256)",
      "arguments": [
        "0xF4e9e57b57D5D58834164A01a1FbD36A68daC47E",
        "1000000000000000000"
      ],
      "transaction": {
        "from": "0x09c3b4cd85a4d9a490c0fd6a8976d2d4e83e165b",
        "to": "0xe6e2bd32ff1e566f6f3bbecd241ac921d0c328a4",
        "gas": "0x17cc2",
        "value": "0x0",
        "input": "0xa9059cbb000000000000000000000000f4e9e57b57d5d58834164a01a1fbd36a68dac47e0000000000000000000000000000000000000000000000000de0b6b3a7640000",
        "nonce": "0xa",
        "chainId": "0x66eee"
      },
      "additionalContracts": [],
      "isFixedGasLimit": false
    },
    {
      "hash": "0xde86cbd2e62cb6ada1e0698fa3957b3e5cd2503347aace83d8b0a3bd8dd6e5e8",
      "transactionType": "CALL",
      "contractName": null,
      "contractAddress": "0xe6e2bd32ff1e566f6f3bbecd241ac921d0c328a4",
      "function": "transfer(address,uint256)",
      "arguments": [
        "0xdaC88f55d8BD5C041a02a281F4ca2F3F1cb4A0f3",
        "4000000000000000000"
      ],
      "transaction": {
        "from": "0xf4e9e57b57d5d58834164a01a1fbd36a68dac47e",
        "to": "0xe6e2bd32ff1e566f6f3bbecd241ac921d0c328a4",
        "gas": "0x17cc2",
        "value": "0x0",
        "input": "0xa9059cbb000000000000000000000000dac88f55d8bd5c041a02a281f4ca2f3f1cb4a0f30000000000000000000000000000000000000000000000003782dace9d900000",
        "nonce": "0x8",
        "chainId": "0x66eee"
      },
      "additionalContracts": [],
      "isFixedGasLimit": false
    },
    {
      "hash": "0xc328244b511e547efa5cb5675d4ed365979f68dbe0cb24e25eea212e59c46655",
      "transactionType": "CALL",
      "contractName": null,
      "contractAddress": "0xe6e2bd32ff1e566f6f3bbecd241ac921d0c328a4",
      "function": "transfer(address,uint256)",
      "arguments": [
        "0xe82d3B9473F0A06D6715581C336E18E949030da1",
        "10000000000000000000"
      ],
      "transaction": {
        "from": "0xdac88f55d8bd5c041a02a281f4ca2f3f1cb4a0f3",
        "to": "0xe6e2bd32ff1e566f6f3bbecd241ac921d0c328a4",
        "gas": "0x1649d",
        "value": "0x0",
        "input": "0xa9059cbb000000000000000000000000e82d3b9473f0a06d6715581c336e18e949030da10000000000000000000000000000000000000000000000008ac7230489e80000",
        "nonce": "0x9",
        "chainId": "0x66eee"
      },
      "additionalContracts": [],
      "isFixedGasLimit": false
    }
  ],
  "receipts": [
    {
      "status": "0x1",
      "cumulativeGasUsed": "0xc3b5",
      "logs": [
        {
          "address": "0xe6e2bd32ff1e566f6f3bbecd241ac921d0c328a4",
          "topics": [
            "0xddf252ad1be2c89b69c2b068fc378daa952ba7f163c4a11628f55a4df523b3ef",
            "0x000000000000000000000000e82d3b9473f0a06d6715581c336e18e949030da1",
            "0x0000000000000000000000003a27719ef5f46c917680eb59ccd744aaa0998bd8"
          ],
          "data": "0x0000000000000000000000000000000000000000000000006f05b59d3b200000",
          "blockHash": "0xddec988e2e5df808e5295d008a58b31ae16484a60d310782d7f01b8431f1370a",
          "blockNumber": "0x58a462a",
          "transactionHash": "0x67317c7ab8d7f98a9e00297b2ab127bc8a60240a9bf9716ee8645bfe80b05c42",
          "transactionIndex": "0x1",
          "logIndex": "0x0",
          "removed": false
        },
        {
          "address": "0xe6e2bd32ff1e566f6f3bbecd241ac921d0c328a4",
          "topics": [
            "0x7e1b4577399017960fc6a1284e846e5682b112a94c7c1e28afa6dc3031324a29",
            "0x000000000000000000000000e82d3b9473f0a06d6715581c336e18e949030da1",
            "0x0000000000000000000000003a27719ef5f46c917680eb59ccd744aaa0998bd8"
          ],
          "data": "0x0000000000000000000000000000000000000000000000006f05b59d3b2000000000000000000000000000000000000000000000000000000000000000000000000000000000000000000000000000000000000000000000000000006722095f",
          "blockHash": "0xddec988e2e5df808e5295d008a58b31ae16484a60d310782d7f01b8431f1370a",
          "blockNumber": "0x58a462a",
          "transactionHash": "0x67317c7ab8d7f98a9e00297b2ab127bc8a60240a9bf9716ee8645bfe80b05c42",
          "transactionIndex": "0x1",
          "logIndex": "0x1",
          "removed": false
        }
      ],
      "logsBloom": "0x00000000000000000000000000000000080000000000000000000000000000000000000000000000000008000000000000400000000040000000000000000000000000000000000000000008000000000000000000000000000000000000000000000000040000000000000000000000000000000000000000000010000000000000000000000000000000000001001000000000000000000000000000000000000000000000000008000000000000000000000000000000000000000000008000000002000000000000000000000000000000000000000000000000000000000000000000010000000000000000000000000000010000000000040000000000",
      "type": "0x2",
      "transactionHash": "0x67317c7ab8d7f98a9e00297b2ab127bc8a60240a9bf9716ee8645bfe80b05c42",
      "transactionIndex": "0x1",
      "blockHash": "0xddec988e2e5df808e5295d008a58b31ae16484a60d310782d7f01b8431f1370a",
      "blockNumber": "0x58a462a",
      "gasUsed": "0xc3b5",
      "effectiveGasPrice": "0x5f5e100",
      "from": "0xe82d3b9473f0a06d6715581c336e18e949030da1",
      "to": "0xe6e2bd32ff1e566f6f3bbecd241ac921d0c328a4",
      "contractAddress": null,
      "gasUsedForL1": "0x249",
      "l1BlockNumber": "0x6a7215"
    },
    {
      "status": "0x1",
      "cumulativeGasUsed": "0xc3b5",
      "logs": [
        {
          "address": "0xe6e2bd32ff1e566f6f3bbecd241ac921d0c328a4",
          "topics": [
            "0xddf252ad1be2c89b69c2b068fc378daa952ba7f163c4a11628f55a4df523b3ef",
            "0x0000000000000000000000003a27719ef5f46c917680eb59ccd744aaa0998bd8",
            "0x00000000000000000000000009c3b4cd85a4d9a490c0fd6a8976d2d4e83e165b"
          ],
          "data": "0x0000000000000000000000000000000000000000000000008ac7230489e80000",
          "blockHash": "0x767d78a04d5360d0e6424c9f7c6daa7dad1646dc91e075e05362aadcf2720702",
          "blockNumber": "0x58a462d",
          "transactionHash": "0x18dadc39f4f2210e44de5ef0c2db42b0172cef2c3da384387306605386d560e2",
          "transactionIndex": "0x1",
          "logIndex": "0x0",
          "removed": false
        },
        {
          "address": "0xe6e2bd32ff1e566f6f3bbecd241ac921d0c328a4",
          "topics": [
            "0x7e1b4577399017960fc6a1284e846e5682b112a94c7c1e28afa6dc3031324a29",
            "0x0000000000000000000000003a27719ef5f46c917680eb59ccd744aaa0998bd8",
            "0x00000000000000000000000009c3b4cd85a4d9a490c0fd6a8976d2d4e83e165b"
          ],
          "data": "0x0000000000000000000000000000000000000000000000008ac7230489e8000000000000000000000000000000000000000000000000000000000000000000000000000000000000000000000000000000000000000000000000000067220960",
          "blockHash": "0x767d78a04d5360d0e6424c9f7c6daa7dad1646dc91e075e05362aadcf2720702",
          "blockNumber": "0x58a462d",
          "transactionHash": "0x18dadc39f4f2210e44de5ef0c2db42b0172cef2c3da384387306605386d560e2",
          "transactionIndex": "0x1",
          "logIndex": "0x1",
          "removed": false
        }
      ],
      "logsBloom": "0x00000000000000000000000000000000080000000000000000800000000000000000000000000000000008000000004000400000000040000000000000000000000000000000000000000008000000000000000000000000000000000000000000000000000000000000000000000000000000000000000000000010000000000000000000000000000000000001000000000000000000000000000000000000000000000000000000000000000000004000000000000000000000000000008000000002000000000000000000000000000000000000000000000000000000000000000000010000000000000000000000000000010000000000040000000000",
      "type": "0x2",
      "transactionHash": "0x18dadc39f4f2210e44de5ef0c2db42b0172cef2c3da384387306605386d560e2",
      "transactionIndex": "0x1",
      "blockHash": "0x767d78a04d5360d0e6424c9f7c6daa7dad1646dc91e075e05362aadcf2720702",
      "blockNumber": "0x58a462d",
      "gasUsed": "0xc3b5",
      "effectiveGasPrice": "0x5f5e100",
      "from": "0x3a27719ef5f46c917680eb59ccd744aaa0998bd8",
      "to": "0xe6e2bd32ff1e566f6f3bbecd241ac921d0c328a4",
      "contractAddress": null,
      "gasUsedForL1": "0x249",
      "l1BlockNumber": "0x6a7215"
    },
    {
      "status": "0x1",
      "cumulativeGasUsed": "0xe2ed",
      "logs": [
        {
          "address": "0xe6e2bd32ff1e566f6f3bbecd241ac921d0c328a4",
          "topics": [
            "0xddf252ad1be2c89b69c2b068fc378daa952ba7f163c4a11628f55a4df523b3ef",
            "0x00000000000000000000000009c3b4cd85a4d9a490c0fd6a8976d2d4e83e165b",
            "0x000000000000000000000000f4e9e57b57d5d58834164a01a1fbd36a68dac47e"
          ],
          "data": "0x0000000000000000000000000000000000000000000000000dbd2fc137a30000",
          "blockHash": "0x823126baeb45fe81437a00ee90828b1d5c3087f6de17e1b73719859356b09085",
          "blockNumber": "0x58a4630",
          "transactionHash": "0xc69afd2bf93b798b279c392812f85322741dc036ab7f2752818ca1fed3e45e95",
          "transactionIndex": "0x1",
          "logIndex": "0x0",
          "removed": false
        },
        {
          "address": "0xe6e2bd32ff1e566f6f3bbecd241ac921d0c328a4",
          "topics": [
            "0xddf252ad1be2c89b69c2b068fc378daa952ba7f163c4a11628f55a4df523b3ef",
            "0x00000000000000000000000009c3b4cd85a4d9a490c0fd6a8976d2d4e83e165b",
            "0x000000000000000000000000e82d3b9473f0a06d6715581c336e18e949030da1"
          ],
          "data": "0x000000000000000000000000000000000000000000000000002386f26fc10000",
          "blockHash": "0x823126baeb45fe81437a00ee90828b1d5c3087f6de17e1b73719859356b09085",
          "blockNumber": "0x58a4630",
          "transactionHash": "0xc69afd2bf93b798b279c392812f85322741dc036ab7f2752818ca1fed3e45e95",
          "transactionIndex": "0x1",
          "logIndex": "0x1",
          "removed": false
        },
        {
          "address": "0xe6e2bd32ff1e566f6f3bbecd241ac921d0c328a4",
          "topics": [
            "0x7e1b4577399017960fc6a1284e846e5682b112a94c7c1e28afa6dc3031324a29",
            "0x00000000000000000000000009c3b4cd85a4d9a490c0fd6a8976d2d4e83e165b",
            "0x000000000000000000000000f4e9e57b57d5d58834164a01a1fbd36a68dac47e"
          ],
          "data": "0x0000000000000000000000000000000000000000000000000dbd2fc137a30000000000000000000000000000000000000000000000000000002386f26fc100000000000000000000000000000000000000000000000000000000000067220961",
          "blockHash": "0x823126baeb45fe81437a00ee90828b1d5c3087f6de17e1b73719859356b09085",
          "blockNumber": "0x58a4630",
          "transactionHash": "0xc69afd2bf93b798b279c392812f85322741dc036ab7f2752818ca1fed3e45e95",
          "transactionIndex": "0x1",
          "logIndex": "0x2",
          "removed": false
        }
      ],
      "logsBloom": "0x00000040000000000000000000000000080000000000000000800000000000000000000000000000000008000000004000400000000040000000000000000000000000000000000000000008000000000000000000000000000000000000000000000000040000000000000000000000000000000000000000000010000000000000000000000000000000000000001000000000000000100000000000000000000000000000000008000001000000004000000000000000000000000000000000000002000000000000000000000000000000000000000000000000000000000000000000010000000000000000000000000000010000000000000000000000",
      "type": "0x2",
      "transactionHash": "0xc69afd2bf93b798b279c392812f85322741dc036ab7f2752818ca1fed3e45e95",
      "transactionIndex": "0x1",
      "blockHash": "0x823126baeb45fe81437a00ee90828b1d5c3087f6de17e1b73719859356b09085",
      "blockNumber": "0x58a4630",
      "gasUsed": "0xe2ed",
      "effectiveGasPrice": "0x5f5e100",
      "from": "0x09c3b4cd85a4d9a490c0fd6a8976d2d4e83e165b",
      "to": "0xe6e2bd32ff1e566f6f3bbecd241ac921d0c328a4",
      "contractAddress": null,
      "gasUsedForL1": "0x249",
      "l1BlockNumber": "0x6a7215"
    },
    {
      "status": "0x1",
      "cumulativeGasUsed": "0xe2ed",
      "logs": [
        {
          "address": "0xe6e2bd32ff1e566f6f3bbecd241ac921d0c328a4",
          "topics": [
            "0xddf252ad1be2c89b69c2b068fc378daa952ba7f163c4a11628f55a4df523b3ef",
            "0x000000000000000000000000f4e9e57b57d5d58834164a01a1fbd36a68dac47e",
            "0x000000000000000000000000dac88f55d8bd5c041a02a281f4ca2f3f1cb4a0f3"
          ],
          "data": "0x00000000000000000000000000000000000000000000000036f4bf04de8c0000",
          "blockHash": "0x74e3306d008f4c21f232d002ac97954cda7cf953362152c3c95bf3b907393ed1",
          "blockNumber": "0x58a4634",
          "transactionHash": "0xde86cbd2e62cb6ada1e0698fa3957b3e5cd2503347aace83d8b0a3bd8dd6e5e8",
          "transactionIndex": "0x1",
          "logIndex": "0x0",
          "removed": false
        },
        {
          "address": "0xe6e2bd32ff1e566f6f3bbecd241ac921d0c328a4",
          "topics": [
            "0xddf252ad1be2c89b69c2b068fc378daa952ba7f163c4a11628f55a4df523b3ef",
            "0x000000000000000000000000f4e9e57b57d5d58834164a01a1fbd36a68dac47e",
            "0x000000000000000000000000e82d3b9473f0a06d6715581c336e18e949030da1"
          ],
          "data": "0x000000000000000000000000000000000000000000000000008e1bc9bf040000",
          "blockHash": "0x74e3306d008f4c21f232d002ac97954cda7cf953362152c3c95bf3b907393ed1",
          "blockNumber": "0x58a4634",
          "transactionHash": "0xde86cbd2e62cb6ada1e0698fa3957b3e5cd2503347aace83d8b0a3bd8dd6e5e8",
          "transactionIndex": "0x1",
          "logIndex": "0x1",
          "removed": false
        },
        {
          "address": "0xe6e2bd32ff1e566f6f3bbecd241ac921d0c328a4",
          "topics": [
            "0x7e1b4577399017960fc6a1284e846e5682b112a94c7c1e28afa6dc3031324a29",
            "0x000000000000000000000000f4e9e57b57d5d58834164a01a1fbd36a68dac47e",
            "0x000000000000000000000000dac88f55d8bd5c041a02a281f4ca2f3f1cb4a0f3"
          ],
          "data": "0x00000000000000000000000000000000000000000000000036f4bf04de8c0000000000000000000000000000000000000000000000000000008e1bc9bf0400000000000000000000000000000000000000000000000000000000000067220962",
          "blockHash": "0x74e3306d008f4c21f232d002ac97954cda7cf953362152c3c95bf3b907393ed1",
          "blockNumber": "0x58a4634",
          "transactionHash": "0xde86cbd2e62cb6ada1e0698fa3957b3e5cd2503347aace83d8b0a3bd8dd6e5e8",
          "transactionIndex": "0x1",
          "logIndex": "0x2",
          "removed": false
        }
      ],
      "logsBloom": "0x00000040000000000000000000000000080000000000000000000000000000000000000000000000001008000000000000400000000040000000000000000000000000000000000000020008000000000000000000000000000000000000000000000000040000000000000000000000000000000000000000000010000000000000000000000000000000000000001000000000000000100000000000000000000000000000000008000001000000020000000000000000000000000000000000000002000000000000000000000000000000000000000000000000000000000000000000010000000000000000000000000000010000000000000000000000",
      "type": "0x2",
      "transactionHash": "0xde86cbd2e62cb6ada1e0698fa3957b3e5cd2503347aace83d8b0a3bd8dd6e5e8",
      "transactionIndex": "0x1",
      "blockHash": "0x74e3306d008f4c21f232d002ac97954cda7cf953362152c3c95bf3b907393ed1",
      "blockNumber": "0x58a4634",
      "gasUsed": "0xe2ed",
      "effectiveGasPrice": "0x5f5e100",
      "from": "0xf4e9e57b57d5d58834164a01a1fbd36a68dac47e",
      "to": "0xe6e2bd32ff1e566f6f3bbecd241ac921d0c328a4",
      "contractAddress": null,
      "gasUsedForL1": "0x249",
      "l1BlockNumber": "0x6a7215"
    },
    {
      "status": "0x1",
      "cumulativeGasUsed": "0xd3ed",
      "logs": [
        {
          "address": "0xe6e2bd32ff1e566f6f3bbecd241ac921d0c328a4",
          "topics": [
            "0xddf252ad1be2c89b69c2b068fc378daa952ba7f163c4a11628f55a4df523b3ef",
            "0x000000000000000000000000dac88f55d8bd5c041a02a281f4ca2f3f1cb4a0f3",
            "0x000000000000000000000000e82d3b9473f0a06d6715581c336e18e949030da1"
          ],
          "data": "0x0000000000000000000000000000000000000000000000008963dd8c2c5e0000",
          "blockHash": "0xe7606ec2cf078f5b808509e5370f8e27a423574788a460e194c0191dc21b4773",
          "blockNumber": "0x58a4638",
          "transactionHash": "0xc328244b511e547efa5cb5675d4ed365979f68dbe0cb24e25eea212e59c46655",
          "transactionIndex": "0x1",
          "logIndex": "0x0",
          "removed": false
        },
        {
          "address": "0xe6e2bd32ff1e566f6f3bbecd241ac921d0c328a4",
          "topics": [
            "0xddf252ad1be2c89b69c2b068fc378daa952ba7f163c4a11628f55a4df523b3ef",
            "0x000000000000000000000000dac88f55d8bd5c041a02a281f4ca2f3f1cb4a0f3",
            "0x000000000000000000000000e82d3b9473f0a06d6715581c336e18e949030da1"
          ],
          "data": "0x000000000000000000000000000000000000000000000000016345785d8a0000",
          "blockHash": "0xe7606ec2cf078f5b808509e5370f8e27a423574788a460e194c0191dc21b4773",
          "blockNumber": "0x58a4638",
          "transactionHash": "0xc328244b511e547efa5cb5675d4ed365979f68dbe0cb24e25eea212e59c46655",
          "transactionIndex": "0x1",
          "logIndex": "0x1",
          "removed": false
        },
        {
          "address": "0xe6e2bd32ff1e566f6f3bbecd241ac921d0c328a4",
          "topics": [
            "0x7e1b4577399017960fc6a1284e846e5682b112a94c7c1e28afa6dc3031324a29",
            "0x000000000000000000000000dac88f55d8bd5c041a02a281f4ca2f3f1cb4a0f3",
            "0x000000000000000000000000e82d3b9473f0a06d6715581c336e18e949030da1"
          ],
          "data": "0x0000000000000000000000000000000000000000000000008963dd8c2c5e0000000000000000000000000000000000000000000000000000016345785d8a00000000000000000000000000000000000000000000000000000000000067220963",
          "blockHash": "0xe7606ec2cf078f5b808509e5370f8e27a423574788a460e194c0191dc21b4773",
          "blockNumber": "0x58a4638",
          "transactionHash": "0xc328244b511e547efa5cb5675d4ed365979f68dbe0cb24e25eea212e59c46655",
          "transactionIndex": "0x1",
          "logIndex": "0x2",
          "removed": false
        }
      ],
      "logsBloom": "0x00000000000000000000000000000000080000000000000000000000000000000000000000000000001008000000000000400000000040000000000000000000000000000000000000020008000000000000000000000000000000000000000000000000040000000000000000000000000000000000000000000010000000000000000000000000000000000000001000000000000000000000000000000000000000000000000008000000000000020000000000000000000000000000000000000002000000000000000000000000000000000000000000000000000000000000000000010000000000000000000000000000010000000000000000000000",
      "type": "0x2",
      "transactionHash": "0xc328244b511e547efa5cb5675d4ed365979f68dbe0cb24e25eea212e59c46655",
      "transactionIndex": "0x1",
      "blockHash": "0xe7606ec2cf078f5b808509e5370f8e27a423574788a460e194c0191dc21b4773",
      "blockNumber": "0x58a4638",
      "gasUsed": "0xd3ed",
      "effectiveGasPrice": "0x5f5e100",
      "from": "0xdac88f55d8bd5c041a02a281f4ca2f3f1cb4a0f3",
      "to": "0xe6e2bd32ff1e566f6f3bbecd241ac921d0c328a4",
      "contractAddress": null,
      "gasUsedForL1": "0x249",
      "l1BlockNumber": "0x6a7215"
    }
  ],
  "libraries": [],
  "pending": [],
  "returns": {},
  "timestamp": 1730283876,
  "chain": 421614,
  "commit": "df49bee"
}