{
  "transactions": [
    {
      "hash": "0xece6bb175b6acfd6fcf7562cafa9813a8f8a8a3b71a04fc3b43a4a070c0152b4",
      "transactionType": "CALL",
      "contractName": null,
      "contractAddress": "0x8afa5dd678981a1fa7c35ee05da505a29c1e9809",
      "function": "transfer(address,uint256)",
      "arguments": [
        "0x3a27719ef5f46c917680eb59cCD744aaa0998Bd8",
        "8991000000000000000"
      ],
      "transaction": {
        "from": "0xe82d3b9473f0a06d6715581c336e18e949030da1",
        "to": "0x8afa5dd678981a1fa7c35ee05da505a29c1e9809",
        "gas": "0xd2d9",
        "value": "0x0",
        "input": "0xa9059cbb0000000000000000000000003a27719ef5f46c917680eb59ccd744aaa0998bd80000000000000000000000000000000000000000000000007cc672dd17898000",
        "nonce": "0x88",
        "chainId": "0x66eee"
      },
      "additionalContracts": [],
      "isFixedGasLimit": false
    },
    {
      "hash": "0xdac2b317c53d77894d72f585ee576b5e52c86f9b5abc2338d80974d3a283c89b",
      "transactionType": "CALL",
      "contractName": null,
      "contractAddress": "0x8afa5dd678981a1fa7c35ee05da505a29c1e9809",
      "function": "transfer(address,uint256)",
      "arguments": [
        "0x09c3B4Cd85a4D9A490c0fd6a8976D2d4e83E165b",
        "999000000000000000"
      ],
      "transaction": {
        "from": "0x3a27719ef5f46c917680eb59ccd744aaa0998bd8",
        "to": "0x8afa5dd678981a1fa7c35ee05da505a29c1e9809",
        "gas": "0xd2d9",
        "value": "0x0",
        "input": "0xa9059cbb00000000000000000000000009c3b4cd85a4d9a490c0fd6a8976d2d4e83e165b0000000000000000000000000000000000000000000000000ddd2935029d8000",
        "nonce": "0x12",
        "chainId": "0x66eee"
      },
      "additionalContracts": [],
      "isFixedGasLimit": false
    },
    {
      "hash": "0xf0c22532840b795acc43c0e7b902e08cac3aad1a248a40db13e9c67e01768a36",
      "transactionType": "CALL",
      "contractName": null,
      "contractAddress": "0x8afa5dd678981a1fa7c35ee05da505a29c1e9809",
      "function": "transfer(address,uint256)",
      "arguments": [
        "0xF4e9e57b57D5D58834164A01a1FbD36A68daC47E",
        "5994000000000000000"
      ],
      "transaction": {
        "from": "0x09c3b4cd85a4d9a490c0fd6a8976d2d4e83e165b",
        "to": "0x8afa5dd678981a1fa7c35ee05da505a29c1e9809",
        "gas": "0x11921",
        "value": "0x0",
        "input": "0xa9059cbb000000000000000000000000f4e9e57b57d5d58834164a01a1fbd36a68dac47e000000000000000000000000000000000000000000000000532ef73e0fb10000",
        "nonce": "0xe",
        "chainId": "0x66eee"
      },
      "additionalContracts": [],
      "isFixedGasLimit": false
    },
    {
      "hash": "0x7c3022ed4544094659fbcc85ae042b3a9d3d1ff11dc8faf514e0dd769a77c52e",
      "transactionType": "CALL",
      "contractName": null,
      "contractAddress": "0x8afa5dd678981a1fa7c35ee05da505a29c1e9809",
      "function": "transfer(address,uint256)",
      "arguments": [
        "0xdaC88f55d8BD5C041a02a281F4ca2F3F1cb4A0f3",
        "5994000000000000000"
      ],
      "transaction": {
        "from": "0xf4e9e57b57d5d58834164a01a1fbd36a68dac47e",
        "to": "0x8afa5dd678981a1fa7c35ee05da505a29c1e9809",
        "gas": "0x11921",
        "value": "0x0",
        "input": "0xa9059cbb000000000000000000000000dac88f55d8bd5c041a02a281f4ca2f3f1cb4a0f3000000000000000000000000000000000000000000000000532ef73e0fb10000",
        "nonce": "0xc",
        "chainId": "0x66eee"
      },
      "additionalContracts": [],
      "isFixedGasLimit": false
    },
    {
      "hash": "0xad7c25fc0d73d64070362611fa6d3382c483a17eb628b24c3dd39b7c94710c5a",
      "transactionType": "CALL",
      "contractName": null,
      "contractAddress": "0x8afa5dd678981a1fa7c35ee05da505a29c1e9809",
      "function": "transfer(address,uint256)",
      "arguments": [
        "0xe82d3B9473F0A06D6715581C336E18E949030da1",
        "5994000000000000000"
      ],
      "transaction": {
        "from": "0xdac88f55d8bd5c041a02a281f4ca2f3f1cb4a0f3",
        "to": "0x8afa5dd678981a1fa7c35ee05da505a29c1e9809",
        "gas": "0x11921",
        "value": "0x0",
        "input": "0xa9059cbb000000000000000000000000e82d3b9473f0a06d6715581c336e18e949030da1000000000000000000000000000000000000000000000000532ef73e0fb10000",
        "nonce": "0xe",
        "chainId": "0x66eee"
      },
      "additionalContracts": [],
      "isFixedGasLimit": false
    }
  ],
  "receipts": [
    {
      "status": "0x1",
      "cumulativeGasUsed": "0x9ed8",
      "logs": [
        {
          "address": "0x8afa5dd678981a1fa7c35ee05da505a29c1e9809",
          "topics": [
            "0xddf252ad1be2c89b69c2b068fc378daa952ba7f163c4a11628f55a4df523b3ef",
            "0x000000000000000000000000e82d3b9473f0a06d6715581c336e18e949030da1",
            "0x0000000000000000000000003a27719ef5f46c917680eb59ccd744aaa0998bd8"
          ],
          "data": "0x0000000000000000000000000000000000000000000000007cc672dd17898000",
          "blockHash": "0x5a157a700e20645c4e14eae5c18f278294cebf6a155cc10cd49757bba8f6e037",
          "blockNumber": "0x58e3d5a",
          "transactionHash": "0xece6bb175b6acfd6fcf7562cafa9813a8f8a8a3b71a04fc3b43a4a070c0152b4",
          "transactionIndex": "0x1",
          "logIndex": "0x0",
          "removed": false
        },
        {
          "address": "0x8afa5dd678981a1fa7c35ee05da505a29c1e9809",
          "topics": [
            "0xddf252ad1be2c89b69c2b068fc378daa952ba7f163c4a11628f55a4df523b3ef",
            "0x000000000000000000000000e82d3b9473f0a06d6715581c336e18e949030da1",
            "0x0000000000000000000000003a27719ef5f46c917680eb59ccd744aaa0998bd8"
          ],
          "data": "0x0000000000000000000000000000000000000000000000007cc672dd17898000",
          "blockHash": "0x5a157a700e20645c4e14eae5c18f278294cebf6a155cc10cd49757bba8f6e037",
          "blockNumber": "0x58e3d5a",
          "transactionHash": "0xece6bb175b6acfd6fcf7562cafa9813a8f8a8a3b71a04fc3b43a4a070c0152b4",
          "transactionIndex": "0x1",
          "logIndex": "0x1",
          "removed": false
        }
      ],
      "logsBloom": "0x00000000000000000000000000000000000000000000000000000000000000000000000000000000000000000000000000000000000000000000000000000000000000000000000000000008000000000000000000000000000000000000000000000000040000000000000000000000000000000000000000000010000400000000000000000000000000000001001000000000000000000000000000000000000000000000000008000000000000000000000000000000000000000000008000000002000000000000000000000000000000100000000000008000000000000000000000000000000000000000000000000000000000000000040000000000",
      "type": "0x2",
      "transactionHash": "0xece6bb175b6acfd6fcf7562cafa9813a8f8a8a3b71a04fc3b43a4a070c0152b4",
      "transactionIndex": "0x1",
      "blockHash": "0x5a157a700e20645c4e14eae5c18f278294cebf6a155cc10cd49757bba8f6e037",
      "blockNumber": "0x58e3d5a",
      "gasUsed": "0x9ed8",
      "effectiveGasPrice": "0x5f5e100",
      "from": "0xe82d3b9473f0a06d6715581c336e18e949030da1",
      "to": "0x8afa5dd678981a1fa7c35ee05da505a29c1e9809",
      "contractAddress": null,
      "gasUsedForL1": "0x695",
      "l1BlockNumber": "0x6a8b42"
    },
    {
      "status": "0x1",
      "cumulativeGasUsed": "0x155405",
      "logs": [
        {
          "address": "0x8afa5dd678981a1fa7c35ee05da505a29c1e9809",
          "topics": [
            "0xddf252ad1be2c89b69c2b068fc378daa952ba7f163c4a11628f55a4df523b3ef",
            "0x0000000000000000000000003a27719ef5f46c917680eb59ccd744aaa0998bd8",
            "0x00000000000000000000000009c3b4cd85a4d9a490c0fd6a8976d2d4e83e165b"
          ],
          "data": "0x0000000000000000000000000000000000000000000000000ddd2935029d8000",
          "blockHash": "0xcd6dfbeb50672b92d20992c26f7c44135b5d04e5ea1188f8064dcee427c885d6",
          "blockNumber": "0x58e3d5f",
          "transactionHash": "0xdac2b317c53d77894d72f585ee576b5e52c86f9b5abc2338d80974d3a283c89b",
          "transactionIndex": "0x2",
          "logIndex": "0x1",
          "removed": false
        },
        {
          "address": "0x8afa5dd678981a1fa7c35ee05da505a29c1e9809",
          "topics": [
            "0xddf252ad1be2c89b69c2b068fc378daa952ba7f163c4a11628f55a4df523b3ef",
            "0x0000000000000000000000003a27719ef5f46c917680eb59ccd744aaa0998bd8",
            "0x00000000000000000000000009c3b4cd85a4d9a490c0fd6a8976d2d4e83e165b"
          ],
          "data": "0x0000000000000000000000000000000000000000000000000ddd2935029d8000",
          "blockHash": "0xcd6dfbeb50672b92d20992c26f7c44135b5d04e5ea1188f8064dcee427c885d6",
          "blockNumber": "0x58e3d5f",
          "transactionHash": "0xdac2b317c53d77894d72f585ee576b5e52c86f9b5abc2338d80974d3a283c89b",
          "transactionIndex": "0x2",
          "logIndex": "0x2",
          "removed": false
        }
      ],
      "logsBloom": "0x00000000000000000000000000000000000000000000000000800000000000000000000000000000000000000000004000000000000000000000000000000000000000000000000000000008000000000000000000000000000000000000000000000000000000000000000000000000000000000000000000000010000400000000000000000000000000000001000000000000000000000000000000000000000000000000000000000000000000004000000000000000000000000000008000000002000000000000000000000000000000100000000000008000000000000000000000000000000000000000000000000000000000000000040000000000",
      "type": "0x2",
      "transactionHash": "0xdac2b317c53d77894d72f585ee576b5e52c86f9b5abc2338d80974d3a283c89b",
      "transactionIndex": "0x2",
      "blockHash": "0xcd6dfbeb50672b92d20992c26f7c44135b5d04e5ea1188f8064dcee427c885d6",
      "blockNumber": "0x58e3d5f",
      "gasUsed": "0x9ecf",
      "effectiveGasPrice": "0x5f5e100",
      "from": "0x3a27719ef5f46c917680eb59ccd744aaa0998bd8",
      "to": "0x8afa5dd678981a1fa7c35ee05da505a29c1e9809",
      "contractAddress": null,
      "gasUsedForL1": "0x68c",
      "l1BlockNumber": "0x6a8b42"
    },
    {
      "status": "0x1",
      "cumulativeGasUsed": "0x92147",
      "logs": [
        {
          "address": "0x8afa5dd678981a1fa7c35ee05da505a29c1e9809",
          "topics": [
            "0xddf252ad1be2c89b69c2b068fc378daa952ba7f163c4a11628f55a4df523b3ef",
            "0x00000000000000000000000009c3b4cd85a4d9a490c0fd6a8976d2d4e83e165b",
            "0x000000000000000000000000f4e9e57b57d5d58834164a01a1fbd36a68dac47e"
          ],
          "data": "0x0000000000000000000000000000000000000000000000005319abbb2ee86000",
          "blockHash": "0x37c8d1f9ee61b9f18f5e9e8b89b23111a6d087e43bff4886e07defe6f96d8f43",
          "blockNumber": "0x58e3d64",
          "transactionHash": "0xf0c22532840b795acc43c0e7b902e08cac3aad1a248a40db13e9c67e01768a36",
          "transactionIndex": "0x2",
          "logIndex": "0xf",
          "removed": false
        },
        {
          "address": "0x8afa5dd678981a1fa7c35ee05da505a29c1e9809",
          "topics": [
            "0xddf252ad1be2c89b69c2b068fc378daa952ba7f163c4a11628f55a4df523b3ef",
            "0x00000000000000000000000009c3b4cd85a4d9a490c0fd6a8976d2d4e83e165b",
            "0x0000000000000000000000008afa5dd678981a1fa7c35ee05da505a29c1e9809"
          ],
          "data": "0x00000000000000000000000000000000000000000000000000154b82e0c8a000",
          "blockHash": "0x37c8d1f9ee61b9f18f5e9e8b89b23111a6d087e43bff4886e07defe6f96d8f43",
          "blockNumber": "0x58e3d64",
          "transactionHash": "0xf0c22532840b795acc43c0e7b902e08cac3aad1a248a40db13e9c67e01768a36",
          "transactionIndex": "0x2",
          "logIndex": "0x10",
          "removed": false
        },
        {
          "address": "0x8afa5dd678981a1fa7c35ee05da505a29c1e9809",
          "topics": [
            "0x1d6298f49fc15449b78df91fcca6812136edc2972366cb70aa0d9145a308cd31",
            "0x00000000000000000000000009c3b4cd85a4d9a490c0fd6a8976d2d4e83e165b",
            "0x0000000000000000000000008afa5dd678981a1fa7c35ee05da505a29c1e9809"
          ],
          "data": "0x00000000000000000000000000000000000000000000000000154b82e0c8a000",
          "blockHash": "0x37c8d1f9ee61b9f18f5e9e8b89b23111a6d087e43bff4886e07defe6f96d8f43",
          "blockNumber": "0x58e3d64",
          "transactionHash": "0xf0c22532840b795acc43c0e7b902e08cac3aad1a248a40db13e9c67e01768a36",
          "transactionIndex": "0x2",
          "logIndex": "0x11",
          "removed": false
        },
        {
          "address": "0x8afa5dd678981a1fa7c35ee05da505a29c1e9809",
          "topics": [
            "0xddf252ad1be2c89b69c2b068fc378daa952ba7f163c4a11628f55a4df523b3ef",
            "0x00000000000000000000000009c3b4cd85a4d9a490c0fd6a8976d2d4e83e165b",
            "0x000000000000000000000000f4e9e57b57d5d58834164a01a1fbd36a68dac47e"
          ],
          "data": "0x0000000000000000000000000000000000000000000000005319abbb2ee86000",
          "blockHash": "0x37c8d1f9ee61b9f18f5e9e8b89b23111a6d087e43bff4886e07defe6f96d8f43",
          "blockNumber": "0x58e3d64",
          "transactionHash": "0xf0c22532840b795acc43c0e7b902e08cac3aad1a248a40db13e9c67e01768a36",
          "transactionIndex": "0x2",
          "logIndex": "0x12",
          "removed": false
        },
        {
          "address": "0x8afa5dd678981a1fa7c35ee05da505a29c1e9809",
          "topics": [
            "0xddf252ad1be2c89b69c2b068fc378daa952ba7f163c4a11628f55a4df523b3ef",
            "0x00000000000000000000000009c3b4cd85a4d9a490c0fd6a8976d2d4e83e165b",
            "0x0000000000000000000000008afa5dd678981a1fa7c35ee05da505a29c1e9809"
          ],
          "data": "0x00000000000000000000000000000000000000000000000000154b82e0c8a000",
          "blockHash": "0x37c8d1f9ee61b9f18f5e9e8b89b23111a6d087e43bff4886e07defe6f96d8f43",
          "blockNumber": "0x58e3d64",
          "transactionHash": "0xf0c22532840b795acc43c0e7b902e08cac3aad1a248a40db13e9c67e01768a36",
          "transactionIndex": "0x2",
          "logIndex": "0x13",
          "removed": false
        }
      ],
      "logsBloom": "0x00000040000000000000000000000000000000000000000000800000000000000000000000000000000000000000004000000000010000000000000008000000000000000000000000000008000000000000000000000080000000000000000000000000000000000000000000000000000000800000000000000010000400000000000000000000000000000004000000000000000000100000000000000000020000000000000000000001000000004000000000000000000000000000000000000002000000000000000000000000000000100000000000008000000000000000000000000000000000000000000000000000000000000000000000000000",
      "type": "0x2",
      "transactionHash": "0xf0c22532840b795acc43c0e7b902e08cac3aad1a248a40db13e9c67e01768a36",
      "transactionIndex": "0x2",
      "blockHash": "0x37c8d1f9ee61b9f18f5e9e8b89b23111a6d087e43bff4886e07defe6f96d8f43",
      "blockNumber": "0x58e3d64",
      "gasUsed": "0xd33d",
      "effectiveGasPrice": "0x5f5e100",
      "from": "0x09c3b4cd85a4d9a490c0fd6a8976d2d4e83e165b",
      "to": "0x8afa5dd678981a1fa7c35ee05da505a29c1e9809",
      "contractAddress": null,
      "gasUsedForL1": "0x695",
      "l1BlockNumber": "0x6a8b42"
    },
    {
      "status": "0x1",
      "cumulativeGasUsed": "0xd33d",
      "logs": [
        {
          "address": "0x8afa5dd678981a1fa7c35ee05da505a29c1e9809",
          "topics": [
            "0xddf252ad1be2c89b69c2b068fc378daa952ba7f163c4a11628f55a4df523b3ef",
            "0x000000000000000000000000f4e9e57b57d5d58834164a01a1fbd36a68dac47e",
            "0x000000000000000000000000dac88f55d8bd5c041a02a281f4ca2f3f1cb4a0f3"
          ],
          "data": "0x0000000000000000000000000000000000000000000000005319abbb2ee86000",
          "blockHash": "0x300925b9531b25becf4731b26457648d687eac194ce2ac50db82213e1d12753f",
          "blockNumber": "0x58e3d69",
          "transactionHash": "0x7c3022ed4544094659fbcc85ae042b3a9d3d1ff11dc8faf514e0dd769a77c52e",
          "transactionIndex": "0x1",
          "logIndex": "0x0",
          "removed": false
        },
        {
          "address": "0x8afa5dd678981a1fa7c35ee05da505a29c1e9809",
          "topics": [
            "0xddf252ad1be2c89b69c2b068fc378daa952ba7f163c4a11628f55a4df523b3ef",
            "0x000000000000000000000000f4e9e57b57d5d58834164a01a1fbd36a68dac47e",
            "0x0000000000000000000000008afa5dd678981a1fa7c35ee05da505a29c1e9809"
          ],
          "data": "0x00000000000000000000000000000000000000000000000000154b82e0c8a000",
          "blockHash": "0x300925b9531b25becf4731b26457648d687eac194ce2ac50db82213e1d12753f",
          "blockNumber": "0x58e3d69",
          "transactionHash": "0x7c3022ed4544094659fbcc85ae042b3a9d3d1ff11dc8faf514e0dd769a77c52e",
          "transactionIndex": "0x1",
          "logIndex": "0x1",
          "removed": false
        },
        {
          "address": "0x8afa5dd678981a1fa7c35ee05da505a29c1e9809",
          "topics": [
            "0x1d6298f49fc15449b78df91fcca6812136edc2972366cb70aa0d9145a308cd31",
            "0x000000000000000000000000f4e9e57b57d5d58834164a01a1fbd36a68dac47e",
            "0x0000000000000000000000008afa5dd678981a1fa7c35ee05da505a29c1e9809"
          ],
          "data": "0x00000000000000000000000000000000000000000000000000154b82e0c8a000",
          "blockHash": "0x300925b9531b25becf4731b26457648d687eac194ce2ac50db82213e1d12753f",
          "blockNumber": "0x58e3d69",
          "transactionHash": "0x7c3022ed4544094659fbcc85ae042b3a9d3d1ff11dc8faf514e0dd769a77c52e",
          "transactionIndex": "0x1",
          "logIndex": "0x2",
          "removed": false
        },
        {
          "address": "0x8afa5dd678981a1fa7c35ee05da505a29c1e9809",
          "topics": [
            "0xddf252ad1be2c89b69c2b068fc378daa952ba7f163c4a11628f55a4df523b3ef",
            "0x000000000000000000000000f4e9e57b57d5d58834164a01a1fbd36a68dac47e",
            "0x000000000000000000000000dac88f55d8bd5c041a02a281f4ca2f3f1cb4a0f3"
          ],
          "data": "0x0000000000000000000000000000000000000000000000005319abbb2ee86000",
          "blockHash": "0x300925b9531b25becf4731b26457648d687eac194ce2ac50db82213e1d12753f",
          "blockNumber": "0x58e3d69",
          "transactionHash": "0x7c3022ed4544094659fbcc85ae042b3a9d3d1ff11dc8faf514e0dd769a77c52e",
          "transactionIndex": "0x1",
          "logIndex": "0x3",
          "removed": false
        },
        {
          "address": "0x8afa5dd678981a1fa7c35ee05da505a29c1e9809",
          "topics": [
            "0xddf252ad1be2c89b69c2b068fc378daa952ba7f163c4a11628f55a4df523b3ef",
            "0x000000000000000000000000f4e9e57b57d5d58834164a01a1fbd36a68dac47e",
            "0x0000000000000000000000008afa5dd678981a1fa7c35ee05da505a29c1e9809"
          ],
          "data": "0x00000000000000000000000000000000000000000000000000154b82e0c8a000",
          "blockHash": "0x300925b9531b25becf4731b26457648d687eac194ce2ac50db82213e1d12753f",
          "blockNumber": "0x58e3d69",
          "transactionHash": "0x7c3022ed4544094659fbcc85ae042b3a9d3d1ff11dc8faf514e0dd769a77c52e",
          "transactionIndex": "0x1",
          "logIndex": "0x4",
          "removed": false
        }
      ],
      "logsBloom": "0x00000040000000000000000000000000000000000000000000000000000000000000000000000000001000000000000000000000010000000000000008000000000000000000000000020008000000000000000000000080000000000000000000000000000000000000000000000000000000800000000000000010000400000000000000000000000000000004000000000000000000100000000000000000020000000000000000000001000000020000000000000000000000000000000000000002000000000000000000000000000000100000000000008000000000000000000000000000000000000000000000000000000000000000000000000000",
      "type": "0x2",
      "transactionHash": "0x7c3022ed4544094659fbcc85ae042b3a9d3d1ff11dc8faf514e0dd769a77c52e",
      "transactionIndex": "0x1",
      "blockHash": "0x300925b9531b25becf4731b26457648d687eac194ce2ac50db82213e1d12753f",
      "blockNumber": "0x58e3d69",
      "gasUsed": "0xd33d",
      "effectiveGasPrice": "0x5f5e100",
      "from": "0xf4e9e57b57d5d58834164a01a1fbd36a68dac47e",
      "to": "0x8afa5dd678981a1fa7c35ee05da505a29c1e9809",
      "contractAddress": null,
      "gasUsedForL1": "0x695",
      "l1BlockNumber": "0x6a8b42"
    },
    {
      "status": "0x1",
      "cumulativeGasUsed": "0xd33d",
      "logs": [
        {
          "address": "0x8afa5dd678981a1fa7c35ee05da505a29c1e9809",
          "topics": [
            "0xddf252ad1be2c89b69c2b068fc378daa952ba7f163c4a11628f55a4df523b3ef",
            "0x000000000000000000000000dac88f55d8bd5c041a02a281f4ca2f3f1cb4a0f3",
            "0x000000000000000000000000e82d3b9473f0a06d6715581c336e18e949030da1"
          ],
          "data": "0x0000000000000000000000000000000000000000000000005319abbb2ee86000",
          "blockHash": "0x386e77a98554f21b58b9a2b29c74c49ab9cea8ff21840e8a6aec5b26d21d843f",
          "blockNumber": "0x58e3d6e",
          "transactionHash": "0xad7c25fc0d73d64070362611fa6d3382c483a17eb628b24c3dd39b7c94710c5a",
          "transactionIndex": "0x1",
          "logIndex": "0x0",
          "removed": false
        },
        {
          "address": "0x8afa5dd678981a1fa7c35ee05da505a29c1e9809",
          "topics": [
            "0xddf252ad1be2c89b69c2b068fc378daa952ba7f163c4a11628f55a4df523b3ef",
            "0x000000000000000000000000dac88f55d8bd5c041a02a281f4ca2f3f1cb4a0f3",
            "0x0000000000000000000000008afa5dd678981a1fa7c35ee05da505a29c1e9809"
          ],
          "data": "0x00000000000000000000000000000000000000000000000000154b82e0c8a000",
          "blockHash": "0x386e77a98554f21b58b9a2b29c74c49ab9cea8ff21840e8a6aec5b26d21d843f",
          "blockNumber": "0x58e3d6e",
          "transactionHash": "0xad7c25fc0d73d64070362611fa6d3382c483a17eb628b24c3dd39b7c94710c5a",
          "transactionIndex": "0x1",
          "logIndex": "0x1",
          "removed": false
        },
        {
          "address": "0x8afa5dd678981a1fa7c35ee05da505a29c1e9809",
          "topics": [
            "0x1d6298f49fc15449b78df91fcca6812136edc2972366cb70aa0d9145a308cd31",
            "0x000000000000000000000000dac88f55d8bd5c041a02a281f4ca2f3f1cb4a0f3",
            "0x0000000000000000000000008afa5dd678981a1fa7c35ee05da505a29c1e9809"
          ],
          "data": "0x00000000000000000000000000000000000000000000000000154b82e0c8a000",
          "blockHash": "0x386e77a98554f21b58b9a2b29c74c49ab9cea8ff21840e8a6aec5b26d21d843f",
          "blockNumber": "0x58e3d6e",
          "transactionHash": "0xad7c25fc0d73d64070362611fa6d3382c483a17eb628b24c3dd39b7c94710c5a",
          "transactionIndex": "0x1",
          "logIndex": "0x2",
          "removed": false
        },
        {
          "address": "0x8afa5dd678981a1fa7c35ee05da505a29c1e9809",
          "topics": [
            "0xddf252ad1be2c89b69c2b068fc378daa952ba7f163c4a11628f55a4df523b3ef",
            "0x000000000000000000000000dac88f55d8bd5c041a02a281f4ca2f3f1cb4a0f3",
            "0x000000000000000000000000e82d3b9473f0a06d6715581c336e18e949030da1"
          ],
          "data": "0x0000000000000000000000000000000000000000000000005319abbb2ee86000",
          "blockHash": "0x386e77a98554f21b58b9a2b29c74c49ab9cea8ff21840e8a6aec5b26d21d843f",
          "blockNumber": "0x58e3d6e",
          "transactionHash": "0xad7c25fc0d73d64070362611fa6d3382c483a17eb628b24c3dd39b7c94710c5a",
          "transactionIndex": "0x1",
          "logIndex": "0x3",
          "removed": false
        },
        {
          "address": "0x8afa5dd678981a1fa7c35ee05da505a29c1e9809",
          "topics": [
            "0xddf252ad1be2c89b69c2b068fc378daa952ba7f163c4a11628f55a4df523b3ef",
            "0x000000000000000000000000dac88f55d8bd5c041a02a281f4ca2f3f1cb4a0f3",
            "0x0000000000000000000000008afa5dd678981a1fa7c35ee05da505a29c1e9809"
          ],
          "data": "0x00000000000000000000000000000000000000000000000000154b82e0c8a000",
          "blockHash": "0x386e77a98554f21b58b9a2b29c74c49ab9cea8ff21840e8a6aec5b26d21d843f",
          "blockNumber": "0x58e3d6e",
          "transactionHash": "0xad7c25fc0d73d64070362611fa6d3382c483a17eb628b24c3dd39b7c94710c5a",
          "transactionIndex": "0x1",
          "logIndex": "0x4",
          "removed": false
        }
      ],
      "logsBloom": "0x00000000000000000000000000000000000000000000000000000000000000000000000000000000001000000000000000000000010000000000000008000000000000000000000000020008000000000000000000000080000000000000000000000000040000000000000000000000000000800000000000000010000400000000000000000000000000000004001000000000000000000000000000000000020000000000000008000000000000020000000000000000000000000000000000000002000000000000000000000000000000100000000000008000000000000000000000000000000000000000000000000000000000000000000000000000",
      "type": "0x2",
      "transactionHash": "0xad7c25fc0d73d64070362611fa6d3382c483a17eb628b24c3dd39b7c94710c5a",
      "transactionIndex": "0x1",
      "blockHash": "0x386e77a98554f21b58b9a2b29c74c49ab9cea8ff21840e8a6aec5b26d21d843f",
      "blockNumber": "0x58e3d6e",
      "gasUsed": "0xd33d",
      "effectiveGasPrice": "0x5f5e100",
      "from": "0xdac88f55d8bd5c041a02a281f4ca2f3f1cb4a0f3",
      "to": "0x8afa5dd678981a1fa7c35ee05da505a29c1e9809",
      "contractAddress": null,
      "gasUsedForL1": "0x695",
      "l1BlockNumber": "0x6a8b42"
    }
  ],
  "libraries": [],
  "pending": [],
  "returns": {},
  "timestamp": 1730366400,
  "chain": 421614,
  "commit": "9848e00"
}