{
  "transactions": [
    {
      "hash": "0x8acadb2cc55d5a56c1b5e1e8082a0d08a0b401b2cbd15d6289dbf2bc63ba67f3",
      "transactionType": "CALL",
      "contractName": null,
      "contractAddress": "0xa08f0aafb517ed5a01831a6ded8fb89f28519c2a",
      "function": "transfer(address,uint256)",
      "arguments": [
        "0x3a27719ef5f46c917680eb59cCD744aaa0998Bd8",
        "7992000000000000000"
      ],
      "transaction": {
        "from": "0xe82d3b9473f0a06d6715581c336e18e949030da1",
        "to": "0xa08f0aafb517ed5a01831a6ded8fb89f28519c2a",
        "gas": "0x100e4",
        "value": "0x0",
        "input": "0xa9059cbb0000000000000000000000003a27719ef5f46c917680eb59ccd744aaa0998bd80000000000000000000000000000000000000000000000006ee949a814ec0000",
        "nonce": "0x91",
        "chainId": "0x66eee"
      },
      "additionalContracts": [],
      "isFixedGasLimit": false
    },
    {
      "hash": "0x81ae1c0c462cb6c0cbc4fa850389b938eadfdce64952bac75e870c6e412575ca",
      "transactionType": "CALL",
      "contractName": null,
      "contractAddress": "0xa08f0aafb517ed5a01831a6ded8fb89f28519c2a",
      "function": "transfer(address,uint256)",
      "arguments": [
        "0x09c3B4Cd85a4D9A490c0fd6a8976D2d4e83E165b",
        "5994000000000000000"
      ],
      "transaction": {
        "from": "0x3a27719ef5f46c917680eb59ccd744aaa0998bd8",
        "to": "0xa08f0aafb517ed5a01831a6ded8fb89f28519c2a",
        "gas": "0x100e4",
        "value": "0x0",
        "input": "0xa9059cbb00000000000000000000000009c3b4cd85a4d9a490c0fd6a8976d2d4e83e165b000000000000000000000000000000000000000000000000532ef73e0fb10000",
        "nonce": "0x13",
        "chainId": "0x66eee"
      },
      "additionalContracts": [],
      "isFixedGasLimit": false
    },
    {
      "hash": "0x9f1607734324c3918defe1afe91ee1e021570f04d99ebfced2e73295f69d5c4d",
      "transactionType": "CALL",
      "contractName": null,
      "contractAddress": "0xa08f0aafb517ed5a01831a6ded8fb89f28519c2a",
      "function": "transfer(address,uint256)",
      "arguments": [
        "0xF4e9e57b57D5D58834164A01a1FbD36A68daC47E",
        "999000000000000000"
      ],
      "transaction": {
        "from": "0x09c3b4cd85a4d9a490c0fd6a8976d2d4e83e165b",
        "to": "0xa08f0aafb517ed5a01831a6ded8fb89f28519c2a",
        "gas": "0x13110",
        "value": "0x0",
        "input": "0xa9059cbb000000000000000000000000f4e9e57b57d5d58834164a01a1fbd36a68dac47e0000000000000000000000000000000000000000000000000ddd2935029d8000",
        "nonce": "0xf",
        "chainId": "0x66eee"
      },
      "additionalContracts": [],
      "isFixedGasLimit": false
    },
    {
      "hash": "0x9acde7988593f6d8781e4ccd78c0f5c507f51e10c2f07dfcb853510e58ce43a3",
      "transactionType": "CALL",
      "contractName": null,
      "contractAddress": "0xa08f0aafb517ed5a01831a6ded8fb89f28519c2a",
      "function": "transfer(address,uint256)",
      "arguments": [
        "0xdaC88f55d8BD5C041a02a281F4ca2F3F1cb4A0f3",
        "2997000000000000000"
      ],
      "transaction": {
        "from": "0xf4e9e57b57d5d58834164a01a1fbd36a68dac47e",
        "to": "0xa08f0aafb517ed5a01831a6ded8fb89f28519c2a",
        "gas": "0x13110",
        "value": "0x0",
        "input": "0xa9059cbb000000000000000000000000dac88f55d8bd5c041a02a281f4ca2f3f1cb4a0f300000000000000000000000000000000000000000000000029977b9f07d88000",
        "nonce": "0xd",
        "chainId": "0x66eee"
      },
      "additionalContracts": [],
      "isFixedGasLimit": false
    },
    {
      "hash": "0xd5027c3fa1a98966047f89b787f33c5e9af5f961fe38318654dae29bd377aa1c",
      "transactionType": "CALL",
      "contractName": null,
      "contractAddress": "0xa08f0aafb517ed5a01831a6ded8fb89f28519c2a",
      "function": "transfer(address,uint256)",
      "arguments": [
        "0xe82d3B9473F0A06D6715581C336E18E949030da1",
        "9990000000000000000"
      ],
      "transaction": {
        "from": "0xdac88f55d8bd5c041a02a281f4ca2f3f1cb4a0f3",
        "to": "0xa08f0aafb517ed5a01831a6ded8fb89f28519c2a",
        "gas": "0x13100",
        "value": "0x0",
        "input": "0xa9059cbb000000000000000000000000e82d3b9473f0a06d6715581c336e18e949030da10000000000000000000000000000000000000000000000008aa39c121a270000",
        "nonce": "0xf",
        "chainId": "0x66eee"
      },
      "additionalContracts": [],
      "isFixedGasLimit": false
    }
  ],
  "receipts": [
    {
      "status": "0x1",
      "cumulativeGasUsed": "0xadb0",
      "logs": [
        {
          "address": "0xa08f0aafb517ed5a01831a6ded8fb89f28519c2a",
          "topics": [
            "0xddf252ad1be2c89b69c2b068fc378daa952ba7f163c4a11628f55a4df523b3ef",
            "0x000000000000000000000000e82d3b9473f0a06d6715581c336e18e949030da1",
            "0x0000000000000000000000003a27719ef5f46c917680eb59ccd744aaa0998bd8"
          ],
          "data": "0x0000000000000000000000000000000000000000000000006ee949a814ec0000",
          "blockHash": "0x2780e0cd676031ae0493253c7f6af07a77c88fb617f6eee487cd79aeab3c938a",
          "blockNumber": "0x58e8a98",
          "transactionHash": "0x8acadb2cc55d5a56c1b5e1e8082a0d08a0b401b2cbd15d6289dbf2bc63ba67f3",
          "transactionIndex": "0x1",
          "logIndex": "0x0",
          "removed": false
        },
        {
          "address": "0xa08f0aafb517ed5a01831a6ded8fb89f28519c2a",
          "topics": [
            "0x98bc3fe7d138931a49691b623c256b8812f2a3d7f9b25ba7098c82538977a5d0",
            "0x000000000000000000000000e82d3b9473f0a06d6715581c336e18e949030da1",
            "0x0000000000000000000000003a27719ef5f46c917680eb59ccd744aaa0998bd8"
          ],
          "data": "0x0000000000000000000000000000000000000000000000006ee949a814ec00000000000000000000000000000000000000000000000000000000000000000000",
          "blockHash": "0x2780e0cd676031ae0493253c7f6af07a77c88fb617f6eee487cd79aeab3c938a",
          "blockNumber": "0x58e8a98",
          "transactionHash": "0x8acadb2cc55d5a56c1b5e1e8082a0d08a0b401b2cbd15d6289dbf2bc63ba67f3",
          "transactionIndex": "0x1",
          "logIndex": "0x1",
          "removed": false
        }
      ],
      "logsBloom": "0x00000000000000000000000000000000000000000000000000000000000000000000000000000000000000000000000000400000000000000000000000000000000000000000000000000008000000000000002000000000000000000020000000800000040000000000000000000000000000000000000000000010000000000000000000000000000000000001001000000000000010000000000000000000000000000000000008000000000000000000000000000000000000000000008000000002000000000000000000000000000000000000000020000000000000000000000000000000000000000000000000000000000000000000040000000000",
      "type": "0x2",
      "transactionHash": "0x8acadb2cc55d5a56c1b5e1e8082a0d08a0b401b2cbd15d6289dbf2bc63ba67f3",
      "transactionIndex": "0x1",
      "blockHash": "0x2780e0cd676031ae0493253c7f6af07a77c88fb617f6eee487cd79aeab3c938a",
      "blockNumber": "0x58e8a98",
      "gasUsed": "0xadb0",
      "effectiveGasPrice": "0x5f5e100",
      "from": "0xe82d3b9473f0a06d6715581c336e18e949030da1",
      "to": "0xa08f0aafb517ed5a01831a6ded8fb89f28519c2a",
      "contractAddress": null,
      "gasUsedForL1": "0xb2f",
      "l1BlockNumber": "0x6a8cf2"
    },
    {
      "status": "0x1",
      "cumulativeGasUsed": "0xada0",
      "logs": [
        {
          "address": "0xa08f0aafb517ed5a01831a6ded8fb89f28519c2a",
          "topics": [
            "0xddf252ad1be2c89b69c2b068fc378daa952ba7f163c4a11628f55a4df523b3ef",
            "0x0000000000000000000000003a27719ef5f46c917680eb59ccd744aaa0998bd8",
            "0x00000000000000000000000009c3b4cd85a4d9a490c0fd6a8976d2d4e83e165b"
          ],
          "data": "0x000000000000000000000000000000000000000000000000532ef73e0fb10000",
          "blockHash": "0xa0d6cc982e2a412ee640353def05ae76158412f921689f6bf029844a7a841745",
          "blockNumber": "0x58e8a9c",
          "transactionHash": "0x81ae1c0c462cb6c0cbc4fa850389b938eadfdce64952bac75e870c6e412575ca",
          "transactionIndex": "0x1",
          "logIndex": "0x0",
          "removed": false
        },
        {
          "address": "0xa08f0aafb517ed5a01831a6ded8fb89f28519c2a",
          "topics": [
            "0x98bc3fe7d138931a49691b623c256b8812f2a3d7f9b25ba7098c82538977a5d0",
            "0x0000000000000000000000003a27719ef5f46c917680eb59ccd744aaa0998bd8",
            "0x00000000000000000000000009c3b4cd85a4d9a490c0fd6a8976d2d4e83e165b"
          ],
          "data": "0x000000000000000000000000000000000000000000000000532ef73e0fb100000000000000000000000000000000000000000000000000000000000000000000",
          "blockHash": "0xa0d6cc982e2a412ee640353def05ae76158412f921689f6bf029844a7a841745",
          "blockNumber": "0x58e8a9c",
          "transactionHash": "0x81ae1c0c462cb6c0cbc4fa850389b938eadfdce64952bac75e870c6e412575ca",
          "transactionIndex": "0x1",
          "logIndex": "0x1",
          "removed": false
        }
      ],
      "logsBloom": "0x00000000000000000000000000000000000000000000000000800000000000000000000000000000000000000000004000400000000000000000000000000000000000000000000000000008000000000000002000000000000000000020000000800000000000000000000000000000000000000000000000000010000000000000000000000000000000000001000000000000000010000000000000000000000000000000000000000000000000004000000000000000000000000000008000000002000000000000000000000000000000000000000020000000000000000000000000000000000000000000000000000000000000000000040000000000",
      "type": "0x2",
      "transactionHash": "0x81ae1c0c462cb6c0cbc4fa850389b938eadfdce64952bac75e870c6e412575ca",
      "transactionIndex": "0x1",
      "blockHash": "0xa0d6cc982e2a412ee640353def05ae76158412f921689f6bf029844a7a841745",
      "blockNumber": "0x58e8a9c",
      "gasUsed": "0xada0",
      "effectiveGasPrice": "0x5f5e100",
      "from": "0x3a27719ef5f46c917680eb59ccd744aaa0998bd8",
      "to": "0xa08f0aafb517ed5a01831a6ded8fb89f28519c2a",
      "contractAddress": null,
      "gasUsedForL1": "0xb1f",
      "l1BlockNumber": "0x6a8cf2"
    },
    {
      "status": "0x1",
      "cumulativeGasUsed": "0xd3d0",
      "logs": [
        {
          "address": "0xa08f0aafb517ed5a01831a6ded8fb89f28519c2a",
          "topics": [
            "0xddf252ad1be2c89b69c2b068fc378daa952ba7f163c4a11628f55a4df523b3ef",
            "0x00000000000000000000000009c3b4cd85a4d9a490c0fd6a8976d2d4e83e165b",
            "0x000000000000000000000000f4e9e57b57d5d58834164a01a1fbd36a68dac47e"
          ],
          "data": "0x0000000000000000000000000000000000000000000000000dd99c9f327c1000",
          "blockHash": "0xcaf79ebf24d8011ae93c59ea3a02ae3142ab90610ca82f2984ee87c21eb237b2",
          "blockNumber": "0x58e8aa1",
          "transactionHash": "0x9f1607734324c3918defe1afe91ee1e021570f04d99ebfced2e73295f69d5c4d",
          "transactionIndex": "0x1",
          "logIndex": "0x0",
          "removed": false
        },
        {
          "address": "0xa08f0aafb517ed5a01831a6ded8fb89f28519c2a",
          "topics": [
            "0xddf252ad1be2c89b69c2b068fc378daa952ba7f163c4a11628f55a4df523b3ef",
            "0x00000000000000000000000009c3b4cd85a4d9a490c0fd6a8976d2d4e83e165b",
            "0x000000000000000000000000a08f0aafb517ed5a01831a6ded8fb89f28519c2a"
          ],
          "data": "0x00000000000000000000000000000000000000000000000000038c95d0217000",
          "blockHash": "0xcaf79ebf24d8011ae93c59ea3a02ae3142ab90610ca82f2984ee87c21eb237b2",
          "blockNumber": "0x58e8aa1",
          "transactionHash": "0x9f1607734324c3918defe1afe91ee1e021570f04d99ebfced2e73295f69d5c4d",
          "transactionIndex": "0x1",
          "logIndex": "0x1",
          "removed": false
        },
        {
          "address": "0xa08f0aafb517ed5a01831a6ded8fb89f28519c2a",
          "topics": [
            "0x98bc3fe7d138931a49691b623c256b8812f2a3d7f9b25ba7098c82538977a5d0",
            "0x00000000000000000000000009c3b4cd85a4d9a490c0fd6a8976d2d4e83e165b",
            "0x000000000000000000000000f4e9e57b57d5d58834164a01a1fbd36a68dac47e"
          ],
          "data": "0x0000000000000000000000000000000000000000000000000dd99c9f327c100000000000000000000000000000000000000000000000000000038c95d0217000",
          "blockHash": "0xcaf79ebf24d8011ae93c59ea3a02ae3142ab90610ca82f2984ee87c21eb237b2",
          "blockNumber": "0x58e8aa1",
          "transactionHash": "0x9f1607734324c3918defe1afe91ee1e021570f04d99ebfced2e73295f69d5c4d",
          "transactionIndex": "0x1",
          "logIndex": "0x2",
          "removed": false
        }
      ],
      "logsBloom": "0x00000040000000000000002000000000000000000000000000800000000000000000000000000000000000000000004000400000000000000000000000000000000000000000000000000008000000000000002000000000000000000020000000800000000000000000000000000000000000000000000000000010000000000000000000000000000000000000000000000000000010100000000000000000000000000000000000000001000000004000000000000000000000000000000000000002000080000000000000000000000000000000000020000000000000000000000000000000000000000000000000000000000000000000000000000000",
      "type": "0x2",
      "transactionHash": "0x9f1607734324c3918defe1afe91ee1e021570f04d99ebfced2e73295f69d5c4d",
      "transactionIndex": "0x1",
      "blockHash": "0xcaf79ebf24d8011ae93c59ea3a02ae3142ab90610ca82f2984ee87c21eb237b2",
      "blockNumber": "0x58e8aa1",
      "gasUsed": "0xd3d0",
      "effectiveGasPrice": "0x5f5e100",
      "from": "0x09c3b4cd85a4d9a490c0fd6a8976d2d4e83e165b",
      "to": "0xa08f0aafb517ed5a01831a6ded8fb89f28519c2a",
      "contractAddress": null,
      "gasUsedForL1": "0xb1f",
      "l1BlockNumber": "0x6a8cf2"
    },
    {
      "status": "0x1",
      "cumulativeGasUsed": "0xd3d0",
      "logs": [
        {
          "address": "0xa08f0aafb517ed5a01831a6ded8fb89f28519c2a",
          "topics": [
            "0xddf252ad1be2c89b69c2b068fc378daa952ba7f163c4a11628f55a4df523b3ef",
            "0x000000000000000000000000f4e9e57b57d5d58834164a01a1fbd36a68dac47e",
            "0x000000000000000000000000dac88f55d8bd5c041a02a281f4ca2f3f1cb4a0f3"
          ],
          "data": "0x000000000000000000000000000000000000000000000000298cd5dd97743000",
          "blockHash": "0x47ee44195db4eee75bc5c4e166b8bbcbdc239640821c8d0c3ef0499635204e8b",
          "blockNumber": "0x58e8aa4",
          "transactionHash": "0x9acde7988593f6d8781e4ccd78c0f5c507f51e10c2f07dfcb853510e58ce43a3",
          "transactionIndex": "0x1",
          "logIndex": "0x0",
          "removed": false
        },
        {
          "address": "0xa08f0aafb517ed5a01831a6ded8fb89f28519c2a",
          "topics": [
            "0xddf252ad1be2c89b69c2b068fc378daa952ba7f163c4a11628f55a4df523b3ef",
            "0x000000000000000000000000f4e9e57b57d5d58834164a01a1fbd36a68dac47e",
            "0x000000000000000000000000a08f0aafb517ed5a01831a6ded8fb89f28519c2a"
          ],
          "data": "0x000000000000000000000000000000000000000000000000000aa5c170645000",
          "blockHash": "0x47ee44195db4eee75bc5c4e166b8bbcbdc239640821c8d0c3ef0499635204e8b",
          "blockNumber": "0x58e8aa4",
          "transactionHash": "0x9acde7988593f6d8781e4ccd78c0f5c507f51e10c2f07dfcb853510e58ce43a3",
          "transactionIndex": "0x1",
          "logIndex": "0x1",
          "removed": false
        },
        {
          "address": "0xa08f0aafb517ed5a01831a6ded8fb89f28519c2a",
          "topics": [
            "0x98bc3fe7d138931a49691b623c256b8812f2a3d7f9b25ba7098c82538977a5d0",
            "0x000000000000000000000000f4e9e57b57d5d58834164a01a1fbd36a68dac47e",
            "0x000000000000000000000000dac88f55d8bd5c041a02a281f4ca2f3f1cb4a0f3"
          ],
          "data": "0x000000000000000000000000000000000000000000000000298cd5dd97743000000000000000000000000000000000000000000000000000000aa5c170645000",
          "blockHash": "0x47ee44195db4eee75bc5c4e166b8bbcbdc239640821c8d0c3ef0499635204e8b",
          "blockNumber": "0x58e8aa4",
          "transactionHash": "0x9acde7988593f6d8781e4ccd78c0f5c507f51e10c2f07dfcb853510e58ce43a3",
          "transactionIndex": "0x1",
          "logIndex": "0x2",
          "removed": false
        }
      ],
      "logsBloom": "0x00000040000000000000002000000000000000000000000000000000000000000000000000000000001000000000000000400000000000000000000000000000000000000000000000020008000000000000002000000000000000000020000000800000000000000000000000000000000000000000000000000010000000000000000000000000000000000000000000000000000010100000000000000000000000000000000000000001000000020000000000000000000000000000000000000002000080000000000000000000000000000000000020000000000000000000000000000000000000000000000000000000000000000000000000000000",
      "type": "0x2",
      "transactionHash": "0x9acde7988593f6d8781e4ccd78c0f5c507f51e10c2f07dfcb853510e58ce43a3",
      "transactionIndex": "0x1",
      "blockHash": "0x47ee44195db4eee75bc5c4e166b8bbcbdc239640821c8d0c3ef0499635204e8b",
      "blockNumber": "0x58e8aa4",
      "gasUsed": "0xd3d0",
      "effectiveGasPrice": "0x5f5e100",
      "from": "0xf4e9e57b57d5d58834164a01a1fbd36a68dac47e",
      "to": "0xa08f0aafb517ed5a01831a6ded8fb89f28519c2a",
      "contractAddress": null,
      "gasUsedForL1": "0xb1f",
      "l1BlockNumber": "0x6a8cf2"
    },
    {
      "status": "0x1",
      "cumulativeGasUsed": "0xd3c4",
      "logs": [
        {
          "address": "0xa08f0aafb517ed5a01831a6ded8fb89f28519c2a",
          "topics": [
            "0xddf252ad1be2c89b69c2b068fc378daa952ba7f163c4a11628f55a4df523b3ef",
            "0x000000000000000000000000dac88f55d8bd5c041a02a281f4ca2f3f1cb4a0f3",
            "0x000000000000000000000000e82d3b9473f0a06d6715581c336e18e949030da1"
          ],
          "data": "0x0000000000000000000000000000000000000000000000008a801e37f8d8a000",
          "blockHash": "0xc5df159d29a934a7c615a8ab08d6915c3b884f4c588e5c31a92b51f989e7fba9",
          "blockNumber": "0x58e8aa6",
          "transactionHash": "0xd5027c3fa1a98966047f89b787f33c5e9af5f961fe38318654dae29bd377aa1c",
          "transactionIndex": "0x1",
          "logIndex": "0x0",
          "removed": false
        },
        {
          "address": "0xa08f0aafb517ed5a01831a6ded8fb89f28519c2a",
          "topics": [
            "0xddf252ad1be2c89b69c2b068fc378daa952ba7f163c4a11628f55a4df523b3ef",
            "0x000000000000000000000000dac88f55d8bd5c041a02a281f4ca2f3f1cb4a0f3",
            "0x000000000000000000000000a08f0aafb517ed5a01831a6ded8fb89f28519c2a"
          ],
          "data": "0x00000000000000000000000000000000000000000000000000237dda214e6000",
          "blockHash": "0xc5df159d29a934a7c615a8ab08d6915c3b884f4c588e5c31a92b51f989e7fba9",
          "blockNumber": "0x58e8aa6",
          "transactionHash": "0xd5027c3fa1a98966047f89b787f33c5e9af5f961fe38318654dae29bd377aa1c",
          "transactionIndex": "0x1",
          "logIndex": "0x1",
          "removed": false
        },
        {
          "address": "0xa08f0aafb517ed5a01831a6ded8fb89f28519c2a",
          "topics": [
            "0x98bc3fe7d138931a49691b623c256b8812f2a3d7f9b25ba7098c82538977a5d0",
            "0x000000000000000000000000dac88f55d8bd5c041a02a281f4ca2f3f1cb4a0f3",
            "0x000000000000000000000000e82d3b9473f0a06d6715581c336e18e949030da1"
          ],
          "data": "0x0000000000000000000000000000000000000000000000008a801e37f8d8a00000000000000000000000000000000000000000000000000000237dda214e6000",
          "blockHash": "0xc5df159d29a934a7c615a8ab08d6915c3b884f4c588e5c31a92b51f989e7fba9",
          "blockNumber": "0x58e8aa6",
          "transactionHash": "0xd5027c3fa1a98966047f89b787f33c5e9af5f961fe38318654dae29bd377aa1c",
          "transactionIndex": "0x1",
          "logIndex": "0x2",
          "removed": false
        }
      ],
      "logsBloom": "0x00000000000000000000002000000000000000000000000000000000000000000000000000000000001000000000000000400000000000000000000000000000000000000000000000020008000000000000002000000000000000000020000000800000040000000000000000000000000000000000000000000010000000000000000000000000000000000000001000000000000010000000000000000000000000000000000008000000000000020000000000000000000000000000000000000002000080000000000000000000000000000000000020000000000000000000000000000000000000000000000000000000000000000000000000000000",
      "type": "0x2",
      "transactionHash": "0xd5027c3fa1a98966047f89b787f33c5e9af5f961fe38318654dae29bd377aa1c",
      "transactionIndex": "0x1",
      "blockHash": "0xc5df159d29a934a7c615a8ab08d6915c3b884f4c588e5c31a92b51f989e7fba9",
      "blockNumber": "0x58e8aa6",
      "gasUsed": "0xd3c4",
      "effectiveGasPrice": "0x5f5e100",
      "from": "0xdac88f55d8bd5c041a02a281f4ca2f3f1cb4a0f3",
      "to": "0xa08f0aafb517ed5a01831a6ded8fb89f28519c2a",
      "contractAddress": null,
      "gasUsedForL1": "0xb1f",
      "l1BlockNumber": "0x6a8cf2"
    }
  ],
  "libraries": [],
  "pending": [],
  "returns": {},
  "timestamp": 1730371922,
  "chain": 421614,
  "commit": "9848e00"
}