{
  "transactions": [
    {
      "hash": "0x0f6aa44717db8c211fd6603b9fb4fd74d0a0c0e8eb71891df947372542b1fd72",
      "transactionType": "CALL",
      "contractName": null,
      "contractAddress": "0x93a5007b03bf034f6833a35e05b6d0c1bc553ec1",
      "function": "transfer(address,uint256)",
      "arguments": [
        "0x3a27719ef5f46c917680eb59cCD744aaa0998Bd8",
        "10000000000000000000"
      ],
      "transaction": {
        "from": "0xe82d3b9473f0a06d6715581c336e18e949030da1",
        "to": "0x93a5007b03bf034f6833a35e05b6d0c1bc553ec1",
        "gas": "0x14ced",
        "value": "0x0",
        "input": "0xa9059cbb0000000000000000000000003a27719ef5f46c917680eb59ccd744aaa0998bd80000000000000000000000000000000000000000000000008ac7230489e80000",
        "nonce": "0x59",
        "chainId": "0x66eee"
      },
      "additionalContracts": [],
      "isFixedGasLimit": false
    },
    {
      "hash": "0xdb5872c677b2dc18847a57287724ab32a2d004f5d47b413c022ddb0ab22ce47c",
      "transactionType": "CALL",
      "contractName": null,
      "contractAddress": "0x93a5007b03bf034f6833a35e05b6d0c1bc553ec1",
      "function": "transfer(address,uint256)",
      "arguments": [
        "0x09c3B4Cd85a4D9A490c0fd6a8976D2d4e83E165b",
        "6000000000000000000"
      ],
      "transaction": {
        "from": "0xe82d3b9473f0a06d6715581c336e18e949030da1",
        "to": "0x93a5007b03bf034f6833a35e05b6d0c1bc553ec1",
        "gas": "0x14ced",
        "value": "0x0",
        "input": "0xa9059cbb00000000000000000000000009c3b4cd85a4d9a490c0fd6a8976d2d4e83e165b00000000000000000000000000000000000000000000000053444835ec580000",
        "nonce": "0x5a",
        "chainId": "0x66eee"
      },
      "additionalContracts": [],
      "isFixedGasLimit": false
    },
    {
      "hash": "0xb556b0101b4a988dc33cb3cb97b1a00c04132ab6f92b17e4aebd32efdb62ea89",
      "transactionType": "CALL",
      "contractName": null,
      "contractAddress": "0x93a5007b03bf034f6833a35e05b6d0c1bc553ec1",
      "function": "transfer(address,uint256)",
      "arguments": [
        "0xF4e9e57b57D5D58834164A01a1FbD36A68daC47E",
        "1000000000000000000"
      ],
      "transaction": {
        "from": "0xe82d3b9473f0a06d6715581c336e18e949030da1",
        "to": "0x93a5007b03bf034f6833a35e05b6d0c1bc553ec1",
        "gas": "0x14ce8",
        "value": "0x0",
        "input": "0xa9059cbb000000000000000000000000f4e9e57b57d5d58834164a01a1fbd36a68dac47e0000000000000000000000000000000000000000000000000de0b6b3a7640000",
        "nonce": "0x5b",
        "chainId": "0x66eee"
      },
      "additionalContracts": [],
      "isFixedGasLimit": false
    },
    {
      "hash": "0x9142008247100c168a9e15c6eee425e05824f751c082b43c833e8dbc94db9b66",
      "transactionType": "CALL",
      "contractName": null,
      "contractAddress": "0x93a5007b03bf034f6833a35e05b6d0c1bc553ec1",
      "function": "transfer(address,uint256)",
      "arguments": [
        "0xdaC88f55d8BD5C041a02a281F4ca2F3F1cb4A0f3",
        "5000000000000000000"
      ],
      "transaction": {
        "from": "0xe82d3b9473f0a06d6715581c336e18e949030da1",
        "to": "0x93a5007b03bf034f6833a35e05b6d0c1bc553ec1",
        "gas": "0x14cf7",
        "value": "0x0",
        "input": "0xa9059cbb000000000000000000000000dac88f55d8bd5c041a02a281f4ca2f3f1cb4a0f30000000000000000000000000000000000000000000000004563918244f40000",
        "nonce": "0x5c",
        "chainId": "0x66eee"
      },
      "additionalContracts": [],
      "isFixedGasLimit": false
    }
  ],
  "receipts": [
    {
      "status": "0x1",
      "cumulativeGasUsed": "0xc468",
      "logs": [
        {
          "address": "0x93a5007b03bf034f6833a35e05b6d0c1bc553ec1",
          "topics": [
            "0xddf252ad1be2c89b69c2b068fc378daa952ba7f163c4a11628f55a4df523b3ef",
            "0x000000000000000000000000e82d3b9473f0a06d6715581c336e18e949030da1",
            "0x0000000000000000000000003a27719ef5f46c917680eb59ccd744aaa0998bd8"
          ],
          "data": "0x0000000000000000000000000000000000000000000000008ac7230489e80000",
          "blockHash": "0x0dca4317ced021ee0c77636dc56df563f8cc00f8ec33d092efffad3b11518a05",
          "blockNumber": "0x585aa30",
          "transactionHash": "0x0f6aa44717db8c211fd6603b9fb4fd74d0a0c0e8eb71891df947372542b1fd72",
          "transactionIndex": "0x1",
          "logIndex": "0x0",
          "removed": false
        },
        {
          "address": "0x93a5007b03bf034f6833a35e05b6d0c1bc553ec1",
          "topics": [
            "0x7e1b4577399017960fc6a1284e846e5682b112a94c7c1e28afa6dc3031324a29",
            "0x000000000000000000000000e82d3b9473f0a06d6715581c336e18e949030da1",
            "0x0000000000000000000000003a27719ef5f46c917680eb59ccd744aaa0998bd8"
          ],
          "data": "0x0000000000000000000000000000000000000000000000008ac7230489e800000000000000000000000000000000000000000000000000000000000000000000000000000000000000000000000000000000000000000000000000006720b033",
          "blockHash": "0x0dca4317ced021ee0c77636dc56df563f8cc00f8ec33d092efffad3b11518a05",
          "blockNumber": "0x585aa30",
          "transactionHash": "0x0f6aa44717db8c211fd6603b9fb4fd74d0a0c0e8eb71891df947372542b1fd72",
          "transactionIndex": "0x1",
          "logIndex": "0x1",
          "removed": false
        }
      ],
      "logsBloom": "0x00000000000000000000000000000000080000000000800000000000000000000000000000000000000008000000000000400000000000000000000000000000000000000000000000000008000000000000000000000000000000000000000000004000040000000000000000000000000000000000000000000010000000000000000000000000000000000001001000000000000000000000000000000000000000000000000008000000000000000000000000000000000000000000008000000002000000000000000000000000000000000000000000000000080000000000000000000000000000000000000000000000000000000000040000000000",
      "type": "0x2",
      "transactionHash": "0x0f6aa44717db8c211fd6603b9fb4fd74d0a0c0e8eb71891df947372542b1fd72",
      "transactionIndex": "0x1",
      "blockHash": "0x0dca4317ced021ee0c77636dc56df563f8cc00f8ec33d092efffad3b11518a05",
      "blockNumber": "0x585aa30",
      "gasUsed": "0xc468",
      "effectiveGasPrice": "0xb3172b0",
      "from": "0xe82d3b9473f0a06d6715581c336e18e949030da1",
      "to": "0x93a5007b03bf034f6833a35e05b6d0c1bc553ec1",
      "contractAddress": null,
      "gasUsedForL1": "0x2fc",
      "l1BlockNumber": "0x6a5710"
    },
    {
      "status": "0x1",
      "cumulativeGasUsed": "0xc475",
      "logs": [
        {
          "address": "0x93a5007b03bf034f6833a35e05b6d0c1bc553ec1",
          "topics": [
            "0xddf252ad1be2c89b69c2b068fc378daa952ba7f163c4a11628f55a4df523b3ef",
            "0x000000000000000000000000e82d3b9473f0a06d6715581c336e18e949030da1",
            "0x00000000000000000000000009c3b4cd85a4d9a490c0fd6a8976d2d4e83e165b"
          ],
          "data": "0x00000000000000000000000000000000000000000000000053444835ec580000",
          "blockHash": "0x85ed619cb948f1726ae13b2a7fef345a2ba650dd7f1ca28d87e0c8208774bf16",
          "blockNumber": "0x585aa35",
          "transactionHash": "0xdb5872c677b2dc18847a57287724ab32a2d004f5d47b413c022ddb0ab22ce47c",
          "transactionIndex": "0x1",
          "logIndex": "0x0",
          "removed": false
        },
        {
          "address": "0x93a5007b03bf034f6833a35e05b6d0c1bc553ec1",
          "topics": [
            "0x7e1b4577399017960fc6a1284e846e5682b112a94c7c1e28afa6dc3031324a29",
            "0x000000000000000000000000e82d3b9473f0a06d6715581c336e18e949030da1",
            "0x00000000000000000000000009c3b4cd85a4d9a490c0fd6a8976d2d4e83e165b"
          ],
          "data": "0x00000000000000000000000000000000000000000000000053444835ec5800000000000000000000000000000000000000000000000000000000000000000000000000000000000000000000000000000000000000000000000000006720b034",
          "blockHash": "0x85ed619cb948f1726ae13b2a7fef345a2ba650dd7f1ca28d87e0c8208774bf16",
          "blockNumber": "0x585aa35",
          "transactionHash": "0xdb5872c677b2dc18847a57287724ab32a2d004f5d47b413c022ddb0ab22ce47c",
          "transactionIndex": "0x1",
          "logIndex": "0x1",
          "removed": false
        }
      ],
      "logsBloom": "0x00000000000000000000000000000000080000000000800000800000000000000000000000000000000008000000004000400000000000000000000000000000000000000000000000000008000000000000000000000000000000000000000000004000040000000000000000000000000000000000000000000010000000000000000000000000000000000000001000000000000000000000000000000000000000000000000008000000000000004000000000000000000000000000000000000002000000000000000000000000000000000000000000000000080000000000000000000000000000000000000000000000000000000000000000000000",
      "type": "0x2",
      "transactionHash": "0xdb5872c677b2dc18847a57287724ab32a2d004f5d47b413c022ddb0ab22ce47c",
      "transactionIndex": "0x1",
      "blockHash": "0x85ed619cb948f1726ae13b2a7fef345a2ba650dd7f1ca28d87e0c8208774bf16",
      "blockNumber": "0x585aa35",
      "gasUsed": "0xc475",
      "effectiveGasPrice": "0xafec9f0",
      "from": "0xe82d3b9473f0a06d6715581c336e18e949030da1",
      "to": "0x93a5007b03bf034f6833a35e05b6d0c1bc553ec1",
      "contractAddress": null,
      "gasUsedForL1": "0x309",
      "l1BlockNumber": "0x6a5710"
    },
    {
      "status": "0x1",
      "cumulativeGasUsed": "0xc472",
      "logs": [
        {
          "address": "0x93a5007b03bf034f6833a35e05b6d0c1bc553ec1",
          "topics": [
            "0xddf252ad1be2c89b69c2b068fc378daa952ba7f163c4a11628f55a4df523b3ef",
            "0x000000000000000000000000e82d3b9473f0a06d6715581c336e18e949030da1",
            "0x000000000000000000000000f4e9e57b57d5d58834164a01a1fbd36a68dac47e"
          ],
          "data": "0x0000000000000000000000000000000000000000000000000de0b6b3a7640000",
          "blockHash": "0x25f74f2a23b7f7a9e58800cd85e979e47197a09ef1b9afb859edafbb02477751",
          "blockNumber": "0x585aa39",
          "transactionHash": "0xb556b0101b4a988dc33cb3cb97b1a00c04132ab6f92b17e4aebd32efdb62ea89",
          "transactionIndex": "0x1",
          "logIndex": "0x0",
          "removed": false
        },
        {
          "address": "0x93a5007b03bf034f6833a35e05b6d0c1bc553ec1",
          "topics": [
            "0x7e1b4577399017960fc6a1284e846e5682b112a94c7c1e28afa6dc3031324a29",
            "0x000000000000000000000000e82d3b9473f0a06d6715581c336e18e949030da1",
            "0x000000000000000000000000f4e9e57b57d5d58834164a01a1fbd36a68dac47e"
          ],
          "data": "0x0000000000000000000000000000000000000000000000000de0b6b3a76400000000000000000000000000000000000000000000000000000000000000000000000000000000000000000000000000000000000000000000000000006720b035",
          "blockHash": "0x25f74f2a23b7f7a9e58800cd85e979e47197a09ef1b9afb859edafbb02477751",
          "blockNumber": "0x585aa39",
          "transactionHash": "0xb556b0101b4a988dc33cb3cb97b1a00c04132ab6f92b17e4aebd32efdb62ea89",
          "transactionIndex": "0x1",
          "logIndex": "0x1",
          "removed": false
        }
      ],
      "logsBloom": "0x00000040000000000000000000000000080000000000800000000000000000000000000000000000000008000000000000400000000000000000000000000000000000000000000000000008000000000000000000000000000000000000000000004000040000000000000000000000000000000000000000000010000000000000000000000000000000000000001000000000000000100000000000000000000000000000000008000001000000000000000000000000000000000000000000000002000000000000000000000000000000000000000000000000080000000000000000000000000000000000000000000000000000000000000000000000",
      "type": "0x2",
      "transactionHash": "0xb556b0101b4a988dc33cb3cb97b1a00c04132ab6f92b17e4aebd32efdb62ea89",
      "transactionIndex": "0x1",
      "blockHash": "0x25f74f2a23b7f7a9e58800cd85e979e47197a09ef1b9afb859edafbb02477751",
      "blockNumber": "0x585aa39",
      "gasUsed": "0xc472",
      "effectiveGasPrice": "0xb09c670",
      "from": "0xe82d3b9473f0a06d6715581c336e18e949030da1",
      "to": "0x93a5007b03bf034f6833a35e05b6d0c1bc553ec1",
      "contractAddress": null,
      "gasUsedForL1": "0x306",
      "l1BlockNumber": "0x6a5710"
    },
    {
      "status": "0x1",
      "cumulativeGasUsed": "0xc472",
      "logs": [
        {
          "address": "0x93a5007b03bf034f6833a35e05b6d0c1bc553ec1",
          "topics": [
            "0xddf252ad1be2c89b69c2b068fc378daa952ba7f163c4a11628f55a4df523b3ef",
            "0x000000000000000000000000e82d3b9473f0a06d6715581c336e18e949030da1",
            "0x000000000000000000000000dac88f55d8bd5c041a02a281f4ca2f3f1cb4a0f3"
          ],
          "data": "0x0000000000000000000000000000000000000000000000004563918244f40000",
          "blockHash": "0xb81952447f5860aa17c83c68d0a1415d7a35345ec555f36cb1e608fa5c78c83f",
          "blockNumber": "0x585aa3c",
          "transactionHash": "0x9142008247100c168a9e15c6eee425e05824f751c082b43c833e8dbc94db9b66",
          "transactionIndex": "0x1",
          "logIndex": "0x0",
          "removed": false
        },
        {
          "address": "0x93a5007b03bf034f6833a35e05b6d0c1bc553ec1",
          "topics": [
            "0x7e1b4577399017960fc6a1284e846e5682b112a94c7c1e28afa6dc3031324a29",
            "0x000000000000000000000000e82d3b9473f0a06d6715581c336e18e949030da1",
            "0x000000000000000000000000dac88f55d8bd5c041a02a281f4ca2f3f1cb4a0f3"
          ],
          "data": "0x0000000000000000000000000000000000000000000000004563918244f400000000000000000000000000000000000000000000000000000000000000000000000000000000000000000000000000000000000000000000000000006720b036",
          "blockHash": "0xb81952447f5860aa17c83c68d0a1415d7a35345ec555f36cb1e608fa5c78c83f",
          "blockNumber": "0x585aa3c",
          "transactionHash": "0x9142008247100c168a9e15c6eee425e05824f751c082b43c833e8dbc94db9b66",
          "transactionIndex": "0x1",
          "logIndex": "0x1",
          "removed": false
        }
      ],
      "logsBloom": "0x00000000000000000000000000000000080000000000800000000000000000000000000000000000001008000000000000400000000000000000000000000000000000000000000000020008000000000000000000000000000000000000000000004000040000000000000000000000000000000000000000000010000000000000000000000000000000000000001000000000000000000000000000000000000000000000000008000000000000020000000000000000000000000000000000000002000000000000000000000000000000000000000000000000080000000000000000000000000000000000000000000000000000000000000000000000",
      "type": "0x2",
      "transactionHash": "0x9142008247100c168a9e15c6eee425e05824f751c082b43c833e8dbc94db9b66",
      "transactionIndex": "0x1",
      "blockHash": "0xb81952447f5860aa17c83c68d0a1415d7a35345ec555f36cb1e608fa5c78c83f",
      "blockNumber": "0x585aa3c",
      "gasUsed": "0xc472",
      "effectiveGasPrice": "0xb0b2600",
      "from": "0xe82d3b9473f0a06d6715581c336e18e949030da1",
      "to": "0x93a5007b03bf034f6833a35e05b6d0c1bc553ec1",
      "contractAddress": null,
      "gasUsedForL1": "0x306",
      "l1BlockNumber": "0x6a5710"
    }
  ],
  "libraries": [],
  "pending": [],
  "returns": {},
  "timestamp": 1730195510,
  "chain": 421614,
  "commit": "056e1e4"
}