{
  "transactions": [
    {
      "hash": "0x2e15f6036bd4d08e402c5fac2ecef1e40f82e5f4dcf3e5876dd63462bccd0d74",
      "transactionType": "CALL",
      "contractName": null,
      "contractAddress": "0x93a5007b03bf034f6833a35e05b6d0c1bc553ec1",
      "function": "transfer(address,uint256)",
      "arguments": [
        "0x3a27719ef5f46c917680eb59cCD744aaa0998Bd8",
        "6000000000000000000"
      ],
      "transaction": {
        "from": "0xe82d3b9473f0a06d6715581c336e18e949030da1",
        "to": "0x93a5007b03bf034f6833a35e05b6d0c1bc553ec1",
        "gas": "0x14c9a",
        "value": "0x0",
        "input": "0xa9059cbb0000000000000000000000003a27719ef5f46c917680eb59ccd744aaa0998bd800000000000000000000000000000000000000000000000053444835ec580000",
        "nonce": "0x54",
        "chainId": "0x66eee"
      },
      "additionalContracts": [],
      "isFixedGasLimit": false
    },
    {
      "hash": "0x2a772b749363b99f9d3c42a84af9923f8ab1c65d2593a33ca4edd9850b6ed55a",
      "transactionType": "CALL",
      "contractName": null,
      "contractAddress": "0x93a5007b03bf034f6833a35e05b6d0c1bc553ec1",
      "function": "transfer(address,uint256)",
      "arguments": [
        "0x09c3B4Cd85a4D9A490c0fd6a8976D2d4e83E165b",
        "7000000000000000000"
      ],
      "transaction": {
        "from": "0xe82d3b9473f0a06d6715581c336e18e949030da1",
        "to": "0x93a5007b03bf034f6833a35e05b6d0c1bc553ec1",
        "gas": "0x14c9a",
        "value": "0x0",
        "input": "0xa9059cbb00000000000000000000000009c3b4cd85a4d9a490c0fd6a8976d2d4e83e165b0000000000000000000000000000000000000000000000006124fee993bc0000",
        "nonce": "0x55",
        "chainId": "0x66eee"
      },
      "additionalContracts": [],
      "isFixedGasLimit": false
    },
    {
      "hash": "0x40017c9a53b14c74e944277e0ebab798e4630b9f011d80952a3098f1e7db1974",
      "transactionType": "CALL",
      "contractName": null,
      "contractAddress": "0x93a5007b03bf034f6833a35e05b6d0c1bc553ec1",
      "function": "transfer(address,uint256)",
      "arguments": [
        "0xF4e9e57b57D5D58834164A01a1FbD36A68daC47E",
        "7000000000000000000"
      ],
      "transaction": {
        "from": "0xe82d3b9473f0a06d6715581c336e18e949030da1",
        "to": "0x93a5007b03bf034f6833a35e05b6d0c1bc553ec1",
        "gas": "0x14c9a",
        "value": "0x0",
        "input": "0xa9059cbb000000000000000000000000f4e9e57b57d5d58834164a01a1fbd36a68dac47e0000000000000000000000000000000000000000000000006124fee993bc0000",
        "nonce": "0x56",
        "chainId": "0x66eee"
      },
      "additionalContracts": [],
      "isFixedGasLimit": false
    },
    {
      "hash": "0x8f41e2bc178db049d1280193dc8a99dae50b08ccf953890030b60c5cc9e2017a",
      "transactionType": "CALL",
      "contractName": null,
      "contractAddress": "0x93a5007b03bf034f6833a35e05b6d0c1bc553ec1",
      "function": "transfer(address,uint256)",
      "arguments": [
        "0xdaC88f55d8BD5C041a02a281F4ca2F3F1cb4A0f3",
        "2000000000000000000"
      ],
      "transaction": {
        "from": "0xe82d3b9473f0a06d6715581c336e18e949030da1",
        "to": "0x93a5007b03bf034f6833a35e05b6d0c1bc553ec1",
        "gas": "0x14c9a",
        "value": "0x0",
        "input": "0xa9059cbb000000000000000000000000dac88f55d8bd5c041a02a281f4ca2f3f1cb4a0f30000000000000000000000000000000000000000000000001bc16d674ec80000",
        "nonce": "0x57",
        "chainId": "0x66eee"
      },
      "additionalContracts": [],
      "isFixedGasLimit": false
    }
  ],
  "receipts": [
    {
      "status": "0x1",
      "cumulativeGasUsed": "0xc458",
      "logs": [
        {
          "address": "0x93a5007b03bf034f6833a35e05b6d0c1bc553ec1",
          "topics": [
            "0xddf252ad1be2c89b69c2b068fc378daa952ba7f163c4a11628f55a4df523b3ef",
            "0x000000000000000000000000e82d3b9473f0a06d6715581c336e18e949030da1",
            "0x0000000000000000000000003a27719ef5f46c917680eb59ccd744aaa0998bd8"
          ],
          "data": "0x00000000000000000000000000000000000000000000000053444835ec580000",
          "blockHash": "0xfd5bbc8c0f07fa337738bbad5ae2d59af623fc823524ff73153e4a9975719139",
          "blockNumber": "0x585a816",
          "transactionHash": "0x2e15f6036bd4d08e402c5fac2ecef1e40f82e5f4dcf3e5876dd63462bccd0d74",
          "transactionIndex": "0x1",
          "logIndex": "0x0",
          "removed": false
        },
        {
          "address": "0x93a5007b03bf034f6833a35e05b6d0c1bc553ec1",
          "topics": [
            "0x7e1b4577399017960fc6a1284e846e5682b112a94c7c1e28afa6dc3031324a29",
            "0x000000000000000000000000e82d3b9473f0a06d6715581c336e18e949030da1",
            "0x0000000000000000000000003a27719ef5f46c917680eb59ccd744aaa0998bd8"
          ],
          "data": "0x00000000000000000000000000000000000000000000000053444835ec5800000000000000000000000000000000000000000000000000000000000000000000000000000000000000000000000000000000000000000000000000006720af95",
          "blockHash": "0xfd5bbc8c0f07fa337738bbad5ae2d59af623fc823524ff73153e4a9975719139",
          "blockNumber": "0x585a816",
          "transactionHash": "0x2e15f6036bd4d08e402c5fac2ecef1e40f82e5f4dcf3e5876dd63462bccd0d74",
          "transactionIndex": "0x1",
          "logIndex": "0x1",
          "removed": false
        }
      ],
      "logsBloom": "0x00000000000000000000000000000000080000000000800000000000000000000000000000000000000008000000000000400000000000000000000000000000000000000000000000000008000000000000000000000000000000000000000000004000040000000000000000000000000000000000000000000010000000000000000000000000000000000001001000000000000000000000000000000000000000000000000008000000000000000000000000000000000000000000008000000002000000000000000000000000000000000000000000000000080000000000000000000000000000000000000000000000000000000000040000000000",
      "type": "0x2",
      "transactionHash": "0x2e15f6036bd4d08e402c5fac2ecef1e40f82e5f4dcf3e5876dd63462bccd0d74",
      "transactionIndex": "0x1",
      "blockHash": "0xfd5bbc8c0f07fa337738bbad5ae2d59af623fc823524ff73153e4a9975719139",
      "blockNumber": "0x585a816",
      "gasUsed": "0xc458",
      "effectiveGasPrice": "0xb6b6e70",
      "from": "0xe82d3b9473f0a06d6715581c336e18e949030da1",
      "to": "0x93a5007b03bf034f6833a35e05b6d0c1bc553ec1",
      "contractAddress": null,
      "gasUsedForL1": "0x2ec",
      "l1BlockNumber": "0x6a5703"
    },
    {
      "status": "0x1",
      "cumulativeGasUsed": "0x3bea2",
      "logs": [
        {
          "address": "0x93a5007b03bf034f6833a35e05b6d0c1bc553ec1",
          "topics": [
            "0xddf252ad1be2c89b69c2b068fc378daa952ba7f163c4a11628f55a4df523b3ef",
            "0x000000000000000000000000e82d3b9473f0a06d6715581c336e18e949030da1",
            "0x00000000000000000000000009c3b4cd85a4d9a490c0fd6a8976d2d4e83e165b"
          ],
          "data": "0x0000000000000000000000000000000000000000000000006124fee993bc0000",
          "blockHash": "0x787f78b0af11fb5e98076fb354c6164b56aba00f64b775f25191e446c1a73236",
          "blockNumber": "0x585a81b",
          "transactionHash": "0x2a772b749363b99f9d3c42a84af9923f8ab1c65d2593a33ca4edd9850b6ed55a",
          "transactionIndex": "0x2",
          "logIndex": "0x1",
          "removed": false
        },
        {
          "address": "0x93a5007b03bf034f6833a35e05b6d0c1bc553ec1",
          "topics": [
            "0x7e1b4577399017960fc6a1284e846e5682b112a94c7c1e28afa6dc3031324a29",
            "0x000000000000000000000000e82d3b9473f0a06d6715581c336e18e949030da1",
            "0x00000000000000000000000009c3b4cd85a4d9a490c0fd6a8976d2d4e83e165b"
          ],
          "data": "0x0000000000000000000000000000000000000000000000006124fee993bc00000000000000000000000000000000000000000000000000000000000000000000000000000000000000000000000000000000000000000000000000006720af96",
          "blockHash": "0x787f78b0af11fb5e98076fb354c6164b56aba00f64b775f25191e446c1a73236",
          "blockNumber": "0x585a81b",
          "transactionHash": "0x2a772b749363b99f9d3c42a84af9923f8ab1c65d2593a33ca4edd9850b6ed55a",
          "transactionIndex": "0x2",
          "logIndex": "0x2",
          "removed": false
        }
      ],
      "logsBloom": "0x00000000000000000000000000000000080000000000800000800000000000000000000000000000000008000000004000400000000000000000000000000000000000000000000000000008000000000000000000000000000000000000000000004000040000000000000000000000000000000000000000000010000000000000000000000000000000000000001000000000000000000000000000000000000000000000000008000000000000004000000000000000000000000000000000000002000000000000000000000000000000000000000000000000080000000000000000000000000000000000000000000000000000000000000000000000",
      "type": "0x2",
      "transactionHash": "0x2a772b749363b99f9d3c42a84af9923f8ab1c65d2593a33ca4edd9850b6ed55a",
      "transactionIndex": "0x2",
      "blockHash": "0x787f78b0af11fb5e98076fb354c6164b56aba00f64b775f25191e446c1a73236",
      "blockNumber": "0x585a81b",
      "gasUsed": "0xc467",
      "effectiveGasPrice": "0xb351c30",
      "from": "0xe82d3b9473f0a06d6715581c336e18e949030da1",
      "to": "0x93a5007b03bf034f6833a35e05b6d0c1bc553ec1",
      "contractAddress": null,
      "gasUsedForL1": "0x2fb",
      "l1BlockNumber": "0x6a5704"
    },
    {
      "status": "0x1",
      "cumulativeGasUsed": "0xc466",
      "logs": [
        {
          "address": "0x93a5007b03bf034f6833a35e05b6d0c1bc553ec1",
          "topics": [
            "0xddf252ad1be2c89b69c2b068fc378daa952ba7f163c4a11628f55a4df523b3ef",
            "0x000000000000000000000000e82d3b9473f0a06d6715581c336e18e949030da1",
            "0x000000000000000000000000f4e9e57b57d5d58834164a01a1fbd36a68dac47e"
          ],
          "data": "0x0000000000000000000000000000000000000000000000006124fee993bc0000",
          "blockHash": "0xd824bb2a8b9bdc84bb81e9a1a5457d3cedc418d7d276b8111103fda592469e90",
          "blockNumber": "0x585a81e",
          "transactionHash": "0x40017c9a53b14c74e944277e0ebab798e4630b9f011d80952a3098f1e7db1974",
          "transactionIndex": "0x1",
          "logIndex": "0x0",
          "removed": false
        },
        {
          "address": "0x93a5007b03bf034f6833a35e05b6d0c1bc553ec1",
          "topics": [
            "0x7e1b4577399017960fc6a1284e846e5682b112a94c7c1e28afa6dc3031324a29",
            "0x000000000000000000000000e82d3b9473f0a06d6715581c336e18e949030da1",
            "0x000000000000000000000000f4e9e57b57d5d58834164a01a1fbd36a68dac47e"
          ],
          "data": "0x0000000000000000000000000000000000000000000000006124fee993bc00000000000000000000000000000000000000000000000000000000000000000000000000000000000000000000000000000000000000000000000000006720af97",
          "blockHash": "0xd824bb2a8b9bdc84bb81e9a1a5457d3cedc418d7d276b8111103fda592469e90",
          "blockNumber": "0x585a81e",
          "transactionHash": "0x40017c9a53b14c74e944277e0ebab798e4630b9f011d80952a3098f1e7db1974",
          "transactionIndex": "0x1",
          "logIndex": "0x1",
          "removed": false
        }
      ],
      "logsBloom": "0x00000040000000000000000000000000080000000000800000000000000000000000000000000000000008000000000000400000000000000000000000000000000000000000000000000008000000000000000000000000000000000000000000004000040000000000000000000000000000000000000000000010000000000000000000000000000000000000001000000000000000100000000000000000000000000000000008000001000000000000000000000000000000000000000000000002000000000000000000000000000000000000000000000000080000000000000000000000000000000000000000000000000000000000000000000000",
      "type": "0x2",
      "transactionHash": "0x40017c9a53b14c74e944277e0ebab798e4630b9f011d80952a3098f1e7db1974",
      "transactionIndex": "0x1",
      "blockHash": "0xd824bb2a8b9bdc84bb81e9a1a5457d3cedc418d7d276b8111103fda592469e90",
      "blockNumber": "0x585a81e",
      "gasUsed": "0xc466",
      "effectiveGasPrice": "0xb36f0f0",
      "from": "0xe82d3b9473f0a06d6715581c336e18e949030da1",
      "to": "0x93a5007b03bf034f6833a35e05b6d0c1bc553ec1",
      "contractAddress": null,
      "gasUsedForL1": "0x2fa",
      "l1BlockNumber": "0x6a5704"
    },
    {
      "status": "0x1",
      "cumulativeGasUsed": "0xc475",
      "logs": [
        {
          "address": "0x93a5007b03bf034f6833a35e05b6d0c1bc553ec1",
          "topics": [
            "0xddf252ad1be2c89b69c2b068fc378daa952ba7f163c4a11628f55a4df523b3ef",
            "0x000000000000000000000000e82d3b9473f0a06d6715581c336e18e949030da1",
            "0x000000000000000000000000dac88f55d8bd5c041a02a281f4ca2f3f1cb4a0f3"
          ],
          "data": "0x0000000000000000000000000000000000000000000000001bc16d674ec80000",
          "blockHash": "0x0d4551918bae6c81f31385f10d898f4ffec8d3566493ecd755a2486d9cbfc45c",
          "blockNumber": "0x585a821",
          "transactionHash": "0x8f41e2bc178db049d1280193dc8a99dae50b08ccf953890030b60c5cc9e2017a",
          "transactionIndex": "0x1",
          "logIndex": "0x0",
          "removed": false
        },
        {
          "address": "0x93a5007b03bf034f6833a35e05b6d0c1bc553ec1",
          "topics": [
            "0x7e1b4577399017960fc6a1284e846e5682b112a94c7c1e28afa6dc3031324a29",
            "0x000000000000000000000000e82d3b9473f0a06d6715581c336e18e949030da1",
            "0x000000000000000000000000dac88f55d8bd5c041a02a281f4ca2f3f1cb4a0f3"
          ],
          "data": "0x0000000000000000000000000000000000000000000000001bc16d674ec800000000000000000000000000000000000000000000000000000000000000000000000000000000000000000000000000000000000000000000000000006720af98",
          "blockHash": "0x0d4551918bae6c81f31385f10d898f4ffec8d3566493ecd755a2486d9cbfc45c",
          "blockNumber": "0x585a821",
          "transactionHash": "0x8f41e2bc178db049d1280193dc8a99dae50b08ccf953890030b60c5cc9e2017a",
          "transactionIndex": "0x1",
          "logIndex": "0x1",
          "removed": false
        }
      ],
      "logsBloom": "0x00000000000000000000000000000000080000000000800000000000000000000000000000000000001008000000000000400000000000000000000000000000000000000000000000020008000000000000000000000000000000000000000000004000040000000000000000000000000000000000000000000010000000000000000000000000000000000000001000000000000000000000000000000000000000000000000008000000000000020000000000000000000000000000000000000002000000000000000000000000000000000000000000000000080000000000000000000000000000000000000000000000000000000000000000000000",
      "type": "0x2",
      "transactionHash": "0x8f41e2bc178db049d1280193dc8a99dae50b08ccf953890030b60c5cc9e2017a",
      "transactionIndex": "0x1",
      "blockHash": "0x0d4551918bae6c81f31385f10d898f4ffec8d3566493ecd755a2486d9cbfc45c",
      "blockNumber": "0x585a821",
      "gasUsed": "0xc475",
      "effectiveGasPrice": "0xaffdb60",
      "from": "0xe82d3b9473f0a06d6715581c336e18e949030da1",
      "to": "0x93a5007b03bf034f6833a35e05b6d0c1bc553ec1",
      "contractAddress": null,
      "gasUsedForL1": "0x309",
      "l1BlockNumber": "0x6a5704"
    }
  ],
  "libraries": [],
  "pending": [],
  "returns": {},
  "timestamp": 1730195352,
  "chain": 421614,
  "commit": "056e1e4"
}