{
  "transactions": [
    {
      "hash": "0x86090060dd347bd54a6479be0a844f823c2f2ff97f505b9be360282cc7b911cb",
      "transactionType": "CALL",
      "contractName": null,
      "contractAddress": "0x93a5007b03bf034f6833a35e05b6d0c1bc553ec1",
      "function": "transfer(address,uint256)",
      "arguments": [
        "0x3a27719ef5f46c917680eb59cCD744aaa0998Bd8",
        "1000000000000000000"
      ],
      "transaction": {
        "from": "0xe82d3b9473f0a06d6715581c336e18e949030da1",
        "to": "0x93a5007b03bf034f6833a35e05b6d0c1bc553ec1",
        "gas": "0x1540e",
        "value": "0x0",
        "input": "0xa9059cbb0000000000000000000000003a27719ef5f46c917680eb59ccd744aaa0998bd80000000000000000000000000000000000000000000000000de0b6b3a7640000",
        "nonce": "0x70",
        "chainId": "0x66eee"
      },
      "additionalContracts": [],
      "isFixedGasLimit": false
    },
    {
      "hash": "0xf9a47e62694e1b88e212bb6ebe64f30461a095c656ec20dc0b865304914c69a5",
      "transactionType": "CALL",
      "contractName": null,
      "contractAddress": "0x93a5007b03bf034f6833a35e05b6d0c1bc553ec1",
      "function": "transfer(address,uint256)",
      "arguments": [
        "0x09c3B4Cd85a4D9A490c0fd6a8976D2d4e83E165b",
        "2000000000000000000"
      ],
      "transaction": {
        "from": "0x3a27719ef5f46c917680eb59ccd744aaa0998bd8",
        "to": "0x93a5007b03bf034f6833a35e05b6d0c1bc553ec1",
        "gas": "0x1540e",
        "value": "0x0",
        "input": "0xa9059cbb00000000000000000000000009c3b4cd85a4d9a490c0fd6a8976d2d4e83e165b0000000000000000000000000000000000000000000000001bc16d674ec80000",
        "nonce": "0x8",
        "chainId": "0x66eee"
      },
      "additionalContracts": [],
      "isFixedGasLimit": false
    },
    {
      "hash": "0x864e2c9cce3982e78da5453cc959c4b18bab3f03dfd372a53ccf29bde9e539b5",
      "transactionType": "CALL",
      "contractName": null,
      "contractAddress": "0x93a5007b03bf034f6833a35e05b6d0c1bc553ec1",
      "function": "transfer(address,uint256)",
      "arguments": [
        "0xF4e9e57b57D5D58834164A01a1FbD36A68daC47E",
        "3000000000000000000"
      ],
      "transaction": {
        "from": "0x09c3b4cd85a4d9a490c0fd6a8976d2d4e83e165b",
        "to": "0x93a5007b03bf034f6833a35e05b6d0c1bc553ec1",
        "gas": "0x1864e",
        "value": "0x0",
        "input": "0xa9059cbb000000000000000000000000f4e9e57b57d5d58834164a01a1fbd36a68dac47e00000000000000000000000000000000000000000000000029a2241af62c0000",
        "nonce": "0x6",
        "chainId": "0x66eee"
      },
      "additionalContracts": [],
      "isFixedGasLimit": false
    },
    {
      "hash": "0xbba58cee1383a419e454d46ced959baf7c3d38cc59ad014462f0e95682abf0aa",
      "transactionType": "CALL",
      "contractName": null,
      "contractAddress": "0x93a5007b03bf034f6833a35e05b6d0c1bc553ec1",
      "function": "transfer(address,uint256)",
      "arguments": [
        "0xdaC88f55d8BD5C041a02a281F4ca2F3F1cb4A0f3",
        "9000000000000000000"
      ],
      "transaction": {
        "from": "0xf4e9e57b57d5d58834164a01a1fbd36a68dac47e",
        "to": "0x93a5007b03bf034f6833a35e05b6d0c1bc553ec1",
        "gas": "0x1864e",
        "value": "0x0",
        "input": "0xa9059cbb000000000000000000000000dac88f55d8bd5c041a02a281f4ca2f3f1cb4a0f30000000000000000000000000000000000000000000000007ce66c50e2840000",
        "nonce": "0x4",
        "chainId": "0x66eee"
      },
      "additionalContracts": [],
      "isFixedGasLimit": false
    },
    {
      "hash": "0x6c1d03817017a3362849f019cbdd47117c95866cc216b79d12b38b6274d7515c",
      "transactionType": "CALL",
      "contractName": null,
      "contractAddress": "0x93a5007b03bf034f6833a35e05b6d0c1bc553ec1",
      "function": "transfer(address,uint256)",
      "arguments": [
        "0xe82d3B9473F0A06D6715581C336E18E949030da1",
        "6000000000000000000"
      ],
      "transaction": {
        "from": "0xdac88f55d8bd5c041a02a281f4ca2f3f1cb4a0f3",
        "to": "0x93a5007b03bf034f6833a35e05b6d0c1bc553ec1",
        "gas": "0x16e29",
        "value": "0x0",
        "input": "0xa9059cbb000000000000000000000000e82d3b9473f0a06d6715581c336e18e949030da100000000000000000000000000000000000000000000000053444835ec580000",
        "nonce": "0x5",
        "chainId": "0x66eee"
      },
      "additionalContracts": [],
      "isFixedGasLimit": false
    }
  ],
  "receipts": [
    {
      "status": "0x1",
      "cumulativeGasUsed": "0xc850",
      "logs": [
        {
          "address": "0x93a5007b03bf034f6833a35e05b6d0c1bc553ec1",
          "topics": [
            "0xddf252ad1be2c89b69c2b068fc378daa952ba7f163c4a11628f55a4df523b3ef",
            "0x000000000000000000000000e82d3b9473f0a06d6715581c336e18e949030da1",
            "0x0000000000000000000000003a27719ef5f46c917680eb59ccd744aaa0998bd8"
          ],
          "data": "0x0000000000000000000000000000000000000000000000000de0b6b3a7640000",
          "blockHash": "0xf464ec2aff1922b9a84438feb5f932a2634f1dd0394bbcf4abe65de114b14cd7",
          "blockNumber": "0x5891bab",
          "transactionHash": "0x86090060dd347bd54a6479be0a844f823c2f2ff97f505b9be360282cc7b911cb",
          "transactionIndex": "0x1",
          "logIndex": "0x0",
          "removed": false
        },
        {
          "address": "0x93a5007b03bf034f6833a35e05b6d0c1bc553ec1",
          "topics": [
            "0x7e1b4577399017960fc6a1284e846e5682b112a94c7c1e28afa6dc3031324a29",
            "0x000000000000000000000000e82d3b9473f0a06d6715581c336e18e949030da1",
            "0x0000000000000000000000003a27719ef5f46c917680eb59ccd744aaa0998bd8"
          ],
          "data": "0x0000000000000000000000000000000000000000000000000de0b6b3a76400000000000000000000000000000000000000000000000000000000000000000000000000000000000000000000000000000000000000000000000000006721aeaa",
          "blockHash": "0xf464ec2aff1922b9a84438feb5f932a2634f1dd0394bbcf4abe65de114b14cd7",
          "blockNumber": "0x5891bab",
          "transactionHash": "0x86090060dd347bd54a6479be0a844f823c2f2ff97f505b9be360282cc7b911cb",
          "transactionIndex": "0x1",
          "logIndex": "0x1",
          "removed": false
        }
      ],
      "logsBloom": "0x00000000000000000000000000000000080000000000800000000000000000000000000000000000000008000000000000400000000000000000000000000000000000000000000000000008000000000000000000000000000000000000000000004000040000000000000000000000000000000000000000000010000000000000000000000000000000000001001000000000000000000000000000000000000000000000000008000000000000000000000000000000000000000000008000000002000000000000000000000000000000000000000000000000080000000000000000000000000000000000000000000000000000000000040000000000",
      "type": "0x2",
      "transactionHash": "0x86090060dd347bd54a6479be0a844f823c2f2ff97f505b9be360282cc7b911cb",
      "transactionIndex": "0x1",
      "blockHash": "0xf464ec2aff1922b9a84438feb5f932a2634f1dd0394bbcf4abe65de114b14cd7",
      "blockNumber": "0x5891bab",
      "gasUsed": "0xc850",
      "effectiveGasPrice": "0x5f5e100",
      "from": "0xe82d3b9473f0a06d6715581c336e18e949030da1",
      "to": "0x93a5007b03bf034f6833a35e05b6d0c1bc553ec1",
      "contractAddress": null,
      "gasUsedForL1": "0x6e4",
      "l1BlockNumber": "0x6a6b0a"
    },
    {
      "status": "0x1",
      "cumulativeGasUsed": "0xc850",
      "logs": [
        {
          "address": "0x93a5007b03bf034f6833a35e05b6d0c1bc553ec1",
          "topics": [
            "0xddf252ad1be2c89b69c2b068fc378daa952ba7f163c4a11628f55a4df523b3ef",
            "0x0000000000000000000000003a27719ef5f46c917680eb59ccd744aaa0998bd8",
            "0x00000000000000000000000009c3b4cd85a4d9a490c0fd6a8976d2d4e83e165b"
          ],
          "data": "0x0000000000000000000000000000000000000000000000001bc16d674ec80000",
          "blockHash": "0x3bf52599014fe03310f3ff3dea4a152eaa501c07997d33e7e2832a28b5cf5abe",
          "blockNumber": "0x5891bb0",
          "transactionHash": "0xf9a47e62694e1b88e212bb6ebe64f30461a095c656ec20dc0b865304914c69a5",
          "transactionIndex": "0x1",
          "logIndex": "0x0",
          "removed": false
        },
        {
          "address": "0x93a5007b03bf034f6833a35e05b6d0c1bc553ec1",
          "topics": [
            "0x7e1b4577399017960fc6a1284e846e5682b112a94c7c1e28afa6dc3031324a29",
            "0x0000000000000000000000003a27719ef5f46c917680eb59ccd744aaa0998bd8",
            "0x00000000000000000000000009c3b4cd85a4d9a490c0fd6a8976d2d4e83e165b"
          ],
          "data": "0x0000000000000000000000000000000000000000000000001bc16d674ec800000000000000000000000000000000000000000000000000000000000000000000000000000000000000000000000000000000000000000000000000006721aeac",
          "blockHash": "0x3bf52599014fe03310f3ff3dea4a152eaa501c07997d33e7e2832a28b5cf5abe",
          "blockNumber": "0x5891bb0",
          "transactionHash": "0xf9a47e62694e1b88e212bb6ebe64f30461a095c656ec20dc0b865304914c69a5",
          "transactionIndex": "0x1",
          "logIndex": "0x1",
          "removed": false
        }
      ],
      "logsBloom": "0x00000000000000000000000000000000080000000000800000800000000000000000000000000000000008000000004000400000000000000000000000000000000000000000000000000008000000000000000000000000000000000000000000004000000000000000000000000000000000000000000000000010000000000000000000000000000000000001000000000000000000000000000000000000000000000000000000000000000000004000000000000000000000000000008000000002000000000000000000000000000000000000000000000000080000000000000000000000000000000000000000000000000000000000040000000000",
      "type": "0x2",
      "transactionHash": "0xf9a47e62694e1b88e212bb6ebe64f30461a095c656ec20dc0b865304914c69a5",
      "transactionIndex": "0x1",
      "blockHash": "0x3bf52599014fe03310f3ff3dea4a152eaa501c07997d33e7e2832a28b5cf5abe",
      "blockNumber": "0x5891bb0",
      "gasUsed": "0xc850",
      "effectiveGasPrice": "0x5f5e100",
      "from": "0x3a27719ef5f46c917680eb59ccd744aaa0998bd8",
      "to": "0x93a5007b03bf034f6833a35e05b6d0c1bc553ec1",
      "contractAddress": null,
      "gasUsedForL1": "0x6e4",
      "l1BlockNumber": "0x6a6b0a"
    },
    {
      "status": "0x1",
      "cumulativeGasUsed": "0xe788",
      "logs": [
        {
          "address": "0x93a5007b03bf034f6833a35e05b6d0c1bc553ec1",
          "topics": [
            "0xddf252ad1be2c89b69c2b068fc378daa952ba7f163c4a11628f55a4df523b3ef",
            "0x00000000000000000000000009c3b4cd85a4d9a490c0fd6a8976d2d4e83e165b",
            "0x000000000000000000000000f4e9e57b57d5d58834164a01a1fbd36a68dac47e"
          ],
          "data": "0x00000000000000000000000000000000000000000000000029378f43a6e90000",
          "blockHash": "0x4715b42bdd57f6e3a087a6638c65e93e4d6a3cc7a3462a39728ad98d920a878e",
          "blockNumber": "0x5891bb5",
          "transactionHash": "0x864e2c9cce3982e78da5453cc959c4b18bab3f03dfd372a53ccf29bde9e539b5",
          "transactionIndex": "0x1",
          "logIndex": "0x0",
          "removed": false
        },
        {
          "address": "0x93a5007b03bf034f6833a35e05b6d0c1bc553ec1",
          "topics": [
            "0xddf252ad1be2c89b69c2b068fc378daa952ba7f163c4a11628f55a4df523b3ef",
            "0x00000000000000000000000009c3b4cd85a4d9a490c0fd6a8976d2d4e83e165b",
            "0x000000000000000000000000e82d3b9473f0a06d6715581c336e18e949030da1"
          ],
          "data": "0x000000000000000000000000000000000000000000000000006a94d74f430000",
          "blockHash": "0x4715b42bdd57f6e3a087a6638c65e93e4d6a3cc7a3462a39728ad98d920a878e",
          "blockNumber": "0x5891bb5",
          "transactionHash": "0x864e2c9cce3982e78da5453cc959c4b18bab3f03dfd372a53ccf29bde9e539b5",
          "transactionIndex": "0x1",
          "logIndex": "0x1",
          "removed": false
        },
        {
          "address": "0x93a5007b03bf034f6833a35e05b6d0c1bc553ec1",
          "topics": [
            "0x7e1b4577399017960fc6a1284e846e5682b112a94c7c1e28afa6dc3031324a29",
            "0x00000000000000000000000009c3b4cd85a4d9a490c0fd6a8976d2d4e83e165b",
            "0x000000000000000000000000f4e9e57b57d5d58834164a01a1fbd36a68dac47e"
          ],
          "data": "0x00000000000000000000000000000000000000000000000029378f43a6e90000000000000000000000000000000000000000000000000000006a94d74f430000000000000000000000000000000000000000000000000000000000006721aead",
          "blockHash": "0x4715b42bdd57f6e3a087a6638c65e93e4d6a3cc7a3462a39728ad98d920a878e",
          "blockNumber": "0x5891bb5",
          "transactionHash": "0x864e2c9cce3982e78da5453cc959c4b18bab3f03dfd372a53ccf29bde9e539b5",
          "transactionIndex": "0x1",
          "logIndex": "0x2",
          "removed": false
        }
      ],
      "logsBloom": "0x00000040000000000000000000000000080000000000800000800000000000000000000000000000000008000000004000400000000000000000000000000000000000000000000000000008000000000000000000000000000000000000000000004000040000000000000000000000000000000000000000000010000000000000000000000000000000000000001000000000000000100000000000000000000000000000000008000001000000004000000000000000000000000000000000000002000000000000000000000000000000000000000000000000080000000000000000000000000000000000000000000000000000000000000000000000",
      "type": "0x2",
      "transactionHash": "0x864e2c9cce3982e78da5453cc959c4b18bab3f03dfd372a53ccf29bde9e539b5",
      "transactionIndex": "0x1",
      "blockHash": "0x4715b42bdd57f6e3a087a6638c65e93e4d6a3cc7a3462a39728ad98d920a878e",
      "blockNumber": "0x5891bb5",
      "gasUsed": "0xe788",
      "effectiveGasPrice": "0x5f5e100",
      "from": "0x09c3b4cd85a4d9a490c0fd6a8976d2d4e83e165b",
      "to": "0x93a5007b03bf034f6833a35e05b6d0c1bc553ec1",
      "contractAddress": null,
      "gasUsedForL1": "0x6e4",
      "l1BlockNumber": "0x6a6b0a"
    },
    {
      "status": "0x1",
      "cumulativeGasUsed": "0xe788",
      "logs": [
        {
          "address": "0x93a5007b03bf034f6833a35e05b6d0c1bc553ec1",
          "topics": [
            "0xddf252ad1be2c89b69c2b068fc378daa952ba7f163c4a11628f55a4df523b3ef",
            "0x000000000000000000000000f4e9e57b57d5d58834164a01a1fbd36a68dac47e",
            "0x000000000000000000000000dac88f55d8bd5c041a02a281f4ca2f3f1cb4a0f3"
          ],
          "data": "0x0000000000000000000000000000000000000000000000007ba6adcaf4bb0000",
          "blockHash": "0x7423e7957a0f8f1db5efb27944aad21ff83819140c5e4d176bf728bb174fd001",
          "blockNumber": "0x5891bb8",
          "transactionHash": "0xbba58cee1383a419e454d46ced959baf7c3d38cc59ad014462f0e95682abf0aa",
          "transactionIndex": "0x1",
          "logIndex": "0x0",
          "removed": false
        },
        {
          "address": "0x93a5007b03bf034f6833a35e05b6d0c1bc553ec1",
          "topics": [
            "0xddf252ad1be2c89b69c2b068fc378daa952ba7f163c4a11628f55a4df523b3ef",
            "0x000000000000000000000000f4e9e57b57d5d58834164a01a1fbd36a68dac47e",
            "0x000000000000000000000000e82d3b9473f0a06d6715581c336e18e949030da1"
          ],
          "data": "0x000000000000000000000000000000000000000000000000013fbe85edc90000",
          "blockHash": "0x7423e7957a0f8f1db5efb27944aad21ff83819140c5e4d176bf728bb174fd001",
          "blockNumber": "0x5891bb8",
          "transactionHash": "0xbba58cee1383a419e454d46ced959baf7c3d38cc59ad014462f0e95682abf0aa",
          "transactionIndex": "0x1",
          "logIndex": "0x1",
          "removed": false
        },
        {
          "address": "0x93a5007b03bf034f6833a35e05b6d0c1bc553ec1",
          "topics": [
            "0x7e1b4577399017960fc6a1284e846e5682b112a94c7c1e28afa6dc3031324a29",
            "0x000000000000000000000000f4e9e57b57d5d58834164a01a1fbd36a68dac47e",
            "0x000000000000000000000000dac88f55d8bd5c041a02a281f4ca2f3f1cb4a0f3"
          ],
          "data": "0x0000000000000000000000000000000000000000000000007ba6adcaf4bb0000000000000000000000000000000000000000000000000000013fbe85edc90000000000000000000000000000000000000000000000000000000000006721aeae",
          "blockHash": "0x7423e7957a0f8f1db5efb27944aad21ff83819140c5e4d176bf728bb174fd001",
          "blockNumber": "0x5891bb8",
          "transactionHash": "0xbba58cee1383a419e454d46ced959baf7c3d38cc59ad014462f0e95682abf0aa",
          "transactionIndex": "0x1",
          "logIndex": "0x2",
          "removed": false
        }
      ],
      "logsBloom": "0x00000040000000000000000000000000080000000000800000000000000000000000000000000000001008000000000000400000000000000000000000000000000000000000000000020008000000000000000000000000000000000000000000004000040000000000000000000000000000000000000000000010000000000000000000000000000000000000001000000000000000100000000000000000000000000000000008000001000000020000000000000000000000000000000000000002000000000000000000000000000000000000000000000000080000000000000000000000000000000000000000000000000000000000000000000000",
      "type": "0x2",
      "transactionHash": "0xbba58cee1383a419e454d46ced959baf7c3d38cc59ad014462f0e95682abf0aa",
      "transactionIndex": "0x1",
      "blockHash": "0x7423e7957a0f8f1db5efb27944aad21ff83819140c5e4d176bf728bb174fd001",
      "blockNumber": "0x5891bb8",
      "gasUsed": "0xe788",
      "effectiveGasPrice": "0x5f5e100",
      "from": "0xf4e9e57b57d5d58834164a01a1fbd36a68dac47e",
      "to": "0x93a5007b03bf034f6833a35e05b6d0c1bc553ec1",
      "contractAddress": null,
      "gasUsedForL1": "0x6e4",
      "l1BlockNumber": "0x6a6b0a"
    },
    {
      "status": "0x1",
      "cumulativeGasUsed": "0xd888",
      "logs": [
        {
          "address": "0x93a5007b03bf034f6833a35e05b6d0c1bc553ec1",
          "topics": [
            "0xddf252ad1be2c89b69c2b068fc378daa952ba7f163c4a11628f55a4df523b3ef",
            "0x000000000000000000000000dac88f55d8bd5c041a02a281f4ca2f3f1cb4a0f3",
            "0x000000000000000000000000e82d3b9473f0a06d6715581c336e18e949030da1"
          ],
          "data": "0x000000000000000000000000000000000000000000000000526f1e874dd20000",
          "blockHash": "0xe5b9f92ec09bcbdc687e975a6b6b82aa73afab3b31f556f2561f9217b286b1ec",
          "blockNumber": "0x5891bbc",
          "transactionHash": "0x6c1d03817017a3362849f019cbdd47117c95866cc216b79d12b38b6274d7515c",
          "transactionIndex": "0x1",
          "logIndex": "0x0",
          "removed": false
        },
        {
          "address": "0x93a5007b03bf034f6833a35e05b6d0c1bc553ec1",
          "topics": [
            "0xddf252ad1be2c89b69c2b068fc378daa952ba7f163c4a11628f55a4df523b3ef",
            "0x000000000000000000000000dac88f55d8bd5c041a02a281f4ca2f3f1cb4a0f3",
            "0x000000000000000000000000e82d3b9473f0a06d6715581c336e18e949030da1"
          ],
          "data": "0x00000000000000000000000000000000000000000000000000d529ae9e860000",
          "blockHash": "0xe5b9f92ec09bcbdc687e975a6b6b82aa73afab3b31f556f2561f9217b286b1ec",
          "blockNumber": "0x5891bbc",
          "transactionHash": "0x6c1d03817017a3362849f019cbdd47117c95866cc216b79d12b38b6274d7515c",
          "transactionIndex": "0x1",
          "logIndex": "0x1",
          "removed": false
        },
        {
          "address": "0x93a5007b03bf034f6833a35e05b6d0c1bc553ec1",
          "topics": [
            "0x7e1b4577399017960fc6a1284e846e5682b112a94c7c1e28afa6dc3031324a29",
            "0x000000000000000000000000dac88f55d8bd5c041a02a281f4ca2f3f1cb4a0f3",
            "0x000000000000000000000000e82d3b9473f0a06d6715581c336e18e949030da1"
          ],
          "data": "0x000000000000000000000000000000000000000000000000526f1e874dd2000000000000000000000000000000000000000000000000000000d529ae9e860000000000000000000000000000000000000000000000000000000000006721aeaf",
          "blockHash": "0xe5b9f92ec09bcbdc687e975a6b6b82aa73afab3b31f556f2561f9217b286b1ec",
          "blockNumber": "0x5891bbc",
          "transactionHash": "0x6c1d03817017a3362849f019cbdd47117c95866cc216b79d12b38b6274d7515c",
          "transactionIndex": "0x1",
          "logIndex": "0x2",
          "removed": false
        }
      ],
      "logsBloom": "0x00000000000000000000000000000000080000000000800000000000000000000000000000000000001008000000000000400000000000000000000000000000000000000000000000020008000000000000000000000000000000000000000000004000040000000000000000000000000000000000000000000010000000000000000000000000000000000000001000000000000000000000000000000000000000000000000008000000000000020000000000000000000000000000000000000002000000000000000000000000000000000000000000000000080000000000000000000000000000000000000000000000000000000000000000000000",
      "type": "0x2",
      "transactionHash": "0x6c1d03817017a3362849f019cbdd47117c95866cc216b79d12b38b6274d7515c",
      "transactionIndex": "0x1",
      "blockHash": "0xe5b9f92ec09bcbdc687e975a6b6b82aa73afab3b31f556f2561f9217b286b1ec",
      "blockNumber": "0x5891bbc",
      "gasUsed": "0xd888",
      "effectiveGasPrice": "0x5f5e100",
      "from": "0xdac88f55d8bd5c041a02a281f4ca2f3f1cb4a0f3",
      "to": "0x93a5007b03bf034f6833a35e05b6d0c1bc553ec1",
      "contractAddress": null,
      "gasUsedForL1": "0x6e4",
      "l1BlockNumber": "0x6a6b0a"
    }
  ],
  "libraries": [],
  "pending": [],
  "returns": {},
  "timestamp": 1730260655,
  "chain": 421614,
  "commit": "056e1e4"
}