{
  "transactions": [
    {
      "hash": "0x7b446e2652155e20c55d480fead9e5724c80602530e65c1215a0cfa0e1eb2650",
      "transactionType": "CALL",
      "contractName": null,
      "contractAddress": "0x93a5007b03bf034f6833a35e05b6d0c1bc553ec1",
      "function": "transfer(address,uint256)",
      "arguments": [
        "0x3a27719ef5f46c917680eb59cCD744aaa0998Bd8",
        "7000000000000000000"
      ],
      "transaction": {
        "from": "0xe82d3b9473f0a06d6715581c336e18e949030da1",
        "to": "0x93a5007b03bf034f6833a35e05b6d0c1bc553ec1",
        "gas": "0x14be9",
        "value": "0x0",
        "input": "0xa9059cbb0000000000000000000000003a27719ef5f46c917680eb59ccd744aaa0998bd80000000000000000000000000000000000000000000000006124fee993bc0000",
        "nonce": "0x62",
        "chainId": "0x66eee"
      },
      "additionalContracts": [],
      "isFixedGasLimit": false
    },
    {
      "hash": "0xde1c7acc02e85c42d4b1e3a9ab6fe05d5e45dba224794f167c0e1ee0d3232415",
      "transactionType": "CALL",
      "contractName": null,
      "contractAddress": "0x93a5007b03bf034f6833a35e05b6d0c1bc553ec1",
      "function": "transfer(address,uint256)",
      "arguments": [
        "0x09c3B4Cd85a4D9A490c0fd6a8976D2d4e83E165b",
        "2000000000000000000"
      ],
      "transaction": {
        "from": "0x3a27719ef5f46c917680eb59ccd744aaa0998bd8",
        "to": "0x93a5007b03bf034f6833a35e05b6d0c1bc553ec1",
        "gas": "0x14be8",
        "value": "0x0",
        "input": "0xa9059cbb00000000000000000000000009c3b4cd85a4d9a490c0fd6a8976d2d4e83e165b0000000000000000000000000000000000000000000000001bc16d674ec80000",
        "nonce": "0x5",
        "chainId": "0x66eee"
      },
      "additionalContracts": [],
      "isFixedGasLimit": false
    },
    {
      "hash": "0x74687fbf90cf6c67cb9bad83cfe63ab804676db1b03183a585546266ac973c62",
      "transactionType": "CALL",
      "contractName": null,
      "contractAddress": "0x93a5007b03bf034f6833a35e05b6d0c1bc553ec1",
      "function": "transfer(address,uint256)",
      "arguments": [
        "0xF4e9e57b57D5D58834164A01a1FbD36A68daC47E",
        "6000000000000000000"
      ],
      "transaction": {
        "from": "0x09c3b4cd85a4d9a490c0fd6a8976d2d4e83e165b",
        "to": "0x93a5007b03bf034f6833a35e05b6d0c1bc553ec1",
        "gas": "0x17e27",
        "value": "0x0",
        "input": "0xa9059cbb000000000000000000000000f4e9e57b57d5d58834164a01a1fbd36a68dac47e00000000000000000000000000000000000000000000000053444835ec580000",
        "nonce": "0x3",
        "chainId": "0x66eee"
      },
      "additionalContracts": [],
      "isFixedGasLimit": false
    },
    {
      "hash": "0x6dd24c5b50b0d7691632fe21c58ffb2ed754215e994bb2ecf072ffdbb12dc8e6",
      "transactionType": "CALL",
      "contractName": null,
      "contractAddress": "0x93a5007b03bf034f6833a35e05b6d0c1bc553ec1",
      "function": "transfer(address,uint256)",
      "arguments": [
        "0xdaC88f55d8BD5C041a02a281F4ca2F3F1cb4A0f3",
        "6000000000000000000"
      ],
      "transaction": {
        "from": "0xf4e9e57b57d5d58834164a01a1fbd36a68dac47e",
        "to": "0x93a5007b03bf034f6833a35e05b6d0c1bc553ec1",
        "gas": "0x17e27",
        "value": "0x0",
        "input": "0xa9059cbb000000000000000000000000dac88f55d8bd5c041a02a281f4ca2f3f1cb4a0f300000000000000000000000000000000000000000000000053444835ec580000",
        "nonce": "0x1",
        "chainId": "0x66eee"
      },
      "additionalContracts": [],
      "isFixedGasLimit": false
    },
    {
      "hash": "0x8d9923de77538f637a87b5ae50b4b1432569ec60cded250a7b6c4e84d12af432",
      "transactionType": "CALL",
      "contractName": null,
      "contractAddress": "0x93a5007b03bf034f6833a35e05b6d0c1bc553ec1",
      "function": "transfer(address,uint256)",
      "arguments": [
        "0xe82d3B9473F0A06D6715581C336E18E949030da1",
        "4000000000000000000"
      ],
      "transaction": {
        "from": "0xdac88f55d8bd5c041a02a281f4ca2f3f1cb4a0f3",
        "to": "0x93a5007b03bf034f6833a35e05b6d0c1bc553ec1",
        "gas": "0x16602",
        "value": "0x0",
        "input": "0xa9059cbb000000000000000000000000e82d3b9473f0a06d6715581c336e18e949030da10000000000000000000000000000000000000000000000003782dace9d900000",
        "nonce": "0x2",
        "chainId": "0x66eee"
      },
      "additionalContracts": [],
      "isFixedGasLimit": false
    }
  ],
  "receipts": [
    {
      "status": "0x1",
      "cumulativeGasUsed": "0xc40b",
      "logs": [
        {
          "address": "0x93a5007b03bf034f6833a35e05b6d0c1bc553ec1",
          "topics": [
            "0xddf252ad1be2c89b69c2b068fc378daa952ba7f163c4a11628f55a4df523b3ef",
            "0x000000000000000000000000e82d3b9473f0a06d6715581c336e18e949030da1",
            "0x0000000000000000000000003a27719ef5f46c917680eb59ccd744aaa0998bd8"
          ],
          "data": "0x0000000000000000000000000000000000000000000000006124fee993bc0000",
          "blockHash": "0xd60e7fb0cafa02434f6bfd931198ea966536839f9b53d6bcd6a78700af0632e0",
          "blockNumber": "0x588df1a",
          "transactionHash": "0x7b446e2652155e20c55d480fead9e5724c80602530e65c1215a0cfa0e1eb2650",
          "transactionIndex": "0x1",
          "logIndex": "0x0",
          "removed": false
        },
        {
          "address": "0x93a5007b03bf034f6833a35e05b6d0c1bc553ec1",
          "topics": [
            "0x7e1b4577399017960fc6a1284e846e5682b112a94c7c1e28afa6dc3031324a29",
            "0x000000000000000000000000e82d3b9473f0a06d6715581c336e18e949030da1",
            "0x0000000000000000000000003a27719ef5f46c917680eb59ccd744aaa0998bd8"
          ],
          "data": "0x0000000000000000000000000000000000000000000000006124fee993bc000000000000000000000000000000000000000000000000000000000000000000000000000000000000000000000000000000000000000000000000000067219cfa",
          "blockHash": "0xd60e7fb0cafa02434f6bfd931198ea966536839f9b53d6bcd6a78700af0632e0",
          "blockNumber": "0x588df1a",
          "transactionHash": "0x7b446e2652155e20c55d480fead9e5724c80602530e65c1215a0cfa0e1eb2650",
          "transactionIndex": "0x1",
          "logIndex": "0x1",
          "removed": false
        }
      ],
      "logsBloom": "0x00000000000000000000000000000000080000000000800000000000000000000000000000000000000008000000000000400000000000000000000000000000000000000000000000000008000000000000000000000000000000000000000000004000040000000000000000000000000000000000000000000010000000000000000000000000000000000001001000000000000000000000000000000000000000000000000008000000000000000000000000000000000000000000008000000002000000000000000000000000000000000000000000000000080000000000000000000000000000000000000000000000000000000000040000000000",
      "type": "0x2",
      "transactionHash": "0x7b446e2652155e20c55d480fead9e5724c80602530e65c1215a0cfa0e1eb2650",
      "transactionIndex": "0x1",
      "blockHash": "0xd60e7fb0cafa02434f6bfd931198ea966536839f9b53d6bcd6a78700af0632e0",
      "blockNumber": "0x588df1a",
      "gasUsed": "0xc40b",
      "effectiveGasPrice": "0x84416c0",
      "from": "0xe82d3b9473f0a06d6715581c336e18e949030da1",
      "to": "0x93a5007b03bf034f6833a35e05b6d0c1bc553ec1",
      "contractAddress": null,
      "gasUsedForL1": "0x29f",
      "l1BlockNumber": "0x6a69ab"
    },
    {
      "status": "0x1",
      "cumulativeGasUsed": "0xc408",
      "logs": [
        {
          "address": "0x93a5007b03bf034f6833a35e05b6d0c1bc553ec1",
          "topics": [
            "0xddf252ad1be2c89b69c2b068fc378daa952ba7f163c4a11628f55a4df523b3ef",
            "0x0000000000000000000000003a27719ef5f46c917680eb59ccd744aaa0998bd8",
            "0x00000000000000000000000009c3b4cd85a4d9a490c0fd6a8976d2d4e83e165b"
          ],
          "data": "0x0000000000000000000000000000000000000000000000001bc16d674ec80000",
          "blockHash": "0x68a14b1821cdb5c470c01d74d493429512dceb0dd1d662606de630364513fc40",
          "blockNumber": "0x588df1f",
          "transactionHash": "0xde1c7acc02e85c42d4b1e3a9ab6fe05d5e45dba224794f167c0e1ee0d3232415",
          "transactionIndex": "0x1",
          "logIndex": "0x0",
          "removed": false
        },
        {
          "address": "0x93a5007b03bf034f6833a35e05b6d0c1bc553ec1",
          "topics": [
            "0x7e1b4577399017960fc6a1284e846e5682b112a94c7c1e28afa6dc3031324a29",
            "0x0000000000000000000000003a27719ef5f46c917680eb59ccd744aaa0998bd8",
            "0x00000000000000000000000009c3b4cd85a4d9a490c0fd6a8976d2d4e83e165b"
          ],
          "data": "0x0000000000000000000000000000000000000000000000001bc16d674ec8000000000000000000000000000000000000000000000000000000000000000000000000000000000000000000000000000000000000000000000000000067219cfb",
          "blockHash": "0x68a14b1821cdb5c470c01d74d493429512dceb0dd1d662606de630364513fc40",
          "blockNumber": "0x588df1f",
          "transactionHash": "0xde1c7acc02e85c42d4b1e3a9ab6fe05d5e45dba224794f167c0e1ee0d3232415",
          "transactionIndex": "0x1",
          "logIndex": "0x1",
          "removed": false
        }
      ],
      "logsBloom": "0x00000000000000000000000000000000080000000000800000800000000000000000000000000000000008000000004000400000000000000000000000000000000000000000000000000008000000000000000000000000000000000000000000004000000000000000000000000000000000000000000000000010000000000000000000000000000000000001000000000000000000000000000000000000000000000000000000000000000000004000000000000000000000000000008000000002000000000000000000000000000000000000000000000000080000000000000000000000000000000000000000000000000000000000040000000000",
      "type": "0x2",
      "transactionHash": "0xde1c7acc02e85c42d4b1e3a9ab6fe05d5e45dba224794f167c0e1ee0d3232415",
      "transactionIndex": "0x1",
      "blockHash": "0x68a14b1821cdb5c470c01d74d493429512dceb0dd1d662606de630364513fc40",
      "blockNumber": "0x588df1f",
      "gasUsed": "0xc408",
      "effectiveGasPrice": "0x84ec520",
      "from": "0x3a27719ef5f46c917680eb59ccd744aaa0998bd8",
      "to": "0x93a5007b03bf034f6833a35e05b6d0c1bc553ec1",
      "contractAddress": null,
      "gasUsedForL1": "0x29c",
      "l1BlockNumber": "0x6a69ad"
    },
    {
      "status": "0x1",
      "cumulativeGasUsed": "0xe332",
      "logs": [
        {
          "address": "0x93a5007b03bf034f6833a35e05b6d0c1bc553ec1",
          "topics": [
            "0xddf252ad1be2c89b69c2b068fc378daa952ba7f163c4a11628f55a4df523b3ef",
            "0x00000000000000000000000009c3b4cd85a4d9a490c0fd6a8976d2d4e83e165b",
            "0x000000000000000000000000f4e9e57b57d5d58834164a01a1fbd36a68dac47e"
          ],
          "data": "0x000000000000000000000000000000000000000000000000526f1e874dd20000",
          "blockHash": "0xeb0aa79904c7531fd06b50649902c23f8742052730b8db9368f889b2049adc6b",
          "blockNumber": "0x588df24",
          "transactionHash": "0x74687fbf90cf6c67cb9bad83cfe63ab804676db1b03183a585546266ac973c62",
          "transactionIndex": "0x1",
          "logIndex": "0x0",
          "removed": false
        },
        {
          "address": "0x93a5007b03bf034f6833a35e05b6d0c1bc553ec1",
          "topics": [
            "0xddf252ad1be2c89b69c2b068fc378daa952ba7f163c4a11628f55a4df523b3ef",
            "0x00000000000000000000000009c3b4cd85a4d9a490c0fd6a8976d2d4e83e165b",
            "0x000000000000000000000000e82d3b9473f0a06d6715581c336e18e949030da1"
          ],
          "data": "0x00000000000000000000000000000000000000000000000000d529ae9e860000",
          "blockHash": "0xeb0aa79904c7531fd06b50649902c23f8742052730b8db9368f889b2049adc6b",
          "blockNumber": "0x588df24",
          "transactionHash": "0x74687fbf90cf6c67cb9bad83cfe63ab804676db1b03183a585546266ac973c62",
          "transactionIndex": "0x1",
          "logIndex": "0x1",
          "removed": false
        },
        {
          "address": "0x93a5007b03bf034f6833a35e05b6d0c1bc553ec1",
          "topics": [
            "0x7e1b4577399017960fc6a1284e846e5682b112a94c7c1e28afa6dc3031324a29",
            "0x00000000000000000000000009c3b4cd85a4d9a490c0fd6a8976d2d4e83e165b",
            "0x000000000000000000000000f4e9e57b57d5d58834164a01a1fbd36a68dac47e"
          ],
          "data": "0x000000000000000000000000000000000000000000000000526f1e874dd2000000000000000000000000000000000000000000000000000000d529ae9e8600000000000000000000000000000000000000000000000000000000000067219cfc",
          "blockHash": "0xeb0aa79904c7531fd06b50649902c23f8742052730b8db9368f889b2049adc6b",
          "blockNumber": "0x588df24",
          "transactionHash": "0x74687fbf90cf6c67cb9bad83cfe63ab804676db1b03183a585546266ac973c62",
          "transactionIndex": "0x1",
          "logIndex": "0x2",
          "removed": false
        }
      ],
      "logsBloom": "0x00000040000000000000000000000000080000000000800000800000000000000000000000000000000008000000004000400000000000000000000000000000000000000000000000000008000000000000000000000000000000000000000000004000040000000000000000000000000000000000000000000010000000000000000000000000000000000000001000000000000000100000000000000000000000000000000008000001000000004000000000000000000000000000000000000002000000000000000000000000000000000000000000000000080000000000000000000000000000000000000000000000000000000000000000000000",
      "type": "0x2",
      "transactionHash": "0x74687fbf90cf6c67cb9bad83cfe63ab804676db1b03183a585546266ac973c62",
      "transactionIndex": "0x1",
      "blockHash": "0xeb0aa79904c7531fd06b50649902c23f8742052730b8db9368f889b2049adc6b",
      "blockNumber": "0x588df24",
      "gasUsed": "0xe332",
      "effectiveGasPrice": "0x87b2c50",
      "from": "0x09c3b4cd85a4d9a490c0fd6a8976d2d4e83e165b",
      "to": "0x93a5007b03bf034f6833a35e05b6d0c1bc553ec1",
      "contractAddress": null,
      "gasUsedForL1": "0x28e",
      "l1BlockNumber": "0x6a69ad"
    },
    {
      "status": "0x1",
      "cumulativeGasUsed": "0xe338",
      "logs": [
        {
          "address": "0x93a5007b03bf034f6833a35e05b6d0c1bc553ec1",
          "topics": [
            "0xddf252ad1be2c89b69c2b068fc378daa952ba7f163c4a11628f55a4df523b3ef",
            "0x000000000000000000000000f4e9e57b57d5d58834164a01a1fbd36a68dac47e",
            "0x000000000000000000000000dac88f55d8bd5c041a02a281f4ca2f3f1cb4a0f3"
          ],
          "data": "0x000000000000000000000000000000000000000000000000526f1e874dd20000",
          "blockHash": "0xa07f1418f5be70f37feebc596f76b514e5e59966aa9927d242075fbda4651ca2",
          "blockNumber": "0x588df27",
          "transactionHash": "0x6dd24c5b50b0d7691632fe21c58ffb2ed754215e994bb2ecf072ffdbb12dc8e6",
          "transactionIndex": "0x1",
          "logIndex": "0x0",
          "removed": false
        },
        {
          "address": "0x93a5007b03bf034f6833a35e05b6d0c1bc553ec1",
          "topics": [
            "0xddf252ad1be2c89b69c2b068fc378daa952ba7f163c4a11628f55a4df523b3ef",
            "0x000000000000000000000000f4e9e57b57d5d58834164a01a1fbd36a68dac47e",
            "0x000000000000000000000000e82d3b9473f0a06d6715581c336e18e949030da1"
          ],
          "data": "0x00000000000000000000000000000000000000000000000000d529ae9e860000",
          "blockHash": "0xa07f1418f5be70f37feebc596f76b514e5e59966aa9927d242075fbda4651ca2",
          "blockNumber": "0x588df27",
          "transactionHash": "0x6dd24c5b50b0d7691632fe21c58ffb2ed754215e994bb2ecf072ffdbb12dc8e6",
          "transactionIndex": "0x1",
          "logIndex": "0x1",
          "removed": false
        },
        {
          "address": "0x93a5007b03bf034f6833a35e05b6d0c1bc553ec1",
          "topics": [
            "0x7e1b4577399017960fc6a1284e846e5682b112a94c7c1e28afa6dc3031324a29",
            "0x000000000000000000000000f4e9e57b57d5d58834164a01a1fbd36a68dac47e",
            "0x000000000000000000000000dac88f55d8bd5c041a02a281f4ca2f3f1cb4a0f3"
          ],
          "data": "0x000000000000000000000000000000000000000000000000526f1e874dd2000000000000000000000000000000000000000000000000000000d529ae9e8600000000000000000000000000000000000000000000000000000000000067219cfd",
          "blockHash": "0xa07f1418f5be70f37feebc596f76b514e5e59966aa9927d242075fbda4651ca2",
          "blockNumber": "0x588df27",
          "transactionHash": "0x6dd24c5b50b0d7691632fe21c58ffb2ed754215e994bb2ecf072ffdbb12dc8e6",
          "transactionIndex": "0x1",
          "logIndex": "0x2",
          "removed": false
        }
      ],
      "logsBloom": "0x00000040000000000000000000000000080000000000800000000000000000000000000000000000001008000000000000400000000000000000000000000000000000000000000000020008000000000000000000000000000000000000000000004000040000000000000000000000000000000000000000000010000000000000000000000000000000000000001000000000000000100000000000000000000000000000000008000001000000020000000000000000000000000000000000000002000000000000000000000000000000000000000000000000080000000000000000000000000000000000000000000000000000000000000000000000",
      "type": "0x2",
      "transactionHash": "0x6dd24c5b50b0d7691632fe21c58ffb2ed754215e994bb2ecf072ffdbb12dc8e6",
      "transactionIndex": "0x1",
      "blockHash": "0xa07f1418f5be70f37feebc596f76b514e5e59966aa9927d242075fbda4651ca2",
      "blockNumber": "0x588df27",
      "gasUsed": "0xe338",
      "effectiveGasPrice": "0x86867a0",
      "from": "0xf4e9e57b57d5d58834164a01a1fbd36a68dac47e",
      "to": "0x93a5007b03bf034f6833a35e05b6d0c1bc553ec1",
      "contractAddress": null,
      "gasUsedForL1": "0x294",
      "l1BlockNumber": "0x6a69ad"
    },
    {
      "status": "0x1",
      "cumulativeGasUsed": "0xd43e",
      "logs": [
        {
          "address": "0x93a5007b03bf034f6833a35e05b6d0c1bc553ec1",
          "topics": [
            "0xddf252ad1be2c89b69c2b068fc378daa952ba7f163c4a11628f55a4df523b3ef",
            "0x000000000000000000000000dac88f55d8bd5c041a02a281f4ca2f3f1cb4a0f3",
            "0x000000000000000000000000e82d3b9473f0a06d6715581c336e18e949030da1"
          ],
          "data": "0x00000000000000000000000000000000000000000000000036f4bf04de8c0000",
          "blockHash": "0x698818f241ad7fc416f790c60f8c9f23d00e27f6c9df575bdd9cdd810c564a75",
          "blockNumber": "0x588df2b",
          "transactionHash": "0x8d9923de77538f637a87b5ae50b4b1432569ec60cded250a7b6c4e84d12af432",
          "transactionIndex": "0x1",
          "logIndex": "0x0",
          "removed": false
        },
        {
          "address": "0x93a5007b03bf034f6833a35e05b6d0c1bc553ec1",
          "topics": [
            "0xddf252ad1be2c89b69c2b068fc378daa952ba7f163c4a11628f55a4df523b3ef",
            "0x000000000000000000000000dac88f55d8bd5c041a02a281f4ca2f3f1cb4a0f3",
            "0x000000000000000000000000e82d3b9473f0a06d6715581c336e18e949030da1"
          ],
          "data": "0x000000000000000000000000000000000000000000000000008e1bc9bf040000",
          "blockHash": "0x698818f241ad7fc416f790c60f8c9f23d00e27f6c9df575bdd9cdd810c564a75",
          "blockNumber": "0x588df2b",
          "transactionHash": "0x8d9923de77538f637a87b5ae50b4b1432569ec60cded250a7b6c4e84d12af432",
          "transactionIndex": "0x1",
          "logIndex": "0x1",
          "removed": false
        },
        {
          "address": "0x93a5007b03bf034f6833a35e05b6d0c1bc553ec1",
          "topics": [
            "0x7e1b4577399017960fc6a1284e846e5682b112a94c7c1e28afa6dc3031324a29",
            "0x000000000000000000000000dac88f55d8bd5c041a02a281f4ca2f3f1cb4a0f3",
            "0x000000000000000000000000e82d3b9473f0a06d6715581c336e18e949030da1"
          ],
          "data": "0x00000000000000000000000000000000000000000000000036f4bf04de8c0000000000000000000000000000000000000000000000000000008e1bc9bf0400000000000000000000000000000000000000000000000000000000000067219cff",
          "blockHash": "0x698818f241ad7fc416f790c60f8c9f23d00e27f6c9df575bdd9cdd810c564a75",
          "blockNumber": "0x588df2b",
          "transactionHash": "0x8d9923de77538f637a87b5ae50b4b1432569ec60cded250a7b6c4e84d12af432",
          "transactionIndex": "0x1",
          "logIndex": "0x2",
          "removed": false
        }
      ],
      "logsBloom": "0x00000000000000000000000000000000080000000000800000000000000000000000000000000000001008000000000000400000000000000000000000000000000000000000000000020008000000000000000000000000000000000000000000004000040000000000000000000000000000000000000000000010000000000000000000000000000000000000001000000000000000000000000000000000000000000000000008000000000000020000000000000000000000000000000000000002000000000000000000000000000000000000000000000000080000000000000000000000000000000000000000000000000000000000000000000000",
      "type": "0x2",
      "transactionHash": "0x8d9923de77538f637a87b5ae50b4b1432569ec60cded250a7b6c4e84d12af432",
      "transactionIndex": "0x1",
      "blockHash": "0x698818f241ad7fc416f790c60f8c9f23d00e27f6c9df575bdd9cdd810c564a75",
      "blockNumber": "0x588df2b",
      "gasUsed": "0xd43e",
      "effectiveGasPrice": "0x8552dc0",
      "from": "0xdac88f55d8bd5c041a02a281f4ca2f3f1cb4a0f3",
      "to": "0x93a5007b03bf034f6833a35e05b6d0c1bc553ec1",
      "contractAddress": null,
      "gasUsedForL1": "0x29a",
      "l1BlockNumber": "0x6a69ad"
    }
  ],
  "libraries": [],
  "pending": [],
  "returns": {},
  "timestamp": 1730256127,
  "chain": 421614,
  "commit": "056e1e4"
}