{
  "transactions": [
    {
      "hash": "0xc3a15f543929c7fee5fdb688ae980a486b027d621610bc44e7f67b6f39f1dd06",
      "transactionType": "CALL",
      "contractName": null,
      "contractAddress": "0x93a5007b03bf034f6833a35e05b6d0c1bc553ec1",
      "function": "transfer(address,uint256)",
      "arguments": [
        "0x3a27719ef5f46c917680eb59cCD744aaa0998Bd8",
        "1000000000000000000"
      ],
      "transaction": {
        "from": "0xe82d3b9473f0a06d6715581c336e18e949030da1",
        "to": "0x93a5007b03bf034f6833a35e05b6d0c1bc553ec1",
        "gas": "0x14942",
        "value": "0x0",
        "input": "0xa9059cbb0000000000000000000000003a27719ef5f46c917680eb59ccd744aaa0998bd80000000000000000000000000000000000000000000000000de0b6b3a7640000",
        "nonce": "0x5d",
        "chainId": "0x66eee"
      },
      "additionalContracts": [],
      "isFixedGasLimit": false
    },
    {
      "hash": "0x9980ec859432acf079b54cf25c47b1bea7d1e08bb61957a082d26dbaa4d6af3c",
      "transactionType": "CALL",
      "contractName": null,
      "contractAddress": "0x93a5007b03bf034f6833a35e05b6d0c1bc553ec1",
      "function": "transfer(address,uint256)",
      "arguments": [
        "0x09c3B4Cd85a4D9A490c0fd6a8976D2d4e83E165b",
        "8000000000000000000"
      ],
      "transaction": {
        "from": "0xe82d3b9473f0a06d6715581c336e18e949030da1",
        "to": "0x93a5007b03bf034f6833a35e05b6d0c1bc553ec1",
        "gas": "0x14941",
        "value": "0x0",
        "input": "0xa9059cbb00000000000000000000000009c3b4cd85a4d9a490c0fd6a8976d2d4e83e165b0000000000000000000000000000000000000000000000006f05b59d3b200000",
        "nonce": "0x5e",
        "chainId": "0x66eee"
      },
      "additionalContracts": [],
      "isFixedGasLimit": false
    },
    {
      "hash": "0x76a6ece001c4a75c0afc001717696365bf8307fed0a22a45ba36b9f5b54b5be8",
      "transactionType": "CALL",
      "contractName": null,
      "contractAddress": "0x93a5007b03bf034f6833a35e05b6d0c1bc553ec1",
      "function": "transfer(address,uint256)",
      "arguments": [
        "0xF4e9e57b57D5D58834164A01a1FbD36A68daC47E",
        "9000000000000000000"
      ],
      "transaction": {
        "from": "0xe82d3b9473f0a06d6715581c336e18e949030da1",
        "to": "0x93a5007b03bf034f6833a35e05b6d0c1bc553ec1",
        "gas": "0x1494a",
        "value": "0x0",
        "input": "0xa9059cbb000000000000000000000000f4e9e57b57d5d58834164a01a1fbd36a68dac47e0000000000000000000000000000000000000000000000007ce66c50e2840000",
        "nonce": "0x5f",
        "chainId": "0x66eee"
      },
      "additionalContracts": [],
      "isFixedGasLimit": false
    },
    {
      "hash": "0x0dab1d029d55a96ad2a98f20e2a86e3176a24f536338b93c0801519ac4606133",
      "transactionType": "CALL",
      "contractName": null,
      "contractAddress": "0x93a5007b03bf034f6833a35e05b6d0c1bc553ec1",
      "function": "transfer(address,uint256)",
      "arguments": [
        "0xdaC88f55d8BD5C041a02a281F4ca2F3F1cb4A0f3",
        "5000000000000000000"
      ],
      "transaction": {
        "from": "0xe82d3b9473f0a06d6715581c336e18e949030da1",
        "to": "0x93a5007b03bf034f6833a35e05b6d0c1bc553ec1",
        "gas": "0x1494a",
        "value": "0x0",
        "input": "0xa9059cbb000000000000000000000000dac88f55d8bd5c041a02a281f4ca2f3f1cb4a0f30000000000000000000000000000000000000000000000004563918244f40000",
        "nonce": "0x60",
        "chainId": "0x66eee"
      },
      "additionalContracts": [],
      "isFixedGasLimit": false
    }
  ],
  "receipts": [
    {
      "status": "0x1",
      "cumulativeGasUsed": "0xb8a9e",
      "logs": [
        {
          "address": "0x93a5007b03bf034f6833a35e05b6d0c1bc553ec1",
          "topics": [
            "0xddf252ad1be2c89b69c2b068fc378daa952ba7f163c4a11628f55a4df523b3ef",
            "0x000000000000000000000000e82d3b9473f0a06d6715581c336e18e949030da1",
            "0x0000000000000000000000003a27719ef5f46c917680eb59ccd744aaa0998bd8"
          ],
          "data": "0x0000000000000000000000000000000000000000000000000de0b6b3a7640000",
          "blockHash": "0x26d7c5860949bfbb24218d08c2bb8feea1524ef545e8f574c01c26f2e697885d",
          "blockNumber": "0x585e368",
          "transactionHash": "0xc3a15f543929c7fee5fdb688ae980a486b027d621610bc44e7f67b6f39f1dd06",
          "transactionIndex": "0x3",
          "logIndex": "0x8",
          "removed": false
        },
        {
          "address": "0x93a5007b03bf034f6833a35e05b6d0c1bc553ec1",
          "topics": [
            "0x7e1b4577399017960fc6a1284e846e5682b112a94c7c1e28afa6dc3031324a29",
            "0x000000000000000000000000e82d3b9473f0a06d6715581c336e18e949030da1",
            "0x0000000000000000000000003a27719ef5f46c917680eb59ccd744aaa0998bd8"
          ],
          "data": "0x0000000000000000000000000000000000000000000000000de0b6b3a76400000000000000000000000000000000000000000000000000000000000000000000000000000000000000000000000000000000000000000000000000006720c0af",
          "blockHash": "0x26d7c5860949bfbb24218d08c2bb8feea1524ef545e8f574c01c26f2e697885d",
          "blockNumber": "0x585e368",
          "transactionHash": "0xc3a15f543929c7fee5fdb688ae980a486b027d621610bc44e7f67b6f39f1dd06",
          "transactionIndex": "0x3",
          "logIndex": "0x9",
          "removed": false
        }
      ],
      "logsBloom": "0x00000000000000000000000000000000080000000000800000000000000000000000000000000000000008000000000000400000000000000000000000000000000000000000000000000008000000000000000000000000000000000000000000004000040000000000000000000000000000000000000000000010000000000000000000000000000000000001001000000000000000000000000000000000000000000000000008000000000000000000000000000000000000000000008000000002000000000000000000000000000000000000000000000000080000000000000000000000000000000000000000000000000000000000040000000000",
      "type": "0x2",
      "transactionHash": "0xc3a15f543929c7fee5fdb688ae980a486b027d621610bc44e7f67b6f39f1dd06",
      "transactionIndex": "0x3",
      "blockHash": "0x26d7c5860949bfbb24218d08c2bb8feea1524ef545e8f574c01c26f2e697885d",
      "blockNumber": "0x585e368",
      "gasUsed": "0xc2da",
      "effectiveGasPrice": "0xb770730",
      "from": "0xe82d3b9473f0a06d6715581c336e18e949030da1",
      "to": "0x93a5007b03bf034f6833a35e05b6d0c1bc553ec1",
      "contractAddress": null,
      "gasUsedForL1": "0x16e",
      "l1BlockNumber": "0x6a585b"
    },
    {
      "status": "0x1",
      "cumulativeGasUsed": "0x173c4",
      "logs": [
        {
          "address": "0x93a5007b03bf034f6833a35e05b6d0c1bc553ec1",
          "topics": [
            "0xddf252ad1be2c89b69c2b068fc378daa952ba7f163c4a11628f55a4df523b3ef",
            "0x000000000000000000000000e82d3b9473f0a06d6715581c336e18e949030da1",
            "0x00000000000000000000000009c3b4cd85a4d9a490c0fd6a8976d2d4e83e165b"
          ],
          "data": "0x0000000000000000000000000000000000000000000000006f05b59d3b200000",
          "blockHash": "0xca1387c7e16526513401b7ae7c10ed1fdce6d84cc665fcf6b978aa0c08529445",
          "blockNumber": "0x585e372",
          "transactionHash": "0x9980ec859432acf079b54cf25c47b1bea7d1e08bb61957a082d26dbaa4d6af3c",
          "transactionIndex": "0x2",
          "logIndex": "0x1",
          "removed": false
        },
        {
          "address": "0x93a5007b03bf034f6833a35e05b6d0c1bc553ec1",
          "topics": [
            "0x7e1b4577399017960fc6a1284e846e5682b112a94c7c1e28afa6dc3031324a29",
            "0x000000000000000000000000e82d3b9473f0a06d6715581c336e18e949030da1",
            "0x00000000000000000000000009c3b4cd85a4d9a490c0fd6a8976d2d4e83e165b"
          ],
          "data": "0x0000000000000000000000000000000000000000000000006f05b59d3b2000000000000000000000000000000000000000000000000000000000000000000000000000000000000000000000000000000000000000000000000000006720c0b1",
          "blockHash": "0xca1387c7e16526513401b7ae7c10ed1fdce6d84cc665fcf6b978aa0c08529445",
          "blockNumber": "0x585e372",
          "transactionHash": "0x9980ec859432acf079b54cf25c47b1bea7d1e08bb61957a082d26dbaa4d6af3c",
          "transactionIndex": "0x2",
          "logIndex": "0x2",
          "removed": false
        }
      ],
      "logsBloom": "0x00000000000000000000000000000000080000000000800000800000000000000000000000000000000008000000004000400000000000000000000000000000000000000000000000000008000000000000000000000000000000000000000000004000040000000000000000000000000000000000000000000010000000000000000000000000000000000000001000000000000000000000000000000000000000000000000008000000000000004000000000000000000000000000000000000002000000000000000000000000000000000000000000000000080000000000000000000000000000000000000000000000000000000000000000000000",
      "type": "0x2",
      "transactionHash": "0x9980ec859432acf079b54cf25c47b1bea7d1e08bb61957a082d26dbaa4d6af3c",
      "transactionIndex": "0x2",
      "blockHash": "0xca1387c7e16526513401b7ae7c10ed1fdce6d84cc665fcf6b978aa0c08529445",
      "blockNumber": "0x585e372",
      "gasUsed": "0xc2d0",
      "effectiveGasPrice": "0xbcdb2b0",
      "from": "0xe82d3b9473f0a06d6715581c336e18e949030da1",
      "to": "0x93a5007b03bf034f6833a35e05b6d0c1bc553ec1",
      "contractAddress": null,
      "gasUsedForL1": "0x164",
      "l1BlockNumber": "0x6a585b"
    },
    {
      "status": "0x1",
      "cumulativeGasUsed": "0xc2d2",
      "logs": [
        {
          "address": "0x93a5007b03bf034f6833a35e05b6d0c1bc553ec1",
          "topics": [
            "0xddf252ad1be2c89b69c2b068fc378daa952ba7f163c4a11628f55a4df523b3ef",
            "0x000000000000000000000000e82d3b9473f0a06d6715581c336e18e949030da1",
            "0x000000000000000000000000f4e9e57b57d5d58834164a01a1fbd36a68dac47e"
          ],
          "data": "0x0000000000000000000000000000000000000000000000007ce66c50e2840000",
          "blockHash": "0xa0f3872b967adc27b0139870d2b332a4038273afc01dc50314613dab1ac30448",
          "blockNumber": "0x585e377",
          "transactionHash": "0x76a6ece001c4a75c0afc001717696365bf8307fed0a22a45ba36b9f5b54b5be8",
          "transactionIndex": "0x1",
          "logIndex": "0x0",
          "removed": false
        },
        {
          "address": "0x93a5007b03bf034f6833a35e05b6d0c1bc553ec1",
          "topics": [
            "0x7e1b4577399017960fc6a1284e846e5682b112a94c7c1e28afa6dc3031324a29",
            "0x000000000000000000000000e82d3b9473f0a06d6715581c336e18e949030da1",
            "0x000000000000000000000000f4e9e57b57d5d58834164a01a1fbd36a68dac47e"
          ],
          "data": "0x0000000000000000000000000000000000000000000000007ce66c50e28400000000000000000000000000000000000000000000000000000000000000000000000000000000000000000000000000000000000000000000000000006720c0b3",
          "blockHash": "0xa0f3872b967adc27b0139870d2b332a4038273afc01dc50314613dab1ac30448",
          "blockNumber": "0x585e377",
          "transactionHash": "0x76a6ece001c4a75c0afc001717696365bf8307fed0a22a45ba36b9f5b54b5be8",
          "transactionIndex": "0x1",
          "logIndex": "0x1",
          "removed": false
        }
      ],
      "logsBloom": "0x00000040000000000000000000000000080000000000800000000000000000000000000000000000000008000000000000400000000000000000000000000000000000000000000000000008000000000000000000000000000000000000000000004000040000000000000000000000000000000000000000000010000000000000000000000000000000000000001000000000000000100000000000000000000000000000000008000001000000000000000000000000000000000000000000000002000000000000000000000000000000000000000000000000080000000000000000000000000000000000000000000000000000000000000000000000",
      "type": "0x2",
      "transactionHash": "0x76a6ece001c4a75c0afc001717696365bf8307fed0a22a45ba36b9f5b54b5be8",
      "transactionIndex": "0x1",
      "blockHash": "0xa0f3872b967adc27b0139870d2b332a4038273afc01dc50314613dab1ac30448",
      "blockNumber": "0x585e377",
      "gasUsed": "0xc2d2",
      "effectiveGasPrice": "0xbbd8610",
      "from": "0xe82d3b9473f0a06d6715581c336e18e949030da1",
      "to": "0x93a5007b03bf034f6833a35e05b6d0c1bc553ec1",
      "contractAddress": null,
      "gasUsedForL1": "0x166",
      "l1BlockNumber": "0x6a585c"
    },
    {
      "status": "0x1",
      "cumulativeGasUsed": "0xc2d4",
      "logs": [
        {
          "address": "0x93a5007b03bf034f6833a35e05b6d0c1bc553ec1",
          "topics": [
            "0xddf252ad1be2c89b69c2b068fc378daa952ba7f163c4a11628f55a4df523b3ef",
            "0x000000000000000000000000e82d3b9473f0a06d6715581c336e18e949030da1",
            "0x000000000000000000000000dac88f55d8bd5c041a02a281f4ca2f3f1cb4a0f3"
          ],
          "data": "0x0000000000000000000000000000000000000000000000004563918244f40000",
          "blockHash": "0xf7f84818d351296949a6430770e3680d25d2d5ba690e3b9fae111ddf50de0093",
          "blockNumber": "0x585e37b",
          "transactionHash": "0x0dab1d029d55a96ad2a98f20e2a86e3176a24f536338b93c0801519ac4606133",
          "transactionIndex": "0x1",
          "logIndex": "0x0",
          "removed": false
        },
        {
          "address": "0x93a5007b03bf034f6833a35e05b6d0c1bc553ec1",
          "topics": [
            "0x7e1b4577399017960fc6a1284e846e5682b112a94c7c1e28afa6dc3031324a29",
            "0x000000000000000000000000e82d3b9473f0a06d6715581c336e18e949030da1",
            "0x000000000000000000000000dac88f55d8bd5c041a02a281f4ca2f3f1cb4a0f3"
          ],
          "data": "0x0000000000000000000000000000000000000000000000004563918244f400000000000000000000000000000000000000000000000000000000000000000000000000000000000000000000000000000000000000000000000000006720c0b4",
          "blockHash": "0xf7f84818d351296949a6430770e3680d25d2d5ba690e3b9fae111ddf50de0093",
          "blockNumber": "0x585e37b",
          "transactionHash": "0x0dab1d029d55a96ad2a98f20e2a86e3176a24f536338b93c0801519ac4606133",
          "transactionIndex": "0x1",
          "logIndex": "0x1",
          "removed": false
        }
      ],
      "logsBloom": "0x00000000000000000000000000000000080000000000800000000000000000000000000000000000001008000000000000400000000000000000000000000000000000000000000000020008000000000000000000000000000000000000000000004000040000000000000000000000000000000000000000000010000000000000000000000000000000000000001000000000000000000000000000000000000000000000000008000000000000020000000000000000000000000000000000000002000000000000000000000000000000000000000000000000080000000000000000000000000000000000000000000000000000000000000000000000",
      "type": "0x2",
      "transactionHash": "0x0dab1d029d55a96ad2a98f20e2a86e3176a24f536338b93c0801519ac4606133",
      "transactionIndex": "0x1",
      "blockHash": "0xf7f84818d351296949a6430770e3680d25d2d5ba690e3b9fae111ddf50de0093",
      "blockNumber": "0x585e37b",
      "gasUsed": "0xc2d4",
      "effectiveGasPrice": "0xbab0f80",
      "from": "0xe82d3b9473f0a06d6715581c336e18e949030da1",
      "to": "0x93a5007b03bf034f6833a35e05b6d0c1bc553ec1",
      "contractAddress": null,
      "gasUsedForL1": "0x168",
      "l1BlockNumber": "0x6a585c"
    }
  ],
  "libraries": [],
  "pending": [],
  "returns": {},
  "timestamp": 1730199732,
  "chain": 421614,
  "commit": "056e1e4"
}